:10000000F2C500000C94060B0C94DB0A0C94B00AA9
:100010000C94850A0C945A0A0C942F0A0C94040A26
:100020000C94D90911C600000FC600000DC60000CF
:100030000BC6000009C6000007C6000005C6000088
:1000400003C6000001C60000FFC50000FDC500009A
:10005000FBC50000F9C50000F7C500000C948F092E
:10006000F3C500000C9482080C945908EDC50000FB
:10007000EBC50000E9C50000E7C50000E5C50000CC
:10008000E3C50000E1C50000DFC50000DDC50000DC
:10009000DBC50000D9C50000D7C500000C94920E46
:1000A000D3C50000D1C50000CFC50000CDC50000FC
:1000B000CBC50000C9C50000C7C50000C5C500000C
:1000C000C3C50000C1C50000BFC50000BDC500001C
:1000D000BBC50000B9C50000B7C50000B5C500002C
:1000E000B3C5000037073A0729072D073307710703
:1000F0003E07420748074C07500756075A075E0756
:100100007107640768076C07084AD73B3BCE016E4E
:1001100084BCBFFDC12F3D6C74319ABD56833DDA5E
:100120003D00C77F11BED9E4BB4C3E916BAAAABE6D
:10013000000000803F0001B202FFFF01900409238C
:10014000A135016A020600016008000000000000FD
:100150000000006004400000000162020000006036
:100160000400400000037B034CCD6C03AB03365608
:100170007600680402CB47A202180400058BC10177
:100180000C0400000000037F060CC92C979797030E
:100190008903264666006C0220000240040000002D
:1001A00000024404000000000248040000000002B5
:1001B0004C0400000000025004000000000254043F
:1001C0000000000002580400000000025C0400006F
:1001D000000002BC040000000001EC04000040002C
:1001E000037F060CC92C9797970402030D355D0415
:1001F0000904872D353D00A301000000000107869A
:1002000001FE074105F120283038077E01300746FE
:10021000019A074704F1283038076C04F128303878
:100220000216020001FB00003E000B003600010038
:10023000020003000000650054FFEF0000FA800098
:100240000B1282000100020000000000000000000C
:10025000000000000000280000FFFF4581FFFFFABA
:100260007200000000000003E80000000100017FB0
:10027000FFFFFE8001001B000000000000000000E6
:100280000000000000003E03304000000002CAE30E
:10029000093E800000200000000000000040000037
:1002A000006000000041FF000000000B2A00001663
:1002B0005500002182FD872650FD800000001F00B0
:1002C00000000580000000000000010000000200A6
:1002D0000000030000400000000000046F00026501
:1002E0003200005EC040000000000000000000007E
:1002F0000000000000FB8C6F5DFD5D08D9007C7381
:100300003B006C12CC3200139D3200D0D632000874
:1003100000400001F4FFE68079020000000000D0F8
:10032000D600002710FB0000004000000000000085
:1003300000000000000000000100000000000001BB
:1003400000010000000000FA36FFBC308E0005FB03
:10035000F0FFD95BC8FFD09ABE000010A9FFF41EC1
:10036000B200CEBBF7000000010000000400020054
:10037000020200000CFFC280000001800000CF805C
:100380000040000000000000010000000000000626
:100390000000000014000000000000000000000049
:1003A000000000000000000000000000000000004D
:1003B000000000000000000000000000000000003D
:1003C000000000000000000000033F68B6793528F7
:1003D000BCC67ED16C80000000400000000000B26E
:1003E0006A00000000000000000000000000003F64
:1003F000F0000000300000000000000000000000DD
:1004000000000000000000000000000000000000EC
:1004100000000000000000254D002F706D00000559
:10042000AE000C02D00000000000650054FFEF0099
:100430000000000000000001000044000000000C6B
:1004400000000001000000000000650000005400F2
:1004500000FFEF00000000000000000000000000AE
:10046000000000000040000000000000000000004C
:10047000000000000040000000000000000000003C
:100480000000000000000000010000000200000069
:10049000000000000000000000000000000000005C
:1004A000000000000000000000000000000000004C
:1004B0000000000000001B00000000000000000021
:1004C000000000000000000000000000000000002C
:1004D000000000000000000000000000000000001C
:1004E0000040000000001B000000000000000000B1
:1004F00000000000000000000000000000000000FC
:1005000000000000000000000000000000000000EB
:1005100000000000000000000000000000000000DB
:100520000000000000D8DCBAA2F1DEB2B8B4A881A5
:1005300091F74A907F916AF3F9DBA8F9B0BAA080ED
:10054000F2CE81F3C2F1C1F2C3F3CCA2B280F1C604
:10055000D880BAA7DFDFDFF2A7C3CBC5B6F087A28A
:10056000942448703C95406834589B78A2F183925B
:100570002D557DD8B1B4B8A1D09180F270F370F24E
:100580007C80A8F101B09887D943D886C988BAA1E0
:10059000F20EB89780F1A9DFDFDFAADFDFDFF2AA72
:1005A000C5CDC7A90CC92C97979797F1A98926465D
:1005B00066B0B4BA80ACDEF2CAF1B28C02A9B698C9
:1005C00000890E161EB8A9B4992C547CB08AA8963E
:1005D000365676F1B9AFB4B083C0B8A89711B18FD1
:1005E00098B9AFF0240844106418F1A329557DAFE1
:1005F00083B593AFF0002850F1A3869F61A6DADEA1
:10060000DFD9FAA38696DB31A6D9F8DFBAA68FC266
:10061000C5C7B28CC1B8A2DFDFDFA3DFDFDFD8D868
:10062000F1B8A8B286B4980D355DB8AA98B0872DF8
:10063000353DB2B6BAAF8C96198F9FA70E161EB471
:100640009AB8AA872C547CB9A3DEDFDFA3B180F26D
:10065000C4CDC9F1B8A9B499830D355D89B9A32D6D
:10066000557DB593A30E161EA92C547CB8B4B0F1D9
:100670009783A81184A50998A383F0DA240844106D
:100680006418D8F1A529557DA58595021A2E3A56EC
:100690005A4048F9F3A3D9F8F09883240844106429
:1006A000189782A8F111F098A2240844106418DA6F
:1006B000F3DED883A59401D9A302F1A2C3C5C7D89C
:1006C000F18492A24DDA2AD84869D92AD86855DA35
:1006D00032D85071D932D8705DDA3AD85879D93ACF
:1006E000D87893A34DDA2AD84869D92AD86855DA38
:1006F00032D85071D932D8705DDA3AD85879D93AAF
:10070000D878A88A9AF02850789EF38818F19F1D0F
:1007100098A8D908D8C89F129EF315A8DA1210D845
:10072000F1AFC8978734B5B994A421F3D922D8F290
:100730002DF3D92AD8F235F3D932D881A46060617B
:10074000D961D86C6869D969D8747071D971D8B118
:10075000A384193D5DA3831A3E5E9310308110116E
:10076000B8B0AF8F94F2DA3ED8B49AA88729DAF8F5
:10077000D8879A35DAF8D8879A3DDAF8D8B1B9A48B
:100780009885022E56A581000C14A397B08AF12DEE
:10079000D928D84DD948D86DD968D8B1840DDA0E8A
:1007A000D8A32983DA2C0ED8A3844983DA2C4C0EE3
:1007B000D8B8B0A88A9AF520AADADFD8A840AAD07B
:1007C000DADED8A860AADAD0DFD8F19786A8319B04
:1007D000069907AB9728889BF00C201440B8B0B45A
:1007E000A88C9CF0042851791D301438B282ABD00B
:1007F000982C505078789BF11AB0F08A9CA8295117
:10080000798B2951798A2470598B2058718A4469CF
:10081000388B3940688A6448318B304960A588201C
:100820000971584468113964493019F1AC002C54ED
:100830007CF08CA804285078F1889726A85998ACA9
:100840008C02264666F0899CA82951792470594467
:100850006938644831A98809205970AB113840695A
:10086000A8193148608CA83C415C207C00F1879835
:100870001986A86E767EA999882D557D9EB9A38A82
:10088000228A6E8A568A5E9FB183062646660E2E9F
:100890004E6E9DB8AD002C547CF2B18CB499B9A3C6
:1008A0002D557D8191AC38AD3AB58391AC2DD928C9
:1008B000D84DD948D86DD968D88C9DAE29D904AE09
:1008C000D851D904AED879D904D881F39DAD008D23
:1008D000AE1981ADD901D8F2AEDA26D88E9129832E
:1008E000A7D9ADADADADF32AD8D8F1B0AC89913E62
:1008F0005E76F3AC2E2EF1B18C5A9CAC2C282828B5
:100900009CAC3018A8988128343C9724A728343C04
:100910009C24F2B089AC912C4C6C8A9B2DD9D8D8F0
:1009200051D9D8D879D9D8D8F19E88A331DAD8D876
:10093000912DD928D84DD948D86DD968D8B183938D
:10094000353D8025DAD8D88569DAD8D8B49381A323
:1009500028343CF3AB8BF8A391B609B4D9ABDEFADB
:10096000B0879CB9A3DDF1A3A3A3A395F1A3A3A38F
:100970009DF1A3A3A3A3F2A3B49080F2A3A3A3A386
:10098000A3A3A3A3A3A3B2A3A3A3A3A3A3B087B525
:1009900099F1A3A3A398F1A3A3A3A397A3A3A3A3AC
:1009A000F39BA3A3DCB9A7F1262626D8D8FF2900FC
:1009B000444D5020496E697469616C697A6174694B
:1009C0006F6E206661696C65642028636F646520C2
:1009D00000444D502072656164792120576169742B
:1009E000696E6720666F7220666972737420696E23
:1009F000746572727570742E2E2E00456E61626C75
:100A0000696E6720696E74657272757074206465B2
:100A100074656374696F6E202841726475696E6FC6
:100A20002065787465726E616C20696E746572728F
:100A30007570742030292E2E2E00456E61626C690F
:100A40006E6720444D502E2E2E004D5055363035B9
:100A50003020636F6E6E656374696F6E20666169C6
:100A60006C6564004D50553630353020636F6E6EC6
:100A7000656374696F6E2073756363657373667500
:100A80006C00496E697469616C697A696E672044AB
:100A90004D502E2E2E0054657374696E6720646568
:100AA0007669636520636F6E6E656374696F6E73DC
:100AB0002E2E2E004649464F206F766572666C6F6B
:100AC00077210000002100240027002A002D00309B
:100AD00000330001010000040107010A01000022A7
:100AE00000250028002B002E0031003400020100F8
:100AF00000050108010B0100002000230026002949
:100B0000002C002F00320000010000030106010943
:100B10000105050505070508080808020202020A82
:100B20000A08080404040401010101010101010390
:100B300003030303030303040707070C0C0C0C0C4B
:100B40000C0C0C0202020206060606060606060B3E
:100B50000B0B0B0B0B0B0B010210202008081020B5
:100B60004010204080020102010804020101020439
:100B700008102040808040201008040201800402F8
:100B8000018040201008040201080402010102044F
:100B90000810204080010204081020408000000A54
:100BA0000B02090C0D0E08070304010000000000F1
:100BB0000000000000000000000000000000000035
:100BC00000000000000000000012111000000000F2
:100BD0000000000000000000000000000000000015
:100BE00000000000532411241FBECFEFD1E2DEBF6E
:100BF000CDBF00E00CBF13E0A0E0B2E0ECECF4E508
:100C000000E00BBF02C007900D92A039B107D9F7E1
:100C100022E1A0E9B3E001C01D92A93FB207E1F7CC
:100C200015E0C3EFD5E000E006C021970109802F51
:100C3000FE010E940025C23FD10780E00807A9F706
:100C40000E9458130C94642ADBC9FC01918D828D9B
:100C5000981761F0828DDF01A80FB11D5D968C9110
:100C6000928D9F5F9F73928F90E008958FEF9FEF1B
:100C70000895FC01918D828D981731F0828DE80FD7
:100C8000F11D858D90E008958FEF9FEF0895FC0191
:100C9000918D228D892F90E0805C9F4F821B91095E
:100CA0008F73992708958BE092E1F1DF21E0892B82
:100CB00009F420E0822F0895FC01848DDF01A80F44
:100CC000B11DA35ABF4F2C91848D90E001968F7374
:100CD0009927848FA689B7892C93A089B1898C9193
:100CE00080648C93938D848D981306C00288F38959
:100CF000E02D80818F7D80830895EF92FF920F9386
:100D00001F93CF93DF93EC0181E0888F9B8D8C8DB7
:100D1000981305C0E889F989808185FD23C0F62EE6
:100D20000B8D10E00F5F1F4F0F731127E02E8C8D7E
:100D3000E8120BC00FB607FCFACFE889F989808169
:100D400085FFF5CFCE01B8DFF2CF8B8DFE01E80F26
:100D5000F11DE35AFF4FF0820B8FEA89FB898081F6
:100D6000806207C0EE89FF896083E889F989808104
:100D70008064808381E090E0DF91CF911F910F919B
:100D8000FF90EF900895CF93DF93EC01888D882337
:100D9000C1F0EA89FB89808185FD05C0A889B989F0
:100DA0008C9186FD0EC00FB607FCF5CF808185FFC4
:100DB000F2CFA889B9898C9185FFEDCFCE017CDF78
:100DC000E8CFDF91CF91089580E090E0892B19F072
:100DD0006ADF811125C080E090E0892B41F080E03E
:100DE00090E0892B21F00E94000081111CC080E05E
:100DF00090E0892B41F080E090E0892B21F00E9467
:100E00000000811113C080E090E0892BA1F080E008
:100E100090E0892B81F00E94000081110AC00895A2
:100E20000E940000D8CF0E940000E1CF0E94000085
:100E3000EACF0C940000089590E0FC013197E23174
:100E4000F10508F04EC08827EE58FF4F8F4F0C94E5
:100E50000025809180008F7703C0809180008F7D76
:100E600080938000089580918000877FF9CF84B5BA
:100E70008F7702C084B58F7D84BD08958091B000C6
:100E80008F7703C08091B0008F7D8093B00008956C
:100E9000809190008F7707C0809190008F7D03C074
:100EA00080919000877F8093900008958091A000AA
:100EB0008F7707C08091A0008F7D03C08091A00034
:100EC000877F8093A0000895809120018F7707C0CD
:100ED000809120018F7D03C080912001877F8093C6
:100EE000200108953FB7F8948091BC119091BD11F5
:100EF000A091BE11B091BF1126B5A89B05C02F3F90
:100F000019F00196A11DB11D3FBFBA2FA92F982F2F
:100F10008827820F911DA11DB11DBC01CD0142E0AA
:100F2000660F771F881F991F4A95D1F70895089576
:100F300081E08093920308958091900390E0209146
:100F40009103821B9109089585ED8093BC008091E7
:100F5000BC0084FDFCCF1092E611089540917211FF
:100F6000262F30E0240F311D21323105DCF4209191
:100F7000E6112430C9F4FC0180E090E0861758F4B3
:100F8000309172112191DC01A05BBE4EA30FB11D07
:100F90002C930196F3CF80917211680F60937211B8
:100FA00080E0089581E0089582E008950895E09139
:100FB000910380919003E81730F4F0E0E956FE4E7B
:100FC000808190E008958FEF9FEF089590919103B5
:100FD00080919003981750F4E92FF0E0E956FE4E07
:100FE000208130E09F5F9093910302C02FEF3FEF8D
:100FF000C9010895CF92DF92EF92FF920F931F9352
:10100000CF93DF937C01262F972F8A018091E711E0
:10101000882391F0C62FD72F6E01C40ED51ECC1594
:10102000DD0569F06991D701ED91FC910190F081A6
:10103000E02DC7011995F3CF642F822F8FDFC801F0
:10104000DF91CF911F910F91FF90EF90DF90CF90A4
:101050000895CF93DF931F92CDB7DEB769832091B8
:10106000E7112223D1F020910A12203240F021E032
:1010700030E0FC013383228380E090E014C0809153
:10108000E811E82FF0E0E751FE4E998190838F5FE1
:101090008093E81180930A1204C061E0CE010196AA
:1010A0005DDF81E090E00F90DF91CF9108950E9485
:1010B000342A1F920F920FB60F9211240BB60F9283
:1010C0002F933F934F935F936F937F938F939F9350
:1010D000AF93BF93EF93FF938BE092E1EDDDFF9130
:1010E000EF91BF91AF919F918F917F916F915F91A0
:1010F0004F913F912F910F900BBE0F900FBE0F900D
:101100001F9018951F920F920FB60F9211240BB6D5
:101110000F922F938F939F93EF93FF93E0911B1266
:10112000F0911C128081E0912112F091221282FD37
:1011300012C09081809124128F5F8F7320912512AD
:10114000821751F0E0912412F0E0E55FFD4E958F9B
:101150008093241201C08081FF91EF919F918F9124
:101160002F910F900BBE0F900FBE0F901F901895F0
:10117000CF93DF93282F30E0F901E356F44F8491A9
:10118000F901E95AF44FD491F901EF5EF44FC4919B
:10119000CC2389F0811150DEEC2FF0E0EE0FFF1F21
:1011A000E950F54FA591B491EC91ED2381E090E0E9
:1011B00021F480E002C080E090E0DF91CF910895BB
:1011C0001F93CF93DF93282F30E0F901E356F44FBC
:1011D0008491F901E95AF44FD491F901EF5EF44F8B
:1011E000C491CC23C1F0162F811126DEEC2FF0E044
:1011F000EE0FFF1FE352F54FA591B4918FB7F8940E
:10120000111105C09C91ED2FE095E92302C0EC91EE
:10121000ED2BEC938FBFDF91CF911F910895CF936A
:10122000DF9390E0FC01E95AF44F2491FC01EF5E5A
:10123000F44F8491882361F190E0880F991FFC019D
:10124000ED53F54FC591D491FC01E352F54FA591B3
:10125000B491611109C09FB7F894888120958223C9
:101260008883EC912E230BC0623061F49FB7F89411
:101270003881822F809583238883EC912E2B2C93A9
:101280009FBF06C08FB7F894E8812E2B28838FBFAD
:10129000DF91CF9108958F929F92AF92BF92CF929C
:1012A000DF92EF92FF926B017C011CDE4B015C012F
:1012B000C114D104E104F104E9F014DEDC01CB0136
:1012C00088199909AA09BB09883E9340A105B1056F
:1012D00078F321E0C21AD108E108F10888EE880EFF
:1012E00083E0981EA11CB11CC114D104E104F104D7
:1012F00021F7DECFFF90EF90DF90CF90BF90AF90BF
:101300009F908F9008952FB7F8946091B8117091C5
:10131000B9118091BA119091BB112FBF08951F92FE
:101320000F920FB60F9211242F933F938F939F9399
:10133000AF93BF938091B8119091B911A091BA1158
:10134000B091BB113091B71123E0230F2D3720F45A
:101350000196A11DB11D05C026E8230F0296A11D0F
:10136000B11D2093B7118093B8119093B911A09338
:10137000BA11B093BB118091BC119091BD11A09195
:10138000BE11B091BF110196A11DB11D8093BC117A
:101390009093BD11A093BE11B093BF11BF91AF91B7
:1013A0009F918F913F912F910F900FBE0F901F90A3
:1013B00018951F920F920FB60F9211240BB60F9231
:1013C0002F933F934F935F936F937F938F939F934D
:1013D000AF93BF93EF93FF93E0910E02F0910F0252
:1013E0001995FF91EF91BF91AF919F918F917F914F
:1013F0006F915F914F913F912F910F900BBE0F9086
:101400000FBE0F901F9018951F920F920FB60F925C
:1014100011240BB60F922F933F934F935F936F93CB
:101420007F938F939F93AF93BF93EF93FF93E0913D
:101430000C02F0910D021995FF91EF91BF91AF91C0
:101440009F918F917F916F915F914F913F912F91DC
:101450000F900BBE0F900FBE0F901F9018951F920C
:101460000F920FB60F9211240BB60F922F933F934A
:101470004F935F936F937F938F939F93AF93BF939C
:10148000EF93FF93E0910202F09103021995FF910F
:10149000EF91BF91AF919F918F917F916F915F91EC
:1014A0004F913F912F910F900BBE0F900FBE0F9059
:1014B0001F9018951F920F920FB60F9211240BB622
:1014C0000F922F933F934F935F936F937F938F93DD
:1014D0009F93AF93BF93EF93FF93E0910002F0913E
:1014E00001021995FF91EF91BF91AF919F918F915B
:1014F0007F916F915F914F913F912F910F900BBE14
:101500000F900FBE0F901F9018951F920F920FB65D
:101510000F9211240BB60F922F933F934F935F932B
:101520006F937F938F939F93AF93BF93EF93FF93AB
:10153000E0910A02F0910B021995FF91EF91BF9192
:10154000AF919F918F917F916F915F914F913F915B
:101550002F910F900BBE0F900FBE0F901F901895FC
:101560001F920F920FB60F9211240BB60F922F936A
:101570003F934F935F936F937F938F939F93AF931B
:10158000BF93EF93FF93E0910802F0910902199540
:10159000FF91EF91BF91AF919F918F917F916F914B
:1015A0005F914F913F912F910F900BBE0F900FBE07
:1015B0000F901F9018951F920F920FB60F92112443
:1015C0000BB60F922F933F934F935F936F937F933D
:1015D0008F939F93AF93BF93EF93FF93E091060296
:1015E000F09107021995FF91EF91BF91AF919F91F3
:1015F0008F917F916F915F914F913F912F910F90BC
:101600000BBE0F900FBE0F901F9018951F920F9258
:101610000FB60F9211240BB60F922F933F934F9357
:101620005F936F937F938F939F93AF93BF93EF934A
:10163000FF93E0910402F09105021995FF91EF915B
:10164000BF91AF919F918F917F916F915F914F91DA
:101650003F912F910F900BBE0F900FBE0F901F90D8
:1016600018954F925F926F927F928F929F92AF9256
:10167000BF92CF92DF92EF92FF920F931F93CF937F
:10168000DF93CDB7DEB768970FB6F894DEBF0FBE15
:10169000CDBF8C01FB018CA59DA5AEA5BFA58D87F7
:1016A0009E87AF87B88B88A999A9AAA9BBA9898B5E
:1016B0009A8BAB8BBC8B8CA99DA9AEA9BFA98D8B36
:1016C0009E8BAF8BB88F88AC99ACAAACBBACC080FA
:1016D000D180E280F38084819581A681B78189835E
:1016E0009A83AB83BC8380859185A285B3858D83E6
:1016F0009E83AF83B88784859585A685B7858987BE
:101700009A87AB87BC872D853E854F855889C70151
:10171000B6010E9462272B013C0129893A894B8935
:101720005C8969817A818B819C810E9462279B01FF
:10173000AC01C301B2010E941C252B013C012D8983
:101740003E894F89588D6D817E818F8198850E9459
:1017500062279B01AC01C301B2010E941C252B0131
:101760003C01A501940169857A858B859C850E9441
:1017700062279B01AC01C301B2010E941C25D80164
:101780006D937D938D939C93139729893A894B8907
:101790005C89C701B6010E9462272B013C012D859F
:1017A0003E854F85588969817A818B819C810E9411
:1017B00062279B01AC01C301B2010E941D252B01D0
:1017C0003C01A50194016D817E818F8198850E94E5
:1017D00062279B01AC01C301B2010E941D252B01B0
:1017E0003C012D893E894F89588D69857A858B8585
:1017F0009C850E9462279B01AC01C301B2010E943B
:101800001C25F80164837583868397832D893E891F
:101810004F89588DC701B6010E9462272B013C01F8
:10182000A501940169817A818B819C810E94622744
:101830009B01AC01C301B2010E941C252B013C019C
:101840002D853E854F8558896D817E818F81988554
:101850000E9462279B01AC01C301B2010E941D25B9
:101860002B013C0129893A894B895C8969857A85F4
:101870008B859C850E9462279B01AC01C301B2014C
:101880000E941D25D80118966D937D938D939C938E
:101890001B97A5019401C701B6010E9462276B0145
:1018A0007C012D893E894F89588D69817A818B8190
:1018B0009C810E9462279B01AC01C701B6010E9476
:1018C0001D256B017C0129893A894B895C896D81D1
:1018D0007E818F8198850E9462279B01AC01C701A0
:1018E000B6010E941C256B017C012D853E854F852C
:1018F000588969857A858B859C850E9462279B0122
:10190000AC01C701B6010E941D25F80164877587E7
:1019100086879787C80168960FB6F894DEBF0FBE1A
:10192000CDBFDF91CF911F910F91FF90EF90DF908E
:10193000CF90BF90AF909F908F907F906F905F906F
:101940004F900895EF92FF920F931F93CF93DF93E1
:101950001F921F92CDB7DEB7142F91E09093E7113D
:10196000809309121092E81110920A1289EE92E106
:1019700029833A836EDB2981022FE22E3A81F32EEE
:101980008E2D801B811738F4F70161917F0189EE5C
:1019900092E15FDBF5CF76D391E0811190E0892F62
:1019A0000F900F90DF91CF911F910F91FF90EF90CB
:1019B00008951F93CF93DF931F921F92CDB7DEB789
:1019C0005A83498391E09093E71180930912109212
:1019D000E81110920A1289EE92E13BDB19816A81CB
:1019E00089EE92E136DB612F89EE92E132DB4AD358
:1019F00091E0811190E0892F0F900F90DF91CF91AE
:101A00001F910895CF93DF931F92CDB7DEB749831F
:101A10009E012F5F3F4F41E095DF0F90DF91CF9107
:101A200008952F923F924F925F926F927F928F9282
:101A30009F92AF92BF92CF92DF92EF92FF920F935D
:101A40001F93CF93DF93CDB7DEB727970FB6F894E8
:101A5000DEBF0FBECDBFE82E6B834F83690153DC21
:101A60004B015C016E2C660CF12C1E827724739462
:101A70005F81452F50E05D834C831801412C512C30
:101A80004F81F41608F095C07092E711E0920912A8
:101A90001092E81110920A126B8189EE92E1D9DA64
:101AA000F1D27092E711E09209121092E8111092AF
:101AB0000A128091E6118111FCCF2C813D812F19F2
:101AC00031092132310514F020E230E0213208F0F2
:101AD00020E27092E6117092E5118FEF8093E4118D
:101AE0001092E311820F8093E2117092C1118091E4
:101AF000C11186298093C1118091C011813071F488
:101B00001092C0118091C1118093BB008091BC00E4
:101B100083FDF8CF95EC9093BC0003C0E5EEE09315
:101B2000BC008091E6118130E1F38091E3118217CE
:101B300010F42091E311A2ECB1E1E7E9F1E18E2F7D
:101B400047E951E1841B821718F48D918193F7CFF7
:101B500010929103209390039091900380919103B0
:101B6000981709F10115110591F4A6012E81420F74
:101B7000511D27FD5A955A83498389EE92E126DA51
:101B8000E981FA8180832E812F5F2E83E5CFBBDB35
:101B9000DC01CB0188199909AA09BB0982159305B3
:101BA000A405B50510F38F81813208F080E2F80EAC
:101BB00067CFFE8001151105D1F0A5DBDC01CB015B
:101BC00088199909AA09BB0920E030E0801791071C
:101BD000A207B30760F05F81252F30E08F2D0F2C17
:101BE000000C990B8217930714F4FF24FA948F2D9D
:101BF00027960FB6F894DEBF0FBECDBFDF91CF9111
:101C00001F910F91FF90EF90DF90CF90BF90AF901A
:101C10009F908F907F906F905F904F903F902F900C
:101C20000895BF92CF92DF92EF92FF920F931F938E
:101C3000CF93DF931F92CDB7DEB7F82EE62EC42EDA
:101C4000B22ED02E08EE13E09E012F5F3F4F41E0F1
:101C5000E8DE882319F1EC2DF0E0EB19F10931965B
:101C600021E030E002C0220F331FBA94E2F7215086
:101C700031090E2E01C0220F0A94EAF78D2D01C002
:101C8000880FEA95EAF7422F409599814923282346
:101C9000422B49836E2D8F2DB5DE01C080E00F9061
:101CA000DF91CF911F910F91FF90EF90DF90CF9038
:101CB000BF900895CF92DF92EF92FF920F931F9300
:101CC000CF93DF931F92CDB7DEB7F82EE62ED42E3A
:101CD000C22E08EE13E09E012F5F3F4F41E0A1DED0
:101CE0009981CC2041F041E050E001C0440FDA94EA
:101CF000EAF7492B09C021E030E0A90101C0440FF7
:101D0000DA94EAF74095492349836E2D8F2D7ADEC8
:101D10000F90DF91CF911F910F91FF90EF90DF9087
:101D2000CF9008951F920F920FB60F9211240BB609
:101D30000F922F933F934F935F936F937F938F9364
:101D40009F93AF93BF93EF93FF938091B900887FE8
:101D5000803609F49CC068F5883209F45BC090F4C1
:101D6000803109F454C038F4882309F4F6C088306F
:101D700009F44DC0F6C0883109F44CC0803209F432
:101D80005DC0EFC0803409F468C048F4803309F4C2
:101D900055C0883309F0E5C08093E411D8C0803580
:101DA00009F44FC0883509F45DC0883409F0D9C002
:101DB000D6C0883909F4C7C0A8F4883709F467C0C9
:101DC00038F4883609F463C0803709F460C0C9C0AC
:101DD000883809F4B8C0803909F45FC0803809F048
:101DE000C0C05BC0803B09F486C038F4803A09F477
:101DF00066C0883A09F47FC0B4C0803C09F4A7C02B
:101E0000883C09F4A4C0883B09F48AC0AAC0809128
:101E1000C11110C09091E3118091E211981770F5F3
:101E2000E091E31181E08E0F8093E311F0E0EE5337
:101E3000FE4E80818093BB0085EC86C08093E411C8
:101E40008EC0E091E31181E08E0F8093E3118091C9
:101E5000BB00F0E0EE53FE4E80839091E311809141
:101E6000E2116EC0E091E31181E08E0F8093E311E7
:101E70008091BB00F0E0EE53FE4E80838091E5112F
:101E800081116DC081E08093C01184EA61C083E05C
:101E90008093E61110929611CFCF809196118032E7
:101EA00008F051C0E091961181E08E0F8093961159
:101EB0008091BB00F0E0EA58FE4E8083BDCF85ECF8
:101EC0008093BC001092E61180919611803230F41C
:101ED000E0919611F0E0EA58FE4E10826091961162
:101EE00070E0E0917411F091751186E791E1199518
:101EF0001092961136C084E08093E611109273110F
:101F000010927211E0917011F091711119958091F8
:101F10007211811105C081E08093721110925011ED
:101F2000E091731181E08E0F80937311F0E0E05B1C
:101F3000FE4E80818093BB0090917311809172114D
:101F4000981708F479CF85E88093BC000AC085EC27
:101F50008093BC001092E61104C01092E4110E941C
:101F6000A407FF91EF91BF91AF919F918F917F91C6
:101F70006F915F914F913F912F910F900BBE0F90FA
:101F80000FBE0F901F901895009761F0FC01019013
:101F90000020E9F73197AF01481B590BBC018BE0DA
:101FA00092E18CC280E090E008950F931F93CF934D
:101FB000DF938C01C0E0D0E0F801EC0FFD1F6491CD
:101FC000662371F0E0910B12F0910C120190F081F8
:101FD000E02D8BE092E11995892B11F02196ECCF41
:101FE000CE01DF91CF911F910F910895CF93DF9391
:101FF000DCDFEC018BE992E0C7DF8C0F9D1FDF91E6
:10200000CF9108958F929F92AF92BF920F931F939B
:10201000CF93DF93CDB7DEB7A1970FB6F894DEBFAD
:102020000FBECDBF19A2423008F44AE08E010F5D09
:102030001F4F842E912CA12CB12CA50194010E943C
:10204000DE24E62FB901CA0101501109EA3014F467
:10205000E05D01C0E95CD801EC93232B242B252BF8
:1020600061F7C80191DFA1960FB6F894DEBF0FBEED
:10207000CDBFDF91CF911F910F91BF90AF909F90F7
:102080008F90089520910A1290910912213208F040
:102090004AC08091E6118111FCCF32E03093E61105
:1020A00031E03093E5113FEF3093E4111092E311EA
:1020B0002093E211A9EEB1E142EC51E1FA013E2F89
:1020C000341B321718F43D913193F9CF1092C1119E
:1020D0002091C111990F922B9093C1119091C01131
:1020E000913061F41092C0119091C1119093BB0096
:1020F0009091BC0093FDF8CF95EC01C095EE9093C4
:10210000BC009091E6119230E1F39091E4119F3F71
:1021100079F08091E411803241F08091E4118033B4
:1021200031F084E005C081E003C082E001C083E0BB
:102130001092E81110920A121092E71108950F936D
:102140001F93CF93DF93C6EDD2E108EE13E027EDA6
:1021500032E141E06AE3888164DC8981DF91CF91DB
:102160001F910F91089521E042E06AE68091D61216
:10217000A1CD482F6EE68091D61244CC2F923F928B
:102180004F925F926F927F928F929F92AF92BF9287
:10219000CF92DF92EF92FF920F931F93CF93DF9333
:1021A0003C015B01342ED22F202E4F716DE68091C1
:1021B000D61228DC8D2FDDDF80E190E00E942328FD
:1021C0006C01002339F080E190E00E942328C82FA1
:1021D000492E02C0C0E0412CE12CF12CEA14FB0492
:1021E00008F068C0C7014096A816B90618F45A2C22
:1021F0005E1802C080E1582E852D90E020E031E08D
:102200002D1B31092817390714F45D2E5194F30161
:10221000EE0DFF1D222059F09C2FAC2FB42D8A2FDC
:10222000891B851530F484918D933196F8CFCE2F8C
:102230004F2E2C2F342D452D6FE68091D61282DB48
:10224000852C912CC114D10411F1432D4F716DE6F1
:102250008091D612D7DB8D2F8CDF08EE13E096012C
:10226000452D6FE68091D612DCDBA401B6018C2FE0
:10227000942D0E94382A892B51F0C6010E94B8285B
:10228000222011F18C2F942D0E94B8281DC0E80C3B
:10229000F91CD50DEA14FB0408F0A0CFD11101C040
:1022A0003394432D4F716DE68091D612ABDB8D2FA9
:1022B00060DF94CFC6010E94B828222039F08C2F0D
:1022C000942D0E94B82802C080E001C081E0DF9117
:1022D000CF911F910F91FF90EF90DF90CF90BF9023
:1022E000AF909F908F907F906F905F904F903F90B6
:1022F0002F9008950F931F93662349F0462F9C015A
:1023000008EE13E064E78091D6128BDB02C0FC017B
:1023100010821F910F9108950F931F93CF93DF9316
:10232000C6EDD2E108EE13E027ED32E142E062E7CC
:10233000888177DB898190E0982F88272A81822BFA
:10234000DF91CF911F910F910895EF92FF920F931C
:102350001F93CF93DF931F92CDB7DEB77A01890128
:102360009E012F5F3F4F41E05CDB882339F02981DC
:102370002E7730E035952795F70120830F90DF9178
:10238000CF911F910F91FF90EF9008951F93CF93DE
:10239000DF931F92CDB7DEB7682F192F82E090E050
:1023A00069830E944E2A6981681721F082E090E0DB
:1023B0000E94562A83E090E00E944E2A181749F0A6
:1023C000612F83E090E00F90DF91CF911F910C94EB
:1023D000562A0F90DF91CF911F910895CF93DF93ED
:1023E000D3DDEC018BE992E0CFDD8C0F9D1FDF91F7
:1023F000CF910895E0910B12F0910C120190F081B1
:10240000E02D682F8BE092E11994CF92DF92EF924A
:10241000FF92CF93DF936C01990FEE08FF08F7FE50
:1024200010C08DE2E7DFEC0166277727CB016C193E
:102430007D098E099F094AE0E5DD7C01EC0EFD1E59
:1024400005C04AE0C701B601DDDD7C018BE992E001
:102450009BDD8E0D9F1DDF91CF91FF90EF90DF9060
:10246000CF90089591CDCF92DF92EF92FF92CF93CC
:10247000DF936C01990FEE08FF08F7FE15C08DE29F
:10248000B9DFEC0166277727CB016C197D098E092E
:102490009F094AE0B7DD8C0F9D1FDF91CF91FF9020
:1024A000EF90DF90CF9008954AE0C701B601DF9129
:1024B000CF91FF90EF90DF90CF90A4CDCF92DF929D
:1024C000EF92FF920F931F93CF93DF936C017A01EA
:1024D0008B01C0E0D0E0CE15DF0589F0D8016D9109
:1024E0008D01D601ED91FC910190F081E02DC601A6
:1024F0001995892B11F47E0102C02196ECCFC701FA
:10250000DF91CF911F910F91FF90EF90DF90CF90CF
:1025100008954F925F926F927F928F929F92AF92A7
:10252000BF92CF92DF92EF92FF926B017C01B42EAB
:102530009B01AC010E940A28882319F083E893E0EC
:1025400027C026013701E89477F82FEF3FEF4FE7D8
:102550005FE7C301B2010E940A2881110DC02FEF6D
:102560003FEF4FE75FE7C301B2010E94E325181672
:102570001CF487E893E00CC02FEF3FEF4FE75FE4D8
:10258000C701B6010E94572718167CF48BE893E028
:10259000FF90EF90DF90CF90BF90AF909F908F9083
:1025A0007F906F905F904F90EFCC2FEF3FEF4FE712
:1025B0005FECC701B6010E94E32587FDE7CF20E06D
:1025C00030E0A901C701B6010E94E32587FF08C0DA
:1025D0008DE210DF4C01F7FAF094F7F8F09402C0A6
:1025E000812C912CA12C60E070E080E09FE3AB1483
:1025F00041F020E030E040E251E40E94E725A3945E
:10260000F6CF9B01AC01C701B6010E941D252B012D
:102610003C010E9454266B017C010E9480269B0194
:10262000AC01C301B2010E941C252B013C014AE010
:10263000C701B601E7DC7C01E80CF91CBB2021F0E6
:102640008EE2D8DEE80EF91EDB2CDD2019F120E049
:1026500030E040E251E4C301B2010E9462272B0145
:102660003C010E9454264B01A12CB12C4AE0C5012B
:10267000B401C8DCE80EF91EC501B4010E94802631
:102680009B01AC01C301B2010E941C252B013C013E
:10269000DA94DBCFC701FF90EF90DF90CF90BF902F
:1026A000AF909F908F907F906F905F904F90089524
:1026B000CF93DF93CDB7DEB7CA5CD1090FB6F894DC
:1026C000DEBF0FBECDBF789484B5826084BD84B573
:1026D000816084BD85B5826085BD85B5816085BD1D
:1026E00080916E00816080936E00109281008091D5
:1026F000810082608093810080918100816080935D
:102700008100809180008160809380008091B10081
:1027100084608093B1008091B00081608093B000AC
:1027200080919100826080939100809191008160FE
:1027300080939100809190008160809390008091BF
:10274000A10082608093A1008091A10081608093AC
:10275000A1008091A00081608093A0008091210160
:102760008260809321018091210181608093210109
:102770008091200181608093200180917A008460A3
:1027800080937A0080917A00826080937A008091B1
:102790007A00816080937A0080917A0080688093CB
:1027A0007A001092C10060E082E30E940F0960E0AD
:1027B00080E30E940F0961E08CE20E940F0980E033
:1027C00090E00E944E2A811108C06FEF80E090E0F7
:1027D0000E94562A86E990E0D9DDE4E4FEE060E458
:1027E0007BE044EC5CE080E090E010821182128299
:1027F0001382DF01B3951D921D921D921C921397B7
:10280000B3951D921D921D921C921397DB011D9290
:102810001D92BD019C01205C344FD901A058BF4FCF
:1028200011961C921E92A058BF4F1D921C92DA0165
:102830001D921D92AD019C012C53334FD901A0581C
:10284000BF4F11961C921E92A058BF4F1D921C9212
:10285000349602968038910541F6109291031092B9
:1028600090031092E81110920A121092E61181E082
:102870008093E5111092C01161E084E10E94E008AC
:1028800061E085E10E94E0088091B9008E7F80932D
:10289000B9008091B9008D7F8093B90088E480935E
:1028A000B80085E48093BC008CE08093B800E09190
:1028B0001B12F0911C1282E08083E0911712F091BC
:1028C00018121082E0911912F0911A1280E180839F
:1028D00010922312E0911F12F091201286E0808363
:1028E000E0911D12F0911E12808180618083E09141
:1028F0001D12F0911E12808188608083E0911D126C
:10290000F0911E12808180688083E0911D12F09109
:102910001E1280818F7D808386E99AE067DB28EE36
:1029200033E047ED52E165E78091D6120EDD8091EC
:10293000D712843319F08AE49AE002C084E69AE060
:1029400055DB82E89AE052DB21E047E06BE68091BC
:10295000D612B0D96EE170E080E090E00E944B09A1
:1029600020E046E06BE68091D612A4D940E76DE600
:102970008091D61247D886E0FCDB40E06DE680917E
:10298000D61240D828EE33E047ED52E160E0809166
:10299000D612DBDC8090D71228EE33E047ED52E10F
:1029A00061E08091D612D1DC9090D71228EE33E00E
:1029B00047ED52E162E08091D612C7DCA090D712B9
:1029C0004FE765E28091D6121DD820E045E06AE627
:1029D0008091D6126FD948E665E28091D61212D85E
:1029E00021E041E06AE68091D61264D964E170E0AA
:1029F00080E090E00E944B0901E020E040E069E8BF
:102A000077E085E292E0BADB882309F4B0C288E07F
:102A100090E00E942328B82E192FE12CF12CF70109
:102A2000EB59FE4F4491F701EA59FE4F249167019B
:102A3000B3E0CB0ED11CF701E959FE4FE491EE2330
:102A4000C9F1EE2EF12CE330D8F0B7018B2D912F88
:102A5000C653DF4F2883CA5CD040C753DF4F48833B
:102A6000C95CD0400E945029B82E192FC753DF4FA0
:102A70004881C95CD040C653DF4F2881CA5CD04032
:102A8000AB2DB12F80E090E08E159F0548F4F60144
:102A9000E80FF91FEB59FE4FE491ED930196F4CF47
:102AA00000E0B7018B2D912F69DBEC0CFD1C81112F
:102AB00017C010C0E4E0EE0EF11CF601EB59FE4F1A
:102AC000E491E13039F442E368E38091D6120E9448
:102AD000020D06C08B2D912F0E94B82812E048C22B
:102AE000F0ECEF16F10408F49ACF8B2D912F0E9491
:102AF000B82803E023E042E06BE68091D61291D83B
:102B000042E168E38091D6120E94020D44E069E13F
:102B10008091D6120E94020D01E023E045E06AE1B7
:102B20008091D6127ED803E023E042E06AE18091F2
:102B3000D61277D822E044E06BE18091D61271D8AA
:102B400043E060E78091D6120E94020D40E061E709
:102B50008091D6120E94020D20E040E060E080915A
:102B6000D612A8D8082D26E046E060E08091D61263
:102B700058D8092D26E046E061E08091D61251D860
:102B80000A2D26E046E062E08091D6124AD8E12C78
:102B9000F12CF701EA5CFE4FE491A1E8B0E0AC0F44
:102BA000BD1FAE0DB11DEC9381E08E0D2FEFE21A2B
:102BB000F20A33E03E1568F7CD57DF4F6881C358FE
:102BC000D04070E09B012E5F3F4F90E028173907FF
:102BD00004F700E0CE57DF4F2881C258D040CF57CE
:102BE000DF4F4881C158D04081E890E08C0F9D1F95
:102BF0000396C4DA80E0F701EA5CFE4FE491A1E8B5
:102C0000B0E0AC0FBD1FA80FB11DEC938F5F4FEF6D
:102C1000E41AF40A843078F3CD57DF4F6881C35843
:102C2000D04070E0AB014E5F5F4F282F30E042177D
:102C300053070CF700E0CE57DF4F2881C258D04031
:102C4000CF57DF4F4881C158D04081E890E08C0FCA
:102C50009D1F039693DA87DA5FDB682FCE0101961A
:102C600049DB42E06FE18091D6120E94020D4CE9EF
:102C700061E28091D6120E94020D40E560E28091EF
:102C8000D6120E94020D40E062E28091D6120E94AC
:102C9000020D69DA21E046E06AE68091D6120AD890
:102CA00021E047E06AE68091D61204D821E043E0B3
:102CB0006AE68091D6120E945A0E80E0F701EA5C23
:102CC000FE4FE491A1E8B0E0AC0FBD1FA80FB11D0D
:102CD000EC938F5F5FEFE51AF50A843078F3CD57F8
:102CE000DF4F6881C358D04070E0AB014E5F5F4F4B
:102CF000282F30E0421753070CF700E0CE57DF4F84
:102D00002881C258D040CF57DF4F4881C158D040AA
:102D100081E890E08C0F9D1F039630DA80E0F70188
:102D2000EA5CFE4FE491A1E8B0E0AC0FBD1FA80F34
:102D3000B11DEC938F5F6FEFE61AF60A843078F3DB
:102D4000CD57DF4F6881C358D04070E0AB014E5F74
:102D50005F4F282F30E0421753070CF700E0CE57A3
:102D6000DF4F2881C258D040CF57DF4F4881C1582C
:102D7000D04081E890E08C0F9D1F0396FFD980E042
:102D8000F701EA5CFE4FE491A1E8B0E0AC0FBD1F93
:102D9000A80FB11DEC938F5F7FEFE71AF70A84301D
:102DA00078F3CD57DF4F6881C358D04070E0AB0156
:102DB0004E5F5F4F282F30E0421753070CF700E0BB
:102DC000CE57DF4F2881C258D040CF57DF4F4881C0
:102DD000C158D04081E890E08C0F9D1F0396CED95A
:102DE0009BDA83309105E0F3682FCE01019682DAF9
:102DF00080E0F701EA5CFE4FE491A1E8B0E0AC0F9F
:102E0000BD1FA80FB11DEC938F5F9FEFE91AF90A60
:102E1000843078F3CD57DF4F3880C358D040832CAF
:102E2000912CA4014E5F5F4F282F30E042175307CB
:102E300004F7CE57DF4FB880C258D040CF57DF4F8E
:102E40002880C158D040422D4F716DE68091D61236
:102E50000E94020D8B2D8DD9C12CD12C612C772491
:102E6000739471E8472E512C4C0E5D1EA3E04A0E60
:102E7000511CC814D90490F5C601409688169906CD
:102E800018F4A32CAC1802C050E1A52E8A2D90E0B6
:102E900093012B1931092817390714F4AB2CA1948D
:102EA00092012C0D3D1D08EE13E04A2D6FE6809136
:102EB000D6120E94110DCA0CD11CBA0CC814D90428
:102EC000C0F6B11001C02394422D4F716DE6809180
:102ED000D6120E94020D8B2D4CD9CBCF1DDA833038
:102EE0009105E0F3682FCE01019604DAF701EA5C60
:102EF000FE4F80E09491A1E8B0E0AC0FBD1FA80F99
:102F0000B11D9C938F5F843010F43196F3CFCD5771
:102F1000DF4F6881C358D04070E0AB014E5F5F4F18
:102F2000282F30E04217530784F700E0CE57DF4FD9
:102F30002881C258D040CF57DF4F4881C158D04078
:102F400081E890E08C0F9D1F039618D920E047E0A0
:102F50006AE68091D6120E945A0E8AE290E090931F
:102F6000D9128093D812FFD8EAD810E001C011E03E
:102F70001093930343E85CEE66E08091D6120E94C2
:102F8000D90C45E454E068E08091D6120E94D90C37
:102F90004BEB54E06AE08091D6120E94D90C4BE2D0
:102FA00050E063E18091D6120E94D90C49EF5FEFA7
:102FB00065E18091D6120E94D90C4DED5FEF67E17B
:102FC0008091D6120E94D90C11112CC08AE39AE08C
:102FD0000DD821E047E06AE68091D6120E945A0E91
:102FE0008BEF99E003D888E997E0909301028093F2
:102FF000000280916A00836080936A00EC9A9FD8F7
:103000008093360881ED99E00E94F60F81E080936D
:1030100037088091D8129091D9129093C10C809367
:10302000C00C10C080EB99E00E94D50F6091930313
:1030300070E080E090E04AE00E9402108EEA99E0A1
:103040000E94F60F0E948309609346117093471106
:1030500080934811909349118091920381110CC083
:103060002091C20C3091C30C8091C00C9091C10C86
:103070002817390708F44FC580913708882309F4C9
:10308000C0C4109292035BD8182F8093360844D99D
:103090009093C30C8093C20C14FD03C0811594401F
:1030A00031F461D884EB9AE00E94F60FAAC411FFB4
:1030B000A8C40091C20C1091C30CE090C00CF09019
:1030C000C10C0E151F0530F427D99093C30C8093C3
:1030D000C20CEFCF6E2D86EF97E00CD90E191F09A9
:1030E0001093C30C0093C20C0091FA0710E0102F4C
:1030F00000278091FB07082BC090FE07D12CDC2C09
:10310000CC248091FF07C82AE0900208F12CFE2C05
:10311000EE2480910308E82A6091F60770E0762F8C
:1031200066278091F707682B072E000C880B990BF8
:103130000E94822620E030E040E858E30E946227A7
:103140002B013C016093C6127093C7128093C81282
:103150009093C912B801110F880B990B0E94822617
:1031600020E030E040E858E30E9462274B015C0118
:103170006093CA127093CB128093CC129093CD12AD
:10318000B601DD0C880B990B0E94822620E030E00E
:1031900040E858E30E946227CF55DF4F6883798368
:1031A0008A839B83C15AD0406093CE127093CF1212
:1031B0008093D0129093D112B701FF0C880B990B1A
:1031C0000E94822620E030E040E858E30E94622717
:1031D000CB55DF4F688379838A839B83C55AD04060
:1031E0006093D2127093D3128093D4129093D5121D
:1031F0009B01AC01C501B4010E9462276B017C01F7
:10320000CF55DF4F288139814A815B81C15AD04037
:10321000C301B2010E9462279B01AC01C701B60144
:103220000E941C259B01AC010E941D25C355DF4F48
:10323000688379838A839B83CD5AD0406093A81298
:103240007093A9128093AA129093AB12A5019401D6
:10325000C301B2010E9462276B017C01CB55DF4F95
:10326000288139814A815B81C55AD040CF55DF4FD3
:10327000688179818A819B81C15AD0400E946227EE
:103280009B01AC01C701B6010E941D259B01AC0149
:103290000E941D25C755DF4F688379838A839B83EE
:1032A000C95AD0406093AC127093AD128093AE12A5
:1032B0009093AF12A3019201C301B2010E94622751
:1032C0006B017C01A5019401C501B4010E94622734
:1032D0009B01AC01C701B6010E941C256B017C015A
:1032E000CF55DF4F288139814A815B81C15AD04057
:1032F000CA01B9010E9462279B01AC01C701B60156
:103300000E941C256B017C01CB55DF4F2881398140
:103310004A815B81C55AD040CA01B9010E94622727
:103320009B01AC01C701B6010E941D25C754DF4FA8
:10333000688379838A839B83C95BD0406093B01292
:103340007093B1128093B2129093B312A3019201C1
:10335000C301B2010E941D256B017C01A5019401EE
:10336000C501B4010E941D25CF54DF4F68837983C6
:103370008A839B83C15BD040A3019201C701B60140
:103380000E946227CB54DF4F688379838A839B83B3
:10339000C55BD040A5019401CF54DF4F688179818E
:1033A0008A819B81C15BD0400E9462279B01AC0156
:1033B000CB54DF4F688179818A819B81C55BD04086
:1033C0000E941D2520E030E040E85FE30E941C25BC
:1033D000CB54DF4F688379838A839B83C55BD0405E
:1033E000CF55DF4F288139814A815B81C15AD04056
:1033F000CF54DF4F688179818A819B81C15BD04046
:103400000E946227CF54DF4F688379838A839B832E
:10341000C15BD040CB55DF4F288139814A815B8128
:10342000C55AD040C701B6010E9462279B01AC017A
:10343000CF54DF4F688179818A819B81C15BD04005
:103440000E941C25CB54DF4F288139814A815B8142
:10345000C55BD0400E949025C354DF4F68837983B9
:103460008A839B83CD5BD0406093EA077093EB0720
:103470008093EC079093ED07C754DF4F2881398183
:103480004A815B81C95BD040CA01B9010E946227B1
:103490006B017C01C755DF4F288139814A815B81EF
:1034A000C95AD040CA01B9010E946227A7019601FA
:1034B0000E941D250E94C9279B01AC01C355DF4F07
:1034C000688179818A819B81CD5AD0400E94E7250D
:1034D0000E94BB25CF53DF4F688379838A839B8308
:1034E000C15CD0406093EE077093EF078093F007C4
:1034F0009093F107C355DF4F288139814A815B8161
:10350000CD5AD040CA01B9010E946227A701960195
:103510000E941D250E94C9279B01AC01C755DF4FA2
:10352000688179818A819B81C95AD0400E94E725B0
:103530000E94BB25CB53DF4F688379838A839B83AB
:10354000C55CD0406093F2077093F3078093F40753
:103550009093F5078091120890E0982F882720918A
:103560001308DC01A22BCF54DF4FB983A883C15BC2
:10357000D040B093C112A093C0128091160890E081
:10358000982F882720911708FC01E22BCB54DF4F9E
:10359000F983E883C55BD040F093C312E093C21275
:1035A00080911A0890E0982F882720911B081C0111
:1035B000222A3092C5122092C412BD01BB0F880B83
:1035C000990B0E9482266B017C0120E030E040E0F4
:1035D00056E4C355DF4F688179818A819B81CD5A3A
:1035E000D0400E9462279B01AC01C701B6010E9436
:1035F0001C250E944F26C355DF4F688379838A8339
:103600009B83CD5AD0407093BB126093BA12CB54B7
:10361000DF4F28813981C55BD040B901330F880B5A
:10362000990B0E9482266B017C0120E030E040E093
:1036300056E4C755DF4F688179818A819B81C95AD9
:10364000D0400E9462279B01AC01C701B6010E94D5
:103650001C250E944F266B017C017093BD12609364
:10366000BC12B101032C000C880B990B0E9482261E
:10367000C755DF4F688379838A839B83C95AD040BB
:1036800020E030E040E056E4C754DF4F68817981A4
:103690008A819B81C95BD0400E9462279B01AC015B
:1036A000C755DF4F688179818A819B81C95AD04093
:1036B0000E941C250E944F26C755DF4F68837983DF
:1036C0008A839B83C95AD0407093BF126093BE1205
:1036D00086E0EAEBF2E1A4EBB2E101900D928A956B
:1036E000E1F7CF57DF4F188219821A821B82C15827
:1036F000D040C355DF4F48815981CD5AD040BA01DF
:10370000550F880B990B0E948226CB57DF4F688399
:1037100079838A839B83C558D040B601DD0C880B22
:10372000990B0E948226C757DF4F688379838A836B
:103730009B83C958D040C755DF4FA881B981C95A6A
:10374000D040BD01BB0F880B990B0E948226C35746
:10375000DF4F688379838A839B83CD58D040EDB750
:10376000FEB770970FB6F894FEBF0FBEEDBFADB7B2
:10377000BEB7119680E1FE01EF57FF4F01900D9209
:103780008A95E1F766EC72E1CE018F569F4F0E9459
:10379000310B80E1FE01EF56FF4FDE01AF57BF4F07
:1037A00001900D928A95E1F749825A826B827C8260
:1037B000D501C401B0588D839E83AF83B887CF55A0
:1037C000DF4F88819981AA81BB81C15AD040B0580E
:1037D00089879A87AB87BC87CB55DF4F88819981D2
:1037E000AA81BB81C55AD040B0588D879E87AF87CC
:1037F000B88B2DB73EB7205131090FB6F8943EBFB4
:103800000FBE2DBFADB7BEB7119680E1FE01319658
:1038100001900D928A95E1F7BE016F577F4FCE015F
:103820008F569F4F0E94310B80E1FE01EF56FF4FF4
:10383000DE01AF57BF4F01900D928A95E1F7CB574C
:10384000DF4F688179818A819B81C558D0400E9471
:103850004F262B013C017093B5126093B412C757E9
:10386000DF4F688179818A819B81C958D0400E944D
:103870004F264B015C017093B7126093B612C35789
:10388000DF4F688179818A819B81CD58D0400E9429
:103890004F266B017C017093B9126093B81280912E
:1038A00044119091451101960FB6F894DEBF0FBEFA
:1038B000CDBF8034910529F0909345118093441138
:1038C00004C01092451110924411609144117091FE
:1038D0004511CF55DF4F79836883C15AD0408B01A2
:1038E000000F111F000F111F0C5B114F20E030E083
:1038F00044E353E4C354DF4F688179818A819B811B
:10390000CD5BD0400E9462272BED3FE049E450E4BC
:103910000E94E725D8016D937D938D939C93139717
:10392000F801F395CB55DF4FF983E883C55AD040B2
:1039300020E030E044E353E4CF53DF4F68817981E6
:103940008A819B81C15CD0400E9462272BED3FE0C1
:1039500049E450E40E94E725CB55DF4FA881B981A7
:10396000C55AD0406D937D938D939C9313971E5FA2
:1039700020E030E044E353E4CB53DF4F68817981AA
:103980008A819B81C55CD0400E9462272BED3FE07D
:1039900049E450E40E94E725F80160837183828343
:1039A0009383CF55DF4F28813981C15AD040220FF0
:1039B000331FD901A05CB44F11965C924E92CD0199
:1039C00080589F4FFC0191828082B395CD92DC920A
:1039D000F901E054F64FCF54DF4F28813981C15BA4
:1039E000D04031832083DF01A058BF4FCB54DF4F3D
:1039F00048815981C55BD0404D935C93F3953182EA
:103A0000208200914411109145117801EE0CFF1CA9
:103A1000F701E05CF34F60817181072E000C880B89
:103A2000990B0E9482264B015C014090380850900F
:103A3000390860903A0870903B08A3019201FCD7C6
:103A40002CEB34E743E15CE30E9462279B01AC016D
:103A5000C301B201F2D79B01AC01609338087093A7
:103A6000390880933A0890933B08C501B401E4D724
:103A70000E944F26F701E05CF64F718360830115C9
:103A8000110519F00150110902C00FE310E084E1A3
:103A9000882E8EEA982E87E4A82E8FE3B82E809287
:103AA0003C0890923D08A0923E08B0923F08D70192
:103AB000AC53B24F7D01072E000C880B990B0E946E
:103AC00082262EEA37E441E65EE30E9462274B013C
:103AD0005C01000F111FF801EC53F24F60817181FE
:103AE000072E000C880B990B0E94822624E13EEAE7
:103AF00047E45FE30E9462279B01AC01C501B4016A
:103B00009CD70E944F26F7017183608310924C115D
:103B10000E94E406A1CA10914F11111119C084E34B
:103B20000E94B8088130910569F420919403309186
:103B300095032130310531F09093950380939403E0
:103B400011E004C0909395038093940310934F1158
:103B500082E30E94B8087C018091960390919703BC
:103B6000892BF9F4B1E0EB16F104D9F480E30E945B
:103B7000B808F0929703E0929603892B49F4EFE19D
:103B8000FEE43197F1F700C0000081E090E00FC043
:103B90008FE19EE40197F1F700C000008FEF9FEFE7
:103BA00006C0F0929703E092960380E090E0E090E8
:103BB0004D11F0904E11E80EF91EF0924E11E09268
:103BC0004D1180914C11811147CA80914A119091F9
:103BD0004B11009759F482E090E090934B11809341
:103BE0004A1110925D0610925C0671C182309105F7
:103BF00009F047C08091A2039091A30320914F1137
:103C0000211122C0E80EF91E93E0E916F10420F418
:103C1000F092A303E092A2038091A2039091A303E8
:103C20008130910549F08230910549F0892B09F0E6
:103C30004EC182E492E005C089E492E002C086E5CC
:103C400092E00E94EE1143C18130910541F0823033
:103C5000910541F0892B51F48EE592E005C084E690
:103C600092E002C080E792E00E94EE11A5E0B0E091
:103C7000B0934B11A0934A11B0935D06A0935C06DC
:103C800026C18530910509F059C010914F118091DE
:103C90009A03811116C082E090E00E944E2AD82E2D
:103CA00083E090E00E944E2A90E0382F2227C9013D
:103CB0008D0D911D9093990380939803B1E0B0937B
:103CC0009A03111128C0EFEFEE16FE0649F4809119
:103CD0009803909199031816190694F401970CC053
:103CE000EA94EF2869F48091980390919903843FB6
:103CF00021E092072CF40196909399038093980306
:103D000087E792E00E943212809198039091990384
:103D10000E940512DCC080919803909199030E9443
:103D2000C61146E050E050934B1140934A1165E0B4
:103D300070E070935D0660935C06C9C086309105A3
:103D400009F058C0409146115091471160914811B7
:103D500070914911483B5B406105710528F582E887
:103D600092E00E9432126091461170914711809149
:103D700048119091491128EE33E040E050E01ED602
:103D8000CA01B9014AE00E9402108CE892E00E9448
:103D9000EE110E948309609346117093471180933E
:103DA00048119093491193C090935D0680935C06EF
:103DB0008091A2039091A3038130910569F0823034
:103DC000910589F0892B09F082C0E7E0F0E0F093DB
:103DD0004B11E0934A117BC028E030E030934B1147
:103DE00020934A1174C049E050E050934B11409326
:103DF0004A116DC00A9709F06AC08091AC03811125
:103E000011C08FE892E00E94EE110E948309609336
:103E1000A8037093A9038093AA039093AB0351E086
:103E20005093AC038091AC03882309F450C0609197
:103E3000A4037091A5038091A6039091A70328EE97
:103E400033E040E050E0BAD5CA01B9014AE00E942F
:103E500002108BE992E00E94C40F0E948309C09077
:103E6000A803D090A903E090AA03F090AB03DC0173
:103E7000CB018C199D09AE09BF098093A4039093CF
:103E8000A503A093A603B093A70388389341A10587
:103E9000B105E8F01092AC0380915C0690915D064C
:103EA0008830910539F08930910559F087309105B6
:103EB00071F402C089E090E090934B1180934A1115
:103EC00006C0A7E0B0E0B0934B11A0934A118091D7
:103ED0004A1190914B118730910509F045C2B0917C
:103EE0004F11CF55DF4FB883C15AD04000914411D4
:103EF000109145111801220C331C220C331CF101C6
:103F0000EC5BF04FC080D180E280F38020E030E0B5
:103F1000A901C701B601CBD7181664F0A701960115
:103F20005058CB55DF4F288339834A835B83C55A6A
:103F3000D04008C0CB55DF4FC882D982EA82FB82CD
:103F4000C55AD040F101EC5BFF4E80809180A28089
:103F5000B38020E030E0A901C501B401A8D7A501D4
:103F6000940118160CF050584090BC045090BD04B9
:103F70006090BE047090BF04CB55DF4F688179819B
:103F80008A819B81C55AD04058D5A301920154D54E
:103F900020E030E0A9018BD720E030E0A90118161D
:103FA00004F5C701B60183D7181624F0F7FAF09488
:103FB000F7F8F09420E030E0A901C501B40177D70B
:103FC000181624F0B7FAB094B7F8B094A50194018C
:103FD000C701B60132D5A30192012ED54B015C0178
:103FE00023C0C701B60163D7181624F0F7FAF0947E
:103FF000F7F8F09420E030E0A901C501B40157D7EB
:10400000181624F0B7FAB094B7F8B094A50194014B
:10401000C701B60112D5A30192010ED54B015C0177
:10402000B7FAB094B7F8B094F101E454FC4F808231
:104030009182A282B382E0901402F09015023FEFC9
:10404000E316F30609F073C08091BB03CF55DF4F31
:104050004881C15AD040411107C0811113C08EE977
:1040600092E00E94EE1114C481110CC08092BC0435
:104070009092BD04A092BE04B092BF0451E0509350
:10408000BB0306C4882309F403C420E030E040EFFA
:1040900051E4C501B40197D51816C4F061E08CE273
:1040A0000E94E00888ED92E00E9432128091B903EC
:1040B0009091BA030E9405128091B9039091BA03BE
:1040C00001969093BA038093B9030CC060E08CE230
:1040D0000E94E0081092BA031092B90386EE92E0B3
:1040E0000E94EE118091B9039091BA038436910534
:1040F0000CF4CEC310921502109214021092BA035F
:104100001092B9030E9483096093B5037093B603BC
:104110008093B7039093B8038DE093E00E9432122E
:1041200080911402909115020E940512B1C368ECAF
:10413000E616F1040CF0FDC0CF55DF4F7881C15A6F
:10414000D0407111FEC0F801EE0FFF1FEC53F24F8B
:10415000C080D1802091B1033091B2034091B3036C
:104160005091B403C501B401A2D6181644F480924C
:10417000B1039092B203A092B303B092B4038091C2
:10418000B00381113BC08CEAC8168EEFD8068CF5BF
:104190008091B9039091BA0301969093BA038093EA
:1041A000B903C4970CF4A8C020E030E040E752E423
:1041B0006091B1037091B2038091B3039091B40305
:1041C00076D618160CF098C08BE193E00E94EE11A1
:1041D00091E09093B0039093AF0320E030E044EB84
:1041E00052E4209310023093110240931202509334
:1041F00013021092BA031092B9037EC020E030E09F
:104200004CE052E4C501B401DED487FF75C0809153
:10421000AF03882309F470C020911002309111027D
:104220004091120250911302C501B40140D61816F4
:104230000CF062C03FEFE31AF30AF0921502E0922D
:1042400014021092AF031092B00385E293E00E9433
:10425000321280911402909115020E9433128CE266
:1042600093E00E9432126091B1037091B203809189
:10427000B3039091B40342E00E9489121092B103FB
:104280001092B2031092B3031092B40386E393E04A
:104290000E9432120E948309C090B503D090B603E9
:1042A000E090B703F090B8036C197D098E099F095F
:1042B0004AE00E9402108BE992E00E94C40F0E9423
:1042C00083096093B5037093B6038093B70390930B
:1042D000B80380911402909115022091AD033091A2
:1042E000AE032817390744F49093AE038093AD03CF
:1042F0008FE393E00E94EE11F101E454FC4FC08083
:10430000D180E280F380209110023091110240911F
:10431000120250911302C701B60155D487FFB8C2EB
:10432000C0921002D0921102E0921202F092130297
:10433000AFC2CF55DF4F4881C15AD040442309F462
:10434000A7C26FEF7FEF70931502609314028AE0AB
:1043500090E090934B1180934A11A7E0B0E0B093A6
:104360005D06A0935C0694C28830910509F0FAC1FD
:1043700020904411309045118091160290911702BF
:10438000019641F4109217021092160280E693E013
:104390000E94EE11E0911602F0911702CF55DF4F07
:1043A000F983E883C15AD040E83CF1050CF0BFC165
:1043B0008101000F111FF801EC53F24F80819181B0
:1043C000C0905806D0905906E0905A06F0905B06CF
:1043D0009C0197FF04C022273327281B390BAC010F
:1043E000990F660B770BCB55DF4F488359836A8350
:1043F0007B83C55AD040283C3105ACF4CB01BA01CF
:1044000081D42AE037ED43E25CE35CD59B01AC014B
:10441000C701B60112D36093580670935906809372
:104420005A0690935B0660915806709159068091E8
:104430005A0690915B0633D4072E000C880B990B1B
:1044400061D44B015C014090C0045090C104609065
:10445000C2047090C304A3019201EED29B01AC018F
:10446000C301B201EAD29B01AC016093C004709316
:10447000C1048093C2049093C304C501B401DCD28B
:104480000ED42B013C01072E000C880B990B3AD45B
:104490004B015C01609358067093590680935A064D
:1044A00090935B062AE037ED43E25CE3C701B60177
:1044B00009D52091500630915106409152065091F5
:1044C0005306BBD26B017C01CB55DF4F68817981EC
:1044D0008A819B81C55AD04015D427E137EB41E54D
:1044E00058E3F0D49B01AC01C701B601A6D26B0121
:1044F0007C0160935006709351068093520690930E
:10450000530620914C0630914D0640914E06509135
:104510004F06CDD487FD08C0C0924C06D0924D0600
:10452000E0924E06F0924F062091480630914906DF
:1045300040914A0650914B06C701B60144D3181664
:1045400044F0C0924806D0924906E0924A06F092A2
:104550004B068092540690925506A0925606B09251
:104560005706F101EE0FFF1FE853FA4F51824082C8
:104570009101F801EC53F24F40815181DA01149618
:104580007A0164E0E61AF108C10164E070E01816EF
:10459000190614F4019702C08FE390E0FC01EE0FBE
:1045A000FF1FEC53F24F0190F081E02DAE17BF07D3
:1045B00054F0EE15FF053CF06150710941F750933E
:1045C000C7044093C604F801E853FA4F80819181F3
:1045D0008D599F4F873C910530F143E050E080E0DA
:1045E00090E0121613061CF42150310902C02FE38B
:1045F00030E0F901EE0FFF1FE853FA4F608171813F
:10460000860F971F4150510961F7009761F063E0F1
:1046100070E0C1D1161617064CF0672B59F4EE2442
:10462000EA94FE2C0BC0E12CF12C08C048ECE42EDF
:10463000F12C04C038E3E32EFF24FA9420E030E0AC
:1046400046E953E460914C0670914D0680914E0608
:1046500090914F062CD41816BCF58091C40490910B
:10466000C50488339F4F81F588E3E8168FEFF8067D
:1046700059F110924C0610924D0610924E0610926F
:104680004F06109250061092510610925206109248
:104690005306109258061092590610925A0610921C
:1046A0005B06109254061092550610925606109210
:1046B0005706CF55DF4F88819981C15AD040019666
:1046C0009093170280931602F092C504E092C404FE
:1046D0006091500670915106809152069091530658
:1046E00042E00E9489128EE693E00E9432126091AD
:1046F00058067091590680915A0690915B0642E0E7
:104700000E9489128EE693E00E943212F801EC5367
:10471000F24F808191810E94331281E793E00E94E1
:10472000321280911602909117020E940512809118
:10473000160290911702883C910509F0A9C0AFEFCD
:10474000BFEFB0931702A0931602EAE0F0E0F093F7
:104750004B11E0934A1128E030E030935D0620933E
:104760005C0696C0099709F093C0E0904411F09060
:1047700045118091180290911902019641F410920E
:1047800019021092180289E793E00E94EE118091BD
:10479000180290911902883C91050CF064C0409079
:1047A000E2075090E3076090E4077090E507F70197
:1047B000EE0FFF1FEC53F24F60817181072E000C4A
:1047C000880B990B9FD22AE037ED43E25CE37AD362
:1047D0009B01AC01C301B20130D14B015C0160937C
:1047E000DE077093DF078093E0079093E1072AE0EC
:1047F00037ED43E25CE3C301B20164D32091E607E5
:104800003091E7074091E8075091E90716D12B0155
:104810003C012AE037ED43EA5BE3C501B40152D322
:104820009B01AC01C301B20108D16093E60770930C
:10483000E7078093E8079093E9078092E207909258
:10484000E307A092E407B092E507C701880F991F1C
:10485000AC01425A584F7A01C501B40120D2D701A8
:104860006D937C9315C0883C910591F4EFEFFFEFB9
:10487000F0931902E09318022AE030E030934B11D4
:1048800020934A1149E050E050935D0640935C0646
:1048900051E050934C1110924F1110924E11109202
:1048A0004D110C942C18EBE0F2E11382128288EE89
:1048B00093E0A0E0B0E084839583A683B78326E2EB
:1048C00032E03183208325EC30E03587248724ECE7
:1048D00030E03787268720EC30E0318B208B21ECCD
:1048E00030E0338B228B22EC30E0358B248B26ECAE
:1048F00030E0378B268B118E128E138E148E28E6A5
:104900002093D612E6ECF2E140E050E060E87FE36D
:1049100040835183628373831482158216821782C7
:1049200010861186128613861486158616861786BB
:10493000E0ECF2E11182108213821282158214825D
:10494000EAEBF2E111821082138212821582148244
:10495000E4EBF2E11182108213821282158214823A
:10496000E8EAF2E110821182128213821482158227
:10497000168217821086118612861386E9EEF2E1FE
:104980001382128284839583A683B78386E392E0A1
:1049900091838083089597FB072E16F4009406D028
:1049A00077FD08D035D007FC05D03EF49095819571
:1049B0009F4F0895709561957F4F0895A1E21A2E3B
:1049C000AA1BBB1BFD010DC0AA1FBB1FEE1FFF1FB3
:1049D000A217B307E407F50720F0A21BB30BE40B03
:1049E000F50B661F771F881F991F1A9469F760954A
:1049F0007095809590959B01AC01BD01CF01089504
:104A0000EE0FFF1F881F8BBF0790F691E02D1994C2
:104A1000AA1BBB1B51E107C0AA1FBB1FA617B707E4
:104A200010F0A61BB70B881F991F5A95A9F7809500
:104A30009095BC01CD0108955058BB27AA270ED0F0
:104A4000FCC1EDD130F0F2D120F031F49F3F11F4F0
:104A50001EF4BDC10EF4E095E7FBB3C1E92FFED112
:104A600080F3BA17620773078407950718F071F48B
:104A70009EF516C20EF4E0950B2EBA2FA02D0B0159
:104A8000B90190010C01CA01A0011124FF27591B93
:104A900099F0593F50F4503E68F11A16F040A22F99
:104AA000232F342F4427585FF3CF4695379527950A
:104AB000A795F0405395C9F77EF41F16BA0B620B09
:104AC000730B840BBAF09150A1F0FF0FBB1F661F50
:104AD000771F881FC2F70EC0BA0F621F731F841F93
:104AE00048F4879577956795B795F7959E3F08F0B9
:104AF000B3CF9395880F08F09927EE0F9795879578
:104B000008958DD158F080E891E009F49EEF8ED1A0
:104B100028F040E851E059F45EEF09C058C1C0C127
:104B2000E92FE0789BD168F3092E052AC1F32617F7
:104B300037074807590738F00E2E07F8E02569F0C7
:104B4000E025E0640AC0EF6307F8009407FADB0190
:104B5000B9019D01DC01CA01AD01EF9347D06DD1D0
:104B60000AD05F91552331F02BED3FE049E450FD31
:104B700049EC63CF0895DF93DD27B92FBF7740E875
:104B80005FE31616170648075B0710F4D92F93D179
:104B90009F938F937F936F933AD2E8E0F1E01AD11D
:104BA0004CD12F913F914F915F9198D1DD2349F0E6
:104BB0009058A2EA2AED3FE049EC5FE3D0785D2708
:104BC0004DDFDF913AC1D9D008F481E008950CD0CF
:104BD00034C12CD140F023D130F021F45F3F19F0E3
:104BE000F0C051115EC1F3C039D198F39923C9F3D4
:104BF0005523B1F3951B550BBB27AA2762177307E3
:104C0000840738F09F5F5F4F220F331F441FAA1F96
:104C1000A9F333D00E2E3AF0E0E830D09150504056
:104C2000E695001CCAF729D0FE2F27D0660F771F04
:104C3000881FBB1F261737074807AB07B0E809F0E6
:104C4000BB0B802DBF01FF2793585F4F2AF09E3F7B
:104C5000510568F0B6C025C15F3FECF3983EDCF328
:104C6000869577956795B795F7959F5FC9F7880FF4
:104C7000911D9695879597F90895E1E0660F771F46
:104C8000881FBB1F621773078407BA0720F0621BD7
:104C9000730B840BBA0BEE1F88F7E095089504D0D0
:104CA0006894B111FEC00895E1D088F09F5790F04C
:104CB000B92F9927B751A0F0D1F0660F771F881F41
:104CC000991F1AF0BA95C9F712C0B13081F0E8D037
:104CD000B1E00895E5C0672F782F8827B85F39F0D5
:104CE000B93FCCF3869577956795B395D9F73EF4A0
:104CF00090958095709561957F4F8F4F9F4F089548
:104D0000E89409C097FB3EF4909580957095619565
:104D10007F4F8F4F9F4F9923A9F0F92F96E9BB271B
:104D20009395F695879577956795B795F111F8CF97
:104D3000FAF4BB0F11F460FF1BC06F5F7F4F8F4F02
:104D40009F4F16C0882311F096E911C0772321F0F8
:104D50009EE8872F762F05C0662371F096E8862F90
:104D600070E060E02AF09A95660F771F881FDAF7E7
:104D7000880F9695879597F90895990F0008550F14
:104D8000AA0BE0E8FEEF16161706E807F907C0F0D1
:104D900012161306E407F50798F0621B730B840BD9
:104DA000950B39F40A2661F0232B242B252B21F4B3
:104DB00008950A2609F4A140A6958FEF811D811D53
:104DC000089597F99F6780E870E060E008959FEF8D
:104DD00080EC0895DF93CF931F930F93FF92EF9290
:104DE000DF927B018C01689405C0DA2EEF0176D04A
:104DF000FE01E894A5912591359145915591AEF329
:104E0000EF012CDEFE019701A801DA9479F7DF901B
:104E1000EF90FF900F911F91CF91DF9108950024A3
:104E20000A941616170618060906089500240A940F
:104E300012161306140605060895092E0394000C95
:104E400011F4882352F0BB0F40F4BF2B11F460FF24
:104E500004C06F5F7F4F8F4F9F4F089557FD90584D
:104E6000440F551F59F05F3F71F04795880F97FB2E
:104E7000991F61F09F3F79F08795089512161306E8
:104E80001406551FF2CF4695F1DF08C01616170617
:104E90001806991FF1CF869571056105089408954C
:104EA000E894BB2766277727CB0197F9089565DF3C
:104EB00008F48FEF08959B01AC0160E070E080E89A
:104EC0009FE385CE0BD0B9CFAADF28F0AFDF18F073
:104ED000952309F076CF7BCF1124E3CFBFDFA0F37A
:104EE000959FD1F3950F50E0551F629FF001729F7F
:104EF000BB27F00DB11D639FAA27F00DB11DAA1F9E
:104F0000649F6627B00DA11D661F829F2227B00DEA
:104F1000A11D621F739FB00DA11D621F839FA00D75
:104F2000611D221F749F3327A00D611D231F849FC5
:104F3000600D211D822F762F6A2F11249F5750401C
:104F40008AF0E1F088234AF0EE0FFF1FBB1F661FB7
:104F5000771F881F91505040A9F79E3F510570F070
:104F600030CF9FCF5F3FECF3983EDCF3869577958B
:104F70006795B795F795E7959F5FC1F7FE2B880F6B
:104F8000911D9695879597F9089511F40EF41FCF0A
:104F900045C06CDFD0F39923D9F3CEF39F57550B5F
:104FA00087FF4AD00024A0E640EA90018058569539
:104FB000979528F4805C660F771F881F20F02617CE
:104FC0003707480730F4621B730B840B2029312903
:104FD0004A2BA69517940794202531254A2758F780
:104FE000660F771F881F20F026173707480730F411
:104FF000620B730B840B200D311D411DA09581F7B1
:10500000B901842F9158880F9695879508959B0133
:10501000AC0158CFB2DE880B990B08959F3F31F059
:10502000915020F4879577956795B795880F911DD6
:105030009695879597F9089591505040660F771F80
:10504000881FD2F70895CF93DF938230910510F433
:1050500082E090E0E091F712F091F81220E030E069
:10506000C0E0D0E0309711F14081518148175907D5
:10507000C0F04817590761F482819381209719F095
:105080009B838A832BC09093F8128093F71226C0DB
:105090002115310519F04217530718F49A01BE0182
:1050A000DF01EF010280F381E02DDCCF2115310516
:1050B00009F1281B390B2430310590F412968D919B
:1050C0009C9113976115710521F0FB0193838283F5
:1050D00004C09093F8128093F712FD01329644C0F9
:1050E000FD01E20FF31F81939193225031092D931B
:1050F0003C933AC02091F5123091F612232B41F4E3
:1051000020911C0230911D023093F6122093F5126B
:1051100020911A0230911B022115310541F42DB75F
:105120003EB740911E0250911F02241B350BE091A7
:10513000F512F091F612E217F307A0F42E1B3F0BC5
:105140002817390778F0AC014E5F5F4F24173507F9
:1051500048F04E0F5F1F5093F6124093F512819363
:10516000919302C0E0E0F0E0CF01DF91CF9108958C
:105170000F931F93CF93DF93009709F48CC0FC012A
:105180003297138212820091F7121091F8120115D2
:10519000110581F420813181820F931F2091F51236
:1051A0003091F6122817390779F5F093F612E0934B
:1051B000F51271C0D80140E050E0AE17BF0750F4BF
:1051C00012962D913C911397AD012115310509F1EE
:1051D000D901F3CF9D01DA0133832283608171818C
:1051E000860F971F8217930769F4EC012881398194
:1051F000260F371F2E5F3F4F318320838A819B818B
:1052000093838283452B29F4F093F812E093F712ED
:1052100042C01396FC93EE931297ED014991599178
:105220009E01240F351FE217F30771F480819181ED
:10523000840F951F029611969C938E938281938181
:1052400013969C938E931297E0E0F0E0D8011296AB
:105250008D919C911397009719F0F8018C01F6CF6E
:105260008D919C9198012E5F3F4F820F931F20914B
:10527000F5123091F6122817390769F4309729F49E
:105280001092F8121092F71202C013821282109339
:10529000F6120093F512DF91CF911F910F910895AF
:1052A0006F927F928F929F92AF92BF92CF92DF9236
:1052B000EF92FF920F931F93CF93DF93EC01009730
:1052C00081F4CB01DF91CF911F910F91FF90EF906F
:1052D000DF90CF90BF90AF909F908F907F906F9016
:1052E000B2CEFC01E60FF71F9C0122503109E217F4
:1052F000F30708F4A8C0D9010D911C911197061766
:105300001707A8F00530110508F49BC0C8010497E1
:105310008617970708F495C002501109061B170B52
:10532000019311936D937C93CF0122DF8AC05B01BF
:10533000A01AB10A4C01800E911EA091F712B091F3
:10534000F81240E050E0E12CF12C109709F44AC02B
:10535000A815B905D1F56D907C901197630182E095
:10536000C80ED11CCA14DB0480F1A3014A195B09E1
:105370006A0182E0C80ED11C1296BC901297139657
:10538000AC91B5E0CB16D10440F0B282A383518337
:105390004083D9016D937C930AC00E5F1F4FC301F8
:1053A000800F911FF90191838083EB2DFA2FE11477
:1053B000F10431F0D7011396FC93EE93129741C09C
:1053C000F093F812E093F7123CC08D919C911197E5
:1053D0004817590708F4AC017D0112960D90BC9155
:1053E000A02DB3CF8091F5129091F61288159905F2
:1053F000E1F446175707C8F480911A0290911B02F6
:10540000009741F48DB79EB740911E0250911F0244
:10541000841B950BE817F907B0F4F093F612E093AC
:10542000F512F901718360830CC0CB010CDE7C01A5
:10543000009749F0A801BE0128D0CE0199DEC7012E
:1054400004C0CE0102C080E090E0DF91CF911F91B7
:105450000F91FF90EF90DF90CF90BF90AF909F9013
:105460008F907F906F90089581E090E0F8942CC029
:10547000FB01DC0104C08D910190801921F44150A1
:105480005040C8F7881B990B0895FB01DC0102C04E
:1054900001900D9241505040D8F70895F999FECFF0
:1054A00092BD81BDF89A992780B50895262FF99964
:1054B000FECF1FBA92BD81BD20BD0FB6F894FA9AF7
:0C54C000F99A0FBE01960895F894FFCFF2
:1054CC0097079707970797079707970797079707E0
:1054DC000000B442FFFFFFFFFFFF0000F912800045
:1054EC00E803000000007D065E124706250639061B
:1054FC00C306000000002908FA079C07E607D70737
:10550C00D6074375726C730D0042656E636820504C
:10551C00726573730D005371756174730D0043756F
:10552C00726C730042656E63682050726573730011
:10553C00537175617473005765696768742069737A
:10554C00200057616974696E673A20002F3300633D
:10555C006F6F6C646F776E2E2E2E000D0A004C65EB
:10556C0076656C2064657669636520616E64207075
:10557C00726573732074686520627574746F6E2025
:10558C00746F2073746F72652063616C69627261F1
:10559C0074696F6E2E2E2E00486F6C6420737469C4
:1055AC006C6C3A2025006D6F7665206465766963B6
:1055BC006520746F206C6576656C20706F736974F0
:1055CC00696F6E20746F20626567696E005265703A
:1055DC0065746974696F6E733A2000545249474779
:1055EC004552454400526570733A20002C204465A6
:1055FC006772733A20002C2074696D653A20007034
:10560C00726576696F7573207265636F726420685A
:10561C006173206265656E2062726F6B656E21002E
:10562C0062656E636870726573732E2E2E002C206B
:10563C000020726570733A20007371756174732E5B
:10564C002E2E006E616E00696E66006F766600002D
:020000023000CC
:10E000000D9489F10D94B2F10D94B2F10D94B2F129
:10E010000D94B2F10D94B2F10D94B2F10D94B2F1F0
:10E020000D94B2F10D94B2F10D94B2F10D94B2F1E0
:10E030000D94B2F10D94B2F10D94B2F10D94B2F1D0
:10E040000D94B2F10D94B2F10D94B2F10D94B2F1C0
:10E050000D94B2F10D94B2F10D94B2F10D94B2F1B0
:10E060000D94B2F10D94B2F10D94B2F10D94B2F1A0
:10E070000D94B2F10D94B2F10D94B2F10D94B2F190
:10E080000D94B2F10D94B2F10D94B2F10D94B2F180
:10E090000D94B2F10D94B2F10D94B2F10D94B2F170
:10E0A0000D94B2F10D94B2F10D94B2F10D94B2F160
:10E0B0000D94B2F10D94B2F10D94B2F10D94B2F150
:10E0C0000D94B2F10D94B2F10D94B2F10D94B2F140
:10E0D0000D94B2F10D94B2F10D94B2F10D94B2F130
:10E0E0000D94B2F141546D656761323536300041AF
:10E0F000726475696E6F206578706C6F72657220DE
:10E1000073746B3530305632206279204D4C530099
:10E11000426F6F746C6F616465723E004875683F52
:10E1200000436F6D70696C6564206F6E203D200048
:10E130004350552054797065202020203D20005FF9
:10E140005F4156525F415243485F5F3D2000415658
:10E1500052204C696243205665723D20004743437C
:10E160002056657273696F6E203D20004350552024
:10E1700049442020202020203D20004C6F7720663D
:10E18000757365202020203D20004869676820665F
:10E190007573652020203D200045787420667573D6
:10E1A00065202020203D20004C6F636B2066757336
:10E1B000652020203D20004D617220203720323024
:10E1C000313300312E362E3800342E332E350056A2
:10E1D00023202020414444522020206F7020636F70
:10E1E00064652020202020696E73747275637469E1
:10E1F0006F6E2061646472202020496E74657272B3
:10E20000757074006E6F20766563746F7200726A49
:10E210006D702020006A6D70200057686174207056
:10E220006F72743A00506F7274206E6F7420737541
:10E2300070706F72746564004D7573742062652030
:10E2400061206C6574746572002000577269747483
:10E25000696E672045450052656164696E672045B7
:10E26000450045452065727220636E743D00504F35
:10E27000525400303D5A65726F2061646472003FF1
:10E280003D43505520737461747300403D454550C3
:10E29000524F4D207465737400423D426C696E6B41
:10E2A000204C454400453D44756D70204545505215
:10E2B0004F4D00463D44756D7020464C415348001B
:10E2C000483D48656C70004C3D4C69737420492F83
:10E2D0004F20506F72747300513D51756974005234
:10E2E0003D44756D702052414D00563D73686F7707
:10E2F00020696E7465727275707420566563746FF0
:10E30000727300593D506F727420626C696E6B00BD
:10E310002A0011241FBECFEFD1E2DEBFCDBF01E046
:10E320000CBF12E0A0E0B2E0EEE1FDEF03E00BBFB6
:10E3300002C007900D92A030B107D9F712E0A0E01B
:10E34000B2E001C01D92AE30B107E1F70F9460F367
:10E350000D948DFE01E20EBF0FEF0DBF11241FBE05
:10E360000D9460F30D9400F020E030E040ED57E0B4
:10E3700005C0FA013197F1F72F5F3F4F2817390792
:10E38000C0F308959C01260F311DC901A0E0B0E043
:10E390002F5F3F4FABBFFC018791882361F08093D3
:10E3A000C6008091C00086FFFCCF8091C0008064D1
:10E3B0008093C000EACF08958DE08093C6008091DD
:10E3C000C00086FFFCCF8091C00080648093C000B5
:10E3D0008AE08093C6008091C00086FFFCCF8091C8
:10E3E000C00080648093C00008950F94C2F10F9420
:10E3F000DCF10895FC019081992359F09093C600B7
:10E400008091C00086FFFCCF8091C0008064809323
:10E41000C0003196992379F70895282F982F929567
:10E420009F70892F805D8A3308F0895F8093C600D2
:10E430008091C00086FFFCCF8091C00080648093F3
:10E44000C000822F8F70982F905D9A3308F0995FEB
:10E450009093C6008091C00086FFFCCF8091C000E1
:10E4600080648093C00008959C01FB01853691056E
:10E470001CF46330710594F0C90164E670E00F94F8
