:10000000F2C500000C94060B0C94DB0A0C94B00AA9
:100010000C94850A0C945A0A0C942F0A0C94040A26
:100020000C94D90911C600000FC600000DC60000CF
:100030000BC6000009C6000007C6000005C6000088
:1000400003C6000001C60000FFC50000FDC500009A
:10005000FBC50000F9C50000F7C500000C948F092E
:10006000F3C500000C9482080C945908EDC50000FB
:10007000EBC50000E9C50000E7C50000E5C50000CC
:10008000E3C50000E1C50000DFC50000DDC50000DC
:10009000DBC50000D9C50000D7C500000C94920E46
:1000A000D3C50000D1C50000CFC50000CDC50000FC
:1000B000CBC50000C9C50000C7C50000C5C500000C
:1000C000C3C50000C1C50000BFC50000BDC500001C
:1000D000BBC50000B9C50000B7C50000B5C500002C
:1000E000B3C5000037073A0729072D073307710703
:1000F0003E07420748074C07500756075A075E0756
:100100007107640768076C07084AD73B3BCE016E4E
:1001100084BCBFFDC12F3D6C74319ABD56833DDA5E
:100120003D00C77F11BED9E4BB4C3E916BAAAABE6D
:10013000000000803F0001B202FFFF01900409238C
:10014000A135016A020600016008000000000000FD
:100150000000006004400000000162020000006036
:100160000400400000037B034CCD6C03AB03365608
:100170007600680402CB47A202180400058BC10177
:100180000C0400000000037F060CC92C979797030E
:100190008903264666006C0220000240040000002D
:1001A00000024404000000000248040000000002B5
:1001B0004C0400000000025004000000000254043F
:1001C0000000000002580400000000025C0400006F
:1001D000000002BC040000000001EC04000040002C
:1001E000037F060CC92C9797970402030D355D0415
:1001F0000904872D353D00A301000000000107869A
:1002000001FE074105F120283038077E01300746FE
:10021000019A074704F1283038076C04F128303878
:100220000216020001FB00003E000B003600010038
:10023000020003000000650054FFEF0000FA800098
:100240000B1282000100020000000000000000000C
:10025000000000000000280000FFFF4581FFFFFABA
:100260007200000000000003E80000000100017FB0
:10027000FFFFFE8001001B000000000000000000E6
:100280000000000000003E03304000000002CAE30E
:10029000093E800000200000000000000040000037
:1002A000006000000041FF000000000B2A00001663
:1002B0005500002182FD872650FD800000001F00B0
:1002C00000000580000000000000010000000200A6
:1002D0000000030000400000000000046F00026501
:1002E0003200005EC040000000000000000000007E
:1002F0000000000000FB8C6F5DFD5D08D9007C7381
:100300003B006C12CC3200139D3200D0D632000874
:1003100000400001F4FFE68079020000000000D0F8
:10032000D600002710FB0000004000000000000085
:1003300000000000000000000100000000000001BB
:1003400000010000000000FA36FFBC308E0005FB03
:10035000F0FFD95BC8FFD09ABE000010A9FFF41EC1
:10036000B200CEBBF7000000010000000400020054
:10037000020200000CFFC280000001800000CF805C
:100380000040000000000000010000000000000626
:100390000000000014000000000000000000000049
:1003A000000000000000000000000000000000004D
:1003B000000000000000000000000000000000003D
:1003C000000000000000000000033F68B6793528F7
:1003D000BCC67ED16C80000000400000000000B26E
:1003E0006A00000000000000000000000000003F64
:1003F000F0000000300000000000000000000000DD
:1004000000000000000000000000000000000000EC
:1004100000000000000000254D002F706D00000559
:10042000AE000C02D00000000000650054FFEF0099
:100430000000000000000001000044000000000C6B
:1004400000000001000000000000650000005400F2
:1004500000FFEF00000000000000000000000000AE
:10046000000000000040000000000000000000004C
:10047000000000000040000000000000000000003C
:100480000000000000000000010000000200000069
:10049000000000000000000000000000000000005C
:1004A000000000000000000000000000000000004C
:1004B0000000000000001B00000000000000000021
:1004C000000000000000000000000000000000002C
:1004D000000000000000000000000000000000001C
:1004E0000040000000001B000000000000000000B1
:1004F00000000000000000000000000000000000FC
:1005000000000000000000000000000000000000EB
:1005100000000000000000000000000000000000DB
:100520000000000000D8DCBAA2F1DEB2B8B4A881A5
:1005300091F74A907F916AF3F9DBA8F9B0BAA080ED
:10054000F2CE81F3C2F1C1F2C3F3CCA2B280F1C604
:10055000D880BAA7DFDFDFF2A7C3CBC5B6F087A28A
:10056000942448703C95406834589B78A2F183925B
:100570002D557DD8B1B4B8A1D09180F270F370F24E
:100580007C80A8F101B09887D943D886C988BAA1E0
:10059000F20EB89780F1A9DFDFDFAADFDFDFF2AA72
:1005A000C5CDC7A90CC92C97979797F1A98926465D
:1005B00066B0B4BA80ACDEF2CAF1B28C02A9B698C9
:1005C00000890E161EB8A9B4992C547CB08AA8963E
:1005D000365676F1B9AFB4B083C0B8A89711B18FD1
:1005E00098B9AFF0240844106418F1A329557DAFE1
:1005F00083B593AFF0002850F1A3869F61A6DADEA1
:10060000DFD9FAA38696DB31A6D9F8DFBAA68FC266
:10061000C5C7B28CC1B8A2DFDFDFA3DFDFDFD8D868
:10062000F1B8A8B286B4980D355DB8AA98B0872DF8
:10063000353DB2B6BAAF8C96198F9FA70E161EB471
:100640009AB8AA872C547CB9A3DEDFDFA3B180F26D
:10065000C4CDC9F1B8A9B499830D355D89B9A32D6D
:10066000557DB593A30E161EA92C547CB8B4B0F1D9
:100670009783A81184A50998A383F0DA240844106D
:100680006418D8F1A529557DA58595021A2E3A56EC
:100690005A4048F9F3A3D9F8F09883240844106429
:1006A000189782A8F111F098A2240844106418DA6F
:1006B000F3DED883A59401D9A302F1A2C3C5C7D89C
:1006C000F18492A24DDA2AD84869D92AD86855DA35
:1006D00032D85071D932D8705DDA3AD85879D93ACF
:1006E000D87893A34DDA2AD84869D92AD86855DA38
:1006F00032D85071D932D8705DDA3AD85879D93AAF
:10070000D878A88A9AF02850789EF38818F19F1D0F
:1007100098A8D908D8C89F129EF315A8DA1210D845
:10072000F1AFC8978734B5B994A421F3D922D8F290
:100730002DF3D92AD8F235F3D932D881A46060617B
:10074000D961D86C6869D969D8747071D971D8B118
:10075000A384193D5DA3831A3E5E9310308110116E
:10076000B8B0AF8F94F2DA3ED8B49AA88729DAF8F5
:10077000D8879A35DAF8D8879A3DDAF8D8B1B9A48B
:100780009885022E56A581000C14A397B08AF12DEE
:10079000D928D84DD948D86DD968D8B1840DDA0E8A
:1007A000D8A32983DA2C0ED8A3844983DA2C4C0EE3
:1007B000D8B8B0A88A9AF520AADADFD8A840AAD07B
:1007C000DADED8A860AADAD0DFD8F19786A8319B04
:1007D000069907AB9728889BF00C201440B8B0B45A
:1007E000A88C9CF0042851791D301438B282ABD00B
:1007F000982C505078789BF11AB0F08A9CA8295117
:10080000798B2951798A2470598B2058718A4469CF
:10081000388B3940688A6448318B304960A588201C
:100820000971584468113964493019F1AC002C54ED
:100830007CF08CA804285078F1889726A85998ACA9
:100840008C02264666F0899CA82951792470594467
:100850006938644831A98809205970AB113840695A
:10086000A8193148608CA83C415C207C00F1879835
:100870001986A86E767EA999882D557D9EB9A38A82
:10088000228A6E8A568A5E9FB183062646660E2E9F
:100890004E6E9DB8AD002C547CF2B18CB499B9A3C6
:1008A0002D557D8191AC38AD3AB58391AC2DD928C9
:1008B000D84DD948D86DD968D88C9DAE29D904AE09
:1008C000D851D904AED879D904D881F39DAD008D23
:1008D000AE1981ADD901D8F2AEDA26D88E9129832E
:1008E000A7D9ADADADADF32AD8D8F1B0AC89913E62
:1008F0005E76F3AC2E2EF1B18C5A9CAC2C282828B5
:100900009CAC3018A8988128343C9724A728343C04
:100910009C24F2B089AC912C4C6C8A9B2DD9D8D8F0
:1009200051D9D8D879D9D8D8F19E88A331DAD8D876
:10093000912DD928D84DD948D86DD968D8B183938D
:10094000353D8025DAD8D88569DAD8D8B49381A323
:1009500028343CF3AB8BF8A391B609B4D9ABDEFADB
:10096000B0879CB9A3DDF1A3A3A3A395F1A3A3A38F
:100970009DF1A3A3A3A3F2A3B49080F2A3A3A3A386
:10098000A3A3A3A3A3A3B2A3A3A3A3A3A3B087B525
:1009900099F1A3A3A398F1A3A3A3A397A3A3A3A3AC
:1009A000F39BA3A3DCB9A7F1262626D8D8FF2900FC
:1009B000444D5020496E697469616C697A6174694B
:1009C0006F6E206661696C65642028636F646520C2
:1009D00000444D502072656164792120576169742B
:1009E000696E6720666F7220666972737420696E23
:1009F000746572727570742E2E2E00456E61626C75
:100A0000696E6720696E74657272757074206465B2
:100A100074656374696F6E202841726475696E6FC6
:100A20002065787465726E616C20696E746572728F
:100A30007570742030292E2E2E00456E61626C690F
:100A40006E6720444D502E2E2E004D5055363035B9
:100A50003020636F6E6E656374696F6E20666169C6
:100A60006C6564004D50553630353020636F6E6EC6
:100A7000656374696F6E2073756363657373667500
:100A80006C00496E697469616C697A696E672044AB
:100A90004D502E2E2E0054657374696E6720646568
:100AA0007669636520636F6E6E656374696F6E73DC
:100AB0002E2E2E004649464F206F766572666C6F6B
:100AC00077210000002100240027002A002D00309B
:100AD00000330001010000040107010A01000022A7
:100AE00000250028002B002E0031003400020100F8
:100AF00000050108010B0100002000230026002949
:100B0000002C002F00320000010000030106010943
:100B10000105050505070508080808020202020A82
:100B20000A08080404040401010101010101010390
:100B300003030303030303040707070C0C0C0C0C4B
:100B40000C0C0C0202020206060606060606060B3E
:100B50000B0B0B0B0B0B0B010210202008081020B5
:100B60004010204080020102010804020101020439
:100B700008102040808040201008040201800402F8
:100B8000018040201008040201080402010102044F
:100B90000810204080010204081020408000000A54
:100BA0000B02090C0D0E08070304010000000000F1
:100BB0000000000000000000000000000000000035
:100BC00000000000000000000012111000000000F2
:100BD0000000000000000000000000000000000015
:100BE00000000000152411241FBECFEFD1E2DEBFAC
:100BF000CDBF00E00CBF13E0A0E0B2E0E0E5F4E51B
:100C000000E00BBF02C007900D92A039B107D9F7E1
:100C100021E1A0E9B3E001C01D92A137B207E1F7DD
:100C200015E0C3EFD5E000E006C021970109802F51
:100C3000FE010E94C224C23FD10780E00807A9F745
:100C40000E9458130C94262ADBC9FC01918D828DD9
:100C5000981761F0828DDF01A80FB11D5D968C9110
:100C6000928D9F5F9F73928F90E008958FEF9FEF1B
:100C70000895FC01918D828D981731F0828DE80FD7
:100C8000F11D858D90E008958FEF9FEF0895FC0191
:100C9000918D228D892F90E0805C9F4F821B91095E
:100CA0008F739927089583E890E1F1DF21E0892B84
:100CB00009F420E0822F0895FC01848DDF01A80F44
:100CC000B11DA35ABF4F2C91848D90E001968F7374
:100CD0009927848FA689B7892C93A089B1898C9193
:100CE00080648C93938D848D981306C00288F38959
:100CF000E02D80818F7D80830895EF92FF920F9386
:100D00001F93CF93DF93EC0181E0888F9B8D8C8DB7
:100D1000981305C0E889F989808185FD23C0F62EE6
:100D20000B8D10E00F5F1F4F0F731127E02E8C8D7E
:100D3000E8120BC00FB607FCFACFE889F989808169
:100D400085FFF5CFCE01B8DFF2CF8B8DFE01E80F26
:100D5000F11DE35AFF4FF0820B8FEA89FB898081F6
:100D6000806207C0EE89FF896083E889F989808104
:100D70008064808381E090E0DF91CF911F910F919B
:100D8000FF90EF900895CF93DF93EC01888D882337
:100D9000C1F0EA89FB89808185FD05C0A889B989F0
:100DA0008C9186FD0EC00FB607FCF5CF808185FFC4
:100DB000F2CFA889B9898C9185FFEDCFCE017CDF78
:100DC000E8CFDF91CF91089580E090E0892B19F072
:100DD0006ADF811125C080E090E0892B41F080E03E
:100DE00090E0892B21F00E94000081111CC080E05E
:100DF00090E0892B41F080E090E0892B21F00E9467
:100E00000000811113C080E090E0892BA1F080E008
:100E100090E0892B81F00E94000081110AC00895A2
:100E20000E940000D8CF0E940000E1CF0E94000085
:100E3000EACF0C940000089590E0FC013197E23174
:100E4000F10508F04EC08827EE58FF4F8F4F0C94E5
:100E5000C224809180008F7703C0809180008F7DB5
:100E600080938000089580918000877FF9CF84B5BA
:100E70008F7702C084B58F7D84BD08958091B000C6
:100E80008F7703C08091B0008F7D8093B00008956C
:100E9000809190008F7707C0809190008F7D03C074
:100EA00080919000877F8093900008958091A000AA
:100EB0008F7707C08091A0008F7D03C08091A00034
:100EC000877F8093A0000895809120018F7707C0CD
:100ED000809120018F7D03C080912001877F8093C6
:100EE000200108953FB7F894809134109091351007
:100EF000A0913610B091371026B5A89B05C02F3FA2
:100F000019F00196A11DB11D3FBFBA2FA92F982F2F
:100F10008827820F911DA11DB11DBC01CD0142E0AA
:100F2000660F771F881F991F4A95D1F70895089576
:100F300081E08093920308958091900390E0209146
:100F40009103821B9109089585ED8093BC008091E7
:100F5000BC0084FDFCCF10925E1008954091EA0F12
:100F6000262F30E0240F311D21323105DCF4209191
:100F70005E102430C9F4FC0180E090E0861758F43C
:100F80003091EA0F2191DC01A853B04FA30FB11D9E
:100F90002C930196F3CF8091EA0F680F6093EA0FCC
:100FA00080E0089581E0089582E008950895E09139
:100FB000910380919003E81730F4F0E0E15FFF4E79
:100FC000808190E008958FEF9FEF089590919103B5
:100FD00080919003981750F4E92FF0E0E15FFF4E05
:100FE000208130E09F5F9093910302C02FEF3FEF8D
:100FF000C9010895CF92DF92EF92FF920F931F9352
:10100000CF93DF937C01262F972F8A0180915F1069
:10101000882391F0C62FD72F6E01C40ED51ECC1594
:10102000DD0569F06991D701ED91FC910190F081A6
:10103000E02DC7011995F3CF642F822F8FDFC801F0
:10104000DF91CF911F910F91FF90EF90DF90CF90A4
:101050000895CF93DF931F92CDB7DEB769832091B8
:101060005F102223D1F020918210203240F021E045
:1010700030E0FC013383228380E090E014C0809153
:101080006010E82FF0E0EF59FF4E998190838F5F59
:10109000809360108093821004C061E0CE010196BD
:1010A0005DDF81E090E00F90DF91CF9108950E9485
:1010B000F6291F920F920FB60F9211240BB60F92C2
:1010C0002F933F934F935F936F937F938F939F9350
:1010D000AF93BF93EF93FF9383E890E1EDDDFF9132
:1010E000EF91BF91AF919F918F917F916F915F91A0
:1010F0004F913F912F910F900BBE0F900FBE0F900D
:101100001F9018951F920F920FB60F9211240BB6D5
:101110000F922F938F939F93EF93FF93E0919310F0
:10112000F09194108081E0919910F0919A1082FDD5
:1011300012C0908180919C108F5F8F7320919D10C1
:10114000821751F0E0919C10F0E0ED57FF4E958F23
:1011500080939C1001C08081FF91EF919F918F91AE
:101160002F910F900BBE0F900FBE0F901F901895F0
:10117000CF93DF93282F30E0F901E356F44F8491A9
:10118000F901E95AF44FD491F901EF5EF44FC4919B
:10119000CC2389F0811150DEEC2FF0E0EE0FFF1F21
:1011A000E950F54FA591B491EC91ED2381E090E0E9
:1011B00021F480E002C080E090E0DF91CF910895BB
:1011C0001F93CF93DF93282F30E0F901E356F44FBC
:1011D0008491F901E95AF44FD491F901EF5EF44F8B
:1011E000C491CC23C1F0162F811126DEEC2FF0E044
:1011F000EE0FFF1FE352F54FA591B4918FB7F8940E
:10120000111105C09C91ED2FE095E92302C0EC91EE
:10121000ED2BEC938FBFDF91CF911F910895CF936A
:10122000DF9390E0FC01E95AF44F2491FC01EF5E5A
:10123000F44F8491882361F190E0880F991FFC019D
:10124000ED53F54FC591D491FC01E352F54FA591B3
:10125000B491611109C09FB7F894888120958223C9
:101260008883EC912E230BC0623061F49FB7F89411
:101270003881822F809583238883EC912E2B2C93A9
:101280009FBF06C08FB7F894E8812E2B28838FBFAD
:10129000DF91CF9108958F929F92AF92BF92CF929C
:1012A000DF92EF92FF926B017C011CDE4B015C012F
:1012B000C114D104E104F104E9F014DEDC01CB0136
:1012C00088199909AA09BB09883E9340A105B1056F
:1012D00078F321E0C21AD108E108F10888EE880EFF
:1012E00083E0981EA11CB11CC114D104E104F104D7
:1012F00021F7DECFFF90EF90DF90CF90BF90AF90BF
:101300009F908F9008952FB7F8946091301070914E
:10131000311080913210909133102FBF08951F9299
:101320000F920FB60F9211242F933F938F939F9399
:10133000AF93BF938091301090913110A0913210F3
:10134000B091331030912F1023E0230F2D3720F46C
:101350000196A11DB11D05C026E8230F0296A11D0F
:10136000B11D20932F108093301090933110A093D3
:101370003210B09333108091341090913510A091B9
:101380003610B09137100196A11DB11D8093341015
:1013900090933510A0933610B0933710BF91AF9152
:1013A0009F918F913F912F910F900FBE0F901F90A3
:1013B00018951F920F920FB60F9211240BB60F9231
:1013C0002F933F934F935F936F937F938F939F934D
:1013D000AF93BF93EF93FF93E0910E02F0910F0252
:1013E0001995FF91EF91BF91AF919F918F917F914F
:1013F0006F915F914F913F912F910F900BBE0F9086
:101400000FBE0F901F9018951F920F920FB60F925C
:1014100011240BB60F922F933F934F935F936F93CB
:101420007F938F939F93AF93BF93EF93FF93E0913D
:101430000C02F0910D021995FF91EF91BF91AF91C0
:101440009F918F917F916F915F914F913F912F91DC
:101450000F900BBE0F900FBE0F901F9018951F920C
:101460000F920FB60F9211240BB60F922F933F934A
:101470004F935F936F937F938F939F93AF93BF939C
:10148000EF93FF93E0910202F09103021995FF910F
:10149000EF91BF91AF919F918F917F916F915F91EC
:1014A0004F913F912F910F900BBE0F900FBE0F9059
:1014B0001F9018951F920F920FB60F9211240BB622
:1014C0000F922F933F934F935F936F937F938F93DD
:1014D0009F93AF93BF93EF93FF93E0910002F0913E
:1014E00001021995FF91EF91BF91AF919F918F915B
:1014F0007F916F915F914F913F912F910F900BBE14
:101500000F900FBE0F901F9018951F920F920FB65D
:101510000F9211240BB60F922F933F934F935F932B
:101520006F937F938F939F93AF93BF93EF93FF93AB
:10153000E0910A02F0910B021995FF91EF91BF9192
:10154000AF919F918F917F916F915F914F913F915B
:101550002F910F900BBE0F900FBE0F901F901895FC
:101560001F920F920FB60F9211240BB60F922F936A
:101570003F934F935F936F937F938F939F93AF931B
:10158000BF93EF93FF93E0910802F0910902199540
:10159000FF91EF91BF91AF919F918F917F916F914B
:1015A0005F914F913F912F910F900BBE0F900FBE07
:1015B0000F901F9018951F920F920FB60F92112443
:1015C0000BB60F922F933F934F935F936F937F933D
:1015D0008F939F93AF93BF93EF93FF93E091060296
:1015E000F09107021995FF91EF91BF91AF919F91F3
:1015F0008F917F916F915F914F913F912F910F90BC
:101600000BBE0F900FBE0F901F9018951F920F9258
:101610000FB60F9211240BB60F922F933F934F9357
:101620005F936F937F938F939F93AF93BF93EF934A
:10163000FF93E0910402F09105021995FF91EF915B
:10164000BF91AF919F918F917F916F915F914F91DA
:101650003F912F910F900BBE0F900FBE0F901F90D8
:1016600018954F925F926F927F928F929F92AF9256
:10167000BF92CF92DF92EF92FF920F931F93CF937F
:10168000DF93CDB7DEB768970FB6F894DEBF0FBE15
:10169000CDBF8C01FB018CA59DA5AEA5BFA58D87F7
:1016A0009E87AF87B88B88A999A9AAA9BBA9898B5E
:1016B0009A8BAB8BBC8B8CA99DA9AEA9BFA98D8B36
:1016C0009E8BAF8BB88F88AC99ACAAACBBACC080FA
:1016D000D180E280F38084819581A681B78189835E
:1016E0009A83AB83BC8380859185A285B3858D83E6
:1016F0009E83AF83B88784859585A685B7858987BE
:101700009A87AB87BC872D853E854F855889C70151
:10171000B6010E9424272B013C0129893A894B8973
:101720005C8969817A818B819C810E9424279B013D
:10173000AC01C301B2010E94DE242B013C012D89C2
:101740003E894F89588D6D817E818F8198850E9459
:1017500024279B01AC01C301B2010E94DE242B01AE
:101760003C01A501940169857A858B859C850E9441
:1017700024279B01AC01C301B2010E94DE24D801E1
:101780006D937D938D939C93139729893A894B8907
:101790005C89C701B6010E9424272B013C012D85DD
:1017A0003E854F85588969817A818B819C810E9411
:1017B00024279B01AC01C301B2010E94DF242B014D
:1017C0003C01A50194016D817E818F8198850E94E5
:1017D00024279B01AC01C301B2010E94DF242B012D
:1017E0003C012D893E894F89588D69857A858B8585
:1017F0009C850E9424279B01AC01C301B2010E9479
:10180000DE24F80164837583868397832D893E895E
:101810004F89588DC701B6010E9424272B013C0136
:10182000A501940169817A818B819C810E94242782
:101830009B01AC01C301B2010E94DE242B013C01DB
:101840002D853E854F8558896D817E818F81988554
:101850000E9424279B01AC01C301B2010E94DF2436
:101860002B013C0129893A894B895C8969857A85F4
:101870008B859C850E9424279B01AC01C301B2018A
:101880000E94DF24D80118966D937D938D939C93CD
:101890001B97A5019401C701B6010E9424276B0183
:1018A0007C012D893E894F89588D69817A818B8190
:1018B0009C810E9424279B01AC01C701B6010E94B4
:1018C000DF246B017C0129893A894B895C896D8110
:1018D0007E818F8198850E9424279B01AC01C701DE
:1018E000B6010E94DE246B017C012D853E854F856B
:1018F000588969857A858B859C850E9424279B0160
:10190000AC01C701B6010E94DF24F8016487758726
:1019100086879787C80168960FB6F894DEBF0FBE1A
:10192000CDBFDF91CF911F910F91FF90EF90DF908E
:10193000CF90BF90AF909F908F907F906F905F906F
:101940004F900895EF92FF920F931F93CF93DF93E1
:101950001F921F92CDB7DEB7142F91E090935F10C6
:1019600080938110109260101092821081E691E1B4
:1019700029833A836EDB2981022FE22E3A81F32EEE
:101980008E2D801B811738F4F70161917F0181E66C
:1019900091E15FDBF5CF76D391E0811190E0892F63
:1019A0000F900F90DF91CF911F910F91FF90EF90CB
:1019B00008951F93CF93DF931F921F92CDB7DEB789
:1019C0005A83498391E090935F1080938110109225
:1019D00060101092821081E691E13BDB19816A81EF
:1019E00081E691E136DB612F81E691E132DB4AD37A
:1019F00091E0811190E0892F0F900F90DF91CF91AE
:101A00001F910895CF93DF931F92CDB7DEB749831F
:101A10009E012F5F3F4F41E095DF0F90DF91CF9107
:101A200008952F923F924F925F926F927F928F9282
:101A30009F92AF92BF92CF92DF92EF92FF920F935D
:101A40001F93CF93DF93CDB7DEB727970FB6F894E8
:101A5000DEBF0FBECDBFE82E6B834F83690153DC21
:101A60004B015C016E2C660CF12C1E827724739462
:101A70005F81452F50E05D834C831801412C512C30
:101A80004F81F41608F095C070925F10E0928110BB
:101A900010926010109282106B8181E691E1D9DA88
:101AA000F1D270925F10E09281101092601010924B
:101AB000821080915E108111FCCF2C813D812F1905
:101AC00031092132310514F020E230E0213208F0F2
:101AD00020E270925E1070925D108FEF80935C1028
:101AE00010925B10820F80935A107092391080917F
:101AF000391086298093391080913810813071F423
:101B000010923810809139108093BB008091BC00F6
:101B100083FDF8CF95EC9093BC0003C0E5EEE09315
:101B2000BC0080915E108130E1F380915B108217E0
:101B300010F420915B10AAE3B0E1EFE0F0E18E2F0A
:101B40004FE050E1841B821718F48D918193F7CFF9
:101B500010929103209390039091900380919103B0
:101B6000981709F10115110591F4A6012E81420F74
:101B7000511D27FD5A955A83498381E691E126DA62
:101B8000E981FA8180832E812F5F2E83E5CFBBDB35
:101B9000DC01CB0188199909AA09BB0982159305B3
:101BA000A405B50510F38F81813208F080E2F80EAC
:101BB00067CFFE8001151105D1F0A5DBDC01CB015B
:101BC00088199909AA09BB0920E030E0801791071C
:101BD000A207B30760F05F81252F30E08F2D0F2C17
:101BE000000C990B8217930714F4FF24FA948F2D9D
:101BF00027960FB6F894DEBF0FBECDBFDF91CF9111
:101C00001F910F91FF90EF90DF90CF90BF90AF901A
:101C10009F908F907F906F905F904F903F902F900C
:101C20000895BF92CF92DF92EF92FF920F931F938E
:101C3000CF93DF931F92CDB7DEB7F82EE62EC42EDA
:101C4000B22ED02E08EE13E09E012F5F3F4F41E0F1
:101C5000E8DE882319F1EC2DF0E0EB19F10931965B
:101C600021E030E002C0220F331FBA94E2F7215086
:101C700031090E2E01C0220F0A94EAF78D2D01C002
:101C8000880FEA95EAF7422F409599814923282346
:101C9000422B49836E2D8F2DB5DE01C080E00F9061
:101CA000DF91CF911F910F91FF90EF90DF90CF9038
:101CB000BF900895CF92DF92EF92FF920F931F9300
:101CC000CF93DF931F92CDB7DEB7F82EE62ED42E3A
:101CD000C22E08EE13E09E012F5F3F4F41E0A1DED0
:101CE0009981CC2041F041E050E001C0440FDA94EA
:101CF000EAF7492B09C021E030E0A90101C0440FF7
:101D0000DA94EAF74095492349836E2D8F2D7ADEC8
:101D10000F90DF91CF911F910F91FF90EF90DF9087
:101D2000CF9008951F920F920FB60F9211240BB609
:101D30000F922F933F934F935F936F937F938F9364
:101D40009F93AF93BF93EF93FF938091B900887FE8
:101D5000803609F49CC068F5883209F45BC090F4C1
:101D6000803109F454C038F4882309F4F6C088306F
:101D700009F44DC0F6C0883109F44CC0803209F432
:101D80005DC0EFC0803409F468C048F4803309F4C2
:101D900055C0883309F0E5C080935C10D8C0803509
:101DA00009F44FC0883509F45DC0883409F0D9C002
:101DB000D6C0883909F4C7C0A8F4883709F467C0C9
:101DC00038F4883609F463C0803709F460C0C9C0AC
:101DD000883809F4B8C0803909F45FC0803809F048
:101DE000C0C05BC0803B09F486C038F4803A09F477
:101DF00066C0883A09F47FC0B4C0803C09F4A7C02B
:101E0000883C09F4A4C0883B09F48AC0AAC0809128
:101E1000391010C090915B1080915A10981770F58E
:101E2000E0915B1081E08E0F80935B10F0E0E65C48
:101E3000FF4E80818093BB0085EC86C080935C1050
:101E40008EC0E0915B1081E08E0F80935B108091DB
:101E5000BB00F0E0E65CFF4E808390915B108091C8
:101E60005A106EC0E0915B1081E08E0F80935B1082
:101E70008091BB00F0E0E65CFF4E808380915D10B6
:101E800081116DC081E08093381084EA61C083E0E5
:101E900080935E1010920E10CFCF80910E10803282
:101EA00008F051C0E0910E1081E08E0F80930E106B
:101EB0008091BB00F0E0E251F04F8083BDCF85EC14
:101EC0008093BC0010925E1080910E10803230F42E
:101ED000E0910E10F0E0E251F04F108260910E1090
:101EE00070E0E091EC0FF091ED0F8EEE9FE0199510
:101EF00010920E1036C084E080935E101092EB0FAB
:101F00001092EA0FE091E80FF091E90F1995809196
:101F1000EA0F811105C081E08093EA0F1092C80F8B
:101F2000E091EB0F81E08E0F8093EB0FF0E0E85330
:101F3000F04F80818093BB009091EB0F8091EA0F6E
:101F4000981708F479CF85E88093BC000AC085EC27
:101F50008093BC0010925E1004C010925C100E942E
:101F6000A407FF91EF91BF91AF919F918F917F91C6
:101F70006F915F914F913F912F910F900BBE0F90FA
:101F80000FBE0F901F901895009761F0FC01019013
:101F90000020E9F73197AF01481B590BBC0183E8DA
:101FA00090E18CC280E090E008950F931F93CF934F
:101FB000DF938C01C0E0D0E0F801EC0FFD1F6491CD
:101FC000662371F0E0918310F09184100190F0810C
:101FD000E02D83E890E11995892B11F02196ECCF43
:101FE000CE01DF91CF911F910F910895CF93DF9391
:101FF000DCDFEC018BE992E0C7DF8C0F9D1FDF91E6
:10200000CF9108958F929F92AF92BF920F931F939B
:10201000CF93DF93CDB7DEB7A1970FB6F894DEBFAD
:102020000FBECDBF19A2423008F44AE08E010F5D09
:102030001F4F842E912CA12CB12CA50194010E943C
:10204000A024E62FB901CA0101501109EA3014F4A5
:10205000E05D01C0E95CD801EC93232B242B252BF8
:1020600061F7C80191DFA1960FB6F894DEBF0FBEED
:10207000CDBFDF91CF911F910F91BF90AF909F90F7
:102080008F9008952091821090918110213208F054
:102090004AC080915E108111FCCF32E030935E1017
:1020A00031E030935D103FEF30935C1010925B1085
:1020B00020935A10A1E6B0E14AE350E1FA013E2F25
:1020C000341B321718F43D913193F9CF1092391027
:1020D00020913910990F922B9093391090913810CC
:1020E000913061F410923810909139109093BB00A8
:1020F0009091BC0093FDF8CF95EC01C095EE9093C4
:10210000BC0090915E109230E1F390915C109F3F83
:1021100079F080915C10803241F080915C108033C6
:1021200031F084E005C081E003C082E001C083E0BB
:10213000109260101092821010925F1008950F9309
:102140001F93CF93DF93CEE4D1E108EE13E02FE4A9
:1021500031E141E06AE3888164DC8981DF91CF91DC
:102160001F910F91089521E042E06AE680914E119F
:10217000A1CD482F6EE680914E1144CC2F923F9214
:102180004F925F926F927F928F929F92AF92BF9287
:10219000CF92DF92EF92FF920F931F93CF93DF9333
:1021A0003C015B01342ED22F202E4F716DE68091C1
:1021B0004E1128DC8D2FDDDF80E190E00E94E527C5
:1021C0006C01002339F080E190E00E94E527C82FE0
:1021D000492E02C0C0E0412CE12CF12CEA14FB0492
:1021E00008F068C0C7014096A816B90618F45A2C22
:1021F0005E1802C080E1582E852D90E020E031E08D
:102200002D1B31092817390714F45D2E5194F30161
:10221000EE0DFF1D222059F09C2FAC2FB42D8A2FDC
:10222000891B851530F484918D933196F8CFCE2F8C
:102230004F2E2C2F342D452D6FE680914E1182DBD1
:10224000852C912CC114D10411F1432D4F716DE6F1
:1022500080914E11D7DB8D2F8CDF08EE13E09601B5
:10226000452D6FE680914E11DCDBA401B6018C2F69
:10227000942D0E94FA29892B51F0C6010E947A28D8
:10228000222011F18C2F942D0E947A281DC0E80C79
:10229000F91CD50DEA14FB0408F0A0CFD11101C040
:1022A0003394432D4F716DE680914E11ABDB8D2F32
:1022B00060DF94CFC6010E947A28222039F08C2F4B
:1022C000942D0E947A2802C080E001C081E0DF9155
:1022D000CF911F910F91FF90EF90DF90CF90BF9023
:1022E000AF909F908F907F906F905F904F903F90B6
:1022F0002F9008950F931F93662349F0462F9C015A
:1023000008EE13E064E780914E118BDB02C0FC0104
:1023100010821F910F9108950F931F93CF93DF9316
:10232000CEE4D1E108EE13E02FE431E142E062E7D0
:10233000888177DB898190E0982F88272A81822BFA
:10234000DF91CF911F910F910895EF92FF920F931C
:102350001F93CF93DF931F92CDB7DEB77A01890128
:102360009E012F5F3F4F41E05CDB882339F02981DC
:102370002E7730E035952795F70120830F90DF9178
:10238000CF911F910F91FF90EF9008951F93CF93DE
:10239000DF931F92CDB7DEB7682F192F82E090E050
:1023A00069830E94102A6981681721F082E090E019
:1023B0000E94182A83E090E00E94102A181749F022
:1023C000612F83E090E00F90DF91CF911F910C94EB
:1023D000182A0F90DF91CF911F910895CF93DF932B
:1023E000D3DDEC018BE992E0CFDD8C0F9D1FDF91F7
:1023F000CF910895E0918310F09184100190F081C5
:10240000E02D682F83E890E11994CF92DF92EF924C
:10241000FF92CF93DF936C01990FEE08FF08F7FE50
:1024200010C08DE2E7DFEC0166277727CB016C193E
:102430007D098E099F094AE0E5DD7C01EC0EFD1E59
:1024400005C04AE0C701B601DDDD7C018BE992E001
:102450009BDD8E0D9F1DDF91CF91FF90EF90DF9060
:10246000CF90089591CDCF92DF92EF92FF92CF93CC
:10247000DF936C01990FEE08FF08F7FE15C08DE29F
:10248000B9DFEC0166277727CB016C197D098E092E
:102490009F094AE0B7DD8C0F9D1FDF91CF91FF9020
:1024A000EF90DF90CF9008954AE0C701B601DF9129
:1024B000CF91FF90EF90DF90CF90A4CDCF92DF929D
:1024C000EF92FF920F931F93CF93DF936C017A01EA
:1024D0008B01C0E0D0E0CE15DF0589F0D8016D9109
:1024E0008D01D601ED91FC910190F081E02DC601A6
:1024F0001995892B11F47E0102C02196ECCFC701FA
:10250000DF91CF911F910F91FF90EF90DF90CF90CF
:1025100008954F925F926F927F928F929F92AF92A7
:10252000BF92CF92DF92EF92FF926B017C01B42EAB
:102530009B01AC010E94CC27882319F083E893E02B
:1025400027C026013701E89477F82FEF3FEF4FE7D8
:102550005FE7C301B2010E94CC2781110DC02FEFAC
:102560003FEF4FE75FE7C301B2010E94A5251816B0
:102570001CF487E893E00CC02FEF3FEF4FE75FE4D8
:10258000C701B6010E94192718167CF48BE893E066
:10259000FF90EF90DF90CF90BF90AF909F908F9083
:1025A0007F906F905F904F90EFCC2FEF3FEF4FE712
:1025B0005FECC701B6010E94A52587FDE7CF20E0AB
:1025C00030E0A901C701B6010E94A52587FF08C018
:1025D0008DE210DF4C01F7FAF094F7F8F09402C0A6
:1025E000812C912CA12C60E070E080E09FE3AB1483
:1025F00041F020E030E040E251E40E94A925A3949C
:10260000F6CF9B01AC01C701B6010E94DF242B016C
:102610003C010E9416266B017C010E9442269B0110
:10262000AC01C301B2010E94DE242B013C014AE04F
:10263000C701B601E7DC7C01E80CF91CBB2021F0E6
:102640008EE2D8DEE80EF91EDB2CDD2019F120E049
:1026500030E040E251E4C301B2010E9424272B0183
:102660003C010E9416264B01A12CB12C4AE0C50169
:10267000B401C8DCE80EF91EC501B4010E9442266F
:102680009B01AC01C301B2010E94DE242B013C017D
:10269000DA94DBCFC701FF90EF90DF90CF90BF902F
:1026A000AF909F908F907F906F905F904F90089524
:1026B000CF93DF93CDB7DEB7CA5CD1090FB6F894DC
:1026C000DEBF0FBECDBF789484B5826084BD84B573
:1026D000816084BD85B5826085BD85B5816085BD1D
:1026E00080916E00816080936E00109281008091D5
:1026F000810082608093810080918100816080935D
:102700008100809180008160809380008091B10081
:1027100084608093B1008091B00081608093B000AC
:1027200080919100826080939100809191008160FE
:1027300080939100809190008160809390008091BF
:10274000A10082608093A1008091A10081608093AC
:10275000A1008091A00081608093A0008091210160
:102760008260809321018091210181608093210109
:102770008091200181608093200180917A008460A3
:1027800080937A0080917A00826080937A008091B1
:102790007A00816080937A0080917A0080688093CB
:1027A0007A001092C10060E082E30E940F0960E0AD
:1027B00080E30E940F0961E08CE20E940F0980E033
:1027C00090E00E94102A811108C06FEF80E090E035
:1027D0000E94182A86E990E0D9DDECEBFCE068EB7A
:1027E00079E04CE35BE080E090E01082118212829D
:1027F0001382DF01B3951D921D921D921C921397B7
:10280000B3951D921D921D921C921397DB011D9290
:102810001D92BD019C012854364FD901A058BF4FCD
:1028200011961C921E92A058BF4F1D921C92DA0165
:102830001D921D92AD019C01245C344FD901A0581A
:10284000BF4F11961C921E92A058BF4F1D921C9212
:10285000349602968038910541F6109291031092B9
:102860009003109260101092821010925E1081E01E
:1028700080935D101092381061E084E10E94E008BE
:1028800061E085E10E94E0088091B9008E7F80932D
:10289000B9008091B9008D7F8093B90088E480935E
:1028A000B80085E48093BC008CE08093B800E09190
:1028B0009310F091941082E08083E0918F10F0915A
:1028C00090101082E0919110F091921080E180833D
:1028D00010929B10E0919710F091981086E0808301
:1028E000E0919510F0919610808180618083E09155
:1028F0009510F0919610808188608083E09195100A
:10290000F0919610808180688083E0919510F0911D
:10291000961080818F7D808386E99AE067DB28EEC0
:1029200033E04FE451E165E780914E110EDD809177
:102930004F11843319F08AE49AE002C084E69AE0E9
:1029400055DB82E89AE052DB21E047E06BE68091BC
:102950004E11B0D96EE170E080E090E00E944B092A
:1029600020E046E06BE680914E11A4D940E76DE689
:1029700080914E1147D886E0FCDB40E06DE6809107
:102980004E1140D828EE33E04FE451E160E08091F1
:102990004E11DBDC80904F1128EE33E04FE451E123
:1029A00061E080914E11D1DC90904F1128EE33E020
:1029B0004FE451E162E080914E11C7DCA0904F11CD
:1029C0004FE765E280914E111DD820E045E06AE6B0
:1029D00080914E116FD948E665E280914E1112D870
:1029E00021E041E06AE680914E1164D964E170E033
:1029F00080E090E00E944B0901E020E040E069E8BF
:102A000077E085E292E0BADB882309F4B0C288E07F
:102A100090E00E94E527B82E192FE12CF12CF70148
:102A2000EB59FE4F4491F701EA59FE4F249167019B
:102A3000B3E0CB0ED11CF701E959FE4FE491EE2330
:102A4000C9F1EE2EF12CE330D8F0B7018B2D912F88
:102A5000C653DF4F2883CA5CD040C753DF4F48833B
:102A6000C95CD0400E941229B82E192FC753DF4FDE
:102A70004881C95CD040C653DF4F2881CA5CD04032
:102A8000AB2DB12F80E090E08E159F0548F4F60144
:102A9000E80FF91FEB59FE4FE491ED930196F4CF47
:102AA00000E0B7018B2D912F69DBEC0CFD1C81112F
:102AB00017C010C0E4E0EE0EF11CF601EB59FE4F1A
:102AC000E491E13039F442E368E380914E110E94D1
:102AD000020D06C08B2D912F0E947A2812E048C269
:102AE000F0ECEF16F10408F49ACF8B2D912F0E9491
:102AF0007A2803E023E042E06BE680914E1191D802
:102B000042E168E380914E110E94020D44E069E1C8
:102B100080914E110E94020D01E023E045E06AE140
:102B200080914E117ED803E023E042E06AE180917B
:102B30004E1177D822E044E06BE180914E1171D8BC
:102B400043E060E780914E110E94020D40E061E792
:102B500080914E110E94020D20E040E060E08091E3
:102B60004E11A8D8082D26E046E060E080914E1175
:102B700058D8092D26E046E061E080914E1151D8E9
:102B80000A2D26E046E062E080914E114AD8E12C01
:102B9000F12CF701EA5CFE4FE491A1E8B0E0AC0F44
:102BA000BD1FAE0DB11DEC9381E08E0D2FEFE21A2B
:102BB000F20A33E03E1568F7CD57DF4F6881C358FE
:102BC000D04070E09B012E5F3F4F90E028173907FF
:102BD00004F700E0CE57DF4F2881C258D040CF57CE
:102BE000DF4F4881C158D04081E890E08C0F9D1F95
:102BF0000396C4DA80E0F701EA5CFE4FE491A1E8B5
:102C0000B0E0AC0FBD1FA80FB11DEC938F5F4FEF6D
:102C1000E41AF40A843078F3CD57DF4F6881C35843
:102C2000D04070E0AB014E5F5F4F282F30E042177D
:102C300053070CF700E0CE57DF4F2881C258D04031
:102C4000CF57DF4F4881C158D04081E890E08C0FCA
:102C50009D1F039693DA87DA5FDB682FCE0101961A
:102C600049DB42E06FE180914E110E94020D4CE978
:102C700061E280914E110E94020D40E560E2809178
:102C80004E110E94020D40E062E280914E110E94BE
:102C9000020D69DA21E046E06AE680914E110AD819
:102CA00021E047E06AE680914E1104D821E043E03C
:102CB0006AE680914E110E945A0E80E0F701EA5CAC
:102CC000FE4FE491A1E8B0E0AC0FBD1FA80FB11D0D
:102CD000EC938F5F5FEFE51AF50A843078F3CD57F8
:102CE000DF4F6881C358D04070E0AB014E5F5F4F4B
:102CF000282F30E0421753070CF700E0CE57DF4F84
:102D00002881C258D040CF57DF4F4881C158D040AA
:102D100081E890E08C0F9D1F039630DA80E0F70188
:102D2000EA5CFE4FE491A1E8B0E0AC0FBD1FA80F34
:102D3000B11DEC938F5F9FEFE91AF90A843078F3A5
:102D4000CD57DF4F6881C358D04070E0AB014E5F74
:102D50005F4F282F30E0421753070CF700E0CE57A3
:102D6000DF4F2881C258D040CF57DF4F4881C1582C
:102D7000D04081E890E08C0F9D1F0396FFD980E042
:102D8000F701EA5CFE4FE491A1E8B0E0AC0FBD1F93
:102D9000A80FB11DEC938F5FAFEFEA1AFA0A8430E7
:102DA00078F3CD57DF4F6881C358D04070E0AB0156
:102DB0004E5F5F4F282F30E0421753070CF700E0BB
:102DC000CE57DF4F2881C258D040CF57DF4F4881C0
:102DD000C158D04081E890E08C0F9D1F0396CED95A
:102DE0009BDA83309105E0F3682FCE01019682DAF9
:102DF00080E0F701EA5CFE4FE491A1E8B0E0AC0F9F
:102E0000BD1FA80FB11DEC938F5FBFEFEB1AFB0A3C
:102E1000843078F3CD57DF4F3880C358D040832CAF
:102E2000912CA4014E5F5F4F282F30E042175307CB
:102E300004F7CE57DF4FB880C258D040CF57DF4F8E
:102E40002880C158D040422D4F716DE680914E11BF
:102E50000E94020D8B2D8DD9C12CD12C612C772491
:102E60007394A1E84A2E512C4C0E5D1EE3E04E0EE9
:102E7000511CC814D90490F5C601409688169906CD
:102E800018F4A32CAC1802C0E0E1AE2E8A2D90E01D
:102E900093012B1931092817390714F4AB2CA1948D
:102EA00092012C0D3D1D08EE13E04A2D6FE6809136
:102EB0004E110E94110DCA0CD11CBA0CC814D904B1
:102EC000C0F6B11001C02394422D4F716DE6809180
:102ED0004E110E94020D8B2D4CD9CBCF1DDA8330C1
:102EE0009105E0F3682FCE01019604DAF701EA5C60
:102EF000FE4F80E09491A1E8B0E0AC0FBD1FA80F99
:102F0000B11D9C938F5F843010F43196F3CFCD5771
:102F1000DF4F6881C358D04070E0AB014E5F5F4F18
:102F2000282F30E04217530784F700E0CE57DF4FD9
:102F30002881C258D040CF57DF4F4881C158D04078
:102F400081E890E08C0F9D1F039618D920E047E0A0
:102F50006AE680914E110E945A0E8AE290E09093A8
:102F6000511180935011FFD8EAD810E001C011E050
:102F70001093930343E85CEE66E080914E110E944B
:102F8000D90C45E454E068E080914E110E94D90CC0
:102F90004BEB54E06AE080914E110E94D90C4BE259
:102FA00050E063E180914E110E94D90C49EF5FEF30
:102FB00065E180914E110E94D90C4DED5FEF67E104
:102FC00080914E110E94D90C11112CC08AE39AE015
:102FD0000DD821E047E06AE680914E110E945A0E1A
:102FE0008BEF99E003D888E997E0909301028093F2
:102FF000000280916A00836080936A00EC9A9FD8F7
:103000008093320881ED99E00E94F60F81E0809371
:10301000330880915011909151119093390B809306
:10302000380B10C080EB99E00E94D50F609193039C
:1030300070E080E090E04AE00E9402108EEA99E0A1
:103040000E94F60F0E9483096093BE0F7093BF0F1A
:103050008093C00F9093C10F01E079E0272E312CAF
:103060008091920381110CC020913A0B30913B0B5F
:103070008091380B9091390B2817390708F425C532
:1030800080913308882309F4CDC41092920357D855
:10309000182F8093320840D990933B0B80933A0BC2
:1030A00014FD03C08115944031F45DD884EB9AE09F
:1030B0000E94F60FB7C411FFB5C400913A0B1091EE
:1030C0003B0BE090380BF090390B0E151F0530F4D8
:1030D00023D990933B0B80933A0BEFCF6E2D82EF69
:1030E00097E008D90E191F0910933B0B00933A0B78
:1030F0000091F60710E0102F00278091F707082BAA
:10310000C090FA07D12CDC2CCC248091FB07C82A74
:10311000E090FE07F12CFE2CEE248091FF07E82AB8
:103120006091F20770E0762F66278091F307682B95
:10313000072E000C880B990B0E94442620E030E0FB
:1031400040E858E30E9424272B013C0160933E1184
:1031500070933F118093401190934111B801110F6A
:10316000880B990B0E94442620E030E040E858E3A9
:103170000E9424274B015C0160934211709343111C
:103180008093441190934511B601DD0C880B990B87
:103190000E94442620E030E040E858E30E942427C3
:1031A000CF55DF4F688379838A839B83C15AD04090
:1031B0006093461170934711809348119093491181
:1031C000B701FF0C880B990B0E94442620E030E0E9
:1031D00040E858E30E942427CB55DF4F688379836A
:1031E0008A839B83C55AD04060934A1170934B11D8
:1031F00080934C1190934D119B01AC01C501B4011A
:103200000E9424276B017C01CF55DF4F2881398133
:103210004A815B81C15AD040C301B2010E94242778
:103220009B01AC01C701B6010E94DE249B01AC01E9
:103230000E94DF24C755DF4F688379838A839B838D
:10324000C95AD040609320117093211180932211AC
:1032500090932311A5019401C301B2010E94242778
:103260006B017C01CB55DF4F288139814A815B811D
:10327000C55AD040CF55DF4F688179818A819B81C3
:10328000C15AD0400E9424279B01AC01C701B6015E
:103290000E94DF249B01AC010E94DF24C355DF4F55
:1032A000688379838A839B83CD5AD04060932411AD
:1032B000709325118093261190932711A3019201F9
:1032C000C301B2010E9424276B017C01A501940176
:1032D000C501B4010E9424279B01AC01C701B601BE
:1032E0000E94DE246B017C01CF55DF4F288139819C
:1032F0004A815B81C15AD040CA01B9010E9424278A
:103300009B01AC01C701B6010E94DE246B017C0168
:10331000CB55DF4F288139814A815B81C55AD04026
:10332000CA01B9010E9424279B01AC01C701B60163
:103330000E94DF24C754DF4F688379838A839B838D
:10334000C95BD040609328117093291180932A1192
:1033500090932B11A3019201C301B2010E94DF24BB
:103360006B017C01A5019401C501B4010E94DF2419
:10337000CF54DF4F688379838A839B83C15BD040BE
:10338000A3019201C701B6010E942427CB54DF4F4D
:10339000688379838A839B83C55BD040A5019401B0
:1033A000CF54DF4F688179818A819B81C15BD04096
:1033B0000E9424279B01AC01CB54DF4F68817981A7
:1033C0008A819B81C55BD0400E94DF2420E030E0F1
:1033D00040E85FE30E94DE24CB54DF4F68837983AB
:1033E0008A839B83C55BD040CF55DF4F28813981CD
:1033F0004A815B81C15AD040CF54DF4F68817981C7
:103400008A819B81C15BD0400E942427CF54DF4F2B
:10341000688379838A839B83C15BD040CB55DF4F20
:10342000288139814A815B81C55AD040C701B601E4
:103430000E9424279B01AC01CF54DF4F6881798122
:103440008A819B81C15BD0400E94DE24CB54DF4F38
:10345000288139814A815B81C55BD0400E94522519
:10346000C354DF4F688379838A839B83CD5BD040CD
:103470006093E6077093E7078093E8079093E90766
:10348000C754DF4F288139814A815B81C95BD040B5
:10349000CA01B9010E9424276B017C01C355DF4F8B
:1034A000288139814A815B81CD5AD040CA01B90156
:1034B0000E942427A70196010E94DF240E948B27E7
:1034C0009B01AC01C755DF4F688179818A819B815F
:1034D000C95AD0400E94A9250E947D25CF53DF4FB5
:1034E000688379838A839B83C15CD0406093EA07B9
:1034F0007093EB078093EC079093ED07C755DF4F70
:10350000288139814A815B81C95AD040CA01B901F9
:103510000E942427A70196010E94DF240E948B2786
:103520009B01AC01C355DF4F688179818A819B8102
:10353000CD5AD0400E94A9250E947D25CB53DF4F54
:10354000688379838A839B83C55CD0406093EE0750
:103550007093EF078093F0079093F10780910E0826
:1035600090E0982F882720910F08AC01422BCF5470
:10357000DF4F59834883C15BD0405093391140934A
:1035800038118091120890E0982F88272091130815
:10359000DC01A22BCB54DF4FB983A883C55BD0409D
:1035A000B0933B11A0933A118091160890E0982FA8
:1035B0008827209117081C01222A30923D11209261
:1035C0003C11BA01550F880B990B0E9444266B01E0
:1035D0007C0120E030E040E056E4C755DF4F6881D1
:1035E00079818A819B81C95AD0400E9424279B01FE
:1035F000AC01C701B6010E94DE240E941126C75506
:10360000DF4F688379838A839B83C95AD040C7552B
:10361000DF4FE881F981C95AD040F0933311E0932C
:103620003211CB54DF4F28813981C55BD040B901BD
:10363000330F880B990B0E9444266B017C0120E01C
:1036400030E040E056E4C355DF4F688179818A81DC
:103650009B81CD5AD0400E9424279B01AC01C70119
:10366000B6010E94DE240E9411266B017C0170933A
:10367000351160933411B101032C000C880B990BA8
:103680000E944426C355DF4F688379838A839B83D6
:10369000CD5AD04020E030E040E056E4C754DF4F40
:1036A000688179818A819B81C95BD0400E942427EF
:1036B0009B01AC01C355DF4F688179818A819B8171
:1036C000CD5AD0400E94DE240E941126C355DF4F00
:1036D000688379838A839B83CD5AD040C355DF4F5B
:1036E00048815981CD5AD0405093371140933611BB
:1036F00086E0E2E3F1E1ACE2B1E101900D928A955E
:10370000E1F7CF57DF4F188219821A821B82C15806
:10371000D040C755DF4FA881B981C95AD040BD01FB
:10372000BB0F880B990B0E944426CB57DF4F688351
:1037300079838A839B83C558D040B601DD0C880B02
:10374000990B0E944426C757DF4F688379838A8389
:103750009B83C958D040C355DF4FE881F981CD5ACA
:10376000D040BF01FF0F880B990B0E944426C3571E
:10377000DF4F688379838A839B83CD58D0402DB7F0
:103780003EB7205131090FB6F8943EBF0FBE2DBF92
:10379000ADB7BEB7119680E1FE01EF57FF4F019024
:1037A0000D928A95E1F76EE371E1CE018F569F4F3E
:1037B0000E94310B80E1FE01EF56FF4FDE01AF5753
:1037C000BF4F01900D928A95E1F749825A826B8230
:1037D0007C82D501C401B0588D839E83AF83B887A6
:1037E000CF55DF4F88819981AA81BB81C15AD040D2
:1037F000B05889879A87AB87BC87CB55DF4F8881C4
:103800009981AA81BB81C55AD040B0588D879E87C7
:10381000AF87B88B4DB75EB7405151090FB6F894DA
:103820005EBF0FBE4DBFADB7BEB7119680E1FE01C2
:10383000319601900D928A95E1F7BE016F577F4F47
:10384000CE018F569F4F0E94310B80E1FE01EF5653
:10385000FF4FDE01AF57BF4F01900D928A95E1F700
:10386000CB57DF4F688179818A819B81C558D040D1
:103870000E9411262B013C0170932D1160932C1195
:10388000C757DF4F688179818A819B81C958D040B1
:103890000E9411264B015C0170932F1160932E1131
:1038A000C357DF4F688179818A819B81CD58D04091
:1038B0000E9411266B017C017093311160933011CD
:1038C0008091BC0F9091BD0F01960FB6F894DEBFAA
:1038D0000FBECDBF8034910529F09093BD0F80932A
:1038E000BC0F04C01092BD0F1092BC0FE091BC0F32
:1038F000F091BD0FCF55DF4FF983E883C15AD04017
:103900008F01000F111F000F111F0454134F20E0EF
:1039100030E044E353E4C354DF4F688179818A8106
:103920009B81CD5BD0400E9424272BED3FE049E4F2
:1039300050E40E94A925D8016D937D938D939C93AB
:103940001397F801F395CB55DF4FF983E883C55AF8
:10395000D04020E030E044E353E4CF53DF4F6881B0
:1039600079818A819B81C15CD0400E9424272BED04
:103970003FE049E450E40E94A925CB55DF4FA881E0
:10398000B981C55AD0406D937D938D939C931397C5
:103990001E5F20E030E044E353E4CB53DF4F688107
:1039A00079818A819B81C55CD0400E9424272BEDC0
:1039B0003FE049E450E40E94A925F8016083718347
:1039C00082839383CF55DF4F28813981C15AD040FC
:1039D000220F331FD901A854B64F11965C924E9214
:1039E000CD0180589F4FFC0191828082B395CD928A
:1039F000DC92F901E85CF74FCF54DF4F2881398121
:103A0000C15BD04031832083DF01A058BF4FCB542E
:103A1000DF4F48815981C55BD0404D935C93F3954E
:103A2000318220828091BC0F9091BD0F009721F0D0
:103A30008C010150110902C00FE310E044E15EEA7D
:103A400067E47FE340933408509335086093360869
:103A500070933708880F991FDC01A45CB34F7D0178
:103A6000FC01E854F54F60817181072E000C880B32
:103A7000990B0E9444262EEA37E441E65EE30E9459
:103A800024274B015C01000F111FF801E45CF34F88
:103A900060817181072E000C880B990B0E944426CF
:103AA00024E13EEA47E45FE30E9424279B01AC0146
:103AB000C501B40184D70E941126F7017183608388
:103AC0001092C40F0E94E406C7CA1091C70F1111CB
:103AD00019C084E30E94B8088130910569F42091EF
:103AE0009403309195032130310531F09093950383
:103AF0008093940311E004C0909395038093940302
:103B00001093C70F82E30E94B8087C01809196034E
:103B100090919703892BF9F4F1E0EF16F104D9F4B1
:103B200080E30E94B808F0929703E0929603892BF5
:103B300049F48FE19EE40197F1F700C0000081E0B5
:103B400090E00FC0AFE1BEE41197F1F700C00000B4
:103B50008FEF9FEF06C0F0929703E092960380E00C
:103B600090E0E090C50FF090C60FE80EF91EF092BD
:103B7000C60FE092C50F8091C40F811171CA809168
:103B8000C20F9091C30F009759F482E090E0909398
:103B9000C30F8093C20F10925906109258066BC142
:103BA0008230910509F047C08091A2039091A30350
:103BB0002091C70F211122C0E80EF91EB3E0EB16C9
:103BC000F10420F4F092A303E092A2038091A203F7
:103BD0009091A3038130910549F08230910549F01D
:103BE000892B09F048C182E492E005C089E492E0A3
:103BF00002C086E592E00E94EE113DC18130910540
:103C000041F08230910541F0892B51F48EE592E02C
:103C100005C084E692E002C080E792E00E94EE11C7
:103C2000E5E0F0E0F093C30FE093C20FF093590684
:103C3000E093580620C18530910509F058C01091D5
:103C4000C70F80919A03811115C082E090E00E9415
:103C5000102AD82E83E090E00E94102A90E0382F9E
:103C60002227C9018D0D911D90939903809398038C
:103C700000939A03111128C0FFEFEF16FF0649F4D5
:103C800080919803909199031816190694F401975E
:103C90000CC0EA94EF2869F48091980390919903FD
:103CA000843F31E093072CF401969093990380931D
:103CB000980387E792E00E943212809198039091D6
:103CC00099030E940512D7C080919803909199039F
:103CD0000E94C61146E050E05093C30F4093C20FBC
:103CE00085E090E09093590680935806C4C08630D2
:103CF000910509F052C04091BE0F5091BF0F6091E5
:103D0000C00F7091C10F483B5B406105710528F5FC
:103D100082E892E00E9432126091BE0F7091BF0F54
:103D20008091C00F9091C10F28EE33E040E050E049
:103D300007D6CA01B9014AE00E9402108CE892E05D
:103D40000E94EE110E9483096093BE0F7093BF0F13
:103D50008093C00F9093C10F8EC0909359068093AB
:103D600058068091A2039091A3038130910571F0D0
:103D70008230910509F474C0892B09F07CC0E7E01A
:103D8000F0E0F093C30FE093C20F75C028E030E07D
:103D90003093C30F2093C20F6EC00A9709F06BC017
:103DA0008091AC03811110C08FE892E00E94EE1167
:103DB0000E9483096093A8037093A9038093AA03C8
:103DC0009093AB030093AC038091AC03882309F478
:103DD00052C06091A4037091A5038091A6039091B5
:103DE000A70328EE33E040E050E0AAD5CA01B901AC
:103DF0004AE00E9402108BE992E00E94C40F0E94E8
:103E00008309C090A803D090A903E090AA03F09082
:103E1000AB03DC01CB018C199D09AE09BF0980936E
:103E2000A4039093A503A093A603B093A703883897
:103E30009341A105B105F8F01092AC0380915806AA
:103E4000909159068830910559F08930910569F0B3
:103E50008730910581F49093C30F8093C20F0BC0FC
:103E60003092C30F2092C20F06C047E050E050933B
:103E7000C30F4093C20F8091C20F9091C30F873040
:103E8000910509F04EC21091C70F8091BC0F90911F
:103E9000BD0FCB55DF4F99838883C55AD040880F1B
:103EA000991F880F991FCF55DF4F99838883C15A77
:103EB000D040FC01E454F24FC080D180E280F38016
:103EC00020E030E0A901C701B601B3D7181664F0AD
:103ED000A70196015058C755DF4F288339834A837D
:103EE0005B83C95AD04008C0C755DF4FC882D9820A
:103EF000EA82FB82C95AD040CF55DF4FE881F98171
:103F0000C15AD040E454F14F80809180A280B380A8
:103F100020E030E0A901C501B4018BD7A5019401CF
:103F200018160CF050584090BC045090BD0460909E
:103F3000BE047090BF04C755DF4F688179818A81C4
:103F40009B81C95AD0403BD5A301920137D520E0CF
:103F500030E0A9016ED720E030E0A901181604F581
:103F6000C701B60166D7181624F0F7FAF094F7F8EF
:103F7000F09420E030E0A901C501B4015AD7181629
:103F800024F0B7FAB094B7F8B094A5019401C70132
:103F9000B60115D5A301920111D54B015C0123C0D7
:103FA000C701B60146D7181624F0F7FAF094F7F8CF
:103FB000F09420E030E0A901C501B4013AD7181609
:103FC00024F0B7FAB094B7F8B094A5019401C701F2
:103FD000B601F5D4A3019201F1D44B015C01B7FA0B
:103FE000B094B7F8B094CF55DF4FE881F981C15A4A
:103FF000D040E454FC4F80829182A282B382E09050
:104000001402F09015023FEFE316F30609F06DC0BD
:104010008091BB03111107C0811112C08EE992E09B
:104020000E94EE11F8C381110BC08092BC049092E3
:10403000BD04A092BE04B092BF040093BB03EBC3C7
:10404000882309F4E8C320E030E040EF51E4C501E3
:10405000B4017BD51816C4F061E08CE20E94E00840
:1040600088ED92E00E9432128091B9039091BA03D8
:104070000E9405128091B9039091BA030196909322
:10408000BA038093B9030CC060E08CE20E94E008A0
:104090001092BA031092B90386EE92E00E94EE11DC
:1040A0008091B9039091BA03843691050CF4B3C39F
:1040B00010921502109214021092BA031092B903D2
:1040C0000E9483096093B5037093B6038093B7038E
:1040D0009093B8038DE093E00E9432128091140215
:1040E000909115020E94051296C348ECE416F10463
:1040F0000CF001C1111102C1CB55DF4FE881F981EC
:10410000C55AD040EE0FFF1FE45CF34FC080D18052
:104110002091B1033091B2034091B3035091B403A5
:10412000C501B40186D6181644F48092B10390926A
:10413000B203A092B303B092B4038091B003811193
:104140003AC05CEAC5165EEFD50684F58091B903E6
:104150009091BA0301969093BA038093B903C497E0
:104160000CF4A7C020E030E040E752E46091B103D6
:104170007091B2038091B3039091B4035AD618168C
:104180000CF097C08BE193E00E94EE110093B00316
:104190000093AF0380E090E0A4EBB2E480931002C0
:1041A00090931102A0931202B09313021092BA03DB
:1041B0001092B9037EC020E030E04CE052E4C5012B
:1041C000B401C3D487FF75C08091AF03882309F47D
:1041D00070C0209110023091110240911202509152
:1041E0001302C501B40125D618160CF062C09FEF6A
:1041F000E91AF90AF0921502E09214021092AF0344
:104200001092B00385E293E00E9432128091140272
:10421000909115020E9433128CE293E00E943212B8
:104220006091B1037091B2038091B3039091B40394
:1042300042E00E9489121092B1031092B2031092D0
:10424000B3031092B40386E393E00E9432120E94FB
:104250008309C090B503D090B603E090B703F09007
:10426000B8036C197D098E099F094AE00E9402106B
:104270008BE992E00E94C40F0E9483096093B5030A
:104280007093B6038093B7039093B80380911402A0
:10429000909115022091AD033091AE032817390794
:1042A00044F49093AE038093AD038FE393E00E94B8
:1042B000EE11CF55DF4FE881F981C15AD040E45467
:1042C000FC4FC080D180E280F380209110023091B9
:1042D00011024091120250911302C701B60135D468
:1042E00087FF99C2C0921002D0921102E09212028E
:1042F000F092130290C2112309F48DC2AFEFBFEF09
:10430000B0931502A0931402EAE0F0E0F093C30F1B
:10431000E093C20F27E030E030935906209358060F
:104320007AC28830910509F0E2C14091BC0F5091EA
:10433000BD0FCF55DF4F59834883C15AD04080917C
:10434000160290911702019641F4109217021092F2
:10435000160280E693E00E94EE1180911602909181
:104360001702883C91050CF0A7C1809054069090EC
:104370005506A0905606B0905706CF55DF4F88815E
:104380009981C15AD040880F991FCB55DF4F99832F
:104390008883C55AD040FC01E45CF34F6081718191
:1043A0008091520690915306681B790B072E000CE2
:1043B000880B990B69D42AE037ED43E25CE344D5DE
:1043C0009B01AC01C501B401FAD26B017C01609381
:1043D0004E0670934F0680935006909351062AE044
:1043E00037ED43E25CE3C501B4012ED520914A06C6
:1043F00030914B0640914C0650914D06E0D24B0156
:104400005C012AE037ED43EA5BE3C701B6011CD546
:104410009B01AC01C501B401D2D22B013C016093D8
:104420004A0670934B0680934C0690934D0620915C
:104430004606309147064091480650914906F9D406
:1044400087FD08C040924606509247066092480693
:1044500070924906209142063091430640914406ED
:1044600050914506C301B20170D3181644F0409232
:104470004206509243066092440670924506C092EE
:104480005406D0925506E0925606F0925706CF5544
:10449000DF4F88819981C15AD040880F991FDC0174
:1044A000AE53BA4F5D01C701B601BBD3F5017183AD
:1044B000608342E0C301B2010E9489128EE693E05C
:1044C0000E94321260914E0670914F068091500604
:1044D0009091510642E00E9489128EE693E00E947C
:1044E0003212CB55DF4F28813981C55AD040245C28
:1044F000334F5901D9018D919C910E94331281E76C
:1045000093E00E94321280911602909117020E944D
:104510000512CF55DF4F28813981C15AD040F501AE
:1045200040815181DA0114967A01F4E0EF1AF10822
:10453000C90164E070E01816190614F4019702C06E
:104540008FE390E0FC01EE0FFF1FE45CF34F01905E
:10455000F081E02DAE17BF0774F0EE15FF055CF09B
:104560006150710941F75093530640935206EE246F
:10457000E394F12C02C0E12CF12CCB55DF4FE88104
:10458000F981C55AD040EE53FA4F808191818D59FF
:104590009F4F873C910530F143E050E080E090E090
:1045A000121613061CF42150310902C02FE330E02B
:1045B000F901EE0FFF1FEE53FA4F60817181860FF4
:1045C000971F4150510961F7009761F063E070E077
:1045D000A4D1161617064CF0672B59F4CC24CA94B4
:1045E000DC2C0BC0C12CD12C08C048ECC42ED12C23
:1045F00004C038E3C32EDD24DA9420E030E046E93D
:1046000053E4609146067091470680914806909168
:1046100049060FD41816ACF58091C0049091C104DE
:1046200088339F4F71F538E3C3163FEFD30649F146
:1046300010924606109247061092480610924906BC
:1046400010924A0610924B0610924C0610924D069C
:1046500010924E0610924F0610925006109251067C
:104660001092540610925506109256061092570654
:1046700080911602909117020196909317028093F1
:104680001602D092C104C092C004EA94EF28A1F4AB
:104690001092540610925506109256061092570624
:1046A00010924E0610924F0610925006109251062C
:1046B0001092C1041092C0048091160290911702CA
:1046C000883C910509F0A7C08FEF9FEF90931702E8
:1046D00080931602AAE0B0E0B093C30FA093C20F7C
:1046E000E8E0F0E0F0935906E093580694C009978B
:1046F00009F091C0E090BC0FF090BD0F80911802BE
:1047000090911902019641F4109219021092180228
:1047100089E793E00E94EE118091180290911902AE
:10472000883C91050CF064C04090DE075090DF0794
:104730006090E0077090E107F701EE0FFF1FE45C67
:10474000F34F60817181072E000C880B990B9CD26E
:104750002AE037ED43E25CE377D39B01AC01C30170
:10476000B2012DD14B015C016093DA077093DB0736
:104770008093DC079093DD072AE037ED43E25CE3AA
:10478000C301B20161D32091E2073091E307409168
:10479000E4075091E50713D12B013C012AE037EDE6
:1047A00043EA5BE3C501B4014FD39B01AC01C301F4
:1047B000B20105D16093E2077093E3078093E407A9
:1047C0009093E5078092DE079092DF07A092E007C2
:1047D000B092E107C701880F991F9C01265A384FF4
:1047E0007901C501B4011DD2D7016D937C9313C02B
:1047F000883C910581F4EFEFFFEFF0931902E0930D
:1048000018022AE030E03093C30F2093C20F309299
:104810005906209258060093C40F1092C70F1092A9
:10482000C60F1092C50F0C943018E3E8F0E1138224
:10483000128288EE93E0A0E0B0E084839583A683A3
:10484000B78326E232E03183208325EC30E03587E0
:10485000248724EC30E03787268720EC30E0318B4A
:10486000208B21EC30E0338B228B22EC30E0358B37
:10487000248B26EC30E0378B268B118E128E138E14
:10488000148E28E620934E11EEE3F1E140E050E073
:1048900060E87FE3408351836283738314821582CF
:1048A0001682178210861186128613861486158644
:1048B00016861786E8E3F1E11182108213821282D4
:1048C00015821482E2E3F1E11182108213821282D6
:1048D00015821482ECE2F1E11182108213821282BD
:1048E00015821482E0E2F1E11082118212821382B9
:1048F00014821582168217821086118612861386FC
:10490000E1E6F1E11382128284839583A683B78363
:1049100086E392E091838083089597FB072E16F437
:10492000009406D077FD08D035D007FC05D03EF4C2
:10493000909581959F4F0895709561957F4F08954B
:10494000A1E21A2EAA1BBB1BFD010DC0AA1FBB1F93
:10495000EE1FFF1FA217B307E407F50720F0A21B05
:10496000B30BE40BF50B661F771F881F991F1A9472
:1049700069F760957095809590959B01AC01BD019C
:10498000CF010895EE0FFF1F881F8BBF0790F69190
:10499000E02D1994AA1BBB1B51E107C0AA1FBB1F26
:1049A000A617B70710F0A61BB70B881F991F5A95BB
:1049B000A9F780959095BC01CD0108955058BB276B
:1049C000AA270ED0FCC1EDD130F0F2D120F031F4A5
:1049D0009F3F11F41EF4BDC10EF4E095E7FBB3C197
:1049E000E92FFED180F3BA17620773078407950792
:1049F00018F071F49EF516C20EF4E0950B2EBA2F46
:104A0000A02D0B01B90190010C01CA01A0011124D4
:104A1000FF27591B99F0593F50F4503E68F11A1680
:104A2000F040A22F232F342F4427585FF3CF469511
:104A300037952795A795F0405395C9F77EF41F1633
:104A4000BA0B620B730B840BBAF09150A1F0FF0FFD
:104A5000BB1F661F771F881FC2F70EC0BA0F621FE9
:104A6000731F841F48F4879577956795B795F795D9
:104A70009E3F08F0B3CF9395880F08F09927EE0F6B
:104A80009795879508958DD158F080E891E009F4C5
:104A90009EEF8ED128F040E851E059F45EEF09C056
:104AA00058C1C0C1E92FE0789BD168F3092E052ACF
:104AB000C1F3261737074807590738F00E2E07F8B5
:104AC000E02569F0E025E0640AC0EF6307F8009490
:104AD00007FADB01B9019D01DC01CA01AD01EF93C9
:104AE00047D06DD10AD05F91552331F02BED3FE0D7
:104AF00049E450FD49EC63CF0895DF93DD27B92FDA
:104B0000BF7740E85FE31616170648075B0710F407
:104B1000D92F93D19F938F937F936F933AD2E8E0ED
:104B2000F1E01AD14CD12F913F914F915F9198D1E3
:104B3000DD2349F09058A2EA2AED3FE049EC5FE31B
:104B4000D0785D274DDFDF913AC1D9D008F481E0FC
:104B500008950CD034C12CD140F023D130F021F491
:104B60005F3F19F0F0C051115EC1F3C039D198F325
:104B70009923C9F35523B1F3951B550BBB27AA27DE
:104B800062177307840738F09F5F5F4F220F331F50
:104B9000441FAA1FA9F333D00E2E3AF0E0E830D01C
:104BA00091505040E695001CCAF729D0FE2F27D01F
:104BB000660F771F881FBB1F261737074807AB07ED
:104BC000B0E809F0BB0B802DBF01FF2793585F4F62
:104BD0002AF09E3F510568F0B6C025C15F3FECF357
:104BE000983EDCF3869577956795B795F7959F5F27
:104BF000C9F7880F911D9695879597F90895E1E07B
:104C0000660F771F881FBB1F621773078407BA07D9
:104C100020F0621B730B840BBA0BEE1F88F7E09534
:104C2000089504D06894B111FEC00895E1D088F0D1
:104C30009F5790F0B92F9927B751A0F0D1F0660F88
:104C4000771F881F991F1AF0BA95C9F712C0B130A3
:104C500081F0E8D0B1E00895E5C0672F782F88276C
:104C6000B85F39F0B93FCCF3869577956795B395E2
:104C7000D9F73EF490958095709561957F4F8F4F51
:104C80009F4F0895E89409C097FB3EF49095809556
:104C9000709561957F4F8F4F9F4F9923A9F0F92F02
:104CA00096E9BB279395F695879577956795B79580
:104CB000F111F8CFFAF4BB0F11F460FF1BC06F5F66
:104CC0007F4F8F4F9F4F16C0882311F096E911C078
:104CD000772321F09EE8872F762F05C0662371F099
:104CE00096E8862F70E060E02AF09A95660F771FAD
:104CF000881FDAF7880F9695879597F90895990F89
:104D00000008550FAA0BE0E8FEEF16161706E80795
:104D1000F907C0F012161306E407F50798F0621BB6
:104D2000730B840B950B39F40A2661F0232B242B8B
:104D3000252B21F408950A2609F4A140A6958FEFAA
:104D4000811D811D089597F99F6780E870E060E0FC
:104D500008959FEF80EC0895DF93CF931F930F93F7
:104D6000FF92EF92DF927B018C01689405C0DA2EEE
:104D7000EF0176D0FE01E894A591259135914591FA
:104D80005591AEF3EF012CDEFE019701A801DA94F4
:104D900079F7DF90EF90FF900F911F91CF91DF9106
:104DA000089500240A941616170618060906089591
:104DB00000240A9412161306140605060895092EF7
:104DC0000394000C11F4882352F0BB0F40F4BF2B66
:104DD00011F460FF04C06F5F7F4F8F4F9F4F0895A6
:104DE00057FD9058440F551F59F05F3F71F047959C
:104DF000880F97FB991F61F09F3F79F08795089581
:104E0000121613061406551FF2CF4695F1DF08C09F
:104E1000161617061806991FF1CF869571056105BC
:104E200008940895E894BB2766277727CB0197F964
:104E3000089565DF08F48FEF08959B01AC0160E0F1
:104E400070E080E89FE385CE0BD0B9CFAADF28F0D1
:104E5000AFDF18F0952309F076CF7BCF1124E3CF95
:104E6000BFDFA0F3959FD1F3950F50E0551F629FD0
:104E7000F001729FBB27F00DB11D639FAA27F00DB3
:104E8000B11DAA1F649F6627B00DA11D661F829FDA
:104E90002227B00DA11D621F739FB00DA11D621FBF
:104EA000839FA00D611D221F749F3327A00D611DDC
:104EB000231F849F600D211D822F762F6A2F1124BE
:104EC0009F5750408AF0E1F088234AF0EE0FFF1F11
:104ED000BB1F661F771F881F91505040A9F79E3F48
:104EE000510570F030CF9FCF5F3FECF3983EDCF37D
:104EF000869577956795B795F795E7959F5FC1F785
:104F0000FE2B880F911D9695879597F9089511F4BA
:104F10000EF41FCF45C06CDFD0F39923D9F3CEF345
:104F20009F57550B87FF4AD00024A0E640EA900126
:104F300080585695979528F4805C660F771F881FD8
:104F400020F026173707480730F4621B730B840BD9
:104F5000202931294A2BA69517940794202531251D
:104F60004A2758F7660F771F881F20F02617370744
:104F7000480730F4620B730B840B200D311D411D6B
:104F8000A09581F7B901842F9158880F9695879540
:104F900008959B01AC0158CFB2DE880B990B0895A0
:104FA0009F3F31F0915020F4879577956795B7959D
:104FB000880F911D9695879597F9089591505040C7
:104FC000660F771F881FD2F70895CF93DF93823043
:104FD000910510F482E090E0E0916F11F091701172
:104FE00020E030E0C0E0D0E0309711F14081518105
:104FF00048175907C0F04817590761F48281938117
:10500000209719F09B838A832BC090937011809313
:105010006F1126C02115310519F04217530718F4F6
:105020009A01BE01DF01EF010280F381E02DDCCFA8
:105030002115310509F1281B390B2430310590F475
:1050400012968D919C9113976115710521F0FB01CA
:105050009383828304C09093701180936F11FD013C
:10506000329644C0FD01E20FF31F819391932250C9
:1050700031092D933C933AC020916D1130916E11FE
:10508000232B41F420911C0230911D0230936E11AC
:1050900020936D1120911A0230911B0221153105C8
:1050A00041F42DB73EB740911E0250911F02241BC0
:1050B000350BE0916D11F0916E11E217F307A0F43A
:1050C0002E1B3F0B2817390778F0AC014E5F5F4F5E
:1050D0002417350748F04E0F5F1F50936E11409311
:1050E0006D118193919302C0E0E0F0E0CF01DF9178
:1050F000CF9108950F931F93CF93DF93009709F4F7
:105100008CC0FC0132971382128200916F111091B2
:1051100070110115110581F420813181820F931FD7
:1051200020916D1130916E112817390779F5F093A0
:105130006E11E0936D1171C0D80140E050E0AE17E0
:10514000BF0750F412962D913C911397AD01211594
:10515000310509F1D901F3CF9D01DA0133832283AF
:1051600060817181860F971F8217930769F4EC01A4
:1051700028813981260F371F2E5F3F4F31832083CF
:105180008A819B8193838283452B29F4F09370114C
:10519000E0936F1142C01396FC93EE931297ED01CA
:1051A000499159919E01240F351FE217F30771F4BD
:1051B00080819181840F951F029611969C938E9306
:1051C0008281938113969C938E931297E0E0F0E096
:1051D000D80112968D919C911397009719F0F801C0
:1051E0008C01F6CF8D919C9198012E5F3F4F820FDD
:1051F000931F20916D1130916E112817390769F4B2
:10520000309729F41092701110926F1102C013821E
:10521000128210936E1100936D11DF91CF911F9147
:105220000F9108956F927F928F929F92AF92BF924B
:10523000CF92DF92EF92FF920F931F93CF93DF9362
:10524000EC01009781F4CB01DF91CF911F910F9179
:10525000FF90EF90DF90CF90BF90AF909F908F9096
:105260007F906F90B2CEFC01E60FF71F9C01225099
:105270003109E217F30708F4A8C0D9010D911C9178
:10528000119706171707A8F00530110508F49BC001
:10529000C80104978617970708F495C002501109B2
:1052A000061B170B019311936D937C93CF0122DFA3
:1052B0008AC05B01A01AB10A4C01800E911EA09118
:1052C0006F11B091701140E050E0E12CF12C10977B
:1052D00009F44AC0A815B905D1F56D907C901197D5
:1052E000630182E0C80ED11CCA14DB0480F1A30163
:1052F0004A195B096A0182E0C80ED11C1296BC9063
:1053000012971396AC91B5E0CB16D10440F0B2825F
:10531000A38351834083D9016D937C930AC00E5FB0
:105320001F4FC301800F911FF90191838083EB2DE3
:10533000FA2FE114F10431F0D7011396FC93EE93A8
:10534000129741C0F0937011E0936F113CC08D91A2
:105350009C9111974817590708F4AC017D011296EA
:105360000D90BC91A02DB3CF80916D1190916E11D5
:1053700088159905E1F446175707C8F480911A0279
:1053800090911B02009741F48DB79EB740911E0289
:1053900050911F02841B950BE817F907B0F4F093A6
:1053A0006E11E0936D11F901718360830CC0CB0124
:1053B0000CDE7C01009749F0A801BE0128D0CE0187
:1053C00099DEC70104C0CE0102C080E090E0DF9109
:1053D000CF911F910F91FF90EF90DF90CF90BF90F2
:1053E000AF909F908F907F906F90089581E090E0B4
:1053F000F8942CC0FB01DC0104C08D910190801950
:1054000021F441505040C8F7881B990B0895FB01C7
:10541000DC0102C001900D9241505040D8F7089530
:10542000F999FECF92BD81BDF89A992780B508956C
:10543000262FF999FECF1FBA92BD81BD20BD0FB6B0
:10544000F894FA9AF99A0FBE01960895F894FFCF4E
:10545000970797079707970797079707970797075C
:105460000000B442FFFFFFFFFFFF0000711180004A
:10547000E803000000007D065E1247062506390697
:10548000C306000000002908FA079C07E607D707B3
:10549000D6074375726C730D0042656E63682050C9
:1054A000726573730D005371756174730D004375EC
:1054B000726C730042656E6368205072657373008E
:1054C00053717561747300576569676874206973F7
:1054D000200057616974696E673A20002F330063BA
:1054E0006F6F6C646F776E2E2E2E000D0A004C6568
:1054F00076656C2064657669636520616E642070F2
:10550000726573732074686520627574746F6E20A1
:10551000746F2073746F72652063616C696272616D
:1055200074696F6E2E2E2E00486F6C642073746940
:105530006C6C3A2025006D6F766520646576696332
:105540006520746F206C6576656C20706F7369746C
:10555000696F6E20746F20626567696E00526570B6
:1055600065746974696F6E733A20005452494747F5
:105570004552454400526570733A20002C20446522
:105580006772733A20002C2074696D653A200070B0
:10559000726576696F7573207265636F72642068D7
:1055A0006173206265656E2062726F6B656E2100AB
:1055B00062656E636870726573732E2E2E002C20E8
:1055C0000020726570733A20007371756174732ED8
:1055D0002E2E006E616E00696E66006F76660000AA
:020000023000CC
:10E000000D9489F10D94B2F10D94B2F10D94B2F129
:10E010000D94B2F10D94B2F10D94B2F10D94B2F1F0
:10E020000D94B2F10D94B2F10D94B2F10D94B2F1E0
:10E030000D94B2F10D94B2F10D94B2F10D94B2F1D0
:10E040000D94B2F10D94B2F10D94B2F10D94B2F1C0
:10E050000D94B2F10D94B2F10D94B2F10D94B2F1B0
:10E060000D94B2F10D94B2F10D94B2F10D94B2F1A0
:10E070000D94B2F10D94B2F10D94B2F10D94B2F190
:10E080000D94B2F10D94B2F10D94B2F10D94B2F180
:10E090000D94B2F10D94B2F10D94B2F10D94B2F170
:10E0A0000D94B2F10D94B2F10D94B2F10D94B2F160
:10E0B0000D94B2F10D94B2F10D94B2F10D94B2F150
:10E0C0000D94B2F10D94B2F10D94B2F10D94B2F140
:10E0D0000D94B2F10D94B2F10D94B2F10D94B2F130
:10E0E0000D94B2F141546D656761323536300041AF
:10E0F000726475696E6F206578706C6F72657220DE
:10E1000073746B3530305632206279204D4C530099
:10E11000426F6F746C6F616465723E004875683F52
:10E1200000436F6D70696C6564206F6E203D200048
:10E130004350552054797065202020203D20005FF9
:10E140005F4156525F415243485F5F3D2000415658
:10E1500052204C696243205665723D20004743437C
:10E160002056657273696F6E203D20004350552024
:10E1700049442020202020203D20004C6F7720663D
:10E18000757365202020203D20004869676820665F
:10E190007573652020203D200045787420667573D6
:10E1A00065202020203D20004C6F636B2066757336
:10E1B000652020203D20004D617220203720323024
:10E1C000313300312E362E3800342E332E350056A2
:10E1D00023202020414444522020206F7020636F70
:10E1E00064652020202020696E73747275637469E1
:10E1F0006F6E2061646472202020496E74657272B3
:10E20000757074006E6F20766563746F7200726A49
:10E210006D702020006A6D70200057686174207056
:10E220006F72743A00506F7274206E6F7420737541
:10E2300070706F72746564004D7573742062652030
:10E2400061206C6574746572002000577269747483
:10E25000696E672045450052656164696E672045B7
:10E26000450045452065727220636E743D00504F35
:10E27000525400303D5A65726F2061646472003FF1
:10E280003D43505520737461747300403D454550C3
:10E29000524F4D207465737400423D426C696E6B41
:10E2A000204C454400453D44756D70204545505215
:10E2B0004F4D00463D44756D7020464C415348001B
:10E2C000483D48656C70004C3D4C69737420492F83
:10E2D0004F20506F72747300513D51756974005234
:10E2E0003D44756D702052414D00563D73686F7707
:10E2F00020696E7465727275707420566563746FF0
:10E30000727300593D506F727420626C696E6B00BD
:10E310002A0011241FBECFEFD1E2DEBFCDBF01E046
:10E320000CBF12E0A0E0B2E0EEE1FDEF03E00BBFB6
:10E3300002C007900D92A030B107D9F712E0A0E01B
:10E34000B2E001C01D92AE30B107E1F70F9460F367
:10E350000D948DFE01E20EBF0FEF0DBF11241FBE05
:10E360000D9460F30D9400F020E030E040ED57E0B4
:10E3700005C0FA013197F1F72F5F3F4F2817390792
:10E38000C0F308959C01260F311DC901A0E0B0E043
:10E390002F5F3F4FABBFFC018791882361F08093D3
:10E3A000C6008091C00086FFFCCF8091C0008064D1
:10E3B0008093C000EACF08958DE08093C6008091DD
:10E3C000C00086FFFCCF8091C00080648093C000B5
:10E3D0008AE08093C6008091C00086FFFCCF8091C8
:10E3E000C00080648093C00008950F94C2F10F9420
:10E3F000DCF10895FC019081992359F09093C600B7
:10E400008091C00086FFFCCF8091C0008064809323
:10E41000C0003196992379F70895282F982F929567
:10E420009F70892F805D8A3308F0895F8093C600D2
:10E430008091C00086FFFCCF8091C00080648093F3
:10E44000C000822F8F70982F905D9A3308F0995FEB
:10E450009093C6008091C00086FFFCCF8091C000E1
:10E4600080648093C00008959C01FB01853691056E
:10E470001CF46330710594F0C90164E670E00F94F8
:10E480002EFE605D7F4F6093C6008091C00086FFC6
:10E49000FCCF8091C00080648093C0002B30310598
:10E4A00014F43297B4F0C90164E670E00F942EFEC4
:10E4B0006AE070E00F942EFE605D7F4F6093C600AF
:10E4C0008091C00086FFFCCF8091C0008064809363
:10E4D000C000C9016AE070E00F942EFEC0968093E0
:10E4E000C6008091C00086FFFCCF8091C000806490
:10E4F0008093C00008951F93182F8EE692EE60E07F
