:10000000F2C500000C94060B0C94DB0A0C94B00AA9
:100010000C94850A0C945A0A0C942F0A0C94040A26
:100020000C94D90911C600000FC600000DC60000CF
:100030000BC6000009C6000007C6000005C6000088
:1000400003C6000001C60000FFC50000FDC500009A
:10005000FBC50000F9C50000F7C500000C948F092E
:10006000F3C500000C9482080C945908EDC50000FB
:10007000EBC50000E9C50000E7C50000E5C50000CC
:10008000E3C50000E1C50000DFC50000DDC50000DC
:10009000DBC50000D9C50000D7C500000C94920E46
:1000A000D3C50000D1C50000CFC50000CDC50000FC
:1000B000CBC50000C9C50000C7C50000C5C500000C
:1000C000C3C50000C1C50000BFC50000BDC500001C
:1000D000BBC50000B9C50000B7C50000B5C500002C
:1000E000B3C5000037073A0729072D073307710703
:1000F0003E07420748074C07500756075A075E0756
:100100007107640768076C07084AD73B3BCE016E4E
:1001100084BCBFFDC12F3D6C74319ABD56833DDA5E
:100120003D00C77F11BED9E4BB4C3E916BAAAABE6D
:10013000000000803F0001B202FFFF01900409238C
:10014000A135016A020600016008000000000000FD
:100150000000006004400000000162020000006036
:100160000400400000037B034CCD6C03AB03365608
:100170007600680402CB47A202180400058BC10177
:100180000C0400000000037F060CC92C979797030E
:100190008903264666006C0220000240040000002D
:1001A00000024404000000000248040000000002B5
:1001B0004C0400000000025004000000000254043F
:1001C0000000000002580400000000025C0400006F
:1001D000000002BC040000000001EC04000040002C
:1001E000037F060CC92C9797970402030D355D0415
:1001F0000904872D353D00A301000000000107869A
:1002000001FE074105F120283038077E01300746FE
:10021000019A074704F1283038076C04F128303878
:100220000216020001FB00003E000B003600010038
:10023000020003000000650054FFEF0000FA800098
:100240000B1282000100020000000000000000000C
:10025000000000000000280000FFFF4581FFFFFABA
:100260007200000000000003E80000000100017FB0
:10027000FFFFFE8001001B000000000000000000E6
:100280000000000000003E03304000000002CAE30E
:10029000093E800000200000000000000040000037
:1002A000006000000041FF000000000B2A00001663
:1002B0005500002182FD872650FD800000001F00B0
:1002C00000000580000000000000010000000200A6
:1002D0000000030000400000000000046F00026501
:1002E0003200005EC040000000000000000000007E
:1002F0000000000000FB8C6F5DFD5D08D9007C7381
:100300003B006C12CC3200139D3200D0D632000874
:1003100000400001F4FFE68079020000000000D0F8
:10032000D600002710FB0000004000000000000085
:1003300000000000000000000100000000000001BB
:1003400000010000000000FA36FFBC308E0005FB03
:10035000F0FFD95BC8FFD09ABE000010A9FFF41EC1
:10036000B200CEBBF7000000010000000400020054
:10037000020200000CFFC280000001800000CF805C
:100380000040000000000000010000000000000626
:100390000000000014000000000000000000000049
:1003A000000000000000000000000000000000004D
:1003B000000000000000000000000000000000003D
:1003C000000000000000000000033F68B6793528F7
:1003D000BCC67ED16C80000000400000000000B26E
:1003E0006A00000000000000000000000000003F64
:1003F000F0000000300000000000000000000000DD
:1004000000000000000000000000000000000000EC
:1004100000000000000000254D002F706D00000559
:10042000AE000C02D00000000000650054FFEF0099
:100430000000000000000001000044000000000C6B
:1004400000000001000000000000650000005400F2
:1004500000FFEF00000000000000000000000000AE
:10046000000000000040000000000000000000004C
:10047000000000000040000000000000000000003C
:100480000000000000000000010000000200000069
:10049000000000000000000000000000000000005C
:1004A000000000000000000000000000000000004C
:1004B0000000000000001B00000000000000000021
:1004C000000000000000000000000000000000002C
:1004D000000000000000000000000000000000001C
:1004E0000040000000001B000000000000000000B1
:1004F00000000000000000000000000000000000FC
:1005000000000000000000000000000000000000EB
:1005100000000000000000000000000000000000DB
:100520000000000000D8DCBAA2F1DEB2B8B4A881A5
:1005300091F74A907F916AF3F9DBA8F9B0BAA080ED
:10054000F2CE81F3C2F1C1F2C3F3CCA2B280F1C604
:10055000D880BAA7DFDFDFF2A7C3CBC5B6F087A28A
:10056000942448703C95406834589B78A2F183925B
:100570002D557DD8B1B4B8A1D09180F270F370F24E
:100580007C80A8F101B09887D943D886C988BAA1E0
:10059000F20EB89780F1A9DFDFDFAADFDFDFF2AA72
:1005A000C5CDC7A90CC92C97979797F1A98926465D
:1005B00066B0B4BA80ACDEF2CAF1B28C02A9B698C9
:1005C00000890E161EB8A9B4992C547CB08AA8963E
:1005D000365676F1B9AFB4B083C0B8A89711B18FD1
:1005E00098B9AFF0240844106418F1A329557DAFE1
:1005F00083B593AFF0002850F1A3869F61A6DADEA1
:10060000DFD9FAA38696DB31A6D9F8DFBAA68FC266
:10061000C5C7B28CC1B8A2DFDFDFA3DFDFDFD8D868
:10062000F1B8A8B286B4980D355DB8AA98B0872DF8
:10063000353DB2B6BAAF8C96198F9FA70E161EB471
:100640009AB8AA872C547CB9A3DEDFDFA3B180F26D
:10065000C4CDC9F1B8A9B499830D355D89B9A32D6D
:10066000557DB593A30E161EA92C547CB8B4B0F1D9
:100670009783A81184A50998A383F0DA240844106D
:100680006418D8F1A529557DA58595021A2E3A56EC
:100690005A4048F9F3A3D9F8F09883240844106429
:1006A000189782A8F111F098A2240844106418DA6F
:1006B000F3DED883A59401D9A302F1A2C3C5C7D89C
:1006C000F18492A24DDA2AD84869D92AD86855DA35
:1006D00032D85071D932D8705DDA3AD85879D93ACF
:1006E000D87893A34DDA2AD84869D92AD86855DA38
:1006F00032D85071D932D8705DDA3AD85879D93AAF
:10070000D878A88A9AF02850789EF38818F19F1D0F
:1007100098A8D908D8C89F129EF315A8DA1210D845
:10072000F1AFC8978734B5B994A421F3D922D8F290
:100730002DF3D92AD8F235F3D932D881A46060617B
:10074000D961D86C6869D969D8747071D971D8B118
:10075000A384193D5DA3831A3E5E9310308110116E
:10076000B8B0AF8F94F2DA3ED8B49AA88729DAF8F5
:10077000D8879A35DAF8D8879A3DDAF8D8B1B9A48B
:100780009885022E56A581000C14A397B08AF12DEE
:10079000D928D84DD948D86DD968D8B1840DDA0E8A
:1007A000D8A32983DA2C0ED8A3844983DA2C4C0EE3
:1007B000D8B8B0A88A9AF520AADADFD8A840AAD07B
:1007C000DADED8A860AADAD0DFD8F19786A8319B04
:1007D000069907AB9728889BF00C201440B8B0B45A
:1007E000A88C9CF0042851791D301438B282ABD00B
:1007F000982C505078789BF11AB0F08A9CA8295117
:10080000798B2951798A2470598B2058718A4469CF
:10081000388B3940688A6448318B304960A588201C
:100820000971584468113964493019F1AC002C54ED
:100830007CF08CA804285078F1889726A85998ACA9
:100840008C02264666F0899CA82951792470594467
:100850006938644831A98809205970AB113840695A
:10086000A8193148608CA83C415C207C00F1879835
:100870001986A86E767EA999882D557D9EB9A38A82
:10088000228A6E8A568A5E9FB183062646660E2E9F
:100890004E6E9DB8AD002C547CF2B18CB499B9A3C6
:1008A0002D557D8191AC38AD3AB58391AC2DD928C9
:1008B000D84DD948D86DD968D88C9DAE29D904AE09
:1008C000D851D904AED879D904D881F39DAD008D23
:1008D000AE1981ADD901D8F2AEDA26D88E9129832E
:1008E000A7D9ADADADADF32AD8D8F1B0AC89913E62
:1008F0005E76F3AC2E2EF1B18C5A9CAC2C282828B5
:100900009CAC3018A8988128343C9724A728343C04
:100910009C24F2B089AC912C4C6C8A9B2DD9D8D8F0
:1009200051D9D8D879D9D8D8F19E88A331DAD8D876
:10093000912DD928D84DD948D86DD968D8B183938D
:10094000353D8025DAD8D88569DAD8D8B49381A323
:1009500028343CF3AB8BF8A391B609B4D9ABDEFADB
:10096000B0879CB9A3DDF1A3A3A3A395F1A3A3A38F
:100970009DF1A3A3A3A3F2A3B49080F2A3A3A3A386
:10098000A3A3A3A3A3A3B2A3A3A3A3A3A3B087B525
:1009900099F1A3A3A398F1A3A3A3A397A3A3A3A3AC
:1009A000F39BA3A3DCB9A7F1262626D8D8FF2900FC
:1009B000444D5020496E697469616C697A6174694B
:1009C0006F6E206661696C65642028636F646520C2
:1009D00000444D502072656164792120576169742B
:1009E000696E6720666F7220666972737420696E23
:1009F000746572727570742E2E2E00456E61626C75
:100A0000696E6720696E74657272757074206465B2
:100A100074656374696F6E202841726475696E6FC6
:100A20002065787465726E616C20696E746572728F
:100A30007570742030292E2E2E00456E61626C690F
:100A40006E6720444D502E2E2E004D5055363035B9
:100A50003020636F6E6E656374696F6E20666169C6
:100A60006C6564004D50553630353020636F6E6EC6
:100A7000656374696F6E2073756363657373667500
:100A80006C00496E697469616C697A696E672044AB
:100A90004D502E2E2E0054657374696E6720646568
:100AA0007669636520636F6E6E656374696F6E73DC
:100AB0002E2E2E004649464F206F766572666C6F6B
:100AC00077210000002100240027002A002D00309B
:100AD00000330001010000040107010A01000022A7
:100AE00000250028002B002E0031003400020100F8
:100AF00000050108010B0100002000230026002949
:100B0000002C002F00320000010000030106010943
:100B10000105050505070508080808020202020A82
:100B20000A08080404040401010101010101010390
:100B300003030303030303040707070C0C0C0C0C4B
:100B40000C0C0C0202020206060606060606060B3E
:100B50000B0B0B0B0B0B0B010210202008081020B5
:100B60004010204080020102010804020101020439
:100B700008102040808040201008040201800402F8
:100B8000018040201008040201080402010102044F
:100B90000810204080010204081020408000000A54
:100BA0000B02090C0D0E08070304010000000000F1
:100BB0000000000000000000000000000000000035
:100BC00000000000000000000012111000000000F2
:100BD0000000000000000000000000000000000015
:100BE00000000000132511241FBECFEFD1E2DEBFAD
:100BF000CDBF00E00CBF13E0A0E0B2E0EEEFF5E502
:100C000000E00BBF02C007900D92AC39B107D9F7D5
:100C100023E1ACE9B3E001C01D92A130B207E1F7D6
:100C200015E0C3EFD5E000E006C021970109802F51
:100C3000FE010E94AD25C23FD10780E00807A9F759
:100C40000E9458130C94FD2ADBC9FC01918D828D02
:100C5000981761F0828DDF01A80FB11D5D968C9110
:100C6000928D9F5F9F73928F90E008958FEF9FEF1B
:100C70000895FC01918D828D981731F0828DE80FD7
:100C8000F11D858D90E008958FEF9FEF0895FC0191
:100C9000918D228D892F90E0805C9F4F821B91095E
:100CA0008F739927089583E192E1F1DF21E0892B89
:100CB00009F420E0822F0895FC01848DDF01A80F44
:100CC000B11DA35ABF4F2C91848D90E001968F7374
:100CD0009927848FA689B7892C93A089B1898C9193
:100CE00080648C93938D848D981306C00288F38959
:100CF000E02D80818F7D80830895EF92FF920F9386
:100D00001F93CF93DF93EC0181E0888F9B8D8C8DB7
:100D1000981305C0E889F989808185FD23C0F62EE6
:100D20000B8D10E00F5F1F4F0F731127E02E8C8D7E
:100D3000E8120BC00FB607FCFACFE889F989808169
:100D400085FFF5CFCE01B8DFF2CF8B8DFE01E80F26
:100D5000F11DE35AFF4FF0820B8FEA89FB898081F6
:100D6000806207C0EE89FF896083E889F989808104
:100D70008064808381E090E0DF91CF911F910F919B
:100D8000FF90EF900895CF93DF93EC01888D882337
:100D9000C1F0EA89FB89808185FD05C0A889B989F0
:100DA0008C9186FD0EC00FB607FCF5CF808185FFC4
:100DB000F2CFA889B9898C9185FFEDCFCE017CDF78
:100DC000E8CFDF91CF91089580E090E0892B19F072
:100DD0006ADF811125C080E090E0892B41F080E03E
:100DE00090E0892B21F00E94000081111CC080E05E
:100DF00090E0892B41F080E090E0892B21F00E9467
:100E00000000811113C080E090E0892BA1F080E008
:100E100090E0892B81F00E94000081110AC00895A2
:100E20000E940000D8CF0E940000E1CF0E94000085
:100E3000EACF0C940000089590E0FC013197E23174
:100E4000F10508F04EC08827EE58FF4F8F4F0C94E5
:100E5000AD25809180008F7703C0809180008F7DC9
:100E600080938000089580918000877FF9CF84B5BA
:100E70008F7702C084B58F7D84BD08958091B000C6
:100E80008F7703C08091B0008F7D8093B00008956C
:100E9000809190008F7707C0809190008F7D03C074
:100EA00080919000877F8093900008958091A000AA
:100EB0008F7707C08091A0008F7D03C08091A00034
:100EC000877F8093A0000895809120018F7707C0CD
:100ED000809120018F7D03C080912001877F8093C6
:100EE000200108953FB7F8948091C4119091C511E5
:100EF000A091C611B091C71126B5A89B05C02F3F80
:100F000019F00196A11DB11D3FBFBA2FA92F982F2F
:100F10008827820F911DA11DB11DBC01CD0142E0AA
:100F2000660F771F881F991F4A95D1F70895089576
:100F300081E080939E03089580919C0390E020912E
:100F40009D03821B9109089585ED8093BC008091DB
:100F5000BC0084FDFCCF1092EE11089540917A11EF
:100F6000262F30E0240F311D21323105DCF4209191
:100F7000EE112430C9F4FC0180E090E0861758F4AB
:100F800030917A112191DC01A85ABE4EA30FB11DF8
:100F90002C930196F3CF80917A11680F60937A11A8
:100FA00080E0089581E0089582E008950895E09139
:100FB0009D0380919C03E81730F4F0E0E156FE4E6B
:100FC000808190E008958FEF9FEF089590919D03A9
:100FD00080919C03981750F4E92FF0E0E156FE4E03
:100FE000208130E09F5F90939D0302C02FEF3FEF81
:100FF000C9010895CF92DF92EF92FF920F931F9352
:10100000CF93DF937C01262F972F8A018091EF11D8
:10101000882391F0C62FD72F6E01C40ED51ECC1594
:10102000DD0569F06991D701ED91FC910190F081A6
:10103000E02DC7011995F3CF642F822F8FDFC801F0
:10104000DF91CF911F910F91FF90EF90DF90CF90A4
:101050000895CF93DF931F92CDB7DEB769832091B8
:10106000EF112223D1F020911212203240F021E022
:1010700030E0FC013383228380E090E014C0809153
:10108000F011E82FF0E0EF50FE4E998190838F5FD2
:101090008093F0118093121204C061E0CE0101969A
:1010A0005DDF81E090E00F90DF91CF9108950E9485
:1010B000CD2A1F920F920FB60F9211240BB60F92EA
:1010C0002F933F934F935F936F937F938F939F9350
:1010D000AF93BF93EF93FF9383E192E1EDDDFF9137
:1010E000EF91BF91AF919F918F917F916F915F91A0
:1010F0004F913F912F910F900BBE0F900FBE0F900D
:101100001F9018951F920F920FB60F9211240BB6D5
:101110000F922F938F939F93EF93FF93E09123125E
:10112000F09124128081E0912912F0912A1282FD1F
:1011300012C0908180912C128F5F8F7320912D129D
:10114000821751F0E0912C12F0E0ED5EFD4E958F8C
:1011500080932C1201C08081FF91EF919F918F911C
:101160002F910F900BBE0F900FBE0F901F901895F0
:10117000CF93DF93282F30E0F901E356F44F8491A9
:10118000F901E95AF44FD491F901EF5EF44FC4919B
:10119000CC2389F0811150DEEC2FF0E0EE0FFF1F21
:1011A000E950F54FA591B491EC91ED2381E090E0E9
:1011B00021F480E002C080E090E0DF91CF910895BB
:1011C0001F93CF93DF93282F30E0F901E356F44FBC
:1011D0008491F901E95AF44FD491F901EF5EF44F8B
:1011E000C491CC23C1F0162F811126DEEC2FF0E044
:1011F000EE0FFF1FE352F54FA591B4918FB7F8940E
:10120000111105C09C91ED2FE095E92302C0EC91EE
:10121000ED2BEC938FBFDF91CF911F910895CF936A
:10122000DF9390E0FC01E95AF44F2491FC01EF5E5A
:10123000F44F8491882361F190E0880F991FFC019D
:10124000ED53F54FC591D491FC01E352F54FA591B3
:10125000B491611109C09FB7F894888120958223C9
:101260008883EC912E230BC0623061F49FB7F89411
:101270003881822F809583238883EC912E2B2C93A9
:101280009FBF06C08FB7F894E8812E2B28838FBFAD
:10129000DF91CF9108958F929F92AF92BF92CF929C
:1012A000DF92EF92FF926B017C011CDE4B015C012F
:1012B000C114D104E104F104E9F014DEDC01CB0136
:1012C00088199909AA09BB09883E9340A105B1056F
:1012D00078F321E0C21AD108E108F10888EE880EFF
:1012E00083E0981EA11CB11CC114D104E104F104D7
:1012F00021F7DECFFF90EF90DF90CF90BF90AF90BF
:101300009F908F9008952FB7F8946091C0117091BD
:10131000C1118091C2119091C3112FBF08951F92E6
:101320000F920FB60F9211242F933F938F939F9399
:10133000AF93BF938091C0119091C111A091C21140
:10134000B091C3113091BF1123E0230F2D3720F44A
:101350000196A11DB11D05C026E8230F0296A11D0F
:10136000B11D2093BF118093C0119093C111A09320
:10137000C211B093C3118091C4119091C511A09175
:10138000C611B091C7110196A11DB11D8093C41162
:101390009093C511A093C611B093C711BF91AF919F
:1013A0009F918F913F912F910F900FBE0F901F90A3
:1013B00018951F920F920FB60F9211240BB60F9231
:1013C0002F933F934F935F936F937F938F939F934D
:1013D000AF93BF93EF93FF93E0910E02F0910F0252
:1013E0001995FF91EF91BF91AF919F918F917F914F
:1013F0006F915F914F913F912F910F900BBE0F9086
:101400000FBE0F901F9018951F920F920FB60F925C
:1014100011240BB60F922F933F934F935F936F93CB
:101420007F938F939F93AF93BF93EF93FF93E0913D
:101430000C02F0910D021995FF91EF91BF91AF91C0
:101440009F918F917F916F915F914F913F912F91DC
:101450000F900BBE0F900FBE0F901F9018951F920C
:101460000F920FB60F9211240BB60F922F933F934A
:101470004F935F936F937F938F939F93AF93BF939C
:10148000EF93FF93E0910202F09103021995FF910F
:10149000EF91BF91AF919F918F917F916F915F91EC
:1014A0004F913F912F910F900BBE0F900FBE0F9059
:1014B0001F9018951F920F920FB60F9211240BB622
:1014C0000F922F933F934F935F936F937F938F93DD
:1014D0009F93AF93BF93EF93FF93E0910002F0913E
:1014E00001021995FF91EF91BF91AF919F918F915B
:1014F0007F916F915F914F913F912F910F900BBE14
:101500000F900FBE0F901F9018951F920F920FB65D
:101510000F9211240BB60F922F933F934F935F932B
:101520006F937F938F939F93AF93BF93EF93FF93AB
:10153000E0910A02F0910B021995FF91EF91BF9192
:10154000AF919F918F917F916F915F914F913F915B
:101550002F910F900BBE0F900FBE0F901F901895FC
:101560001F920F920FB60F9211240BB60F922F936A
:101570003F934F935F936F937F938F939F93AF931B
:10158000BF93EF93FF93E0910802F0910902199540
:10159000FF91EF91BF91AF919F918F917F916F914B
:1015A0005F914F913F912F910F900BBE0F900FBE07
:1015B0000F901F9018951F920F920FB60F92112443
:1015C0000BB60F922F933F934F935F936F937F933D
:1015D0008F939F93AF93BF93EF93FF93E091060296
:1015E000F09107021995FF91EF91BF91AF919F91F3
:1015F0008F917F916F915F914F913F912F910F90BC
:101600000BBE0F900FBE0F901F9018951F920F9258
:101610000FB60F9211240BB60F922F933F934F9357
:101620005F936F937F938F939F93AF93BF93EF934A
:10163000FF93E0910402F09105021995FF91EF915B
:10164000BF91AF919F918F917F916F915F914F91DA
:101650003F912F910F900BBE0F900FBE0F901F90D8
:1016600018954F925F926F927F928F929F92AF9256
:10167000BF92CF92DF92EF92FF920F931F93CF937F
:10168000DF93CDB7DEB768970FB6F894DEBF0FBE15
:10169000CDBF8C01FB018CA59DA5AEA5BFA58D87F7
:1016A0009E87AF87B88B88A999A9AAA9BBA9898B5E
:1016B0009A8BAB8BBC8B8CA99DA9AEA9BFA98D8B36
:1016C0009E8BAF8BB88F88AC99ACAAACBBACC080FA
:1016D000D180E280F38084819581A681B78189835E
:1016E0009A83AB83BC8380859185A285B3858D83E6
:1016F0009E83AF83B88784859585A685B7858987BE
:101700009A87AB87BC872D853E854F855889C70151
:10171000B6010E94FB272B013C0129893A894B899C
:101720005C8969817A818B819C810E94FB279B0166
:10173000AC01C301B2010E94B5252B013C012D89EA
:101740003E894F89588D6D817E818F8198850E9459
:10175000FB279B01AC01C301B2010E94B5252B01FF
:101760003C01A501940169857A858B859C850E9441
:10177000FB279B01AC01C301B2010E94B525D80132
:101780006D937D938D939C93139729893A894B8907
:101790005C89C701B6010E94FB272B013C012D8506
:1017A0003E854F85588969817A818B819C810E9411
:1017B000FB279B01AC01C301B2010E94B6252B019E
:1017C0003C01A50194016D817E818F8198850E94E5
:1017D000FB279B01AC01C301B2010E94B6252B017E
:1017E0003C012D893E894F89588D69857A858B8585
:1017F0009C850E94FB279B01AC01C301B2010E94A2
:10180000B525F80164837583868397832D893E8986
:101810004F89588DC701B6010E94FB272B013C015F
:10182000A501940169817A818B819C810E94FB27AB
:101830009B01AC01C301B2010E94B5252B013C0103
:101840002D853E854F8558896D817E818F81988554
:101850000E94FB279B01AC01C301B2010E94B62587
:101860002B013C0129893A894B895C8969857A85F4
:101870008B859C850E94FB279B01AC01C301B201B3
:101880000E94B625D80118966D937D938D939C93F5
:101890001B97A5019401C701B6010E94FB276B01AC
:1018A0007C012D893E894F89588D69817A818B8190
:1018B0009C810E94FB279B01AC01C701B6010E94DD
:1018C000B6256B017C0129893A894B895C896D8138
:1018D0007E818F8198850E94FB279B01AC01C70107
:1018E000B6010E94B5256B017C012D853E854F8593
:1018F000588969857A858B859C850E94FB279B0189
:10190000AC01C701B6010E94B625F801648775874E
:1019100086879787C80168960FB6F894DEBF0FBE1A
:10192000CDBFDF91CF911F910F91FF90EF90DF908E
:10193000CF90BF90AF909F908F907F906F905F906F
:101940004F900895EF92FF920F931F93CF93DF93E1
:101950001F921F92CDB7DEB7142F91E09093EF1135
:10196000809311121092F0111092121281EF92E1F5
:1019700029833A836EDB2981022FE22E3A81F32EEE
:101980008E2D801B811738F4F70161917F0181EF63
:1019900092E15FDBF5CF76D391E0811190E0892F62
:1019A0000F900F90DF91CF911F910F91FF90EF90CB
:1019B00008951F93CF93DF931F921F92CDB7DEB789
:1019C0005A83498391E09093EF1180931112109202
:1019D000F0111092121281EF92E13BDB19816A81C2
:1019E00081EF92E136DB612F81EF92E132DB4AD366
:1019F00091E0811190E0892F0F900F90DF91CF91AE
:101A00001F910895CF93DF931F92CDB7DEB749831F
:101A10009E012F5F3F4F41E095DF0F90DF91CF9107
:101A200008952F923F924F925F926F927F928F9282
:101A30009F92AF92BF92CF92DF92EF92FF920F935D
:101A40001F93CF93DF93CDB7DEB727970FB6F894E8
:101A5000DEBF0FBECDBFE82E6B834F83690153DC21
:101A60004B015C016E2C660CF12C1E827724739462
:101A70005F81452F50E05D834C831801412C512C30
:101A80004F81F41608F095C07092EF11E092111298
:101A90001092F011109212126B8181EF92E1D9DA5B
:101AA000F1D27092EF11E09211121092F011109297
:101AB00012128091EE118111FCCF2C813D812F19E2
:101AC00031092132310514F020E230E0213208F0F2
:101AD00020E27092EE117092ED118FEF8093EC1175
:101AE0001092EB11820F8093EA117092C9118091CC
:101AF000C91186298093C9118091C811813071F470
:101B00001092C8118091C9118093BB008091BC00D4
:101B100083FDF8CF95EC9093BC0003C0E5EEE09315
:101B2000BC008091EE118130E1F38091EB118217BE
:101B300010F42091EB11AAECB1E1EFE9F1E18E2F65
:101B40004FE951E1841B821718F48D918193F7CFEF
:101B500010929D0320939C0390919C0380919D0380
:101B6000981709F10115110591F4A6012E81420F74
:101B7000511D27FD5A955A83498381EF92E126DA58
:101B8000E981FA8180832E812F5F2E83E5CFBBDB35
:101B9000DC01CB0188199909AA09BB0982159305B3
:101BA000A405B50510F38F81813208F080E2F80EAC
:101BB00067CFFE8001151105D1F0A5DBDC01CB015B
:101BC00088199909AA09BB0920E030E0801791071C
:101BD000A207B30760F05F81252F30E08F2D0F2C17
:101BE000000C990B8217930714F4FF24FA948F2D9D
:101BF00027960FB6F894DEBF0FBECDBFDF91CF9111
:101C00001F910F91FF90EF90DF90CF90BF90AF901A
:101C10009F908F907F906F905F904F903F902F900C
:101C20000895BF92CF92DF92EF92FF920F931F938E
:101C3000CF93DF931F92CDB7DEB7F82EE62EC42EDA
:101C4000B22ED02E08EE13E09E012F5F3F4F41E0F1
:101C5000E8DE882319F1EC2DF0E0EB19F10931965B
:101C600021E030E002C0220F331FBA94E2F7215086
:101C700031090E2E01C0220F0A94EAF78D2D01C002
:101C8000880FEA95EAF7422F409599814923282346
:101C9000422B49836E2D8F2DB5DE01C080E00F9061
:101CA000DF91CF911F910F91FF90EF90DF90CF9038
:101CB000BF900895CF92DF92EF92FF920F931F9300
:101CC000CF93DF931F92CDB7DEB7F82EE62ED42E3A
:101CD000C22E08EE13E09E012F5F3F4F41E0A1DED0
:101CE0009981CC2041F041E050E001C0440FDA94EA
:101CF000EAF7492B09C021E030E0A90101C0440FF7
:101D0000DA94EAF74095492349836E2D8F2D7ADEC8
:101D10000F90DF91CF911F910F91FF90EF90DF9087
:101D2000CF9008951F920F920FB60F9211240BB609
:101D30000F922F933F934F935F936F937F938F9364
:101D40009F93AF93BF93EF93FF938091B900887FE8
:101D5000803609F49CC068F5883209F45BC090F4C1
:101D6000803109F454C038F4882309F4F6C088306F
:101D700009F44DC0F6C0883109F44CC0803209F432
:101D80005DC0EFC0803409F468C048F4803309F4C2
:101D900055C0883309F0E5C08093EC11D8C0803578
:101DA00009F44FC0883509F45DC0883409F0D9C002
:101DB000D6C0883909F4C7C0A8F4883709F467C0C9
:101DC00038F4883609F463C0803709F460C0C9C0AC
:101DD000883809F4B8C0803909F45FC0803809F048
:101DE000C0C05BC0803B09F486C038F4803A09F477
:101DF00066C0883A09F47FC0B4C0803C09F4A7C02B
:101E0000883C09F4A4C0883B09F48AC0AAC0809128
:101E1000C91110C09091EB118091EA11981770F5DB
:101E2000E091EB1181E08E0F8093EB11F0E0E6532F
:101E3000FE4E80818093BB0085EC86C08093EC11C0
:101E40008EC0E091EB1181E08E0F8093EB118091B9
:101E5000BB00F0E0E653FE4E80839091EB11809141
:101E6000EA116EC0E091EB1181E08E0F8093EB11CF
:101E70008091BB00F0E0E653FE4E80838091ED112F
:101E800081116DC081E08093C81184EA61C083E054
:101E90008093EE1110929E11CFCF80919E118032CF
:101EA00008F051C0E0919E1181E08E0F80939E1149
:101EB0008091BB00F0E0E258FE4E8083BDCF85EC00
:101EC0008093BC001092EE1180919E11803230F40C
:101ED000E0919E11F0E0E258FE4E108260919E115A
:101EE00070E0E0917C11F0917D118EE791E1199500
:101EF00010929E1136C084E08093EE1110927B11F7
:101F000010927A11E0917811F091791119958091E0
:101F10007A11811105C081E080937A1110925811D5
:101F2000E0917B1181E08E0F80937B11F0E0E85A05
:101F3000FE4E80818093BB0090917B1180917A113D
:101F4000981708F479CF85E88093BC000AC085EC27
:101F50008093BC001092EE1104C01092EC110E940C
:101F6000A407FF91EF91BF91AF919F918F917F91C6
:101F70006F915F914F913F912F910F900BBE0F90FA
:101F80000FBE0F901F901895009761F0FC01019013
:101F90000020E9F73197AF01481B590BBC0183E1E1
:101FA00092E18CC280E090E008950F931F93CF934D
:101FB000DF938C01C0E0D0E0F801EC0FFD1F6491CD
:101FC000662371F0E0911312F09114120190F081E8
:101FD000E02D83E192E11995892B11F02196ECCF48
:101FE000CE01DF91CF911F910F910895CF93DF9391
:101FF000DCDFEC018FE992E0C7DF8C0F9D1FDF91E2
:10200000CF9108958F929F92AF92BF920F931F939B
:10201000CF93DF93CDB7DEB7A1970FB6F894DEBFAD
:102020000FBECDBF19A2423008F44AE08E010F5D09
:102030001F4F842E912CA12CB12CA50194010E943C
:102040008B25E62FB901CA0101501109EA3014F4B9
:10205000E05D01C0E95CD801EC93232B242B252BF8
:1020600061F7C80191DFA1960FB6F894DEBF0FBEED
:10207000CDBFDF91CF911F910F91BF90AF909F90F7
:102080008F9008952091121290911112213208F030
:102090004AC08091EE118111FCCF32E03093EE11F5
:1020A00031E03093ED113FEF3093EC111092EB11D2
:1020B0002093EA11A1EFB1E14AEC51E1FA013E2F80
:1020C000341B321718F43D913193F9CF1092C91196
:1020D0002091C911990F922B9093C9119091C81119
:1020E000913061F41092C8119091C9119093BB0086
:1020F0009091BC0093FDF8CF95EC01C095EE9093C4
:10210000BC009091EE119230E1F39091EC119F3F61
:1021100079F08091EC11803241F08091EC118033A4
:1021200031F084E005C081E003C082E001C083E0BB
:102130001092F011109212121092EF1108950F9355
:102140001F93CF93DF93CEEDD2E108EE13E02FED96
:1021500032E141E06AE3888164DC8981DF91CF91DB
:102160001F910F91089521E042E06AE68091DE120E
:10217000A1CD482F6EE68091DE1244CC2F923F9283
:102180004F925F926F927F928F929F92AF92BF9287
:10219000CF92DF92EF92FF920F931F93CF93DF9333
:1021A0003C015B01342ED22F202E4F716DE68091C1
:1021B000DE1228DC8D2FDDDF80E190E00E94BC285C
:1021C0006C01002339F080E190E00E94BC28C82F08
:1021D000492E02C0C0E0412CE12CF12CEA14FB0492
:1021E00008F068C0C7014096A816B90618F45A2C22
:1021F0005E1802C080E1582E852D90E020E031E08D
:102200002D1B31092817390714F45D2E5194F30161
:10221000EE0DFF1D222059F09C2FAC2FB42D8A2FDC
:10222000891B851530F484918D933196F8CFCE2F8C
:102230004F2E2C2F342D452D6FE68091DE1282DB40
:10224000852C912CC114D10411F1432D4F716DE6F1
:102250008091DE12D7DB8D2F8CDF08EE13E0960124
:10226000452D6FE68091DE12DCDBA401B6018C2FD8
:10227000942D0E94D12A892B51F0C6010E94512928
:10228000222011F18C2F942D0E9451291DC0E80CA1
:10229000F91CD50DEA14FB0408F0A0CFD11101C040
:1022A0003394432D4F716DE68091DE12ABDB8D2FA1
:1022B00060DF94CFC6010E945129222039F08C2F73
:1022C000942D0E94512902C080E001C081E0DF917D
:1022D000CF911F910F91FF90EF90DF90CF90BF9023
:1022E000AF909F908F907F906F905F904F903F90B6
:1022F0002F9008950F931F93662349F0462F9C015A
:1023000008EE13E064E78091DE128BDB02C0FC0173
:1023100010821F910F9108950F931F93CF93DF9316
:10232000CEEDD2E108EE13E02FED32E142E062E7BC
:10233000888177DB898190E0982F88272A81822BFA
:10234000DF91CF911F910F910895EF92FF920F931C
:102350001F93CF93DF931F92CDB7DEB77A01890128
:102360009E012F5F3F4F41E05CDB882339F02981DC
:102370002E7730E035952795F70120830F90DF9178
:10238000CF911F910F91FF90EF9008951F93CF93DE
:10239000DF931F92CDB7DEB7682F192F82E090E050
:1023A00069830E94E72A6981681721F082E090E042
:1023B0000E94EF2A83E090E00E94E72A181749F074
:1023C000612F83E090E00F90DF91CF911F910C94EB
:1023D000EF2A0F90DF91CF911F910895CF93DF9354
:1023E000D3DDEC018FE992E0CFDD8C0F9D1FDF91F3
:1023F000CF910895E0911312F09114120190F081A1
:10240000E02D682F83E192E11994CF92DF92EF9251
:10241000FF92CF93DF936C01990FEE08FF08F7FE50
:1024200010C08DE2E7DFEC0166277727CB016C193E
:102430007D098E099F094AE0E5DD7C01EC0EFD1E59
:1024400005C04AE0C701B601DDDD7C018FE992E0FD
:102450009BDD8E0D9F1DDF91CF91FF90EF90DF9060
:10246000CF90089591CDCF92DF92EF92FF92CF93CC
:10247000DF936C01990FEE08FF08F7FE15C08DE29F
:10248000B9DFEC0166277727CB016C197D098E092E
:102490009F094AE0B7DD8C0F9D1FDF91CF91FF9020
:1024A000EF90DF90CF9008954AE0C701B601DF9129
:1024B000CF91FF90EF90DF90CF90A4CDCF92DF929D
:1024C000EF92FF920F931F93CF93DF936C017A01EA
:1024D0008B01C0E0D0E0CE15DF0589F0D8016D9109
:1024E0008D01D601ED91FC910190F081E02DC601A6
:1024F0001995892B11F47E0102C02196ECCFC701FA
:10250000DF91CF911F910F91FF90EF90DF90CF90CF
:1025100008954F925F926F927F928F929F92AF92A7
:10252000BF92CF92DF92EF92FF926B017C01B42EAB
:102530009B01AC010E94A328882319F08FE893E047
:1025400027C026013701E89477F82FEF3FEF4FE7D8
:102550005FE7C301B2010E94A32881110DC02FEFD4
:102560003FEF4FE75FE7C301B2010E947C261816D8
:102570001CF483E993E00CC02FEF3FEF4FE75FE4DB
:10258000C701B6010E94F02718167CF487E993E092
:10259000FF90EF90DF90CF90BF90AF909F908F9083
:1025A0007F906F905F904F90EFCC2FEF3FEF4FE712
:1025B0005FECC701B6010E947C2687FDE7CF20E0D3
:1025C00030E0A901C701B6010E947C2687FF08C040
:1025D0008DE210DF4C01F7FAF094F7F8F09402C0A6
:1025E000812C912CA12C60E070E080E09FE3AB1483
:1025F00041F020E030E040E251E40E948026A394C4
:10260000F6CF9B01AC01C701B6010E94B6252B0194
:102610003C010E94ED266B017C010E9419279B0161
:10262000AC01C301B2010E94B5252B013C014AE077
:10263000C701B601E7DC7C01E80CF91CBB2021F0E6
:102640008EE2D8DEE80EF91EDB2CDD2019F120E049
:1026500030E040E251E4C301B2010E94FB272B01AC
:102660003C010E94ED264B01A12CB12C4AE0C50192
:10267000B401C8DCE80EF91EC501B4010E94192797
:102680009B01AC01C301B2010E94B5252B013C01A5
:10269000DA94DBCFC701FF90EF90DF90CF90BF902F
:1026A000AF909F908F907F906F905F904F90089524
:1026B000CF93DF93CDB7DEB7CA5CD1090FB6F894DC
:1026C000DEBF0FBECDBF789484B5826084BD84B573
:1026D000816084BD85B5826085BD85B5816085BD1D
:1026E00080916E00816080936E00109281008091D5
:1026F000810082608093810080918100816080935D
:102700008100809180008160809380008091B10081
:1027100084608093B1008091B00081608093B000AC
:1027200080919100826080939100809191008160FE
:1027300080939100809190008160809390008091BF
:10274000A10082608093A1008091A10081608093AC
:10275000A1008091A00081608093A0008091210160
:102760008260809321018091210181608093210109
:102770008091200181608093200180917A008460A3
:1027800080937A0080917A00826080937A008091B1
:102790007A00816080937A0080917A0080688093CB
:1027A0007A001092C10060E082E30E940F0960E0AD
:1027B00080E30E940F0961E08CE20E940F0980E033
:1027C00090E00E94E72A811108C06FEF80E090E05E
:1027D0000E94EF2A86E990E0D9DDECE4FEE068E4AF
:1027E0007BE04CEC5CE080E090E010821182128291
:1027F0001382DF01B3951D921D921D921C921397B7
:10280000B3951D921D921D921C921397DB011D9290
:102810001D92BD019C01285B344FD901A058BF4FC8
:1028200011961C921E92A058BF4F1D921C92DA0165
:102830001D921D92AD019C012453334FD901A05824
:10284000BF4F11961C921E92A058BF4F1D921C9212
:10285000349602968038910541F610929D031092AD
:102860009C031092F011109212121092EE1181E05E
:102870008093ED111092C81161E084E10E94E0089C
:1028800061E085E10E94E0088091B9008E7F80932D
:10289000B9008091B9008D7F8093B90088E480935E
:1028A000B80085E48093BC008CE08093B800E09190
:1028B0002312F091241282E08083E0911F12F091A4
:1028C00020121082E0912112F091221280E1808387
:1028D00010922B12E0912712F091281286E080834B
:1028E000E0912512F0912612808180618083E09131
:1028F0002512F0912612808188608083E091251254
:10290000F0912612808180688083E0912512F091F9
:10291000261280818F7D808386E99AE067DB28EE2E
:1029200033E04FED52E165E78091DE120EDD8091DC
:10293000DF12843319F08AE49AE002C084E69AE058
:1029400055DB82E89AE052DB21E047E06BE68091BC
:10295000DE12B0D96EE170E080E090E00E944B0999
:1029600020E046E06BE68091DE12A4D940E76DE6F8
:102970008091DE1247D886E0FCDB40E06DE6809176
:10298000DE1240D828EE33E04FED52E160E0809156
:10299000DE12DBDC8090DF1228EE33E04FED52E1F7
:1029A00061E08091DE12D1DC9090DF1228EE33E0FE
:1029B0004FED52E162E08091DE12C7DCA090DF12A1
:1029C0004FE765E28091DE121DD820E045E06AE61F
:1029D0008091DE126FD948E665E28091DE1212D84E
:1029E00021E041E06AE68091DE1264D964E170E0A2
:1029F00080E090E00E944B0901E020E040E069E8BF
:102A000077E085E292E0BADB882309F4B0C288E07F
:102A100090E00E94BC28B82E192FE12CF12CF70170
:102A2000EB59FE4F4491F701EA59FE4F249167019B
:102A3000B3E0CB0ED11CF701E959FE4FE491EE2330
:102A4000C9F1EE2EF12CE330D8F0B7018B2D912F88
:102A5000C653DF4F2883CA5CD040C753DF4F48833B
:102A6000C95CD0400E94E929B82E192FC753DF4F07
:102A70004881C95CD040C653DF4F2881CA5CD04032
:102A8000AB2DB12F80E090E08E159F0548F4F60144
:102A9000E80FF91FEB59FE4FE491ED930196F4CF47
:102AA00000E0B7018B2D912F69DBEC0CFD1C81112F
:102AB00017C010C0E4E0EE0EF11CF601EB59FE4F1A
:102AC000E491E13039F442E368E38091DE120E9440
:102AD000020D06C08B2D912F0E94512912E048C291
:102AE000F0ECEF16F10408F49ACF8B2D912F0E9491
:102AF000512903E023E042E06BE68091DE1291D899
:102B000042E168E38091DE120E94020D44E069E137
:102B10008091DE120E94020D01E023E045E06AE1AF
:102B20008091DE127ED803E023E042E06AE18091EA
:102B3000DE1277D822E044E06BE18091DE1271D89A
:102B400043E060E78091DE120E94020D40E061E701
:102B50008091DE120E94020D20E040E060E0809152
:102B6000DE12A8D8082D26E046E060E08091DE1253
:102B700058D8092D26E046E061E08091DE1251D858
:102B80000A2D26E046E062E08091DE124AD8E12C70
:102B9000F12CF701EA5CFE4FE491A1E8B0E0AC0F44
:102BA000BD1FAE0DB11DEC9381E08E0D2FEFE21A2B
:102BB000F20A33E03E1568F7CD57DF4F6881C358FE
:102BC000D04070E09B012E5F3F4F90E028173907FF
:102BD00004F700E0CE57DF4F2881C258D040CF57CE
:102BE000DF4F4881C158D04081E890E08C0F9D1F95
:102BF0000396C4DA80E0F701EA5CFE4FE491A1E8B5
:102C0000B0E0AC0FBD1FA80FB11DEC938F5F4FEF6D
:102C1000E41AF40A843078F3CD57DF4F6881C35843
:102C2000D04070E0AB014E5F5F4F282F30E042177D
:102C300053070CF700E0CE57DF4F2881C258D04031
:102C4000CF57DF4F4881C158D04081E890E08C0FCA
:102C50009D1F039693DA87DA5FDB682FCE0101961A
:102C600049DB42E06FE18091DE120E94020D4CE9E7
:102C700061E28091DE120E94020D40E560E28091E7
:102C8000DE120E94020D40E062E28091DE120E949C
:102C9000020D69DA21E046E06AE68091DE120AD888
:102CA00021E047E06AE68091DE1204D821E043E0AB
:102CB0006AE68091DE120E945A0E80E0F701EA5C1B
:102CC000FE4FE491A1E8B0E0AC0FBD1FA80FB11D0D
:102CD000EC938F5F5FEFE51AF50A843078F3CD57F8
:102CE000DF4F6881C358D04070E0AB014E5F5F4F4B
:102CF000282F30E0421753070CF700E0CE57DF4F84
:102D00002881C258D040CF57DF4F4881C158D040AA
:102D100081E890E08C0F9D1F039630DA80E0F70188
:102D2000EA5CFE4FE491A1E8B0E0AC0FBD1FA80F34
:102D3000B11DEC938F5F9FEFE91AF90A843078F3A5
:102D4000CD57DF4F6881C358D04070E0AB014E5F74
:102D50005F4F282F30E0421753070CF700E0CE57A3
:102D6000DF4F2881C258D040CF57DF4F4881C1582C
:102D7000D04081E890E08C0F9D1F0396FFD980E042
:102D8000F701EA5CFE4FE491A1E8B0E0AC0FBD1F93
:102D9000A80FB11DEC938F5FAFEFEA1AFA0A8430E7
:102DA00078F3CD57DF4F6881C358D04070E0AB0156
:102DB0004E5F5F4F282F30E0421753070CF700E0BB
:102DC000CE57DF4F2881C258D040CF57DF4F4881C0
:102DD000C158D04081E890E08C0F9D1F0396CED95A
:102DE0009BDA83309105E0F3682FCE01019682DAF9
:102DF00080E0F701EA5CFE4FE491A1E8B0E0AC0F9F
:102E0000BD1FA80FB11DEC938F5FBFEFEB1AFB0A3C
:102E1000843078F3CD57DF4F3880C358D040832CAF
:102E2000912CA4014E5F5F4F282F30E042175307CB
:102E300004F7CE57DF4FB880C258D040CF57DF4F8E
:102E40002880C158D040422D4F716DE68091DE122E
:102E50000E94020D8B2D8DD9C12CD12C612C772491
:102E6000739471E8472E512C4C0E5D1EE3E04E0E1C
:102E7000511CC814D90490F5C601409688169906CD
:102E800018F4A32CAC1802C050E1A52E8A2D90E0B6
:102E900093012B1931092817390714F4AB2CA1948D
:102EA00092012C0D3D1D08EE13E04A2D6FE6809136
:102EB000DE120E94110DCA0CD11CBA0CC814D90420
:102EC000C0F6B11001C02394422D4F716DE6809180
:102ED000DE120E94020D8B2D4CD9CBCF1DDA833030
:102EE0009105E0F3682FCE01019604DAF701EA5C60
:102EF000FE4F80E09491A1E8B0E0AC0FBD1FA80F99
:102F0000B11D9C938F5F843010F43196F3CFCD5771
:102F1000DF4F6881C358D04070E0AB014E5F5F4F18
:102F2000282F30E04217530784F700E0CE57DF4FD9
:102F30002881C258D040CF57DF4F4881C158D04078
:102F400081E890E08C0F9D1F039618D920E047E0A0
:102F50006AE68091DE120E945A0E8AE290E0909317
:102F6000E1128093E012FFD8EAD810E001C011E02E
:102F700010939F0343E85CEE66E08091DE120E94AE
:102F8000D90C45E454E068E08091DE120E94D90C2F
:102F90004BEB54E06AE08091DE120E94D90C4BE2C8
:102FA00050E063E18091DE120E94D90C49EF5FEF9F
:102FB00065E18091DE120E94D90C4DED5FEF67E173
:102FC0008091DE120E94D90C11112CC08AE39AE084
:102FD0000DD821E047E06AE68091DE120E945A0E89
:102FE0008BEF99E003D888E997E0909301028093F2
:102FF000000280916A00836080936A00EC9A9FD8F7
:1030000080933E0881ED99E00E94F60F81E0809365
:103010003F088091E0129091E1129093C90C809347
:10302000C80C10C080EB99E00E94D50F60919F03FF
:1030300070E080E090E04AE00E9402108EEA99E0A1
:103040000E94F60F0E94830960934E1170934F11F6
:10305000809350119093511180919E038111D1C79B
:103060002091CA0C3091CB0C8091C80C9091C90C66
:103070002817390708F0C5C710915711111119C049
:1030800084E30E94B8088130910569F42091A0037F
:103090003091A1032130310531F09093A103809349
:1030A000A00311E004C09093A1038093A0031093A8
:1030B000571182E30E94B8088C018091A20390917D
:1030C000A303892BF1F401301105D9F480E30E94A8
:1030D000B8081093A3030093A203892B49F48FE14E
:1030E0009EE40197F1F700C0000081E090E00FC07E
:1030F000AFE1BEE41197F1F700C000008FEF9FEF42
:1031000006C01093A3030093A20380E090E0009117
:10311000551110915611080F191F10935611009355
:10312000551180915411811197CF80915211909136
:103130005311009759F482E090E0909353118093DB
:103140005211109265061092640666C18230910594
:1031500009F044C08091AE039091AF0320915711C4
:10316000211120C0080F191F0330110520F41093FE
:10317000AF030093AE038091AE039091AF03813013
:10318000910549F08230910549F0892B09F044C13D
:1031900086E492E005C08DE492E002C08AE592E008
:1031A0001DD93AC18130910541F08230910541F03D
:1031B000892B49F482E692E005C088E692E002C0DD
:1031C00084E792E00BD9E5E0F0E0F0935311E0934F
:1031D0005211F0936506E09364061EC18530910597
:1031E00009F056C0F09057118091A603811116C0C6
:1031F00082E090E00E94E72AE82E83E090E00E94BF
:10320000E72A90E0382F2227C9018E0D911D909357
:10321000A5038093A403F1E0F093A603F11026C068
:103220000F3F2FEF120749F48091A4039091A5035B
:103230001816190694F401970CC00130110569F4B1
:103240008091A4039091A503843F31E093072CF46F
:1032500001969093A5038093A4038BE792E002D993
:103260008091A4039091A503D0D8D6C08091A403E7
:103270009091A5038BD846E050E0509353114093B2
:10328000521185E090E09093650680936406C4C077
:103290008630910509F04FC040914E1150914F1169
:1032A0006091501170915111483B5B40610571056F
:1032B00020F586E892E0D6D860914E1170914F11BA
:1032C000809150119091511128EE33E040E050E090
:1032D0000E948B25CA01B9014AE00E94021080E9D0
:1032E00092E07CD80E94830960934E1170934F1135
:1032F00080935011909351118FC0909365068093E5
:1033000064068091AE039091AF038130910569F01E
:103310008230910569F0892B09F07EC0E7E0F0E08A
:10332000F0935311E093521177C028E030E069C068
:1033300049E050E06DC00A9709F06EC08091B80373
:10334000811110C083E992E049D80E9483096093FB
:10335000B4037093B5038093B6039093B70351E021
:103360005093B8038091B803882309F455C0609145
:10337000B0037091B1038091B2039091B30328EE32
:1033800033E040E050E00E948B25CA01B9014AE0D9
:103390000E9402108FE992E00E94C40F0E948309EC
:1033A0000091B4031091B5032091B6033091B70397
:1033B000DC01CB01801B910BA20BB30B8093B003FC
:1033C0009093B103A093B203B093B30388389341B1
:1033D000A105B10508F11092B8038091640690919F
:1033E00065068830910559F08930910579F087306C
:1033F000910591F490935311809352110DC029E0DF
:1034000030E0309353112093521106C047E050E052
:103410005093531140935211809152119091531136
:103420008730910509F052C250915711CF55DF4FA7
:103430005883C15AD04000914C1110914D11180180
:10344000220C331C220C331CF101E45BF04FC080D2
:10345000D180E280F38020E030E0A901C701B6010D
:103460000E94F027181664F0D701C601B058CB555A
:10347000DF4F88839983AA83BB83C55AD04008C095
:10348000CB55DF4FC882D982EA82FB82C55AD04031
:10349000F101E45BFF4E80809180A280B38020E048
:1034A00030E0A901C501B4010E94F027A5019401F3
:1034B00018160CF050584090C8045090C904609001
:1034C000CA047090CB04CB55DF4F688179818A8123
:1034D0009B81C55AD0400E94B625A30192010E944B
:1034E000B52520E030E0A9010E94F02720E030E07F
:1034F000A901181624F5C701B6010E94F027181675
:1035000024F0F7FAF094F7F8F09420E030E0A90105
:10351000C501B4010E94F027181624F0B7FAB09440
:10352000B7F8B094A5019401C701B6010E94B62571
:10353000A30192010E94B5254B015C0127C0C70180
:10354000B6010E94F027181624F0F7FAF094F7F865
:10355000F09420E030E0A901C501B4010E94F027F9
:10356000181624F0B7FAB094B7F8B094A5019401F6
:10357000C701B6010E94B625A30192010E94B5259C
:103580004B015C01B7FAB094B7F8B094F101E8537D
:10359000FC4F80829182A282B382E0901402F0906C
:1035A00015029FEFE916F90609F074C08091C70370
:1035B000CF55DF4FA881C15AD040A11107C081115A
:1035C00013C082EA92E00E94EE1111C581110CC075
:1035D0008092C8049092C904A092CA04B092CB040D
:1035E000B1E0B093C70303C5882309F400C520E008
:1035F00030E040EF51E4C501B4010E947C2618166A
:10360000C4F061E08CE20E94E0088CED92E00E9440
:1036100032128091C5039091C6030E9405128091D9
:10362000C5039091C60301969093C6038093C5038A
:103630000CC060E08CE20E94E0081092C603109279
:10364000C5038AEE92E00E94EE118091C50390912D
:10365000C603843691050CF4CAC410921502109268
:1036600014021092C6031092C5030E94830960934E
:10367000C1037093C2038093C3039093C40381E199
:1036800093E00E94321280911402909115020E94E0
:103690000512ADC4E8ECEE16F1040CF000C1CF55F4
:1036A000DF4FF881C15AD040F11101C1F801EE0F8E
:1036B000FF1FE453F24F008111812091BD0330912F
:1036C000BE034091BF035091C003C501B4010E94E5
:1036D000F027181644F48092BD039092BE03A09286
:1036E000BF03B092C0038091BC0381113AC00C3A71
:1036F0001E4F94F58091C5039091C6030196909357
:10370000C6038093C503C4970CF4ABC020E030E03F
:1037100040E752E46091BD037091BE038091BF0306
:103720009091C0030E94F02718160CF09AC08FE108
:1037300093E00E94EE1131E03093BC033093BB0361
:1037400080E090E0A4EBB2E4809310029093110229
:10375000A0931202B09313021092C6031092C503F5
:1037600080C020E030E04CE052E4C501B4010E948A
:103770007C2687FF76C08091BB03882309F471C043
:1037800020911002309111024091120250911302C7
:10379000C501B4010E94F02718160CF062C09FEF1B
:1037A000E91AF90AF0921502E09214021092BB0392
:1037B0001092BC0389E293E00E94321280911402BD
:1037C000909115020E94331280E393E00E9432121E
:1037D0006091BD037091BE038091BF039091C003BF
:1037E00042E00E9489121092BD031092BE03109213
:1037F000BF031092C0038AE393E00E9432120E943A
:1038000083090091C1031091C2032091C303309139
:10381000C403601B710B820B930B4AE00E940210E1
:103820008FE992E00E94C40F0E9483096093C10354
:103830007093C2038093C3039093C40380911402D6
:10384000909115022091B9033091BA0328173907D6
:1038500044F49093BA038093B90383E493E00E9405
:10386000EE11F101E853FC4FC080D180E280F3807B
:1038700020911002309111024091120250911302D6
:10388000C701B6010E947C2687FFB1C3C092100217
:10389000D0921102E0921202F0921302A8C3CF5507
:1038A000DF4FA881C15AD040AA2309F4A0C3EFEF8B
:1038B000FFEFF0931502E09314022AE030E030931A
:1038C00053112093521147E050E08DC38830910589
:1038D00009F0F7C2A0904C11B0904D1180911A02DE
:1038E00090911B02019641F410921B0210921A0251
:1038F00084E693E00E94EE1180911A0290911B02DF
:10390000CB55DF4F99838883C55AD040883C9105B9
:103910000CF0BCC2D501AA0FBB1FCF55DF4FB98336
:10392000A883C15AD040FD01E453F24FC080D1803A
:10393000C601D7FE04C0882799278C199D090D2C34
:10394000000CEE08FF0849978CF480916006909176
:103950006106A0916206B091630680935C06909325
:103960005D06A0935E06B0935F061EC0C701B60158
:103970000E941B272AE037ED43E25CE30E94FB270D
:103980009B01AC01609160067091610680916206B6
:10399000909163060E94B62560935C0670935D0665
:1039A00080935E0690935F0640905C0650905D06A3
:1039B00060905E0670905F062CEA35EC47E258E3B3
:1039C000C301B2010E94FB27C755DF4F688379838B
:1039D0008A839B83C95AD04021E63DEF4FE75FE3DE
:1039E000609116027091170280911802909119024D
:1039F0000E94FB279B01AC01C755DF4F688179818D
:103A00008A819B81C95AD0400E94B6259B01AC0196
:103A10006093160270931702809318029093190214
:103A2000C301B2010E94B5252B013C0160935C06E5
:103A300070935D0680935E0690935F068501000F8C
:103A4000111F04521A4FC301B2010E94E826F80167
:103A5000718360832AE037ED43E25CE360916006A6
:103A60007091610680916206909163060E94FB2727
:103A7000C755DF4F688379838A839B83C95AD040B7
:103A8000C701B6010E941B2727E137EB41E558E348
:103A90000E94FB279B01AC01C755DF4F68817981EC
:103AA0008A819B81C95AD0400E94B6252091D804B2
:103AB0003091D9044091DA045091DB040E94B6257C
:103AC0006B017C016093D8047093D9048093DA046D
:103AD0009093DB0440926006509261066092620609
:103AE0007092630620E030E0A9010E94F0271816CA
:103AF00024F0C701B601905802C0C701B601209159
:103B0000D4043091D5044091D6045091D7040E943A
:103B1000F02787FD17C020E030E0A901C701B601FA
:103B20000E94F027181624F0D701C601B05802C031
:103B3000D701C6018093D4049093D504A093D604F2
:103B4000B093D7042091D0043091D1044091D20495
:103B50005091D304C701B6010E947C26181644F088
:103B6000C092D004D092D104E092D204F092D30457
:103B70008501CF55DF4FE881F981C15AD040E45328
:103B8000F24F80819181BC016C5F7F4FDC01149703
:103B9000950149E050E0121613061CF4215031093A
:103BA00002C02FE330E0F901EE0FFF1FE453F24FA4
:103BB0000190F081E02D6E177F0774F0EA17FB0784
:103BC0005CF04150510939F79093CF048093CE04B3
:103BD00022242394312C02C0212C312CBC01665F9D
:103BE0007F4FFC013A97950143E050E0121613060F
:103BF0001CF42150310902C02FE330E0D901AA0F93
:103C0000BB1FA453B24F0D90BC91A02D6A177B0728
:103C100074F0AE17BF075CF04150510939F790932B
:103C2000CF048093CE04AA24A394B12C02C0A12C6B
:103C3000B12CCF55DF4FE881F981C15AD040E45211
:103C4000FA4F808191818D599F4F873C910508F4EF
:103C500058C0412C512C32013AE0832E912C101681
:103C600011061CF40150110902C00FE310E0F80125
:103C7000EE0FFF1FE452FA4F60817181072E000C96
:103C8000880B990B0E941B279B01AC01C301B20159
:103C90006DD72B013C01F1E08F1A910801F720E06C
:103CA00030E0A9010E947C26882359F120E030E011
:103CB00040E251E4C301B2010E9480262B013C0185
:103CC00020E030E0A9010E94F0271816ECF020E077
:103CD00030E0A901C301B2010E947C2687FD17C014
:103CE00001E010E020E030E0A901C301B2010E9430
:103CF0007C26882311F000E010E011950195110950
:103D000008C000E010E005C008EC10E002C008E3C5
:103D10001FEFAA94AB2881F428E431EE4AE75FE371
:103D2000C701B6010E94FB276093D8047093D904A1
:103D30008093DA049093DB042A942328F1F4109200
:103D4000D8041092D9041092DA041092DB04109275
:103D5000600610926106109262061092630610923D
:103D60005C0610925D0610925E0610925F0610923D
:103D7000CD041092CC0400E010E020E030E046E6F4
:103D800053E46091D4047091D5048091D60490914D
:103D9000D7040E94F0271816B4F58091CC049091B6
:103DA000CD0488339F4F79F508335FEF150759F13C
:103DB0001092D4041092D5041092D6041092D70415
:103DC0001092D8041092D9041092DA041092DB04F5
:103DD00010925C0610925D0610925E0610925F06CD
:103DE00010926006109261061092620610926306AD
:103DF000CB55DF4F88819981C55AD0400196909369
:103E00001B0280931A021093CD040093CC0482E726
:103E100093E00E943212C8010E94331289E793E0B6
:103E20000E9432126091D8047091D9048091DA0412
:103E30009091DB0442E00E9489128AE793E00E949D
:103E4000321260915C0670915D0680915E069091E1
:103E50005F0642E00E9489128AE793E00E943212D4
:103E6000CF55DF4FE881F981C15AD040E453F24F7A
:103E7000808191810E9433128DE793E00E9432127B
:103E800080911A0290911B020E94051280911A02E1
:103E900090911B02883C910509F0A9C08FEF9FEF1C
:103EA00090931B0280931A02AAE0B0E0B0935311E2
:103EB000A0935211E8E0F0E0F0936506E093640609
:103EC00096C0099709F093C000914C1110914D11C3
:103ED00080911C0290911D02019641F410921D02E6
:103EE00010921C0285E893E00E94EE1180911C0262
:103EF00090911D02883C91050CF064C08090EA0707
:103F00009090EB07A090EC07B090ED07F801EE0F52
:103F1000FF1FE453F24F60817181072E000C880B64
:103F2000990B89D72AE037ED43E25CE30E94FB2737
:103F30009B01AC01C501B40119D66B017C016093F2
:103F4000E6077093E7078093E8079093E9072AE074
:103F500037ED43E25CE3C501B4010E94FB272091E9
:103F6000EE073091EF074091F0075091F107FED531
:103F70004B015C012AE037ED43EA5BE3C701B60180
:103F80000E94FB279B01AC01C501B401EFD56093F2
:103F9000EE077093EF078093F0079093F107C092BC
:103FA000EA07D092EB07E092EC07F092ED07000FE2
:103FB000111F0A59184FC701B6010AD7D8016D93CE
:103FC0007C9315C0883C910591F4EFEFFFEFF093DF
:103FD0001D02E0931C022AE030E03093531120933D
:103FE000521149E050E0509365064093640651E059
:103FF000509354111092571110925611109255115E
:104000002BC880913F08882309F48AC410929E032C
:104010000E949F10182F80933E080E948C1190934D
:10402000CB0C8093CA0C14FD03C08115944039F465
:104030000E94B31084EB9AE00E94F60F71C411FF46
:104040006FC40091CA0C1091CB0CE090C80CF0909A
:10405000C90C0E151F0538F40E948C119093CB0CDF
:104060008093CA0CEECF6E2D8EEF97E00E947A11EE
:104070000E191F091093CB0C0093CA0C0091020873
:1040800010E0102F002780910308082BC09006082D
:10409000D12CDC2CCC2480910708C82AE0900A0897
:1040A000F12CFE2CEE2480910B08E82A6091FE078B
:1040B00070E0762F66278091FF07682B072E000C93
:1040C000880B990BB8D620E030E040E858E393D74E
:1040D0002B013C016093CE127093CF128093D012CB
:1040E0009093D112B801110F880B990BA4D620E040
:1040F00030E040E858E37FD74B015C016093D21277
:104100007093D3128093D4129093D512B601DD0C24
:10411000880B990B90D620E030E040E858E36BD74D
:10412000CF55DF4F688379838A839B83C15AD04000
:104130006093D6127093D7128093D8129093D912AD
:10414000B701FF0C880B990B76D620E030E040E8F1
:1041500058E351D7CB55DF4F688379838A839B839C
:10416000C55AD0406093DA127093DB128093DC1250
:104170009093DD129B01AC01C501B4013CD76B01EA
:104180007C01CF55DF4F288139814A815B81C15A3B
:10419000D040C301B2012FD79B01AC01C701B601CA
:1041A000E4D49B01AC01E2D4C755DF4F6883798327
:1041B0008A839B83C95AD0406093B0127093B11226
:1041C0008093B2129093B312A5019401C301B2017E
:1041D00012D76B017C01CB55DF4F288139814A8191
:1041E0005B81C55AD040CF55DF4F688179818A8184
:1041F0009B81C15AD040FFD69B01AC01C701B601DB
:10420000B5D49B01AC01B2D4C355DF4F6883798329
:104210008A839B83CD5AD0406093B4127093B512B9
:104220008093B6129093B712A3019201C301B20119
:10423000E2D66B017C01A5019401C501B401DBD676
:104240009B01AC01C701B60190D46B017C01CF5535
:10425000DF4F288139814A815B81C15AD040CA0130
:10426000B901C9D69B01AC01C701B6017ED46B016F
:104270007C01CB55DF4F288139814A815B81C55A4A
:10428000D040CA01B901B7D69B01AC01C701B60144
:104290006DD4C754DF4F688379838A839B83C95B5E
:1042A000D0406093B8127093B9128093BA12909371
:1042B000BB12A3019201C301B20158D46B017C016E
:1042C000A5019401C501B40151D4CF54DF4F6883D7
:1042D00079838A839B83C15BD040A3019201C7018C
:1042E000B60189D6CB54DF4F688379838A839B8359
:1042F000C55BD040A5019401CF54DF4F688179811F
:104300008A819B81C15BD04076D69B01AC01CB54A6
:10431000DF4F688179818A819B81C55BD04026D43B
:1043200020E030E040E85FE320D4CB54DF4F6883E7
:1043300079838A839B83C55BD040CF55DF4F28812B
:1043400039814A815B81C15AD040CF54DF4F6881A7
:1043500079818A819B81C15BD0404DD6CF54DF4F9C
:10436000688379838A839B83C15BD040CB55DF4FC1
:10437000288139814A815B81C55AD040C701B60185
:104380003AD69B01AC01CF54DF4F688179818A8195
:104390009B81C15BD040E9D3CB54DF4F2881398169
:1043A0004A815B81C55BD04054D4C354DF4F6883DE
:1043B00079838A839B83CD5BD0406093F2077093AF
:1043C000F3078093F4079093F507C754DF4F2881D4
:1043D00039814A815B81C95BD040CA01B9010BD6E2
:1043E0006B017C01C355DF4F288139814A815B8194
:1043F000CD5AD040CA01B901FED5A7019601B6D366
:1044000061D69B01AC01C755DF4F688179818A81F4
:104410009B81C95AD04074D447D4CF53DF4F6883AF
:1044200079838A839B83C15CD0406093F607709345
:10443000F7078093F8079093F907C755DF4F288156
:1044400039814A815B81C95AD040CA01B901D3D5AB
:10445000A70196018BD336D69B01AC01C355DF4F24
:10446000688179818A819B81CD5AD04049D41CD4FE
:10447000CB53DF4F688379838A839B83C55CD040AD
:104480006093FA077093FB078093FC079093FD07F6
:1044900080911A0890E0982F882720911B08FC0132
:1044A000E22BCF54DF4FF983E883C15BD040F09318
:1044B000C912E093C81280911E0890E0982F8827B7
:1044C00020911F08AC01422BCB54DF4F5983488306
:1044D000C55BD0405093CB124093CA128091220802
:1044E00090E0982F8827209123081C01222A3092DF
:1044F000CD122092CC12BF01FF0F880B990B9BD4D9
:104500006B017C0120E030E040E056E4C755DF4F0E
:10451000688179818A819B81C95AD0406CD59B0181
:10452000AC01C701B60121D353D4C755DF4F68830F
:1045300079838A839B83C95AD040C755DF4F8881CE
:104540009981C95AD0409093C3128093C212CB5420
:10455000DF4FA881B981C55BD040BD01BB0F880B7F
:10456000990B69D46B017C0120E030E040E056E417
:10457000C355DF4F688179818A819B81CD5AD040B4
:104580003AD59B01AC01C701B601EFD221D46B0132
:104590007C017093C5126093C412B101032C000C0E
:1045A000880B990B48D4C355DF4F688379838A837E
:1045B0009B83CD5AD04020E030E040E056E4C75421
:1045C000DF4F688179818A819B81C95BD04013D597
:1045D0009B01AC01C355DF4F688179818A819B8142
:1045E000CD5AD040C2D2F4D3C355DF4F688379830C
:1045F0008A839B83CD5AD040C355DF4FE881F98130
:10460000CD5AD040F093C712E093C61286E0E2EC98
:10461000F2E1ACEBB2E101900D928A95E1F7CF5750
:10462000DF4F188219821A821B82C158D040C755A9
:10463000DF4F28813981C95AD040B901330F880B27
:10464000990BF9D3CB57DF4F688379838A839B8398
:10465000C558D040B601DD0C880B990BECD3C75779
:10466000DF4F688379838A839B83C958D040C355C1
:10467000DF4F48815981CD5AD040BA01550F880B80
:10468000990BD9D3C357DF4F688379838A839B8380
:10469000CD58D0408DB79EB740970FB6F8949EBFC7
:1046A0000FBE8DBFADB7BEB7119680E1FE01EF57CB
:1046B000FF4F01900D928A95E1F76EEC72E1CE0109
:1046C0008F569F4F0E94310B80E1FE01EF56FF4F46
:1046D000DE01AF57BF4F01900D928A95E1F74982F5
:1046E0005A826B827C82D501C401B0588D839E832F
:1046F000AF83B887CF55DF4F88819981AA81BB816D
:10470000C15AD040B05889879A87AB87BC87CB55B0
:10471000DF4F88819981AA81BB81C55AD040B058AA
:104720008D879E87AF87B88BADB7BEB750970FB652
:10473000F894BEBF0FBEADBF119680E1FE01319669
:1047400001900D928A95E1F7BE016F577F4FCE0120
:104750008F569F4F0E94310B80E1FE01EF56FF4FB5
:10476000DE01AF57BF4F01900D928A95E1F7CB570D
:10477000DF4F688179818A819B81C558D04028D3D9
:104780002B013C017093BD126093BC12C757DF4FE1
:10479000688179818A819B81C958D04019D34B01A6
:1047A0005C017093BF126093BE12C357DF4F6881E4
:1047B00079818A819B81CD58D0400AD36B017C01DD
:1047C0007093C1126093C01280914C1190914D1161
:1047D00001960FB6F894DEBF0FBECDBF80349105B1
:1047E00029F090934D1180934C1104C010924D11FB
:1047F00010924C1120914C1130914D11CF55DF4F3B
:1048000039832883C15AD0408901000F111F000F3E
:10481000111F045B114F20E030E044E353E4C35424
:10482000DF4F688179818A819B81CD5BD040E3D362
:104830002BED3FE049E450E463D2D8016D937D93C2
:104840008D939C931397F801F395CB55DF4FF98324
:10485000E883C55AD04020E030E044E353E4CF532E
:10486000DF4F688179818A819B81C15CD040C3D34D
:104870002BED3FE049E450E443D2CB55DF4FA88114
:10488000B981C55AD0406D937D938D939C931397B6
:104890001E5F20E030E044E353E4CB53DF4F6881F8
:1048A00079818A819B81C55CD040A5D32BED3FE007
:1048B00049E450E425D2F8016083718382839383B5
:1048C000CF55DF4F28813981C15AD040220F331F85
:1048D000D901A85BB44F11965C924E92CD018058DD
:1048E0009F4FFC0191828082B395CD92DC92F901B9
:1048F000E853F64FCF54DF4F28813981C15BD04058
:1049000031832083DF01A058BF4FCB54DF4F488154
:104910005981C55BD0404D935C93F39531822082E1
:1049200000914C1110914D117801EE0CFF1CF70114
:10493000E85BF34F60817181072E000C880B990BA7
:104940007AD24B015C014090400850904108609041
:10495000420870904308A301920107D12CEB34E781
:1049600043E15CE348D39B01AC01C301B201FED03B
:104970009B01AC016093400870934108809342080A
:1049800090934308C501B401F0D022D2F701E85B4F
:10499000F64F718360830115110519F0015011095B
:1049A00002C00FE310E084E1882E8EEA982E87E49F
:1049B000A82E8FE3B82E8092440890924508A092CA
:1049C0004608B0924708D701A453B24F7D01072E85
:1049D000000C880B990B2FD22EEA37E441E65EE3F8
:1049E0000AD34B015C01000F111FF801E453F24F91
:1049F00060817181072E000C880B990B1CD224E179
:104A00003EEA47E45FE3F7D29B01AC01C501B40184
:104A1000ADD0DED1F70171836083109254110E94F2
:104A2000E4060C942C18E3E1F2E11382128288EE82
:104A300093E0A0E0B0E084839583A683B7832AE265
:104A400032E03183208325EC30E03587248724EC65
:104A500030E03787268720EC30E0318B208B21EC4B
:104A600030E0338B228B22EC30E0358B248B26EC2C
:104A700030E0378B268B118E128E138E148E28E623
:104A80002093DE12EEECF2E140E050E060E87FE3DC
:104A90004083518362837383148215821682178246
:104AA000108611861286138614861586168617863A
:104AB000E8ECF2E1118210821382128215821482D4
:104AC000E2ECF2E1118210821382128215821482CA
:104AD000ECEBF2E1118210821382128215821482B1
:104AE000E0EBF2E1108211821282138214821582AD
:104AF000168217821086118612861386E1EFF2E184
:104B00001382128284839583A683B7838AE392E01B
:104B1000918380830895A1E21A2EAA1BBB1BFD017D
:104B20000DC0AA1FBB1FEE1FFF1FA217B307E4078C
:104B3000F50720F0A21BB30BE40BF50B661F771FE4
:104B4000881F991F1A9469F76095709580959095C4
:104B50009B01AC01BD01CF010895EE0FFF1F881F1F
:104B60008BBF0790F691E02D19945058BB27AA27C8
:104B70000ED0FCC1EDD130F0F2D120F031F49F3FE6
:104B800011F41EF4BDC10EF4E095E7FBB3C1E92FAB
:104B9000FED180F3BA17620773078407950718F0F0
:104BA00071F49EF516C20EF4E0950B2EBA2FA02DCF
:104BB0000B01B90190010C01CA01A0011124FF27CA
:104BC000591B99F0593F50F4503E68F11A16F040C5
:104BD000A22F232F342F4427585FF3CF46953795C4
:104BE0002795A795F0405395C9F77EF41F16BA0B89
:104BF000620B730B840BBAF09150A1F0FF0FBB1F37
:104C0000661F771F881FC2F70EC0BA0F621F731F7F
:104C1000841F48F4879577956795B795F7959E3FDC
:104C200008F0B3CF9395880F08F09927EE0F97956A
:104C3000879508958DD158F080E891E009F49EEFB2
:104C40008ED128F040E851E059F45EEF09C058C118
:104C5000C0C1E92FE0789BD168F3092E052AC1F382
:104C6000261737074807590738F00E2E07F8E025B2
:104C700069F0E025E0640AC0EF6307F8009407FAE2
:104C8000DB01B9019D01DC01CA01AD01EF9347D001
:104C90006DD10AD05F91552331F02BED3FE049E40F
:104CA00050FD49EC63CF0895DF93DD27B92FBF771F
:104CB00040E85FE31616170648075B0710F4D92F84
:104CC00093D19F938F937F936F933AD2E8E0F1E073
:104CD0001AD14CD12F913F914F915F9198D1DD2303
:104CE00049F09058A2EA2AED3FE049EC5FE3D07822
:104CF0005D274DDFDF913AC1D9D008F481E00895F6
:104D00000CD034C12CD140F023D130F021F45F3FDE
:104D100019F0F0C051115EC1F3C039D198F3992355
:104D2000C9F35523B1F3951B550BBB27AA2762176F
:104D30007307840738F09F5F5F4F220F331F441FB4
:104D4000AA1FA9F333D00E2E3AF0E0E830D09150EC
:104D50005040E695001CCAF729D0FE2F27D0660FD9
:104D6000771F881FBB1F261737074807AB07B0E818
:104D700009F0BB0B802DBF01FF2793585F4F2AF02E
:104D80009E3F510568F0B6C025C15F3FECF3983EE9
:104D9000DCF3869577956795B795F7959F5FC9F78B
:104DA000880F911D9695879597F90895E1E0660F14
:104DB000771F881FBB1F621773078407BA0720F08D
:104DC000621B730B840BBA0BEE1F88F7E0950895F6
:104DD00004D06894B111FEC00895E1D088F09F57C7
:104DE00090F0B92F9927B751A0F0D1F0660F771F37
:104DF000881F991F1AF0BA95C9F712C0B13081F017
:104E0000E8D0B1E00895E5C0672F782F8827B85F14
:104E100039F0B93FCCF3869577956795B395D9F777
:104E20003EF490958095709561957F4F8F4F9F4F81
:104E30000895E89409C097FB3EF49095809570958D
:104E400061957F4F8F4F9F4F9923A9F0F92F96E9D6
:104E5000BB279395F695879577956795B795F1114B
:104E6000F8CFFAF4BB0F11F460FF1BC06F5F7F4FE8
:104E70008F4F9F4F16C0882311F096E911C07723FA
:104E800021F09EE8872F762F05C0662371F096E803
:104E9000862F70E060E02AF09A95660F771F881FD2
:104EA000DAF7880F9695879597F90895990F000876
:104EB000550FAA0BE0E8FEEF16161706E807F907EC
:104EC000C0F012161306E407F50798F0621B730B87
:104ED000840B950B39F40A2661F0232B242B252B08
:104EE00021F408950A2609F4A140A6958FEF811DAB
:104EF000811D089597F99F6780E870E060E008954C
:104F00009FEF80EC0895DF93CF931F930F93FF9251
:104F1000EF92DF927B018C01689405C0DA2EEF01DD
:104F200076D0FE01E894A591259135914591559152
:104F3000AEF3EF012CDEFE019701A801DA9479F7B8
:104F4000DF90EF90FF900F911F91CF91DF91089527
:104F500000240A9416161706180609060895002458
:104F60000A9412161306140605060895092E0394D2
:104F7000000C11F4882352F0BB0F40F4BF2B11F446
:104F800060FF04C06F5F7F4F8F4F9F4F089557FDA5
:104F90009058440F551F59F05F3F71F04795880FA7
:104FA00097FB991F61F09F3F79F08795089512163E
:104FB00013061406551FF2CF4695F1DF08C01616EA
:104FC00017061806991FF1CF86957105610508949B
:104FD0000895E894BB2766277727CB0197F90895B2
:104FE00065DF08F48FEF08959B01AC0160E070E08D
:104FF00080E89FE385CE0BD0B9CFAADF28F0AFDFE2
:1050000018F0952309F076CF7BCF1124E3CFBFDFD3
:10501000A0F3959FD1F3950F50E0551F629FF001CB
:10502000729FBB27F00DB11D639FAA27F00DB11D24
:10503000AA1F649F6627B00DA11D661F829F2227AD
:10504000B00DA11D621F739FB00DA11D621F839F34
:10505000A00D611D221F749F3327A00D611D231F0A
:10506000849F600D211D822F762F6A2F11249F5758
:1050700050408AF0E1F088234AF0EE0FFF1FBB1F7B
:10508000661F771F881F91505040A9F79E3F51051A
:1050900070F030CF9FCF5F3FECF3983EDCF3869506
:1050A00077956795B795F795E7959F5FC1F7FE2BC5
:1050B000880F911D9695879597F9089511F40EF430
:1050C0001FCF45C06CDFD0F39923D9F3CEF39F57A0
:1050D000550B87FF4AD00024A0E640EA9001805893
:1050E0005695979528F4805C660F771F881F20F0EF
:1050F00026173707480730F4621B730B840B2029EF
:1051000031294A2BA69517940794202531254A2743
:1051100058F7660F771F881F20F0261737074807B4
:1051200030F4620B730B840B200D311D411DA095D3
:1051300081F7B901842F9158880F96958795089526
:105140009B01AC0158CFB2DE880B990B08959F3FAD
:1051500031F0915020F4879577956795B795880F32
:10516000911D9695879597F9089591505040660F37
:10517000771F881FD2F70895CF93DF938230910570
:1051800010F482E090E0E091FF12F091001320E033
:1051900030E0C0E0D0E0309711F1408151814817F4
:1051A0005907C0F04817590761F48281938120970D
:1051B00019F09B838A832BC0909300138093FF1276
:1051C00026C02115310519F04217530718F49A012A
:1051D000BE01DF01EF010280F381E02DDCCF21155C
:1051E000310509F1281B390B2430310590F4129652
:1051F0008D919C9113976115710521F0FB019383AB
:10520000828304C0909300138093FF12FD013296B5
:1052100044C0FD01E20FF31F8193919322503109A5
:105220002D933C933AC02091FD123091FE12232B16
:1052300041F420912002309121023093FE122093FC
:10524000FD1220911E0230911F022115310541F4FB
:105250002DB73EB74091220250912302241B350BFB
:10526000E091FD12F091FE12E217F307A0F42E1B5D
:105270003F0B2817390778F0AC014E5F5F4F2417BA
:10528000350748F04E0F5F1F5093FE124093FD12FA
:105290008193919302C0E0E0F0E0CF01DF91CF91E4
:1052A00008950F931F93CF93DF93009709F48CC059
:1052B000FC013297138212820091FF1210910013A9
:1052C0000115110581F420813181820F931F2091F6
:1052D000FD123091FE122817390779F5F093FE126E
:1052E000E093FD1271C0D80140E050E0AE17BF0757
:1052F00050F412962D913C911397AD012115310573
:1053000009F1D901F3CF9D01DA0133832283608152
:105310007181860F971F8217930769F4EC0128812A
:105320003981260F371F2E5F3F4F318320838A81BB
:105330009B8193838283452B29F4F0930013E093A0
:10534000FF1242C01396FC93EE931297ED01499120
:1053500059919E01240F351FE217F30771F48081E4
:105360009181840F951F029611969C938E93828152
:10537000938113969C938E931297E0E0F0E0D8010E
:1053800012968D919C911397009719F0F8018C015A
:10539000F6CF8D919C9198012E5F3F4F820F931F06
:1053A0002091FD123091FE122817390769F43097C9
:1053B00029F4109200131092FF1202C0138212827D
:1053C0001093FE120093FD12DF91CF911F910F9168
:1053D00008956F927F928F929F92AF92BF92CF92D9
:1053E000DF92EF92FF920F931F93CF93DF93EC0125
:1053F000009781F4CB01DF91CF911F910F91FF9026
:10540000EF90DF90CF90BF90AF909F908F907F9064
:105410006F90B2CEFC01E60FF71F9C0122503109BC
:10542000E217F30708F4A8C0D9010D911C91119758
:1054300006171707A8F00530110508F49BC0C8012E
:1054400004978617970708F495C002501109061BA8
:10545000170B019311936D937C93CF0122DF8AC0C8
:105460005B01A01AB10A4C01800E911EA091FF129F
:10547000B091001340E050E0E12CF12C109709F4BA
:105480004AC0A815B905D1F56D907C9011976301BC
:1054900082E0C80ED11CCA14DB0480F1A3014A19B2
:1054A0005B096A0182E0C80ED11C1296BC9012976B
:1054B0001396AC91B5E0CB16D10440F0B282A38331
:1054C00051834083D9016D937C930AC00E5F1F4FB7
:1054D000C301800F911FF90191838083EB2DFA2F77
:1054E000E114F10431F0D7011396FC93EE93129777
:1054F00041C0F0930013E093FF123CC08D919C914A
:1055000011974817590708F4AC017D0112960D90C8
:10551000BC91A02DB3CF8091FD129091FE12881501
:105520009905E1F446175707C8F480911E0290913F
:105530001F02009741F48DB79EB74091220250910F
:105540002302841B950BE817F907B0F4F093FE12C1
:10555000E093FD12F901718360830CC0CB010CDE76
:105560007C01009749F0A801BE0128D0CE0199DE48
:10557000C70104C0CE0102C080E090E0DF91CF916E
:105580001F910F91FF90EF90DF90CF90BF90AF9061
:105590009F908F907F906F90089581E090E0F894B5
:1055A0002CC0FB01DC0104C08D910190801921F415
:1055B00041505040C8F7881B990B0895FB01DC014E
:1055C00002C001900D9241505040D8F70895F999CA
:1055D000FECF92BD81BDF89A992780B50895262FF8
:1055E000F999FECF1FBA92BD81BD20BD0FB6F894C8
:0E55F000FA9AF99A0FBE01960895F894FFCF2B
:1055FE0097079707970797079707970797079707AD
:10560E000000B442FFFF9A99993EFFFFFFFF000092
:10561E0001138000E803000000007D065E124706BD
:10562E0025063906C306000000002908FA079C0764
:10563E00E607D707D6074375726C730D0042656E89
:10564E0063682050726573730D00537175617473C6
:10565E000D004375726C730042656E636820507264
:10566E00657373005371756174730057656967686C
:10567E0074206973200057616974696E673A20005F
:10568E002F3300636F6F6C646F776E2E2E2E000DAE
:10569E000A004C6576656C206465766963652061E9
:1056AE006E64207072657373207468652062757401
:1056BE00746F6E20746F2073746F72652063616CEB
:1056CE006962726174696F6E2E2E2E00486F6C6463
:1056DE00207374696C6C3A2025006D6F76652064BA
:1056EE00657669636520746F206C6576656C2070D5
:1056FE006F736974696F6E20746F20626567696E6F
:10570E000052657065746974696F6E733A20005447
:10571E00524947474552454400526570733A20003E
:10572E002C2044656772733A20002C2074696D65D5
:10573E003A200070726576696F7573207265636FBB
:10574E00726420686173206265656E2062726F6B91
:10575E00656E210062656E636870726573732E2EBE
:10576E002E00206469723A2000202C2000207265E1
:10577E0070733A20007371756174732E2E2E006E45
:0C578E00616E00696E66006F76660000B8
:00000001FF
