:10000000F2C500000C94060B0C94DB0A0C94B00AA9
:100010000C94850A0C945A0A0C942F0A0C94040A26
:100020000C94D90911C600000FC600000DC60000CF
:100030000BC6000009C6000007C6000005C6000088
:1000400003C6000001C60000FFC50000FDC500009A
:10005000FBC50000F9C50000F7C500000C948F092E
:10006000F3C500000C9482080C945908EDC50000FB
:10007000EBC50000E9C50000E7C50000E5C50000CC
:10008000E3C50000E1C50000DFC50000DDC50000DC
:10009000DBC50000D9C50000D7C500000C94920E46
:1000A000D3C50000D1C50000CFC50000CDC50000FC
:1000B000CBC50000C9C50000C7C50000C5C500000C
:1000C000C3C50000C1C50000BFC50000BDC500001C
:1000D000BBC50000B9C50000B7C50000B5C500002C
:1000E000B3C5000037073A0729072D073307710703
:1000F0003E07420748074C07500756075A075E0756
:100100007107640768076C07084AD73B3BCE016E4E
:1001100084BCBFFDC12F3D6C74319ABD56833DDA5E
:100120003D00C77F11BED9E4BB4C3E916BAAAABE6D
:10013000000000803F0001B202FFFF01900409238C
:10014000A135016A020600016008000000000000FD
:100150000000006004400000000162020000006036
:100160000400400000037B034CCD6C03AB03365608
:100170007600680402CB47A202180400058BC10177
:100180000C0400000000037F060CC92C979797030E
:100190008903264666006C0220000240040000002D
:1001A00000024404000000000248040000000002B5
:1001B0004C0400000000025004000000000254043F
:1001C0000000000002580400000000025C0400006F
:1001D000000002BC040000000001EC04000040002C
:1001E000037F060CC92C9797970402030D355D0415
:1001F0000904872D353D00A301000000000107869A
:1002000001FE074105F120283038077E01300746FE
:10021000019A074704F1283038076C04F128303878
:100220000216020001FB00003E000B003600010038
:10023000020003000000650054FFEF0000FA800098
:100240000B1282000100020000000000000000000C
:10025000000000000000280000FFFF4581FFFFFABA
:100260007200000000000003E80000000100017FB0
:10027000FFFFFE8001001B000000000000000000E6
:100280000000000000003E03304000000002CAE30E
:10029000093E800000200000000000000040000037
:1002A000006000000041FF000000000B2A00001663
:1002B0005500002182FD872650FD800000001F00B0
:1002C00000000580000000000000010000000200A6
:1002D0000000030000400000000000046F00026501
:1002E0003200005EC040000000000000000000007E
:1002F0000000000000FB8C6F5DFD5D08D9007C7381
:100300003B006C12CC3200139D3200D0D632000874
:1003100000400001F4FFE68079020000000000D0F8
:10032000D600002710FB0000004000000000000085
:1003300000000000000000000100000000000001BB
:1003400000010000000000FA36FFBC308E0005FB03
:10035000F0FFD95BC8FFD09ABE000010A9FFF41EC1
:10036000B200CEBBF7000000010000000400020054
:10037000020200000CFFC280000001800000CF805C
:100380000040000000000000010000000000000626
:100390000000000014000000000000000000000049
:1003A000000000000000000000000000000000004D
:1003B000000000000000000000000000000000003D
:1003C000000000000000000000033F68B6793528F7
:1003D000BCC67ED16C80000000400000000000B26E
:1003E0006A00000000000000000000000000003F64
:1003F000F0000000300000000000000000000000DD
:1004000000000000000000000000000000000000EC
:1004100000000000000000254D002F706D00000559
:10042000AE000C02D00000000000650054FFEF0099
:100430000000000000000001000044000000000C6B
:1004400000000001000000000000650000005400F2
:1004500000FFEF00000000000000000000000000AE
:10046000000000000040000000000000000000004C
:10047000000000000040000000000000000000003C
:100480000000000000000000010000000200000069
:10049000000000000000000000000000000000005C
:1004A000000000000000000000000000000000004C
:1004B0000000000000001B00000000000000000021
:1004C000000000000000000000000000000000002C
:1004D000000000000000000000000000000000001C
:1004E0000040000000001B000000000000000000B1
:1004F00000000000000000000000000000000000FC
:1005000000000000000000000000000000000000EB
:1005100000000000000000000000000000000000DB
:100520000000000000D8DCBAA2F1DEB2B8B4A881A5
:1005300091F74A907F916AF3F9DBA8F9B0BAA080ED
:10054000F2CE81F3C2F1C1F2C3F3CCA2B280F1C604
:10055000D880BAA7DFDFDFF2A7C3CBC5B6F087A28A
:10056000942448703C95406834589B78A2F183925B
:100570002D557DD8B1B4B8A1D09180F270F370F24E
:100580007C80A8F101B09887D943D886C988BAA1E0
:10059000F20EB89780F1A9DFDFDFAADFDFDFF2AA72
:1005A000C5CDC7A90CC92C97979797F1A98926465D
:1005B00066B0B4BA80ACDEF2CAF1B28C02A9B698C9
:1005C00000890E161EB8A9B4992C547CB08AA8963E
:1005D000365676F1B9AFB4B083C0B8A89711B18FD1
:1005E00098B9AFF0240844106418F1A329557DAFE1
:1005F00083B593AFF0002850F1A3869F61A6DADEA1
:10060000DFD9FAA38696DB31A6D9F8DFBAA68FC266
:10061000C5C7B28CC1B8A2DFDFDFA3DFDFDFD8D868
:10062000F1B8A8B286B4980D355DB8AA98B0872DF8
:10063000353DB2B6BAAF8C96198F9FA70E161EB471
:100640009AB8AA872C547CB9A3DEDFDFA3B180F26D
:10065000C4CDC9F1B8A9B499830D355D89B9A32D6D
:10066000557DB593A30E161EA92C547CB8B4B0F1D9
:100670009783A81184A50998A383F0DA240844106D
:100680006418D8F1A529557DA58595021A2E3A56EC
:100690005A4048F9F3A3D9F8F09883240844106429
:1006A000189782A8F111F098A2240844106418DA6F
:1006B000F3DED883A59401D9A302F1A2C3C5C7D89C
:1006C000F18492A24DDA2AD84869D92AD86855DA35
:1006D00032D85071D932D8705DDA3AD85879D93ACF
:1006E000D87893A34DDA2AD84869D92AD86855DA38
:1006F00032D85071D932D8705DDA3AD85879D93AAF
:10070000D878A88A9AF02850789EF38818F19F1D0F
:1007100098A8D908D8C89F129EF315A8DA1210D845
:10072000F1AFC8978734B5B994A421F3D922D8F290
:100730002DF3D92AD8F235F3D932D881A46060617B
:10074000D961D86C6869D969D8747071D971D8B118
:10075000A384193D5DA3831A3E5E9310308110116E
:10076000B8B0AF8F94F2DA3ED8B49AA88729DAF8F5
:10077000D8879A35DAF8D8879A3DDAF8D8B1B9A48B
:100780009885022E56A581000C14A397B08AF12DEE
:10079000D928D84DD948D86DD968D8B1840DDA0E8A
:1007A000D8A32983DA2C0ED8A3844983DA2C4C0EE3
:1007B000D8B8B0A88A9AF520AADADFD8A840AAD07B
:1007C000DADED8A860AADAD0DFD8F19786A8319B04
:1007D000069907AB9728889BF00C201440B8B0B45A
:1007E000A88C9CF0042851791D301438B282ABD00B
:1007F000982C505078789BF11AB0F08A9CA8295117
:10080000798B2951798A2470598B2058718A4469CF
:10081000388B3940688A6448318B304960A588201C
:100820000971584468113964493019F1AC002C54ED
:100830007CF08CA804285078F1889726A85998ACA9
:100840008C02264666F0899CA82951792470594467
:100850006938644831A98809205970AB113840695A
:10086000A8193148608CA83C415C207C00F1879835
:100870001986A86E767EA999882D557D9EB9A38A82
:10088000228A6E8A568A5E9FB183062646660E2E9F
:100890004E6E9DB8AD002C547CF2B18CB499B9A3C6
:1008A0002D557D8191AC38AD3AB58391AC2DD928C9
:1008B000D84DD948D86DD968D88C9DAE29D904AE09
:1008C000D851D904AED879D904D881F39DAD008D23
:1008D000AE1981ADD901D8F2AEDA26D88E9129832E
:1008E000A7D9ADADADADF32AD8D8F1B0AC89913E62
:1008F0005E76F3AC2E2EF1B18C5A9CAC2C282828B5
:100900009CAC3018A8988128343C9724A728343C04
:100910009C24F2B089AC912C4C6C8A9B2DD9D8D8F0
:1009200051D9D8D879D9D8D8F19E88A331DAD8D876
:10093000912DD928D84DD948D86DD968D8B183938D
:10094000353D8025DAD8D88569DAD8D8B49381A323
:1009500028343CF3AB8BF8A391B609B4D9ABDEFADB
:10096000B0879CB9A3DDF1A3A3A3A395F1A3A3A38F
:100970009DF1A3A3A3A3F2A3B49080F2A3A3A3A386
:10098000A3A3A3A3A3A3B2A3A3A3A3A3A3B087B525
:1009900099F1A3A3A398F1A3A3A3A397A3A3A3A3AC
:1009A000F39BA3A3DCB9A7F1262626D8D8FF2900FC
:1009B000444D5020496E697469616C697A6174694B
:1009C0006F6E206661696C65642028636F646520C2
:1009D00000444D502072656164792120576169742B
:1009E000696E6720666F7220666972737420696E23
:1009F000746572727570742E2E2E00456E61626C75
:100A0000696E6720696E74657272757074206465B2
:100A100074656374696F6E202841726475696E6FC6
:100A20002065787465726E616C20696E746572728F
:100A30007570742030292E2E2E00456E61626C690F
:100A40006E6720444D502E2E2E004D5055363035B9
:100A50003020636F6E6E656374696F6E20666169C6
:100A60006C6564004D50553630353020636F6E6EC6
:100A7000656374696F6E2073756363657373667500
:100A80006C00496E697469616C697A696E672044AB
:100A90004D502E2E2E0054657374696E6720646568
:100AA0007669636520636F6E6E656374696F6E73DC
:100AB0002E2E2E004649464F206F766572666C6F6B
:100AC00077210000002100240027002A002D00309B
:100AD00000330001010000040107010A01000022A7
:100AE00000250028002B002E0031003400020100F8
:100AF00000050108010B0100002000230026002949
:100B0000002C002F00320000010000030106010943
:100B10000105050505070508080808020202020A82
:100B20000A08080404040401010101010101010390
:100B300003030303030303040707070C0C0C0C0C4B
:100B40000C0C0C0202020206060606060606060B3E
:100B50000B0B0B0B0B0B0B010210202008081020B5
:100B60004010204080020102010804020101020439
:100B700008102040808040201008040201800402F8
:100B8000018040201008040201080402010102044F
:100B90000810204080010204081020408000000A54
:100BA0000B02090C0D0E08070304010000000000F1
:100BB0000000000000000000000000000000000035
:100BC00000000000000000000012111000000000F2
:100BD0000000000000000000000000000000000015
:100BE000000000006B2311241FBECFEFD1E2DEBF57
:100BF000CDBF00E00CBF13E0A0E0B2E0ECEFF2E507
:100C000000E00BBF02C007900D92A83BB107D9F7D7
:100C100021E1A8EBB3E001C01D92A938B207E1F7CA
:100C200015E0C3EFD5E000E006C021970109802F51
:100C3000FE010E941824C23FD10780E00807A9F7EF
:100C40000E9430130C947C29DBC9FC01918D828DAC
:100C5000981761F0828DDF01A80FB11D5D968C9110
:100C6000928D9F5F9F73928F90E008958FEF9FEF1B
:100C70000895FC01918D828D981731F0828DE80FD7
:100C8000F11D858D90E008958FEF9FEF0895FC0191
:100C9000918D228D892F90E0805C9F4F821B91095E
:100CA0008F73992708958BE990E1F1DF21E0892B7B
:100CB00009F420E0822F0895FC01848DDF01A80F44
:100CC000B11DA35ABF4F2C91848D90E001968F7374
:100CD0009927848FA689B7892C93A089B1898C9193
:100CE00080648C93938D848D981306C00288F38959
:100CF000E02D80818F7D80830895EF92FF920F9386
:100D00001F93CF93DF93EC0181E0888F9B8D8C8DB7
:100D1000981305C0E889F989808185FD23C0F62EE6
:100D20000B8D10E00F5F1F4F0F731127E02E8C8D7E
:100D3000E8120BC00FB607FCFACFE889F989808169
:100D400085FFF5CFCE01B8DFF2CF8B8DFE01E80F26
:100D5000F11DE35AFF4FF0820B8FEA89FB898081F6
:100D6000806207C0EE89FF896083E889F989808104
:100D70008064808381E090E0DF91CF911F910F919B
:100D8000FF90EF900895CF93DF93EC01888D882337
:100D9000C1F0EA89FB89808185FD05C0A889B989F0
:100DA0008C9186FD0EC00FB607FCF5CF808185FFC4
:100DB000F2CFA889B9898C9185FFEDCFCE017CDF78
:100DC000E8CFDF91CF91089580E090E0892B19F072
:100DD0006ADF811125C080E090E0892B41F080E03E
:100DE00090E0892B21F00E94000081111CC080E05E
:100DF00090E0892B41F080E090E0892B21F00E9467
:100E00000000811113C080E090E0892BA1F080E008
:100E100090E0892B81F00E94000081110AC00895A2
:100E20000E940000D8CF0E940000E1CF0E94000085
:100E3000EACF0C940000089590E0FC013197E23174
:100E4000F10508F04EC08827EE58FF4F8F4F0C94E5
:100E50001824809180008F7703C0809180008F7D5F
:100E600080938000089580918000877FF9CF84B5BA
:100E70008F7702C084B58F7D84BD08958091B000C6
:100E80008F7703C08091B0008F7D8093B00008956C
:100E9000809190008F7707C0809190008F7D03C074
:100EA00080919000877F8093900008958091A000AA
:100EB0008F7707C08091A0008F7D03C08091A00034
:100EC000877F8093A0000895809120018F7707C0CD
:100ED000809120018F7D03C080912001877F8093C6
:100EE000200108953FB7F89480914C1090914D10D7
:100EF000A0914E10B0914F1026B5A89B05C02F3F72
:100F000019F00196A11DB11D3FBFBA2FA92F982F2F
:100F10008827820F911DA11DB11DBC01CD0142E0AA
:100F2000660F771F881F991F4A95D1F70895089576
:100F300081E08093BA0308958091B80390E02091F6
:100F4000B903821B9109089585ED8093BC008091BF
:100F5000BC0084FDFCCF10927610089540910210E1
:100F6000262F30E0240F311D21323105DCF4209191
:100F700076102430C9F4FC0180E090E0861758F424
:100F8000309102102191DC01A052B04FA30FB11D8E
:100F90002C930196F3CF80910210680F609302109A
:100FA00080E0089581E0089582E008950895E09139
:100FB000B9038091B803E81730F4F0E0E95DFF4E23
:100FC000808190E008958FEF9FEF08959091B9038D
:100FD0008091B803981750F4E92FF0E0E95DFF4ED7
:100FE000208130E09F5F9093B90302C02FEF3FEF65
:100FF000C9010895CF92DF92EF92FF920F931F9352
:10100000CF93DF937C01262F972F8A018091771051
:10101000882391F0C62FD72F6E01C40ED51ECC1594
:10102000DD0569F06991D701ED91FC910190F081A6
:10103000E02DC7011995F3CF642F822F8FDFC801F0
:10104000DF91CF911F910F91FF90EF90DF90CF90A4
:101050000895CF93DF931F92CDB7DEB769832091B8
:1010600077102223D1F020919A10203240F021E015
:1010700030E0FC013383228380E090E014C0809153
:101080007810E82FF0E0E758FF4E998190838F5F4A
:101090008093781080939A1004C061E0CE0101968D
:1010A0005DDF81E090E00F90DF91CF9108950E9485
:1010B0004C291F920F920FB60F9211240BB60F926C
:1010C0002F933F934F935F936F937F938F939F9350
:1010D000AF93BF93EF93FF938BE990E1EDDDFF9129
:1010E000EF91BF91AF919F918F917F916F915F91A0
:1010F0004F913F912F910F900BBE0F900FBE0F900D
:101100001F9018951F920F920FB60F9211240BB6D5
:101110000F922F938F939F93EF93FF93E091AB10D8
:10112000F091AC108081E091B110F091B21082FD8D
:1011300012C090818091B4108F5F8F732091B51091
:10114000821751F0E091B410F0E0E556FF4E958F14
:101150008093B41001C08081FF91EF919F918F9196
:101160002F910F900BBE0F900FBE0F901F901895F0
:10117000CF93DF93282F30E0F901E356F44F8491A9
:10118000F901E95AF44FD491F901EF5EF44FC4919B
:10119000CC2389F0811150DEEC2FF0E0EE0FFF1F21
:1011A000E950F54FA591B491EC91ED2381E090E0E9
:1011B00021F480E002C080E090E0DF91CF910895BB
:1011C0001F93CF93DF93282F30E0F901E356F44FBC
:1011D0008491F901E95AF44FD491F901EF5EF44F8B
:1011E000C491CC23C1F0162F811126DEEC2FF0E044
:1011F000EE0FFF1FE352F54FA591B4918FB7F8940E
:10120000111105C09C91ED2FE095E92302C0EC91EE
:10121000ED2BEC938FBFDF91CF911F910895CF936A
:10122000DF9390E0FC01E95AF44F2491FC01EF5E5A
:10123000F44F8491882361F190E0880F991FFC019D
:10124000ED53F54FC591D491FC01E352F54FA591B3
:10125000B491611109C09FB7F894888120958223C9
:101260008883EC912E230BC0623061F49FB7F89411
:101270003881822F809583238883EC912E2B2C93A9
:101280009FBF06C08FB7F894E8812E2B28838FBFAD
:10129000DF91CF9108958F929F92AF92BF92CF929C
:1012A000DF92EF92FF926B017C011CDE4B015C012F
:1012B000C114D104E104F104E9F014DEDC01CB0136
:1012C00088199909AA09BB09883E9340A105B1056F
:1012D00078F321E0C21AD108E108F10888EE880EFF
:1012E00083E0981EA11CB11CC114D104E104F104D7
:1012F00021F7DECFFF90EF90DF90CF90BF90AF90BF
:101300009F908F9008952FB7F89460914810709136
:10131000491080914A1090914B102FBF08951F9251
:101320000F920FB60F9211242F933F938F939F9399
:10133000AF93BF938091481090914910A0914A10AB
:10134000B0914B103091471023E0230F2D3720F43C
:101350000196A11DB11D05C026E8230F0296A11D0F
:10136000B11D209347108093481090934910A0938B
:101370004A10B0934B1080914C1090914D10A09159
:101380004E10B0914F100196A11DB11D80934C10CD
:1013900090934D10A0934E10B0934F10BF91AF910A
:1013A0009F918F913F912F910F900FBE0F901F90A3
:1013B00018951F920F920FB60F9211240BB60F9231
:1013C0002F933F934F935F936F937F938F939F934D
:1013D000AF93BF93EF93FF93E0910E02F0910F0252
:1013E0001995FF91EF91BF91AF919F918F917F914F
:1013F0006F915F914F913F912F910F900BBE0F9086
:101400000FBE0F901F9018951F920F920FB60F925C
:1014100011240BB60F922F933F934F935F936F93CB
:101420007F938F939F93AF93BF93EF93FF93E0913D
:101430000C02F0910D021995FF91EF91BF91AF91C0
:101440009F918F917F916F915F914F913F912F91DC
:101450000F900BBE0F900FBE0F901F9018951F920C
:101460000F920FB60F9211240BB60F922F933F934A
:101470004F935F936F937F938F939F93AF93BF939C
:10148000EF93FF93E0910202F09103021995FF910F
:10149000EF91BF91AF919F918F917F916F915F91EC
:1014A0004F913F912F910F900BBE0F900FBE0F9059
:1014B0001F9018951F920F920FB60F9211240BB622
:1014C0000F922F933F934F935F936F937F938F93DD
:1014D0009F93AF93BF93EF93FF93E0910002F0913E
:1014E00001021995FF91EF91BF91AF919F918F915B
:1014F0007F916F915F914F913F912F910F900BBE14
:101500000F900FBE0F901F9018951F920F920FB65D
:101510000F9211240BB60F922F933F934F935F932B
:101520006F937F938F939F93AF93BF93EF93FF93AB
:10153000E0910A02F0910B021995FF91EF91BF9192
:10154000AF919F918F917F916F915F914F913F915B
:101550002F910F900BBE0F900FBE0F901F901895FC
:101560001F920F920FB60F9211240BB60F922F936A
:101570003F934F935F936F937F938F939F93AF931B
:10158000BF93EF93FF93E0910802F0910902199540
:10159000FF91EF91BF91AF919F918F917F916F914B
:1015A0005F914F913F912F910F900BBE0F900FBE07
:1015B0000F901F9018951F920F920FB60F92112443
:1015C0000BB60F922F933F934F935F936F937F933D
:1015D0008F939F93AF93BF93EF93FF93E091060296
:1015E000F09107021995FF91EF91BF91AF919F91F3
:1015F0008F917F916F915F914F913F912F910F90BC
:101600000BBE0F900FBE0F901F9018951F920F9258
:101610000FB60F9211240BB60F922F933F934F9357
:101620005F936F937F938F939F93AF93BF93EF934A
:10163000FF93E0910402F09105021995FF91EF915B
:10164000BF91AF919F918F917F916F915F914F91DA
:101650003F912F910F900BBE0F900FBE0F901F90D8
:1016600018954F925F926F927F928F929F92AF9256
:10167000BF92CF92DF92EF92FF920F931F93CF937F
:10168000DF93CDB7DEB768970FB6F894DEBF0FBE15
:10169000CDBF8C01FB018CA59DA5AEA5BFA58D87F7
:1016A0009E87AF87B88B88A999A9AAA9BBA9898B5E
:1016B0009A8BAB8BBC8B8CA99DA9AEA9BFA98D8B36
:1016C0009E8BAF8BB88F88AC99ACAAACBBACC080FA
:1016D000D180E280F38084819581A681B78189835E
:1016E0009A83AB83BC8380859185A285B3858D83E6
:1016F0009E83AF83B88784859585A685B7858987BE
:101700009A87AB87BC872D853E854F855889C70151
:10171000B6010E947A262B013C0129893A894B891E
:101720005C8969817A818B819C810E947A269B01E8
:10173000AC01C301B2010E9434242B013C012D896C
:101740003E894F89588D6D817E818F8198850E9459
:101750007A269B01AC01C301B2010E9434242B0103
:101760003C01A501940169857A858B859C850E9441
:101770007A269B01AC01C301B2010E943424D80136
:101780006D937D938D939C93139729893A894B8907
:101790005C89C701B6010E947A262B013C012D8588
:1017A0003E854F85588969817A818B819C810E9411
:1017B0007A269B01AC01C301B2010E9435242B01A2
:1017C0003C01A50194016D817E818F8198850E94E5
:1017D0007A269B01AC01C301B2010E9435242B0182
:1017E0003C012D893E894F89588D69857A858B8585
:1017F0009C850E947A269B01AC01C301B2010E9424
:101800003424F80164837583868397832D893E8908
:101810004F89588DC701B6010E947A262B013C01E1
:10182000A501940169817A818B819C810E947A262D
:101830009B01AC01C301B2010E9434242B013C0185
:101840002D853E854F8558896D817E818F81988554
:101850000E947A269B01AC01C301B2010E9435248B
:101860002B013C0129893A894B895C8969857A85F4
:101870008B859C850E947A269B01AC01C301B20135
:101880000E943524D80118966D937D938D939C9377
:101890001B97A5019401C701B6010E947A266B012E
:1018A0007C012D893E894F89588D69817A818B8190
:1018B0009C810E947A269B01AC01C701B6010E945F
:1018C00035246B017C0129893A894B895C896D81BA
:1018D0007E818F8198850E947A269B01AC01C70189
:1018E000B6010E9434246B017C012D853E854F8515
:1018F000588969857A858B859C850E947A269B010B
:10190000AC01C701B6010E943524F80164877587D0
:1019100086879787C80168960FB6F894DEBF0FBE1A
:10192000CDBFDF91CF911F910F91FF90EF90DF908E
:10193000CF90BF90AF909F908F907F906F905F906F
:101940004F900895EF92FF920F931F93CF93DF93E1
:101950001F921F92CDB7DEB7142F91E090937710AE
:10196000809399101092781010929A1089E791E163
:1019700029833A836EDB2981022FE22E3A81F32EEE
:101980008E2D801B811738F4F70161917F0189E763
:1019900091E15FDBF5CF81D391E0811190E0892F58
:1019A0000F900F90DF91CF911F910F91FF90EF90CB
:1019B00008951F93CF93DF931F921F92CDB7DEB789
:1019C0005A83498391E090937710809399101092F5
:1019D000781010929A1089E791E13BDB19816A81B6
:1019E00089E791E136DB612F89E791E132DB55D35D
:1019F00091E0811190E0892F0F900F90DF91CF91AE
:101A00001F910895CF93DF931F92CDB7DEB749831F
:101A10009E012F5F3F4F41E095DF0F90DF91CF9107
:101A200008952F923F924F925F926F927F928F9282
:101A30009F92AF92BF92CF92DF92EF92FF920F935D
:101A40001F93CF93DF93CDB7DEB727970FB6F894E8
:101A5000DEBF0FBECDBFE82E6B834F83690153DC21
:101A60004B015C016E2C660CF12C1E827724739462
:101A70005F81452F50E05D834C831801412C512C30
:101A80004F81F41608F095C070927710E09299108B
:101A90001092781010929A106B8189E791E1D9DA4F
:101AA000FCD270927710E0929910109278101092F8
:101AB0009A10809176108111FCCF2C813D812F19D5
:101AC00031092132310514F020E230E0213208F0F2
:101AD00020E270927610709275108FEF80937410E0
:101AE00010927310820F8093721070925110809137
:101AF000511086298093511080915010813071F4DB
:101B000010925010809151108093BB008091BC00C6
:101B100083FDF8CF95EC9093BC0003C0E5EEE09315
:101B2000BC00809176108130E1F3809173108217B0
:101B300010F420917310A2E5B0E1E7E2F0E18E2FFE
:101B400047E250E1841B821718F48D918193F7CFFF
:101B50001092B9032093B8039091B8038091B90310
:101B6000981709F10115110591F4A6012E81420F74
:101B7000511D27FD5A955A83498389E791E126DA59
:101B8000E981FA8180832E812F5F2E83E5CFBBDB35
:101B9000DC01CB0188199909AA09BB0982159305B3
:101BA000A405B50510F38F81813208F080E2F80EAC
:101BB00067CFFE8001151105D1F0A5DBDC01CB015B
:101BC00088199909AA09BB0920E030E0801791071C
:101BD000A207B30760F05F81252F30E08F2D0F2C17
:101BE000000C990B8217930714F4FF24FA948F2D9D
:101BF00027960FB6F894DEBF0FBECDBFDF91CF9111
:101C00001F910F91FF90EF90DF90CF90BF90AF901A
:101C10009F908F907F906F905F904F903F902F900C
:101C20000895BF92CF92DF92EF92FF920F931F938E
:101C3000CF93DF931F92CDB7DEB7F82EE62EC42EDA
:101C4000B22ED02E08EE13E09E012F5F3F4F41E0F1
:101C5000E8DE882319F1EC2DF0E0EB19F10931965B
:101C600021E030E002C0220F331FBA94E2F7215086
:101C700031090E2E01C0220F0A94EAF78D2D01C002
:101C8000880FEA95EAF7422F409599814923282346
:101C9000422B49836E2D8F2DB5DE01C080E00F9061
:101CA000DF91CF911F910F91FF90EF90DF90CF9038
:101CB000BF900895CF92DF92EF92FF920F931F9300
:101CC000CF93DF931F92CDB7DEB7F82EE62ED42E3A
:101CD000C22E08EE13E09E012F5F3F4F41E0A1DED0
:101CE0009981CC2041F041E050E001C0440FDA94EA
:101CF000EAF7492B09C021E030E0A90101C0440FF7
:101D0000DA94EAF74095492349836E2D8F2D7ADEC8
:101D10000F90DF91CF911F910F91FF90EF90DF9087
:101D2000CF9008951F920F920FB60F9211240BB609
:101D30000F922F933F934F935F936F937F938F9364
:101D40009F93AF93BF93EF93FF938091B900887FE8
:101D5000803609F49CC068F5883209F45BC090F4C1
:101D6000803109F454C038F4882309F4F6C088306F
:101D700009F44DC0F6C0883109F44CC0803209F432
:101D80005DC0EFC0803409F468C048F4803309F4C2
:101D900055C0883309F0E5C080937410D8C08035F1
:101DA00009F44FC0883509F45DC0883409F0D9C002
:101DB000D6C0883909F4C7C0A8F4883709F467C0C9
:101DC00038F4883609F463C0803709F460C0C9C0AC
:101DD000883809F4B8C0803909F45FC0803809F048
:101DE000C0C05BC0803B09F486C038F4803A09F477
:101DF00066C0883A09F47FC0B4C0803C09F4A7C02B
:101E0000883C09F4A4C0883B09F48AC0AAC0809128
:101E1000511010C09091731080917210981770F546
:101E2000E091731081E08E0F80937310F0E0EE5A12
:101E3000FF4E80818093BB0085EC86C08093741038
:101E40008EC0E091731081E08E0F809373108091AB
:101E5000BB00F0E0EE5AFF4E8083909173108091AA
:101E600072106EC0E091731081E08E0F809373103A
:101E70008091BB00F0E0EE5AFF4E80838091751098
:101E800081116DC081E08093501084EA61C083E0CD
:101E90008093761010922610CFCF8091261080323A
:101EA00008F051C0E091261081E08E0F809326103B
:101EB0008091BB00F0E0EA5FFF4E8083BDCF85ECF0
:101EC0008093BC001092761080912610803230F4FE
:101ED000E0912610F0E0EA5FFF4E1082609126103C
:101EE00070E0E0910410F091051086E090E1199502
:101EF0001092261036C084E0809376101092031062
:101F000010920210E0910010F0910110199580914B
:101F10000210811105C081E0809302101092E00F41
:101F2000E091031081E08E0F80930310F0E0E05207
:101F3000F04F80818093BB0090910310809102103C
:101F4000981708F479CF85E88093BC000AC085EC27
:101F50008093BC001092761004C0109274100E94FE
:101F6000A407FF91EF91BF91AF919F918F917F91C6
:101F70006F915F914F913F912F910F900BBE0F90FA
:101F80000FBE0F901F901895E0919B10F0919C1040
:101F90000190F081E02D682F8BE990E11994009772
:101FA00061F0FC0101900020E9F73197AF01481B77
:101FB000590BBC018BE990E128C380E090E00895C3
:101FC0000F931F93CF93DF938C01C0E0D0E0F80113
:101FD000EC0FFD1F6491662371F0E0919B10F0916E
:101FE0009C100190F081E02D8BE990E11995892BEF
:101FF00011F02196ECCFCE01DF91CF911F910F917F
:102000000895CF93DF93DCDFEC018BED92E0C7DF27
:102010008C0F9D1FDF91CF9108958F929F92AF9269
:10202000BF920F931F93CF93DF93CDB7DEB7A197E6
:102030000FB6F894DEBF0FBECDBF19A2423008F430
:102040004AE08E010F5D1F4F842E912CA12CB12CE4
:10205000A50194010E94F623E62FB901CA0101509F
:102060001109EA3014F4E05D01C0E95CD801EC9399
:10207000232B242B252B61F7C80191DFA1960FB6E6
:10208000F894DEBF0FBECDBFDF91CF911F910F91AE
:10209000BF90AF909F908F90089520919A1090914B
:1020A0009910213208F04AC0809176108111FCCF3E
:1020B00032E03093761031E0309375103FEF30937B
:1020C00074101092731020937210A9E7B0E142E5EA
:1020D00050E1FA013E2F341B321718F43D91319331
:1020E000F9CF1092511020915110990F922B90938B
:1020F000511090915010913061F4109250109091C5
:1021000051109093BB009091BC0093FDF8CF95ECDB
:1021100001C095EE9093BC00909176109230E1F35F
:10212000909174109F3F79F080917410803241F04B
:1021300080917410803331F084E005C081E003C0E9
:1021400082E001C083E01092781010929A101092F1
:10215000771008950F931F93CF93DF93C6E6D1E1D5
:1021600008EE13E027E631E141E06AE3888159DCBB
:102170008981DF91CF911F910F91089521E042E075
:102180006AE68091661196CD482F6EE680916611C1
:1021900039CC2F923F924F925F926F927F928F92A3
:1021A0009F92AF92BF92CF92DF92EF92FF920F93E6
:1021B0001F93CF93DF933C015B01342ED22F202E4F
:1021C0004F716DE6809166111DDC8D2FDDDF80E1A2
:1021D00090E00E943B276C01002339F080E190E001
:1021E0000E943B27C82F492E02C0C0E0412CE12CA1
:1021F000F12CEA14FB0408F068C0C7014096A81649
:10220000B90618F45A2C5E1802C080E1582E852DAC
:1022100090E020E031E02D1B31092817390714F434
:102220005D2E5194F301EE0DFF1D222059F09C2FDD
:10223000AC2FB42D8A2F891B851530F484918D9392
:102240003196F8CFCE2F4F2E2C2F342D452D6FE603
:102250008091661177DB852C912CC114D10411F18A
:10226000432D4F716DE680916611CCDB8D2F8CDF95
:1022700008EE13E09601452D6FE680916611D1DBE3
:10228000A401B6018C2F942D0E945029892B51F066
:10229000C6010E94D027222011F18C2F942D0E947C
:1022A000D0271DC0E80CF91CD50DEA14FB0408F07A
:1022B000A0CFD11101C03394432D4F716DE68091B1
:1022C0006611A0DB8D2F60DF94CFC6010E94D0275E
:1022D000222039F08C2F942D0E94D02702C080E05C
:1022E00001C081E0DF91CF911F910F91FF90EF909E
:1022F000DF90CF90BF90AF909F908F907F906F9026
:102300005F904F903F902F9008950F931F936623F7
:1023100049F0462F9C0108EE13E064E780916611B6
:1023200080DB02C0FC0110821F910F9108950F9372
:102330001F93CF93DF93C6E6D1E108EE13E027E6C3
:1023400031E142E062E788816CDB898190E0982F7F
:1023500088272A81822BDF91CF911F910F910895B9
:10236000EF92FF920F931F93CF93DF931F92CDB7FE
:10237000DEB77A0189019E012F5F3F4F41E051DBBB
:10238000882339F029812E7730E035952795F7019C
:1023900020830F90DF91CF911F910F91FF90EF90CD
:1023A0000895CF92DF92EF92FF92CF93DF936C016B
:1023B000990FEE08FF08F7FE10C08DE2E5DDEC0195
:1023C00066277727CB016C197D098E099F094AE0A2
:1023D00024DE7C01EC0EFD1E05C04AE0C701B601FB
:1023E0001CDE7C018BED92E0DADD8E0D9F1DDF910E
:1023F000CF91FF90EF90DF90CF900895CF93DF9330
:10240000CEDDEC018BED92E0CADD8C0F9D1FDF91DC
:10241000CF910895C4CDCF92DF92EF92FF92CF93E8
:10242000DF936C01990FEE08FF08F7FE15C08DE2EF
:10243000ABDDEC0166277727CB016C197D098E098E
:102440009F094AE0EADD8C0F9D1FDF91CF91FF903D
:10245000EF90DF90CF9008954AE0C701B601DF9179
:10246000CF91FF90EF90DF90CF90D7CD4F925F92BA
:102470006F927F928F929F92AF92BF92CF92DF9294
:10248000EF92FF926B017C01B42E9B01AC010E9484
:102490002227882319F08BEA93E027C02601370111
:1024A000E89477F82FEF3FEF4FE75FE7C301B20102
:1024B0000E94222781110DC02FEF3FEF4FE75FE70A
:1024C000C301B2010E94FB2418161CF48FEA93E0AA
:1024D0000CC02FEF3FEF4FE75FE4C701B6010E944A
:1024E0006F2618167CF483EB93E0FF90EF90DF905B
:1024F000CF90BF90AF909F908F907F906F905F90A4
:102500004F904DCD2FEF3FEF4FE75FECC701B60186
:102510000E94FB2487FDE7CF20E030E0A901C7013E
:10252000B6010E94FB2487FF08C08DE22DDD4C011F
:10253000F7FAF094F7F8F09402C0812C912CA12CBA
:1025400060E070E080E09FE3AB1441F020E030E019
:1025500040E251E40E94FF24A394F6CF9B01AC011A
:10256000C701B6010E9435242B013C010E946C2555
:102570006B017C010E9498259B01AC01C301B20153
:102580000E9434242B013C014AE0C701B60145DD1D
:102590007C01E80CF91CBB2021F08EE2F5DCE80E92
:1025A000F91EDB2CDD2019F120E030E040E251E49F
:1025B000C301B2010E947A262B013C010E946C25C6
:1025C0004B01A12CB12C4AE0C501B40126DDE80E77
:1025D000F91EC501B4010E9498259B01AC01C301FD
:1025E000B2010E9434242B013C01DA94DBCFC701F5
:1025F000FF90EF90DF90CF90BF90AF909F908F9023
:102600007F906F905F904F900895CF92DF92EF92FE
:10261000FF920F931F93CF93DF936C017A018B018D
:10262000C0E0D0E0CE15DF0589F0D8016D918D01B5
:10263000D601ED91FC910190F081E02DC601199534
:10264000892B11F47E0102C02196ECCFC701DF91E6
:10265000CF911F910F91FF90EF90DF90CF90089551
:10266000CF93DF93CDB7DEB7CA5CD1090FB6F8942C
:10267000DEBF0FBECDBF789484B5826084BD84B5C3
:10268000816084BD85B5826085BD85B5816085BD6D
:1026900080916E00816080936E0010928100809125
:1026A00081008260809381008091810081608093AD
:1026B0008100809180008160809380008091B100D2
:1026C00084608093B1008091B00081608093B000FD
:1026D000809191008260809391008091910081604F
:1026E0008093910080919000816080939000809110
:1026F000A10082608093A1008091A10081608093FD
:10270000A1008091A00081608093A00080912101B0
:102710008260809321018091210181608093210159
:102720008091200181608093200180917A008460F3
:1027300080937A0080917A00826080937A00809101
:102740007A00816080937A0080917A00806880931B
:102750007A001092C10060E082E30E940F0960E0FD
:1027600080E30E940F0961E08CE20E940F09E5ED11
:10277000FCE06BEC79E045E55BE080E090E0108206
:10278000118212821382DF01B3951D921D921D9258
:102790001C921397B3951D921D921D921C92139734
:1027A000DB011D921D92BD019C012553364FD901BD
:1027B000A058BF4F11961C921E92A058BF4F1D9259
:1027C0001C92DA011D921D92AD019C012B5A344FCF
:1027D000D901A058BF4F11961C921E92A058BF4F0E
:1027E0001D921C92349602968038910541F6109203
:1027F000B9031092B8031092781010929A101092A8
:10280000761081E0809375101092501061E084E1A1
:102810000E94E00861E085E10E94E0088091B90033
:102820008E7F8093B9008091B9008D7F8093B9002D
:1028300088E48093B80085E48093BC008CE08093AA
:10284000B800E091AB10F091AC1082E08083E09191
:10285000A710F091A8101082E091A910F091AA1091
:1028600080E180831092B310E091AF10F091B0102E
:1028700086E08083E091AD10F091AE1080818061A0
:102880008083E091AD10F091AE10808188608083EC
:10289000E091AD10F091AE10808180688083E0916E
:1028A000AD10F091AE1080818F7D808386E99AE033
:1028B000A8DB28EE33E047E651E165E78091661139
:1028C0004FDD80916711843319F08AE49AE002C0E9
:1028D00084E69AE096DB82E89AE093DB21E047E029
:1028E0006BE680916611E6D96EE170E080E090E0E1
:1028F0000E944B0920E046E06BE680916611DAD930
:1029000040E76DE6809166117DD886E03DDC40E0D1
:102910006DE68091661176D828EE33E047E651E106
:1029200060E0809166111CDD8090671128EE33E035
:1029300047E651E161E08091661112DD90906711E8
:1029400028EE33E047E651E162E08091661108DD50
:10295000A09067114FE765E28091661153D820E09F
:1029600045E06AE680916611A5D948E665E2809166
:10297000661148D821E041E06AE6809166119AD953
:1029800064E170E080E090E00E944B0901E020E00B
:1029900040E069E877E085E292E0FBDB882309F418
:1029A000AFC288E090E00E943B27B82E192FE12C9F
:1029B000F12CF701EB59FE4F4491F701EA59FE4F14
:1029C00024916701B3E0CB0ED11CF701E959FE4F0A
:1029D000E491EE23C9F1EE2EF12CE330D8F0B701EB
:1029E0008B2D912FC653DF4F2883CA5CD040C7532D
:1029F000DF4F4883C95CD0400E946828B82E192F49
:102A0000C753DF4F4881C95CD040C653DF4F288190
:102A1000CA5CD040AB2DB12F80E090E08E159F05B1
:102A200048F4F601E80FF91FEB59FE4FE491ED93DE
:102A30000196F4CF00E0B7018B2D912FAADBEC0CAF
:102A4000FD1C811117C010C0E4E0EE0EF11CF60170
:102A5000EB59FE4FE491E13039F442E368E38091B1
:102A600066110E94020D06C08B2D912F0E94D02767
:102A700012E047C2F0ECEF16F10408F49ACF8B2D68
:102A8000912F0E94D02703E023E042E06BE6809183
:102A90006611C7D842E168E3809166110E94020D79
:102AA00044E069E1809166110E94020D01E023E09B
:102AB00045E06AE180916611B4D803E023E042E08A
:102AC0006AE180916611ADD822E044E06BE180912B
:102AD0006611A7D843E060E7809166110E94020D5D
:102AE00040E061E7809166110E94020D20E040E025
:102AF00060E080916611DED8082D26E046E060E0B7
:102B0000809166118ED8092D26E046E061E0809123
:102B1000661187D80A2D26E046E062E080916611B2
:102B200080D8E12CF12CF701EA5CFE4FE491A1E89A
:102B3000B0E0AC0FBD1FAE0DB11DEC9381E08E0D6A
:102B40002FEFE21AF20A33E03E1568F7CD57DF4F58
:102B50006881C358D04070E09B012E5F3F4F90E0EA
:102B60002817390704F700E0CE57DF4F2881C258F5
:102B7000D040CF57DF4F4881C158D04081E890E026
:102B80008C0F9D1F039605DB80E0F701EA5CFE4F8A
:102B9000E491A1E8B0E0AC0FBD1FA80FB11DEC930C
:102BA0008F5F4FEFE41AF40A843078F3CD57DF4F8C
:102BB0006881C358D04070E0AB014E5F5F4F282F53
:102BC00030E0421753070CF700E0CE57DF4F288163
:102BD000C258D040CF57DF4F4881C158D04081E81C
:102BE00090E08C0F9D1F0396D4DAC8DAA0DB682F23
:102BF000CE0101968ADB42E06FE1809166110E946E
:102C0000020D4CE961E2809166110E94020D40E5DF
:102C100060E2809166110E94020D40E062E28091C4
:102C200066110E94020DAADA21E046E06AE6809170
:102C3000661140D821E047E06AE6809166113AD8F3
:102C400021E043E06AE68091661134D880E0F70124
:102C5000EA5CFE4FE491A1E8B0E0AC0FBD1FA80F05
:102C6000B11DEC938F5F5FEFE51AF50A843078F3BE
:102C7000CD57DF4F6881C358D04070E0AB014E5F45
:102C80005F4F282F30E0421753070CF700E0CE5774
:102C9000DF4F2881C258D040CF57DF4F4881C158FD
:102CA000D04081E890E08C0F9D1F039672DA80E09F
:102CB000F701EA5CFE4FE491A1E8B0E0AC0FBD1F64
:102CC000A80FB11DEC938F5F9FEFE91AF90A8430CA
:102CD00078F3CD57DF4F6881C358D04070E0AB0127
:102CE0004E5F5F4F282F30E0421753070CF700E08C
:102CF000CE57DF4F2881C258D040CF57DF4F488191
:102D0000C158D04081E890E08C0F9D1F039641DAB6
:102D100080E0F701EA5CFE4FE491A1E8B0E0AC0F7F
:102D2000BD1FA80FB11DEC938F5FAFEFEA1AFA0A2F
:102D3000843078F3CD57DF4F6881C358D04070E0BE
:102D4000AB014E5F5F4F282F30E0421753070CF75F
:102D500000E0CE57DF4F2881C258D040CF57DF4F19
:102D60004881C158D04081E890E08C0F9D1F0396A8
:102D700010DADDDA83309105E0F3682FCE01019699
:102D8000C4DA80E0F701EA5CFE4FE491A1E8B0E02C
:102D9000AC0FBD1FA80FB11DEC938F5FBFEFEB1AF7
:102DA000FB0A843078F3CD57DF4F3880C358D040CA
:102DB000832C912CA4014E5F5F4F282F30E04217E7
:102DC000530704F7CE57DF4FB880C258D040CF57D3
:102DD000DF4F2880C158D040422D4F716DE6809161
:102DE00066110E94020D8B2DCFD9C12CD12C612CE4
:102DF00077247394F1E84F2E512C4C0E5D1EE3E0C6
:102E00004E0E511CC814D90490F5C6014096881680
:102E1000990618F4A32CAC1802C070E1A72E8A2DD5
:102E200090E093012B1931092817390714F4AB2CC2
:102E3000A19492012C0D3D1D08EE13E04A2D6FE682
:102E4000809166110E94110DCA0CD11CBA0CC814D5
:102E5000D904C0F6B11001C02394422D4F716DE624
:102E6000809166110E94020D8B2D8ED9CBCF5FDA37
:102E700083309105E0F3682FCE01019646DAF70121
:102E8000EA5CFE4F80E09491A1E8B0E0AC0FBD1F7A
:102E9000A80FB11D9C938F5F843010F43196F3CF4F
:102EA000CD57DF4F6881C358D04070E0AB014E5F13
:102EB0005F4F282F30E04217530784F700E0CE57CA
:102EC000DF4F2881C258D040CF57DF4F4881C158CB
:102ED000D04081E890E08C0F9D1F03965AD920E0E6
:102EE00047E06AE6809166110E945A0E8AE290E0FD
:102EF000909369118093681141D92CD910E001C0D9
:102F000011E01093BB0343E85CEE66E0809166112C
:102F10000E94D90C45E454E068E0809166110E945B
:102F2000D90C4BEB54E06AE0809166110E94D90CF9
:102F30004BE250E063E1809166110E94D90C49EFA9
:102F40005FEF65E1809166110E94D90C4DED5FEF56
:102F500067E1809166110E94D90C11112BC08AE3A0
:102F60009AE04FD821E047E06AE6809166110E941E
:102F70005A0E8BEF99E045D888E997E090930102CB
:102F80008093000280916A00836080936A00EC9ACB
:102F9000E1D88093450881ED99E033D881E08093B2
:102FA0004608809168119091691190934C0B809321
:102FB0004B0B0DC080EB99E003D86091BB0370E030
:102FC00080E090E04AE029D88EEA99E01AD80E9481
:102FD000830960934F0B7093500B8093510B909328
:102FE000520B22242A94322C8091BA0381110CC0F6
:102FF00020914D0B30914E0B80914B0B90914C0BCF
:103000002817390708F425C580914608882309F454
:10301000CDC41092BA039ED8182F8093450887D943
:1030200090934E0B80934D0B14FD03C0811594407B
:1030300031F4A4D884EB9AE00E940110B7C411FFC8
:10304000B5C400914D0B10914E0BE0904B0BF090DE
:103050004C0B0E151F0530F46AD990934E0B8093DC
:103060004D0BEFCF6E2D85E098E04FD90E191F095B
:1030700010934E0B00934D0B0091090810E0102F98
:10308000002780910A08082BC0900D08D12CDC2C59
:10309000CC2480910E08C82AE0901108F12CFE2C57
:1030A000EE2480911208E82A6091050870E0762FDE
:1030B000662780910608682B072E000C880B990B59
:1030C0000E949A2520E030E040E858E30E947A26EA
:1030D0002B013C0160935611709357118093581146
:1030E00090935911B801110F880B990B0E949A25E2
:1030F00020E030E040E858E30E947A264B015C0172
:1031000060935A1170935B1180935C1190935D11E1
:10311000B601DD0C880B990B0E949A2520E030E067
:1031200040E858E30E947A26CF55DF4F68837983C1
:103130008A839B83C15AD04060935E1170935F1164
:103140008093601190936111B701FF0C880B990B6C
:103150000E949A2520E030E040E858E30E947A2659
:10316000CB55DF4F688379838A839B83C55AD040D0
:103170006093621170936311809364119093651151
:103180009B01AC01C501B4010E947A266B017C0150
:10319000CF55DF4F288139814A815B81C15AD040A8
:1031A000C301B2010E947A269B01AC01C701B6019E
:1031B0000E9434249B01AC010E943524C755DF4F87
:1031C000688379838A839B83C95AD040609338117E
:1031D0007093391180933A1190933B11A50194019A
:1031E000C301B2010E947A266B017C01CB55DF4FEF
:1031F000288139814A815B81C55AD040CF55DF4F44
:10320000688179818A819B81C15AD0400E947A2647
:103210009B01AC01C701B6010E9435249B01AC01A2
:103220000E943524C355DF4F688379838A839B834B
:10323000CD5AD04060933C1170933D1180933E1164
:1032400090933F11A3019201C301B2010E947A261B
:103250006B017C01A5019401C501B4010E947A268D
:103260009B01AC01C701B6010E9434246B017C01B3
:10327000CF55DF4F288139814A815B81C15AD040C7
:10328000CA01B9010E947A269B01AC01C701B601AF
:103290000E9434246B017C01CB55DF4F288139819A
:1032A0004A815B81C55AD040CA01B9010E947A2681
:1032B0009B01AC01C701B6010E943524C754DF4F02
:1032C000688379838A839B83C95BD0406093401174
:1032D000709341118093421190934311A301920185
:1032E000C301B2010E9435246B017C01A501940148
:1032F000C501B4010E943524CF54DF4F6883798320
:103300008A839B83C15BD040A3019201C701B601B0
:103310000E947A26CB54DF4F688379838A839B830C
:10332000C55BD040A5019401CF54DF4F68817981FE
:103330008A819B81C15BD0400E947A269B01AC01AF
:10334000CB54DF4F688179818A819B81C55BD040F6
:103350000E94352420E030E040E85FE30E943424FE
:10336000CB54DF4F688379838A839B83C55BD040CE
:10337000CF55DF4F288139814A815B81C15AD040C6
:10338000CF54DF4F688179818A819B81C15BD040B6
:103390000E947A26CF54DF4F688379838A839B8388
:1033A000C15BD040CB55DF4F288139814A815B8199
:1033B000C55AD040C701B6010E947A269B01AC01D4
:1033C000CF54DF4F688179818A819B81C15BD04076
:1033D0000E943424CB54DF4F288139814A815B819C
:1033E000C55BD0400E94A824C354DF4F6883798313
:1033F0008A839B83CD5BD0406093F9077093FA0773
:103400008093FB079093FC07C754DF4F28813981D5
:103410004A815B81C95BD040CA01B9010E947A260A
:103420006B017C01C355DF4F288139814A815B8163
:10343000CD5AD040CA01B9010E947A26A70196014F
:103440000E9435240E94E1269B01AC01C755DF4F45
:10345000688179818A819B81C95AD0400E94FF246A
:103460000E94D324CF53DF4F688379838A839B8361
:10347000C15CD0406093FD077093FE078093FF0707
:1034800090930008C755DF4F288139814A815B81BD
:10349000C95AD040CA01B9010E947A26A7019601F3
:1034A0000E9435240E94E1269B01AC01C355DF4FE9
:1034B000688179818A819B81CD5AD0400E94FF2406
:1034C0000E94D324CB53DF4F688379838A839B8305
:1034D000C55CD04060930108709302088093030894
:1034E000909304088091210890E0982F88272091DC
:1034F0002208AC01422BCF54DF4F59834883C15B74
:10350000D04050935111409350118091250890E084
:10351000982F882720912608DC01A22BCB54DF4F5F
:10352000B983A883C55BD040B0935311A0935211C7
:103530008091290890E0982F882720912A081C0163
:10354000222A3092551120925411BA01550F880B3E
:10355000990B0E949A256B017C0120E030E040E04D
:1035600056E4C755DF4F688179818A819B81C95AAA
:10357000D0400E947A269B01AC01C701B6010E948F
:1035800034240E946725C755DF4F688379838A8377
:103590009B83C95AD040C755DF4FE881F981C95A8A
:1035A000D040F0934B11E0934A11CB54DF4F288168
:1035B0003981C55BD040B901330F880B990B0E944C
:1035C0009A256B017C0120E030E040E056E4C355D1
:1035D000DF4F688179818A819B81CD5AD0400E94DA
:1035E0007A269B01AC01C701B6010E9434240E94D7
:1035F00067256B017C0170934D1160934C11B101F3
:10360000032C000C880B990B0E949A25C355DF4FA1
:10361000688379838A839B83CD5AD04020E030E051
:1036200040E056E4C754DF4F688179818A819B81ED
:10363000C95BD0400E947A269B01AC01C355DF4F85
:10364000688179818A819B81CD5AD0400E9434243F
:103650000E946725C355DF4F688379838A839B83E4
:10366000CD5AD040C355DF4F48815981CD5AD04003
:1036700050934F1140934E1186E0EAE4F1E1A4E447
:10368000B1E101900D928A95E1F7CF57DF4F188293
:1036900019821A821B82C158D040C755DF4FA881BA
:1036A000B981C95AD040BD01BB0F880B990B0E944C
:1036B0009A25CB57DF4F688379838A839B83C558CC
:1036C000D040B601DD0C880B990B0E949A25C75794
:1036D000DF4F688379838A839B83C958D040C35561
:1036E000DF4FE881F981CD5AD040BF01FF0F880B31
:1036F000990B0E949A25C357DF4F688379838A8389
:103700009B83CD58D0402DB73EB7205131090FB61D
:10371000F8943EBF0FBE2DBFADB7BEB7119680E186
:10372000FE01EF57FF4F01900D928A95E1F766E594
:1037300071E1CE018F569F4F0E94310B80E1FE0157
:10374000EF56FF4FDE01AF57BF4F01900D928A95A4
:10375000E1F749825A826B827C82D501C401B0585C
:103760008D839E83AF83B887CF55DF4F8881998142
:10377000AA81BB81C15AD040B05889879A87AB874C
:10378000BC87CB55DF4F88819981AA81BB81C55AFF
:10379000D040B0588D879E87AF87B88B4DB75EB746
:1037A000405151090FB6F8945EBF0FBE4DBFADB783
:1037B000BEB7119680E1FE01319601900D928A9577
:1037C000E1F7BE016F577F4FCE018F569F4F0E948A
:1037D000310B80E1FE01EF56FF4FDE01AF57BF4FC7
:1037E00001900D928A95E1F7CB57DF4F688179817F
:1037F0008A819B81C558D0400E9467252B013C01DE
:103800007093451160934411C757DF4F68817981E8
:103810008A819B81C958D0400E9467254B015C0179
:103820007093471160934611C357DF4F68817981C8
:103830008A819B81CD58D0400E9467256B017C0115
:1038400070934911609348118091D50F9091D60FD4
:1038500001960FB6F894DEBF0FBECDBF8034910540
:1038600029F09093D60F8093D50F04C01092D60FF5
:103870001092D50FE091D50FF091D60FCF55DF4FB5
:10388000F983E883C15AD0408F01000F111F000F48
:10389000111F0B52134F20E030E044E353E4C354B4
:1038A000DF4F688179818A819B81CD5BD0400E9406
:1038B0007A262BED3FE049E450E40E94FF24D80132
:1038C0006D937D938D939C931397F801F395CB554E
:1038D000DF4FF983E883C55AD04020E030E044E36D
:1038E00053E4CF53DF4F688179818A819B81C15C2A
:1038F000D0400E947A262BED3FE049E450E40E943C
:10390000FF24CB55DF4FA881B981C55AD0406D93B4
:103910007D938D939C9313971E5F20E030E044E3EA
:1039200053E4CB53DF4F688179818A819B81C55CE9
:10393000D0400E947A262BED3FE049E450E40E94FB
:10394000FF24F8016083718382839383CF55DF4F17
:1039500028813981C15AD040220F331FD901A55384
:10396000B64F11965C924E92CD0180589F4FFC014C
:1039700091828082B395CD92DC92F901E55BF74F9D
:10398000CF54DF4F28813981C15BD0403183208300
:10399000DF01A058BF4FCB54DF4F48815981C55B31
:1039A000D0404D935C93F395318220820091D50FE6
:1039B0001091D60F0115110519F0C801019702C029
:1039C0008FE390E0880F991FFC01EB5AF34FE080E2
:1039D000F18000581F4F000F111FF801E553F64FFB
:1039E0006081718184E19EEAA7E4BFE38093470888
:1039F00090934808A0934908B0934A080B5A144F73
:103A0000072E000C880B990B0E949A252EEA37E4AA
:103A100041E65EE30E947A264B015C01B701FF0C90
:103A2000880B990B0E949A2524E13EEA47E45FE364
:103A30000E947A269B01AC01C501B40116D70E94F1
:103A40006725D8016D937C931092D90F0E94E406EC
:103A5000C8CA84E30E94B8089093DF0F8093DE0FFA
:103A60008091DC0F9091DD0F9093DB0F8093DA0F44
:103A700082E30E94B8088C018091BC039091BD0341
:103A8000892BE9F401301105D1F480E30E94B808D4
:103A90002091DC0F3091DD0F892B39F42F3FFFE7A8
:103AA0003F0769F02F5F3F4F06C0213040E83407E1
:103AB00031F0215031093093DD0F2093DC0F10934A
:103AC000BD030093BC038091D90F811161C4809123
:103AD000D70F9091D80F8430910509F02AC2009138
:103AE000DE0F1091DF0F8091D50F9091D60FCB553F
:103AF000DF4F99838883C55AD040880F991F880F5C
:103B0000991FCF55DF4F99838883C15AD040FC015C
:103B1000EB52F24FC080D180E280F38020E030E0B1
:103B2000A901C701B6010E946F26181664F0A7010B
:103B300096015058C755DF4F288339834A835B83EA
:103B4000C95AD04008C0C755DF4FC882D982EA821F
:103B5000FB82C95AD040CF55DF4FE881F981C15A65
:103B6000D040EB52F14F80809180A280B38020E062
:103B700030E0A901C501B4010E946F26A50194019E
:103B800018160CF050584090C9045090CA04609028
:103B9000CB047090CC04C755DF4F688179818A814E
:103BA0009B81C95AD04061D6A30192015DD620E025
:103BB00030E0A9010E946F2620E030E0A90118162C
:103BC00014F5C701B6010E946F26181624F0F7FA03
:103BD000F094F7F8F09420E030E0A901C501B401B9
:103BE0000E946F26181624F0B7FAB094B7F8B09474
:103BF000A5019401C701B60138D6A301920134D6BC
:103C00004B015C0125C0C701B6010E946F26181642
:103C100024F0F7FAF094F7F8F09420E030E0A901EE
:103C2000C501B4010E946F26181624F0B7FAB094AB
:103C3000B7F8B094A5019401C701B60116D6A30147
:103C4000920112D64B015C01B7FAB094B7F8B09468
:103C5000CF55DF4FE881F981C15AD040E753FC4F7F
:103C600080829182A282B382E0901402F0901502C9
:103C70003FEFE316F30609F068C08091C803011511
:103C8000110539F4811116C084E492E00E94FE11FE
:103C90007CC30130110571F481110CC08092C904FC
:103CA0009092CA04A092CB04B092CC0441E040931D
:103CB000C8036BC3882309F468C320E030E040EFF9
:103CC00051E4C501B40197D61816C4F061E08CE246
:103CD0000E94E0088EE792E00E940A128091C603DB
:103CE0009091C7030E94D1118091C6039091C703A0
:103CF00001969093C7038093C6030CC060E08CE2EA
:103D00000E94E0081092C7031092C6038CE892E06C
:103D10000E94FE118091C6039091C70384369105DD
:103D20000CF433C310921502109214021092C703C0
:103D30001092C60383EB92E00E940A128091140253
:103D4000909115020E94D11120C30115110509F0AF
:103D5000DFC0CB55DF4FE881F981C55AD040EE0F67
:103D6000FF1FEB5AF34F008111812091C203309164
:103D7000C3034091C4035091C503C501B401AFD73B
:103D8000181644F48092C2039092C303A092C40315
:103D9000B092C5038091C103811139C00C3A1E4F06
:103DA0008CF58091C6039091C70301969093C70349
:103DB0008093C603C4970CF489C020E030E040E74C
:103DC00052E46091C2037091C3038091C403909147
:103DD000C50385D718160CF079C081EC92E00E94DB
:103DE000FE1181E08093C1038093C00320E030E0A6
:103DF00044EB52E4209310023093110240931202DC
:103E0000509313021092C7031092C6035FC020E0C4
:103E100030E04CE052E4C501B401EDD587FF56C057
:103E20008091C003882309F451C020911002309181
:103E300011024091120250911302C501B4014FD7F3
:103E400018160CF043C03FEFE31AF30AF092150284
:103E5000E09214021092C0031092C1038BEC92E026
:103E60000E940A1280911402909115020E940B1276
:103E700082ED92E00E940A126091C2037091C30326
:103E80008091C4039091C50342E00E9436128BEDED
:103E900092E00E94CF0F1092C2031092C3031092BF
:103EA000C4031092C50380911402909115022091D1
:103EB000BE033091BF032817390744F49093BF0322
:103EC0008093BE038EED92E00E94FE11CF55DF4F2E
:103ED000E881F981C15AD040E753FC4FC080D180BE
:103EE000E280F38020911002309111024091120281
:103EF00050911302C701B6017ED587FF46C2C0921A
:103F00001002D0921102E0921202F09213023DC20E
:103F10000130110509F039C23092150220921402C5
:103F200047E050E05093D80F4093D70F84E090E0E3
:103F300097C18530910509F098C10091D50F109176
:103F4000D60F8091160290911702019641F41092BB
:103F50001702109216028FEF92E00E94FE118091DC
:103F600016029091170205970CF068C180906106C7
:103F700090906206A0906306B09064067801EE0C03
:103F8000FF1CF701EB5AF34F6081718180915F064E
:103F900090916006681B790B072E000C880B990B1B
:103FA000C9D52AE037ED43E25CE3A4D69B01AC011E
:103FB000C501B4015AD42B013C0160935B06709398
:103FC0005C0680935D0690935E062AE037ED43E23F
:103FD0005CE3C501B4018ED6209157063091580696
:103FE0004091590650915A0640D44B015C012AE099
:103FF00037ED43EA5BE3C301B2017CD69B01AC0120
:10400000C501B40132D44B015C0160935706709333
:1040100058068093590690935A0620915306309182
:104020005406409155065091560659D687FD08C052
:104030008092530690925406A0925506B09256066E
:1040400020914F06309150064091510650915206F2
:10405000C501B401D0D4181644F080924F06909256
:104060005006A0925106B0925206409261065092BC
:1040700062066092630670926406C801880F991FF9
:10408000FC01E153FA4F6F01C301B20120D5D60103
:104090006D937C9342E0C501B4010E9436128DE01D
:1040A00093E00E940A1260915B0670915C06809119
:1040B0005D0690915E0642E00E9436128DE093E02C
:1040C0000E940A12F701EB5AF34F6F018081918130
:1040D0000E940B1280E193E00E940A128091160266
:1040E000909117020E94D111D6012D913C91B901F6
:1040F0006C5F7F4FD9011497C80144E050E0181657
:10410000190614F4019702C08FE390E0FC01EE0F52
:10411000FF1FEB5AF34F0190F081E02D6E177F07E0
:1041200074F0EA17FB075CF04150510941F73093F6
:10413000600620935F06CC24C394D12C02C0C12C0E
:10414000D12CF701E153FA4F808191818D599F4F16
:10415000873C910528F123E030E080E090E01016E4
:1041600011061CF40150110902C00FE310E0F80120
:10417000EE0FFF1FE153FA4F40815181840F951FCD
:104180002150310961F7009759F063E070E01BD3CB
:104190001616170644F0672B49F40FEF1FEF08C0FF
:1041A00000E010E005C008EC10E002C008E31FEFDB
:1041B00020E030E046E953E46091530670915406E4
:1041C00080915506909156068AD51816A4F48091D0
:1041D000CD049091CE0488339F4F69F40833EFEFFC
:1041E0001E0749F080911602909117020196909354
:1041F0001702809316021093CE040093CD04CA9444
:10420000CD28E1F4109257061092580610925906E4
:1042100010925A061092610610926206109263067E
:104220001092640610925B0610925C0610925D0676
:1042300010925E061092CE041092CD048091160268
:10424000909117028530910509F09FC030921702B6
:104250002092160227E030E03093D80F2093D70F3A
:104260009093540B8093530B90C0069709F08DC028
:104270000091D50F1091D60F8091180290911902DC
:10428000019641F4109219021092180288E193E00D
:104290000E94FE11809118029091190285309105BB
:1042A0000CF061C08090E9079090EA07A090EB07BE
:1042B000B090EC07F801EE0FFF1FEB5AF34F60814F
:1042C0007181072E000C880B990B34D42AE037ED4E
:1042D00043E25CE30FD59B01AC01C501B401C5D23B
:1042E0006B017C016093E5077093E6078093E70715
:1042F0009093E8072AE037ED43E25CE3C501B4019F
:10430000F9D42091ED073091EE074091EF075091DD
:10431000F007ABD24B015C012AE037ED43EA5BE3E7
:10432000C701B601E7D49B01AC01C501B4019DD220
:104330006093ED077093EE078093EF079093F0077B
:10434000C092E907D092EA07E092EB07F092EC07FF
:10435000000F111F0B59184FC701B601B8D3D80170
:104360006D937C9312C0059781F4309219022092CC
:104370001802E7E0F0E0F093D80FE093D70F26E0C3
:1043800030E03093540B2093530B31E03093D90F2E
:104390008091D70F9091D80F009781F482E293E03B
:1043A0000E94FE1141E050E05093D80F4093D70F88
:1043B0001092540B1092530B0C94F417813091050A
:1043C00009F092C00091DC0F1091DD0F8091DE0F9B
:1043D0009091DF0F0097D1F58091F30781113DC0D7
:1043E0002091F1073091F2078091F7079091F8073B
:1043F0000217130724F4009769F0019707C02017EC
:10440000310744F48230910529F001969093F80722
:104410008093F7078091F7079091F8078130910515
:1044200041F08230910541F0892B51F489E493E009
:1044300005C080E593E002C08DE593E00E94FE1187
:104440001093F2070093F1070C94F417019729F4E5
:1044500051E05093F3070C94F4178091F707909173
:10446000F8078130910501F18230910529F1892BFE
:1044700079F585E693E00E94FE1160E081E090E02E
:104480002DD78BE693E00E940A1286E390E01ED7B8
:10449000682F70E080E090E04AE00E940D108BED04
:1044A00092E00E94CF0F14C084E793E00E94FE11B7
:1044B00061E082E090E007C080E893E00E94FE1196
:1044C00062E083E090E00AD78BE693E00E940A1254
:1044D00082E090E09093D80F8093D70F9093540B85
:1044E0008093530B0C94F4178230910509F05CC053
:1044F0008091DE0F9091DF0F0097E1F58091F60734
:1045000081113FC02091F4073091F5078091DC0FB5
:104510009091DD0F821793074CF480911A029091CD
:104520001B021816190694F40A970CC028173907AD
:104530006CF480911A0290911B02843FA1E09A07CB
:104540002CF40A9690931B0280931A0287E893E05A
:104550000E940A1280911A0290911B020E94D111AE
:104560008091DC0F9091DD0F9093F5078093F40715
:104570000C94F417019729F4B1E0B093F6070C946A
:10458000F41760911A0284E090E0A8D6E3E0F0E02E
:10459000F093D80FE093D70F22E030E03093540B24
:1045A0002093530B0C94F4178330910509F058C0F5
:1045B00040914F0B5091500B6091510B7091520BE9
:1045C000403A5F406105710530F582E993E00E9451
:1045D0000A1260914F0B7091500B8091510B90918A
:1045E000520B28EE33E040E050E000D1CA01B9019F
:1045F0004AE00E940D108CE993E00E94FE110E9497
:10460000830960934F0B7093500B8093510B9093E1
:10461000520B0C94F4179093540B8093530B80918E
:10462000F7079091F8078130910579F08230910574
:1046300079F0892B11F00C94F41744E050E050937A
:10464000D80F4093D70F0C94F41785E090E02DC05D
:10465000A6E0B0E0B093D80FA093D70F0C94F41756
:10466000079711F00C94F4178FE993E00E94FE1164
:1046700005E010E068EE73E080E090E00E944B09F6
:10468000C8010E94D11101501109A1F78091530B6B
:104690009091540B8530910571F08630910599F019
:1046A0008430910511F00C94F4179093D80F8093F7
:1046B000D70F0C94F417E6E0F0E0F093D80FE093F6
:1046C000D70F0C94F41724E030E03093D80F2093E8
:1046D000D70F0C94F417EBE9F0E11382128288EE05
:1046E00093E0A0E0B0E084839583A683B78328E2BB
:1046F00032E03183208325EC30E03587248724ECB9
:1047000030E03787268720EC30E0318B208B21EC9E
:1047100030E0338B228B22EC30E0358B248B26EC7F
:1047200030E0378B268B118E128E138E148E28E676
:1047300020936611E6E5F1E140E050E060E87FE3B8
:104740004083518362837383148215821682178299
:10475000108611861286138614861586168617868D
:10476000E0E5F1E111821082138212821582148237
:10477000EAE4F1E11182108213821282158214821E
:10478000E4E4F1E111821082138212821582148214
:10479000E8E3F1E110821182128213821482158201
:1047A000168217821086118612861386E9E7F1E1D8
:1047B0001382128284839583A683B78388E392E071
:1047C00091838083089597FB072E16F4009406D0FA
:1047D00077FD08D035D007FC05D03EF49095819543
:1047E0009F4F0895709561957F4F0895A1E21A2E0D
:1047F000AA1BBB1BFD010DC0AA1FBB1FEE1FFF1F85
:10480000A217B307E407F50720F0A21BB30BE40BD4
:10481000F50B661F771F881F991F1A9469F760951B
:104820007095809590959B01AC01BD01CF010895D5
:10483000EE0FFF1F881F8BBF0790F691E02D199494
:10484000AA1BBB1B51E107C0AA1FBB1FA617B707B6
:1048500010F0A61BB70B881F991F5A95A9F78095D2
:104860009095BC01CD0108955058BB27AA270ED0C2
:10487000FCC1EDD130F0F2D120F031F49F3F11F4C2
:104880001EF4BDC10EF4E095E7FBB3C1E92FFED1E4
:1048900080F3BA17620773078407950718F071F45D
:1048A0009EF516C20EF4E0950B2EBA2FA02D0B012B
:1048B000B90190010C01CA01A0011124FF27591B65
:1048C00099F0593F50F4503E68F11A16F040A22F6B
:1048D000232F342F4427585FF3CF469537952795DC
:1048E000A795F0405395C9F77EF41F16BA0B620BDB
:1048F000730B840BBAF09150A1F0FF0FBB1F661F22
:10490000771F881FC2F70EC0BA0F621F731F841F64
:1049100048F4879577956795B795F7959E3F08F08A
:10492000B3CF9395880F08F09927EE0F9795879549
:1049300008958DD158F080E891E009F49EEF8ED172
:1049400028F040E851E059F45EEF09C058C1C0C1F9
:10495000E92FE0789BD168F3092E052AC1F32617C9
:1049600037074807590738F00E2E07F8E02569F099
:10497000E025E0640AC0EF6307F8009407FADB0162
:10498000B9019D01DC01CA01AD01EF9347D06DD1A2
:104990000AD05F91552331F02BED3FE049E450FD03
:1049A00049EC63CF0895DF93DD27B92FBF7740E847
:1049B0005FE31616170648075B0710F4D92F93D14B
:1049C0009F938F937F936F933AD2E8E0F1E01AD1EF
:1049D0004CD12F913F914F915F9198D1DD2349F0B8
:1049E0009058A2EA2AED3FE049EC5FE3D0785D27DA
:1049F0004DDFDF913AC1D9D008F481E008950CD0A1
:104A000034C12CD140F023D130F021F45F3F19F0B4
:104A1000F0C051115EC1F3C039D198F39923C9F3A5
:104A20005523B1F3951B550BBB27AA2762177307B4
:104A3000840738F09F5F5F4F220F331F441FAA1F68
:104A4000A9F333D00E2E3AF0E0E830D09150504028
:104A5000E695001CCAF729D0FE2F27D0660F771FD6
:104A6000881FBB1F261737074807AB07B0E809F0B8
:104A7000BB0B802DBF01FF2793585F4F2AF09E3F4D
:104A8000510568F0B6C025C15F3FECF3983EDCF3FA
:104A9000869577956795B795F7959F5FC9F7880FC6
:104AA000911D9695879597F90895E1E0660F771F18
:104AB000881FBB1F621773078407BA0720F0621BA9
:104AC000730B840BBA0BEE1F88F7E095089504D0A2
:104AD0006894B111FEC00895E1D088F09F5790F01E
:104AE000B92F9927B751A0F0D1F0660F771F881F13
:104AF000991F1AF0BA95C9F712C0B13081F0E8D009
:104B0000B1E00895E5C0672F782F8827B85F39F0A6
:104B1000B93FCCF3869577956795B395D9F73EF471
:104B200090958095709561957F4F8F4F9F4F089519
:104B3000E89409C097FB3EF4909580957095619537
:104B40007F4F8F4F9F4F9923A9F0F92F96E9BB27ED
:104B50009395F695879577956795B795F111F8CF69
:104B6000FAF4BB0F11F460FF1BC06F5F7F4F8F4FD4
:104B70009F4F16C0882311F096E911C0772321F0CA
:104B80009EE8872F762F05C0662371F096E8862F62
:104B900070E060E02AF09A95660F771F881FDAF7B9
:104BA000880F9695879597F90895990F0008550FE6
:104BB000AA0BE0E8FEEF16161706E807F907C0F0A3
:104BC00012161306E407F50798F0621B730B840BAB
:104BD000950B39F40A2661F0232B242B252B21F485
:104BE00008950A2609F4A140A6958FEF811D811D25
:104BF000089597F99F6780E870E060E008959FEF5F
:104C000080EC0895DF93CF931F930F93FF92EF9261
:104C1000DF927B018C01689405C0DA2EEF0176D01B
:104C2000FE01E894A5912591359145915591AEF3FA
:104C3000EF012CDEFE019701A801DA9479F7DF90ED
:104C4000EF90FF900F911F91CF91DF910895002475
:104C50000A941616170618060906089500240A94E1
:104C600012161306140605060895092E0394000C67
:104C700011F4882352F0BB0F40F4BF2B11F460FFF6
:104C800004C06F5F7F4F8F4F9F4F089557FD90581F
:104C9000440F551F59F05F3F71F04795880F97FB00
:104CA000991F61F09F3F79F08795089512161306BA
:104CB0001406551FF2CF4695F1DF08C016161706E9
:104CC0001806991FF1CF869571056105089408951E
:104CD000E894BB2766277727CB0197F9089565DF0E
:104CE00008F48FEF08959B01AC0160E070E080E86C
:104CF0009FE385CE0BD0B9CFAADF28F0AFDF18F045
:104D0000952309F076CF7BCF1124E3CFBFDFA0F34B
:104D1000959FD1F3950F50E0551F629FF001729F50
:104D2000BB27F00DB11D639FAA27F00DB11DAA1F6F
:104D3000649F6627B00DA11D661F829F2227B00DBC
:104D4000A11D621F739FB00DA11D621F839FA00D47
:104D5000611D221F749F3327A00D611D231F849F97
:104D6000600D211D822F762F6A2F11249F575040EE
:104D70008AF0E1F088234AF0EE0FFF1FBB1F661F89
:104D8000771F881F91505040A9F79E3F510570F042
:104D900030CF9FCF5F3FECF3983EDCF3869577955D
:104DA0006795B795F795E7959F5FC1F7FE2B880F3D
:104DB000911D9695879597F9089511F40EF41FCFDC
:104DC00045C06CDFD0F39923D9F3CEF39F57550B31
:104DD00087FF4AD00024A0E640EA9001805856950B
:104DE000979528F4805C660F771F881F20F02617A0
:104DF0003707480730F4621B730B840B20293129D5
:104E00004A2BA69517940794202531254A2758F751
:104E1000660F771F881F20F026173707480730F4E2
:104E2000620B730B840B200D311D411DA09581F782
:104E3000B901842F9158880F9695879508959B0105
:104E4000AC0158CFB2DE880B990B08959F3F31F02B
:104E5000915020F4879577956795B795880F911DA8
:104E60009695879597F9089591505040660F771F52
:104E7000881FD2F70895CF93DF938230910510F405
:104E800082E090E0E0918711F091881120E030E01D
:104E9000C0E0D0E0309711F14081518148175907A7
:104EA000C0F04817590761F482819381209719F067
:104EB0009B838A832BC0909388118093871126C08F
:104EC0002115310519F04217530718F49A01BE0154
:104ED000DF01EF010280F381E02DDCCF21153105E8
:104EE00009F1281B390B2430310590F412968D916D
:104EF0009C9113976115710521F0FB0193838283C7
:104F000004C09093881180938711FD01329644C0AC
:104F1000FD01E20FF31F81939193225031092D93EC
:104F20003C933AC02091851130918611232B41F496
:104F300020911E0230911F0230938611209385111B
:104F400020911C0230911D022115310541F42DB72D
:104F50003EB74091200250912102241B350BE09175
:104F60008511F0918611E217F307A0F42E1B3F0B79
:104F70002817390778F0AC014E5F5F4F24173507CB
:104F800048F04E0F5F1F5093861140938511819317
:104F9000919302C0E0E0F0E0CF01DF91CF9108955E
:104FA0000F931F93CF93DF93009709F48CC0FC01FC
:104FB0003297138212820091871110918811011586
:104FC000110581F420813181820F931F2091851179
:104FD000309186112817390779F5F0938611E093FF
:104FE000851171C0D80140E050E0AE17BF0750F402
:104FF00012962D913C911397AD012115310509F1C0
:10500000D901F3CF9D01DA0133832283608171815D
:10501000860F971F8217930769F4EC012881398165
:10502000260F371F2E5F3F4F318320838A819B815C
:1050300093838283452B29F4F0938811E0938711A1
:1050400042C01396FC93EE931297ED01499159914A
:105050009E01240F351FE217F30771F480819181BF
:10506000840F951F029611969C938E938281938153
:1050700013969C938E931297E0E0F0E0D80112967D
:105080008D919C911397009719F0F8018C01F6CF40
:105090008D919C9198012E5F3F4F820F931F20911D
:1050A0008511309186112817390769F4309729F452
:1050B000109288111092871102C0138212821093ED
:1050C000861100938511DF91CF911F910F91089563
:1050D0006F927F928F929F92AF92BF92CF92DF9208
:1050E000EF92FF920F931F93CF93DF93EC01009702
:1050F00081F4CB01DF91CF911F910F91FF90EF9041
:10510000DF90CF90BF90AF909F908F907F906F90E7
:10511000B2CEFC01E60FF71F9C0122503109E217C5
:10512000F30708F4A8C0D9010D911C911197061737
:105130001707A8F00530110508F49BC0C8010497B3
:105140008617970708F495C002501109061B170B24
:10515000019311936D937C93CF0122DF8AC05B0191
:10516000A01AB10A4C01800E911EA0918711B09136
:10517000881140E050E0E12CF12C109709F44AC06E
:10518000A815B905D1F56D907C901197630182E067
:10519000C80ED11CCA14DB0480F1A3014A195B09B3
:1051A0006A0182E0C80ED11C1296BC901297139629
:1051B000AC91B5E0CB16D10440F0B282A383518309
:1051C0004083D9016D937C930AC00E5F1F4FC301CA
:1051D000800F911FF90191838083EB2DFA2FE11449
:1051E000F10431F0D7011396FC93EE93129741C06E
:1051F000F0938811E09387113CC08D919C91119799
:105200004817590708F4AC017D0112960D90BC9126
:10521000A02DB3CF809185119091861188159905A5
:10522000E1F446175707C8F480911C0290911D02C3
:10523000009741F48DB79EB7409120025091210212
:10524000841B950BE817F907B0F4F0938611E093EF
:105250008511F901718360830CC0CB010CDE7C01E8
:10526000009749F0A801BE0128D0CE0199DEC70100
:1052700004C0CE0102C080E090E0DF91CF911F9189
:105280000F91FF90EF90DF90CF90BF90AF909F90E5
:105290008F907F906F90089581E090E0F8942CC0FB
:1052A000FB01DC0104C08D910190801921F4415073
:1052B0005040C8F7881B990B0895FB01DC0102C020
:1052C00001900D9241505040D8F70895F999FECFC2
:1052D00092BD81BDF89A992780B50895262FF99936
:1052E000FECF1FBA92BD81BD20BD0FB6F894FA9AC9
:0C52F000F99A0FBE01960895F894FFCFC4
:1052FC0097079707970797079707970797079707B2
:10530C000000B442FFFFFFFFFFFF96000000891171
:10531C008000E803000000007D0605134706250603
:10532C003906C306000000002908FA079C07E607A7
:10533C00D707D6074C6576656C206465766963651E
:10534C0020616E64207072657373207468652062CE
:10535C007574746F6E20746F2073746F7265206334
:10536C00616C6962726174696F6E2E2E2E00486FCB
:10537C006C64207374696C6C3A2025006D6F7665D3
:10538C002064657669636520746F206C6576656C46
:10539C0020706F736974696F6E20746F206265671B
:1053AC00696E0052657065746974696F6E733A202A
:1053BC000054524947474552454400526570733A70
:1053CC0020002C20446567727320000D0A00707257
:1053DC006576696F7573207265636F72642068619E
:1053EC0073206265656E2062726F6B656E21006260
:1053FC00656E636870726573732E2E2E002C200000
:10540C0020726570733A20007371756174732E2E5F
:10541C002E00526F74617465207570706572206413
:10542C0069616C20746F20656E74657220616E20EA
:10543C006578657263697365004375726C730D00F2
:10544C0042656E63682050726573730D00537175FD
:10545C006174730D004375726C730054686973202A
:10546C006973200042656E63682050726573730027
:10547C00537175617473005765696768742069733B
:10548C00200057616974696E673A20002F340063FD
:10549C006F6F6C646F776E2E2E2E006E616E0069CE
:0854AC006E66006F76660000D9
:00000001FF
