:10000000F2C500000C94060B0C94DB0A0C94B00AA9
:100010000C94850A0C945A0A0C942F0A0C94040A26
:100020000C94D90911C600000FC600000DC60000CF
:100030000BC6000009C6000007C6000005C6000088
:1000400003C6000001C60000FFC50000FDC500009A
:10005000FBC50000F9C50000F7C500000C948F092E
:10006000F3C500000C9482080C945908EDC50000FB
:10007000EBC50000E9C50000E7C50000E5C50000CC
:10008000E3C50000E1C50000DFC50000DDC50000DC
:10009000DBC50000D9C50000D7C500000C94920E46
:1000A000D3C50000D1C50000CFC50000CDC50000FC
:1000B000CBC50000C9C50000C7C50000C5C500000C
:1000C000C3C50000C1C50000BFC50000BDC500001C
:1000D000BBC50000B9C50000B7C50000B5C500002C
:1000E000B3C5000037073A0729072D073307710703
:1000F0003E07420748074C07500756075A075E0756
:100100007107640768076C07084AD73B3BCE016E4E
:1001100084BCBFFDC12F3D6C74319ABD56833DDA5E
:100120003D00C77F11BED9E4BB4C3E916BAAAABE6D
:10013000000000803F0001B202FFFF01900409238C
:10014000A135016A020600016008000000000000FD
:100150000000006004400000000162020000006036
:100160000400400000037B034CCD6C03AB03365608
:100170007600680402CB47A202180400058BC10177
:100180000C0400000000037F060CC92C979797030E
:100190008903264666006C0220000240040000002D
:1001A00000024404000000000248040000000002B5
:1001B0004C0400000000025004000000000254043F
:1001C0000000000002580400000000025C0400006F
:1001D000000002BC040000000001EC04000040002C
:1001E000037F060CC92C9797970402030D355D0415
:1001F0000904872D353D00A301000000000107869A
:1002000001FE074105F120283038077E01300746FE
:10021000019A074704F1283038076C04F128303878
:100220000216020001FB00003E000B003600010038
:10023000020003000000650054FFEF0000FA800098
:100240000B1282000100020000000000000000000C
:10025000000000000000280000FFFF4581FFFFFABA
:100260007200000000000003E80000000100017FB0
:10027000FFFFFE8001001B000000000000000000E6
:100280000000000000003E03304000000002CAE30E
:10029000093E800000200000000000000040000037
:1002A000006000000041FF000000000B2A00001663
:1002B0005500002182FD872650FD800000001F00B0
:1002C00000000580000000000000010000000200A6
:1002D0000000030000400000000000046F00026501
:1002E0003200005EC040000000000000000000007E
:1002F0000000000000FB8C6F5DFD5D08D9007C7381
:100300003B006C12CC3200139D3200D0D632000874
:1003100000400001F4FFE68079020000000000D0F8
:10032000D600002710FB0000004000000000000085
:1003300000000000000000000100000000000001BB
:1003400000010000000000FA36FFBC308E0005FB03
:10035000F0FFD95BC8FFD09ABE000010A9FFF41EC1
:10036000B200CEBBF7000000010000000400020054
:10037000020200000CFFC280000001800000CF805C
:100380000040000000000000010000000000000626
:100390000000000014000000000000000000000049
:1003A000000000000000000000000000000000004D
:1003B000000000000000000000000000000000003D
:1003C000000000000000000000033F68B6793528F7
:1003D000BCC67ED16C80000000400000000000B26E
:1003E0006A00000000000000000000000000003F64
:1003F000F0000000300000000000000000000000DD
:1004000000000000000000000000000000000000EC
:1004100000000000000000254D002F706D00000559
:10042000AE000C02D00000000000650054FFEF0099
:100430000000000000000001000044000000000C6B
:1004400000000001000000000000650000005400F2
:1004500000FFEF00000000000000000000000000AE
:10046000000000000040000000000000000000004C
:10047000000000000040000000000000000000003C
:100480000000000000000000010000000200000069
:10049000000000000000000000000000000000005C
:1004A000000000000000000000000000000000004C
:1004B0000000000000001B00000000000000000021
:1004C000000000000000000000000000000000002C
:1004D000000000000000000000000000000000001C
:1004E0000040000000001B000000000000000000B1
:1004F00000000000000000000000000000000000FC
:1005000000000000000000000000000000000000EB
:1005100000000000000000000000000000000000DB
:100520000000000000D8DCBAA2F1DEB2B8B4A881A5
:1005300091F74A907F916AF3F9DBA8F9B0BAA080ED
:10054000F2CE81F3C2F1C1F2C3F3CCA2B280F1C604
:10055000D880BAA7DFDFDFF2A7C3CBC5B6F087A28A
:10056000942448703C95406834589B78A2F183925B
:100570002D557DD8B1B4B8A1D09180F270F370F24E
:100580007C80A8F101B09887D943D886C988BAA1E0
:10059000F20EB89780F1A9DFDFDFAADFDFDFF2AA72
:1005A000C5CDC7A90CC92C97979797F1A98926465D
:1005B00066B0B4BA80ACDEF2CAF1B28C02A9B698C9
:1005C00000890E161EB8A9B4992C547CB08AA8963E
:1005D000365676F1B9AFB4B083C0B8A89711B18FD1
:1005E00098B9AFF0240844106418F1A329557DAFE1
:1005F00083B593AFF0002850F1A3869F61A6DADEA1
:10060000DFD9FAA38696DB31A6D9F8DFBAA68FC266
:10061000C5C7B28CC1B8A2DFDFDFA3DFDFDFD8D868
:10062000F1B8A8B286B4980D355DB8AA98B0872DF8
:10063000353DB2B6BAAF8C96198F9FA70E161EB471
:100640009AB8AA872C547CB9A3DEDFDFA3B180F26D
:10065000C4CDC9F1B8A9B499830D355D89B9A32D6D
:10066000557DB593A30E161EA92C547CB8B4B0F1D9
:100670009783A81184A50998A383F0DA240844106D
:100680006418D8F1A529557DA58595021A2E3A56EC
:100690005A4048F9F3A3D9F8F09883240844106429
:1006A000189782A8F111F098A2240844106418DA6F
:1006B000F3DED883A59401D9A302F1A2C3C5C7D89C
:1006C000F18492A24DDA2AD84869D92AD86855DA35
:1006D00032D85071D932D8705DDA3AD85879D93ACF
:1006E000D87893A34DDA2AD84869D92AD86855DA38
:1006F00032D85071D932D8705DDA3AD85879D93AAF
:10070000D878A88A9AF02850789EF38818F19F1D0F
:1007100098A8D908D8C89F129EF315A8DA1210D845
:10072000F1AFC8978734B5B994A421F3D922D8F290
:100730002DF3D92AD8F235F3D932D881A46060617B
:10074000D961D86C6869D969D8747071D971D8B118
:10075000A384193D5DA3831A3E5E9310308110116E
:10076000B8B0AF8F94F2DA3ED8B49AA88729DAF8F5
:10077000D8879A35DAF8D8879A3DDAF8D8B1B9A48B
:100780009885022E56A581000C14A397B08AF12DEE
:10079000D928D84DD948D86DD968D8B1840DDA0E8A
:1007A000D8A32983DA2C0ED8A3844983DA2C4C0EE3
:1007B000D8B8B0A88A9AF520AADADFD8A840AAD07B
:1007C000DADED8A860AADAD0DFD8F19786A8319B04
:1007D000069907AB9728889BF00C201440B8B0B45A
:1007E000A88C9CF0042851791D301438B282ABD00B
:1007F000982C505078789BF11AB0F08A9CA8295117
:10080000798B2951798A2470598B2058718A4469CF
:10081000388B3940688A6448318B304960A588201C
:100820000971584468113964493019F1AC002C54ED
:100830007CF08CA804285078F1889726A85998ACA9
:100840008C02264666F0899CA82951792470594467
:100850006938644831A98809205970AB113840695A
:10086000A8193148608CA83C415C207C00F1879835
:100870001986A86E767EA999882D557D9EB9A38A82
:10088000228A6E8A568A5E9FB183062646660E2E9F
:100890004E6E9DB8AD002C547CF2B18CB499B9A3C6
:1008A0002D557D8191AC38AD3AB58391AC2DD928C9
:1008B000D84DD948D86DD968D88C9DAE29D904AE09
:1008C000D851D904AED879D904D881F39DAD008D23
:1008D000AE1981ADD901D8F2AEDA26D88E9129832E
:1008E000A7D9ADADADADF32AD8D8F1B0AC89913E62
:1008F0005E76F3AC2E2EF1B18C5A9CAC2C282828B5
:100900009CAC3018A8988128343C9724A728343C04
:100910009C24F2B089AC912C4C6C8A9B2DD9D8D8F0
:1009200051D9D8D879D9D8D8F19E88A331DAD8D876
:10093000912DD928D84DD948D86DD968D8B183938D
:10094000353D8025DAD8D88569DAD8D8B49381A323
:1009500028343CF3AB8BF8A391B609B4D9ABDEFADB
:10096000B0879CB9A3DDF1A3A3A3A395F1A3A3A38F
:100970009DF1A3A3A3A3F2A3B49080F2A3A3A3A386
:10098000A3A3A3A3A3A3B2A3A3A3A3A3A3B087B525
:1009900099F1A3A3A398F1A3A3A3A397A3A3A3A3AC
:1009A000F39BA3A3DCB9A7F1262626D8D8FF2900FC
:1009B000444D5020496E697469616C697A6174694B
:1009C0006F6E206661696C65642028636F646520C2
:1009D00000444D502072656164792120576169742B
:1009E000696E6720666F7220666972737420696E23
:1009F000746572727570742E2E2E00456E61626C75
:100A0000696E6720696E74657272757074206465B2
:100A100074656374696F6E202841726475696E6FC6
:100A20002065787465726E616C20696E746572728F
:100A30007570742030292E2E2E00456E61626C690F
:100A40006E6720444D502E2E2E004D5055363035B9
:100A50003020636F6E6E656374696F6E20666169C6
:100A60006C6564004D50553630353020636F6E6EC6
:100A7000656374696F6E2073756363657373667500
:100A80006C00496E697469616C697A696E672044AB
:100A90004D502E2E2E0054657374696E6720646568
:100AA0007669636520636F6E6E656374696F6E73DC
:100AB0002E2E2E004649464F206F766572666C6F6B
:100AC00077210000002100240027002A002D00309B
:100AD00000330001010000040107010A01000022A7
:100AE00000250028002B002E0031003400020100F8
:100AF00000050108010B0100002000230026002949
:100B0000002C002F00320000010000030106010943
:100B10000105050505070508080808020202020A82
:100B20000A08080404040401010101010101010390
:100B300003030303030303040707070C0C0C0C0C4B
:100B40000C0C0C0202020206060606060606060B3E
:100B50000B0B0B0B0B0B0B010210202008081020B5
:100B60004010204080020102010804020101020439
:100B700008102040808040201008040201800402F8
:100B8000018040201008040201080402010102044F
:100B90000810204080010204081020408000000A54
:100BA0000B02090C0D0E08070304010000000000F1
:100BB0000000000000000000000000000000000035
:100BC00000000000000000000012111000000000F2
:100BD0000000000000000000000000000000000015
:100BE00000000000972311241FBECFEFD1E2DEBF2B
:100BF000CDBF00E00CBF13E0A0E0B2E0E4E5F3E518
:100C000000E00BBF02C007900D92A03BB107D9F7DF
:100C100021E1A0EBB3E001C01D92A138B207E1F7DA
:100C200015E0C3EFD5E000E006C021970109802F51
:100C3000FE010E944424C23FD10780E00807A9F7C3
:100C40000E9430130C94A829DBC9FC01918D828D80
:100C5000981761F0828DDF01A80FB11D5D968C9110
:100C6000928D9F5F9F73928F90E008958FEF9FEF1B
:100C70000895FC01918D828D981731F0828DE80FD7
:100C8000F11D858D90E008958FEF9FEF0895FC0191
:100C9000918D228D892F90E0805C9F4F821B91095E
:100CA0008F739927089583E990E1F1DF21E0892B83
:100CB00009F420E0822F0895FC01848DDF01A80F44
:100CC000B11DA35ABF4F2C91848D90E001968F7374
:100CD0009927848FA689B7892C93A089B1898C9193
:100CE00080648C93938D848D981306C00288F38959
:100CF000E02D80818F7D80830895EF92FF920F9386
:100D00001F93CF93DF93EC0181E0888F9B8D8C8DB7
:100D1000981305C0E889F989808185FD23C0F62EE6
:100D20000B8D10E00F5F1F4F0F731127E02E8C8D7E
:100D3000E8120BC00FB607FCFACFE889F989808169
:100D400085FFF5CFCE01B8DFF2CF8B8DFE01E80F26
:100D5000F11DE35AFF4FF0820B8FEA89FB898081F6
:100D6000806207C0EE89FF896083E889F989808104
:100D70008064808381E090E0DF91CF911F910F919B
:100D8000FF90EF900895CF93DF93EC01888D882337
:100D9000C1F0EA89FB89808185FD05C0A889B989F0
:100DA0008C9186FD0EC00FB607FCF5CF808185FFC4
:100DB000F2CFA889B9898C9185FFEDCFCE017CDF78
:100DC000E8CFDF91CF91089580E090E0892B19F072
:100DD0006ADF811125C080E090E0892B41F080E03E
:100DE00090E0892B21F00E94000081111CC080E05E
:100DF00090E0892B41F080E090E0892B21F00E9467
:100E00000000811113C080E090E0892BA1F080E008
:100E100090E0892B81F00E94000081110AC00895A2
:100E20000E940000D8CF0E940000E1CF0E94000085
:100E3000EACF0C940000089590E0FC013197E23174
:100E4000F10508F04EC08827EE58FF4F8F4F0C94E5
:100E50004424809180008F7703C0809180008F7D33
:100E600080938000089580918000877FF9CF84B5BA
:100E70008F7702C084B58F7D84BD08958091B000C6
:100E80008F7703C08091B0008F7D8093B00008956C
:100E9000809190008F7707C0809190008F7D03C074
:100EA00080919000877F8093900008958091A000AA
:100EB0008F7707C08091A0008F7D03C08091A00034
:100EC000877F8093A0000895809120018F7707C0CD
:100ED000809120018F7D03C080912001877F8093C6
:100EE000200108953FB7F8948091441090914510E7
:100EF000A0914610B091471026B5A89B05C02F3F82
:100F000019F00196A11DB11D3FBFBA2FA92F982F2F
:100F10008827820F911DA11DB11DBC01CD0142E0AA
:100F2000660F771F881F991F4A95D1F70895089576
:100F300081E08093B20308958091B00390E0209106
:100F4000B103821B9109089585ED8093BC008091C7
:100F5000BC0084FDFCCF10926E1008954091FA0FF2
:100F6000262F30E0240F311D21323105DCF4209191
:100F70006E102430C9F4FC0180E090E0861758F42C
:100F80003091FA0F2191DC01A852B04FA30FB11D8F
:100F90002C930196F3CF8091FA0F680F6093FA0FAC
:100FA00080E0089581E0089582E008950895E09139
:100FB000B1038091B003E81730F4F0E0E15EFF4E3A
:100FC000808190E008958FEF9FEF08959091B10395
:100FD0008091B003981750F4E92FF0E0E15EFF4EE6
:100FE000208130E09F5F9093B10302C02FEF3FEF6D
:100FF000C9010895CF92DF92EF92FF920F931F9352
:10100000CF93DF937C01262F972F8A0180916F1059
:10101000882391F0C62FD72F6E01C40ED51ECC1594
:10102000DD0569F06991D701ED91FC910190F081A6
:10103000E02DC7011995F3CF642F822F8FDFC801F0
:10104000DF91CF911F910F91FF90EF90DF90CF90A4
:101050000895CF93DF931F92CDB7DEB769832091B8
:101060006F102223D1F020919210203240F021E025
:1010700030E0FC013383228380E090E014C0809153
:101080007010E82FF0E0EF58FF4E998190838F5F4A
:10109000809370108093921004C061E0CE0101969D
:1010A0005DDF81E090E00F90DF91CF9108950E9485
:1010B00078291F920F920FB60F9211240BB60F9240
:1010C0002F933F934F935F936F937F938F939F9350
:1010D000AF93BF93EF93FF9383E990E1EDDDFF9131
:1010E000EF91BF91AF919F918F917F916F915F91A0
:1010F0004F913F912F910F900BBE0F900FBE0F900D
:101100001F9018951F920F920FB60F9211240BB6D5
:101110000F922F938F939F93EF93FF93E091A310E0
:10112000F091A4108081E091A910F091AA1082FDA5
:1011300012C090818091AC108F5F8F732091AD10A1
:10114000821751F0E091AC10F0E0ED56FF4E958F14
:101150008093AC1001C08081FF91EF919F918F919E
:101160002F910F900BBE0F900FBE0F901F901895F0
:10117000CF93DF93282F30E0F901E356F44F8491A9
:10118000F901E95AF44FD491F901EF5EF44FC4919B
:10119000CC2389F0811150DEEC2FF0E0EE0FFF1F21
:1011A000E950F54FA591B491EC91ED2381E090E0E9
:1011B00021F480E002C080E090E0DF91CF910895BB
:1011C0001F93CF93DF93282F30E0F901E356F44FBC
:1011D0008491F901E95AF44FD491F901EF5EF44F8B
:1011E000C491CC23C1F0162F811126DEEC2FF0E044
:1011F000EE0FFF1FE352F54FA591B4918FB7F8940E
:10120000111105C09C91ED2FE095E92302C0EC91EE
:10121000ED2BEC938FBFDF91CF911F910895CF936A
:10122000DF9390E0FC01E95AF44F2491FC01EF5E5A
:10123000F44F8491882361F190E0880F991FFC019D
:10124000ED53F54FC591D491FC01E352F54FA591B3
:10125000B491611109C09FB7F894888120958223C9
:101260008883EC912E230BC0623061F49FB7F89411
:101270003881822F809583238883EC912E2B2C93A9
:101280009FBF06C08FB7F894E8812E2B28838FBFAD
:10129000DF91CF9108958F929F92AF92BF92CF929C
:1012A000DF92EF92FF926B017C011CDE4B015C012F
:1012B000C114D104E104F104E9F014DEDC01CB0136
:1012C00088199909AA09BB09883E9340A105B1056F
:1012D00078F321E0C21AD108E108F10888EE880EFF
:1012E00083E0981EA11CB11CC114D104E104F104D7
:1012F00021F7DECFFF90EF90DF90CF90BF90AF90BF
:101300009F908F9008952FB7F8946091401070913E
:10131000411080914210909143102FBF08951F9269
:101320000F920FB60F9211242F933F938F939F9399
:10133000AF93BF938091401090914110A0914210C3
:10134000B091431030913F1023E0230F2D3720F44C
:101350000196A11DB11D05C026E8230F0296A11D0F
:10136000B11D20933F108093401090934110A093A3
:101370004210B09343108091441090914510A09179
:101380004610B09147100196A11DB11D80934410E5
:1013900090934510A0934610B0934710BF91AF9122
:1013A0009F918F913F912F910F900FBE0F901F90A3
:1013B00018951F920F920FB60F9211240BB60F9231
:1013C0002F933F934F935F936F937F938F939F934D
:1013D000AF93BF93EF93FF93E0910E02F0910F0252
:1013E0001995FF91EF91BF91AF919F918F917F914F
:1013F0006F915F914F913F912F910F900BBE0F9086
:101400000FBE0F901F9018951F920F920FB60F925C
:1014100011240BB60F922F933F934F935F936F93CB
:101420007F938F939F93AF93BF93EF93FF93E0913D
:101430000C02F0910D021995FF91EF91BF91AF91C0
:101440009F918F917F916F915F914F913F912F91DC
:101450000F900BBE0F900FBE0F901F9018951F920C
:101460000F920FB60F9211240BB60F922F933F934A
:101470004F935F936F937F938F939F93AF93BF939C
:10148000EF93FF93E0910202F09103021995FF910F
:10149000EF91BF91AF919F918F917F916F915F91EC
:1014A0004F913F912F910F900BBE0F900FBE0F9059
:1014B0001F9018951F920F920FB60F9211240BB622
:1014C0000F922F933F934F935F936F937F938F93DD
:1014D0009F93AF93BF93EF93FF93E0910002F0913E
:1014E00001021995FF91EF91BF91AF919F918F915B
:1014F0007F916F915F914F913F912F910F900BBE14
:101500000F900FBE0F901F9018951F920F920FB65D
:101510000F9211240BB60F922F933F934F935F932B
:101520006F937F938F939F93AF93BF93EF93FF93AB
:10153000E0910A02F0910B021995FF91EF91BF9192
:10154000AF919F918F917F916F915F914F913F915B
:101550002F910F900BBE0F900FBE0F901F901895FC
:101560001F920F920FB60F9211240BB60F922F936A
:101570003F934F935F936F937F938F939F93AF931B
:10158000BF93EF93FF93E0910802F0910902199540
:10159000FF91EF91BF91AF919F918F917F916F914B
:1015A0005F914F913F912F910F900BBE0F900FBE07
:1015B0000F901F9018951F920F920FB60F92112443
:1015C0000BB60F922F933F934F935F936F937F933D
:1015D0008F939F93AF93BF93EF93FF93E091060296
:1015E000F09107021995FF91EF91BF91AF919F91F3
:1015F0008F917F916F915F914F913F912F910F90BC
:101600000BBE0F900FBE0F901F9018951F920F9258
:101610000FB60F9211240BB60F922F933F934F9357
:101620005F936F937F938F939F93AF93BF93EF934A
:10163000FF93E0910402F09105021995FF91EF915B
:10164000BF91AF919F918F917F916F915F914F91DA
:101650003F912F910F900BBE0F900FBE0F901F90D8
:1016600018954F925F926F927F928F929F92AF9256
:10167000BF92CF92DF92EF92FF920F931F93CF937F
:10168000DF93CDB7DEB768970FB6F894DEBF0FBE15
:10169000CDBF8C01FB018CA59DA5AEA5BFA58D87F7
:1016A0009E87AF87B88B88A999A9AAA9BBA9898B5E
:1016B0009A8BAB8BBC8B8CA99DA9AEA9BFA98D8B36
:1016C0009E8BAF8BB88F88AC99ACAAACBBACC080FA
:1016D000D180E280F38084819581A681B78189835E
:1016E0009A83AB83BC8380859185A285B3858D83E6
:1016F0009E83AF83B88784859585A685B7858987BE
:101700009A87AB87BC872D853E854F855889C70151
:10171000B6010E94A6262B013C0129893A894B89F2
:101720005C8969817A818B819C810E94A6269B01BC
:10173000AC01C301B2010E9460242B013C012D8940
:101740003E894F89588D6D817E818F8198850E9459
:10175000A6269B01AC01C301B2010E9460242B01AB
:101760003C01A501940169857A858B859C850E9441
:10177000A6269B01AC01C301B2010E946024D801DE
:101780006D937D938D939C93139729893A894B8907
:101790005C89C701B6010E94A6262B013C012D855C
:1017A0003E854F85588969817A818B819C810E9411
:1017B000A6269B01AC01C301B2010E9461242B014A
:1017C0003C01A50194016D817E818F8198850E94E5
:1017D000A6269B01AC01C301B2010E9461242B012A
:1017E0003C012D893E894F89588D69857A858B8585
:1017F0009C850E94A6269B01AC01C301B2010E94F8
:101800006024F80164837583868397832D893E89DC
:101810004F89588DC701B6010E94A6262B013C01B5
:10182000A501940169817A818B819C810E94A62601
:101830009B01AC01C301B2010E9460242B013C0159
:101840002D853E854F8558896D817E818F81988554
:101850000E94A6269B01AC01C301B2010E94612433
:101860002B013C0129893A894B895C8969857A85F4
:101870008B859C850E94A6269B01AC01C301B20109
:101880000E946124D80118966D937D938D939C934B
:101890001B97A5019401C701B6010E94A6266B0102
:1018A0007C012D893E894F89588D69817A818B8190
:1018B0009C810E94A6269B01AC01C701B6010E9433
:1018C00061246B017C0129893A894B895C896D818E
:1018D0007E818F8198850E94A6269B01AC01C7015D
:1018E000B6010E9460246B017C012D853E854F85E9
:1018F000588969857A858B859C850E94A6269B01DF
:10190000AC01C701B6010E946124F80164877587A4
:1019100086879787C80168960FB6F894DEBF0FBE1A
:10192000CDBFDF91CF911F910F91FF90EF90DF908E
:10193000CF90BF90AF909F908F907F906F905F906F
:101940004F900895EF92FF920F931F93CF93DF93E1
:101950001F921F92CDB7DEB7142F91E090936F10B6
:1019600080939110109270101092921081E791E183
:1019700029833A836EDB2981022FE22E3A81F32EEE
:101980008E2D801B811738F4F70161917F0181E76B
:1019900091E15FDBF5CF76D391E0811190E0892F63
:1019A0000F900F90DF91CF911F910F91FF90EF90CB
:1019B00008951F93CF93DF931F921F92CDB7DEB789
:1019C0005A83498391E090936F1080939110109205
:1019D00070101092921081E791E13BDB19816A81CE
:1019E00081E791E136DB612F81E791E132DB4AD378
:1019F00091E0811190E0892F0F900F90DF91CF91AE
:101A00001F910895CF93DF931F92CDB7DEB749831F
:101A10009E012F5F3F4F41E095DF0F90DF91CF9107
:101A200008952F923F924F925F926F927F928F9282
:101A30009F92AF92BF92CF92DF92EF92FF920F935D
:101A40001F93CF93DF93CDB7DEB727970FB6F894E8
:101A5000DEBF0FBECDBFE82E6B834F83690153DC21
:101A60004B015C016E2C660CF12C1E827724739462
:101A70005F81452F50E05D834C831801412C512C30
:101A80004F81F41608F095C070926F10E09291109B
:101A900010927010109292106B8181E791E1D9DA67
:101AA000F1D270926F10E09291101092701010921B
:101AB000921080916E108111FCCF2C813D812F19E5
:101AC00031092132310514F020E230E0213208F0F2
:101AD00020E270926E1070926D108FEF80936C10F8
:101AE00010926B10820F80936A107092491080914F
:101AF000491086298093491080914810813071F4F3
:101B000010924810809149108093BB008091BC00D6
:101B100083FDF8CF95EC9093BC0003C0E5EEE09315
:101B2000BC0080916E108130E1F380916B108217C0
:101B300010F420916B10AAE4B0E1EFE1F0E18E2FF8
:101B40004FE150E1841B821718F48D918193F7CFF8
:101B50001092B1032093B0039091B0038091B10330
:101B6000981709F10115110591F4A6012E81420F74
:101B7000511D27FD5A955A83498381E791E126DA61
:101B8000E981FA8180832E812F5F2E83E5CFBBDB35
:101B9000DC01CB0188199909AA09BB0982159305B3
:101BA000A405B50510F38F81813208F080E2F80EAC
:101BB00067CFFE8001151105D1F0A5DBDC01CB015B
:101BC00088199909AA09BB0920E030E0801791071C
:101BD000A207B30760F05F81252F30E08F2D0F2C17
:101BE000000C990B8217930714F4FF24FA948F2D9D
:101BF00027960FB6F894DEBF0FBECDBFDF91CF9111
:101C00001F910F91FF90EF90DF90CF90BF90AF901A
:101C10009F908F907F906F905F904F903F902F900C
:101C20000895BF92CF92DF92EF92FF920F931F938E
:101C3000CF93DF931F92CDB7DEB7F82EE62EC42EDA
:101C4000B22ED02E08EE13E09E012F5F3F4F41E0F1
:101C5000E8DE882319F1EC2DF0E0EB19F10931965B
:101C600021E030E002C0220F331FBA94E2F7215086
:101C700031090E2E01C0220F0A94EAF78D2D01C002
:101C8000880FEA95EAF7422F409599814923282346
:101C9000422B49836E2D8F2DB5DE01C080E00F9061
:101CA000DF91CF911F910F91FF90EF90DF90CF9038
:101CB000BF900895CF92DF92EF92FF920F931F9300
:101CC000CF93DF931F92CDB7DEB7F82EE62ED42E3A
:101CD000C22E08EE13E09E012F5F3F4F41E0A1DED0
:101CE0009981CC2041F041E050E001C0440FDA94EA
:101CF000EAF7492B09C021E030E0A90101C0440FF7
:101D0000DA94EAF74095492349836E2D8F2D7ADEC8
:101D10000F90DF91CF911F910F91FF90EF90DF9087
:101D2000CF9008951F920F920FB60F9211240BB609
:101D30000F922F933F934F935F936F937F938F9364
:101D40009F93AF93BF93EF93FF938091B900887FE8
:101D5000803609F49CC068F5883209F45BC090F4C1
:101D6000803109F454C038F4882309F4F6C088306F
:101D700009F44DC0F6C0883109F44CC0803209F432
:101D80005DC0EFC0803409F468C048F4803309F4C2
:101D900055C0883309F0E5C080936C10D8C08035F9
:101DA00009F44FC0883509F45DC0883409F0D9C002
:101DB000D6C0883909F4C7C0A8F4883709F467C0C9
:101DC00038F4883609F463C0803709F460C0C9C0AC
:101DD000883809F4B8C0803909F45FC0803809F048
:101DE000C0C05BC0803B09F486C038F4803A09F477
:101DF00066C0883A09F47FC0B4C0803C09F4A7C02B
:101E0000883C09F4A4C0883B09F48AC0AAC0809128
:101E1000491010C090916B1080916A10981770F55E
:101E2000E0916B1081E08E0F80936B10F0E0E65B29
:101E3000FF4E80818093BB0085EC86C080936C1040
:101E40008EC0E0916B1081E08E0F80936B108091BB
:101E5000BB00F0E0E65BFF4E808390916B108091B9
:101E60006A106EC0E0916B1081E08E0F80936B1052
:101E70008091BB00F0E0E65BFF4E808380916D10A7
:101E800081116DC081E08093481084EA61C083E0D5
:101E900080936E1010921E10CFCF80911E10803252
:101EA00008F051C0E0911E1081E08E0F80931E104B
:101EB0008091BB00F0E0E250F04F8083BDCF85EC15
:101EC0008093BC0010926E1080911E10803230F40E
:101ED000E0911E10F0E0E250F04F108260911E1071
:101EE00070E0E091FC0FF091FD0F8EEF9FE01995EF
:101EF00010921E1036C084E080936E101092FB0F7B
:101F00001092FA0FE091F80FF091F90F1995809166
:101F1000FA0F811105C081E08093FA0F1092D80F5B
:101F2000E091FB0F81E08E0F8093FB0FF0E0E85211
:101F3000F04F80818093BB009091FB0F8091FA0F4E
:101F4000981708F479CF85E88093BC000AC085EC27
:101F50008093BC0010926E1004C010926C100E940E
:101F6000A407FF91EF91BF91AF919F918F917F91C6
:101F70006F915F914F913F912F910F900BBE0F90FA
:101F80000FBE0F901F901895009761F0FC01019013
:101F90000020E9F73197AF01481B590BBC0183E9D9
:101FA00090E164C280E090E008950F931F93CF9377
:101FB000DF938C01C0E0D0E0F801EC0FFD1F6491CD
:101FC000662371F0E0919310F09194100190F081EC
:101FD000E02D83E990E11995892B11F02196ECCF42
:101FE000CE01DF91CF911F910F910895CF93DF9391
:101FF000DCDFEC018BED92E0C7DF8C0F9D1FDF91E2
:10200000CF9108958F929F92AF92BF920F931F939B
:10201000CF93DF93CDB7DEB7A1970FB6F894DEBFAD
:102020000FBECDBF19A2423008F44AE08E010F5D09
:102030001F4F842E912CA12CB12CA50194010E943C
:102040002224E62FB901CA0101501109EA3014F423
:10205000E05D01C0E95CD801EC93232B242B252BF8
:1020600061F7C80191DFA1960FB6F894DEBF0FBEED
:10207000CDBFDF91CF911F910F91BF90AF909F90F7
:102080008F9008952091921090919110213208F034
:102090004AC080916E108111FCCF32E030936E10F7
:1020A00031E030936D103FEF30936C1010926B1055
:1020B00020936A10A1E7B0E14AE450E1FA013E2F13
:1020C000341B321718F43D913193F9CF1092491017
:1020D00020914910990F922B90934910909148109C
:1020E000913061F410924810909149109093BB0088
:1020F0009091BC0093FDF8CF95EC01C095EE9093C4
:10210000BC0090916E109230E1F390916C109F3F63
:1021100079F080916C10803241F080916C108033A6
:1021200031F084E005C081E003C082E001C083E0BB
:10213000109270101092921010926F1008950F93D9
:102140001F93CF93DF93CEE5D1E108EE13E02FE5A7
:1021500031E141E06AE3888164DC8981DF91CF91DC
:102160001F910F91089521E042E06AE680915E118F
:10217000A1CD482F6EE680915E1144CC2F923F9204
:102180004F925F926F927F928F929F92AF92BF9287
:10219000CF92DF92EF92FF920F931F93CF93DF9333
:1021A0003C015B01342ED22F202E4F716DE68091C1
:1021B0005E1128DC8D2FDDDF80E190E00E94672733
:1021C0006C01002339F080E190E00E946727C82F5E
:1021D000492E02C0C0E0412CE12CF12CEA14FB0492
:1021E00008F068C0C7014096A816B90618F45A2C22
:1021F0005E1802C080E1582E852D90E020E031E08D
:102200002D1B31092817390714F45D2E5194F30161
:10221000EE0DFF1D222059F09C2FAC2FB42D8A2FDC
:10222000891B851530F484918D933196F8CFCE2F8C
:102230004F2E2C2F342D452D6FE680915E1182DBC1
:10224000852C912CC114D10411F1432D4F716DE6F1
:1022500080915E11D7DB8D2F8CDF08EE13E09601A5
:10226000452D6FE680915E11DCDBA401B6018C2F59
:10227000942D0E947C29892B51F0C6010E94FC27D5
:10228000222011F18C2F942D0E94FC271DC0E80CF8
:10229000F91CD50DEA14FB0408F0A0CFD11101C040
:1022A0003394432D4F716DE680915E11ABDB8D2F22
:1022B00060DF94CFC6010E94FC27222039F08C2FCA
:1022C000942D0E94FC2702C080E001C081E0DF91D4
:1022D000CF911F910F91FF90EF90DF90CF90BF9023
:1022E000AF909F908F907F906F905F904F903F90B6
:1022F0002F9008950F931F93662349F0462F9C015A
:1023000008EE13E064E780915E118BDB02C0FC01F4
:1023100010821F910F9108950F931F93CF93DF9316
:10232000CEE5D1E108EE13E02FE531E142E062E7CE
:10233000888177DB898190E0982F88272A81822BFA
:10234000DF91CF911F910F910895EF92FF920F931C
:102350001F93CF93DF931F92CDB7DEB77A01890128
:102360009E012F5F3F4F41E05CDB882339F02981DC
:102370002E7730E035952795F70120830F90DF9178
:10238000CF911F910F91FF90EF900895E0919310DE
:10239000F09194100190F081E02D682F83E990E195
:1023A0001994CF92DF92EF92FF92CF93DF936C015B
:1023B000990FEE08FF08F7FE10C08DE2E7DFEC0191
:1023C00066277727CB016C197D098E099F094AE0A2
:1023D00019DE7C01EC0EFD1E05C04AE0C701B60106
:1023E00011DE7C018BED92E0CFDD8E0D9F1DDF9124
:1023F000CF91FF90EF90DF90CF900895CF93DF9330
:10240000C3DDEC018BED92E0BFDD8C0F9D1FDF91F2
:10241000CF910895B9CDCF92DF92EF92FF92CF93F3
:10242000DF936C01990FEE08FF08F7FE15C08DE2EF
:10243000ADDFEC0166277727CB016C197D098E098A
:102440009F094AE0DFDD8C0F9D1FDF91CF91FF9048
:10245000EF90DF90CF9008954AE0C701B601DF9179
:10246000CF91FF90EF90DF90CF90CCCDCF92DF92C5
:10247000EF92FF920F931F93CF93DF936C017A013A
:102480008B01C0E0D0E0CE15DF0589F0D8016D9159
:102490008D01D601ED91FC910190F081E02DC601F6
:1024A0001995892B11F47E0102C02196ECCFC7014A
:1024B000DF91CF911F910F91FF90EF90DF90CF9020
:1024C00008954F925F926F927F928F929F92AF92F8
:1024D000BF92CF92DF92EF92FF926B017C01B42EFC
:1024E0009B01AC010E944E27882319F083EA93E0F8
:1024F00027C026013701E89477F82FEF3FEF4FE729
:102500005FE7C301B2010E944E2781110DC02FEF7A
:102510003FEF4FE75FE7C301B2010E94272518167E
:102520001CF487EA93E00CC02FEF3FEF4FE75FE426
:10253000C701B6010E949B2618167CF48BEA93E033
:10254000FF90EF90DF90CF90BF90AF909F908F90D3
:102550007F906F905F904F9017CD2FEF3FEF4FE739
:102560005FECC701B6010E94272587FDE7CF20E079
:1025700030E0A901C701B6010E94272587FF08C0E6
:102580008DE204DF4C01F7FAF094F7F8F09402C002
:10259000812C912CA12C60E070E080E09FE3AB14D3
:1025A00041F020E030E040E251E40E942B25A3946A
:1025B000F6CF9B01AC01C701B6010E9461242B013B
:1025C0003C010E9498256B017C010E94C4259B015F
:1025D000AC01C301B2010E9460242B013C014AE01E
:1025E000C701B6010FDD7C01E80CF91CBB2021F00E
:1025F0008EE2CCDEE80EF91EDB2CDD2019F120E0A6
:1026000030E040E251E4C301B2010E94A6262B0152
:102610003C010E9498254B01A12CB12C4AE0C50138
:10262000B401F0DCE80EF91EC501B4010E94C42516
:102630009B01AC01C301B2010E9460242B013C014B
:10264000DA94DBCFC701FF90EF90DF90CF90BF907F
:10265000AF909F908F907F906F905F904F90089574
:10266000CF93DF93CDB7DEB7CA5CD1090FB6F8942C
:10267000DEBF0FBECDBF789484B5826084BD84B5C3
:10268000816084BD85B5826085BD85B5816085BD6D
:1026900080916E00816080936E0010928100809125
:1026A00081008260809381008091810081608093AD
:1026B0008100809180008160809380008091B100D2
:1026C00084608093B1008091B00081608093B000FD
:1026D000809191008260809391008091910081604F
:1026E0008093910080919000816080939000809110
:1026F000A10082608093A1008091A10081608093FD
:10270000A1008091A00081608093A00080912101B0
:102710008260809321018091210181608093210159
:102720008091200181608093200180917A008460F3
:1027300080937A0080917A00826080937A00809101
:102740007A00816080937A0080917A00806880931B
:102750007A001092C10060E082E30E940F0960E0FD
:1027600080E30E940F0961E08CE20E940F09EDEC0A
:10277000FCE063EC79E04DE45BE080E090E0108207
:10278000118212821382DF01B3951D921D921D9258
:102790001C921397B3951D921D921D921C92139734
:1027A000DB011D921D92BD019C012D53364FD901B5
:1027B000A058BF4F11961C921E92A058BF4F1D9259
:1027C0001C92DA011D921D92AD019C01235B344FD6
:1027D000D901A058BF4F11961C921E92A058BF4F0E
:1027E0001D921C92349602968038910541F6109203
:1027F000B1031092B00310927010109292101092C8
:102800006E1081E080936D101092481061E084E1B9
:102810000E94E00861E085E10E94E0088091B90033
:102820008E7F8093B9008091B9008D7F8093B9002D
:1028300088E48093B80085E48093BC008CE08093AA
:10284000B800E091A310F091A41082E08083E091A1
:102850009F10F091A0101082E091A110F091A210B1
:1028600080E180831092AB10E091A710F091A81046
:1028700086E08083E091A510F091A61080818061B0
:102880008083E091A510F091A610808188608083FC
:10289000E091A510F091A610808180688083E0917E
:1028A000A510F091A61080818F7D808386E99AE043
:1028B0009DDB28EE33E04FE551E165E780915E1145
:1028C00044DD80915F11843319F08AE49AE002C0FC
:1028D00084E69AE08BDB82E89AE088DB21E047E03F
:1028E0006BE680915E11E6D96EE170E080E090E0E9
:1028F0000E944B0920E046E06BE680915E11DAD938
:1029000040E76DE680915E117DD886E032DC40E0E4
:102910006DE680915E1176D828EE33E04FE551E107
:1029200060E080915E1111DD80905F1128EE33E050
:102930004FE551E161E080915E1107DD90905F11FC
:1029400028EE33E04FE551E162E080915E11FDDC5D
:10295000A0905F114FE765E280915E1153D820E0AF
:1029600045E06AE680915E11A5D948E665E280916E
:102970005E1148D821E041E06AE680915E119AD963
:1029800064E170E080E090E00E944B0901E020E00B
:1029900040E069E877E085E292E0F0DB882309F423
:1029A000AFC288E090E00E946727B82E192FE12C73
:1029B000F12CF701EB59FE4F4491F701EA59FE4F14
:1029C00024916701B3E0CB0ED11CF701E959FE4F0A
:1029D000E491EE23C9F1EE2EF12CE330D8F0B701EB
:1029E0008B2D912FC653DF4F2883CA5CD040C7532D
:1029F000DF4F4883C95CD0400E949428B82E192F1D
:102A0000C753DF4F4881C95CD040C653DF4F288190
:102A1000CA5CD040AB2DB12F80E090E08E159F05B1
:102A200048F4F601E80FF91FEB59FE4FE491ED93DE
:102A30000196F4CF00E0B7018B2D912F9FDBEC0CBA
:102A4000FD1C811117C010C0E4E0EE0EF11CF60170
:102A5000EB59FE4FE491E13039F442E368E38091B1
:102A60005E110E94020D06C08B2D912F0E94FC2743
:102A700012E047C2F0ECEF16F10408F49ACF8B2D68
:102A8000912F0E94FC2703E023E042E06BE6809157
:102A90005E11C7D842E168E380915E110E94020D89
:102AA00044E069E180915E110E94020D01E023E0A3
:102AB00045E06AE180915E11B4D803E023E042E092
:102AC0006AE180915E11ADD822E044E06BE1809133
:102AD0005E11A7D843E060E780915E110E94020D6D
:102AE00040E061E780915E110E94020D20E040E02D
:102AF00060E080915E11DED8082D26E046E060E0BF
:102B000080915E118ED8092D26E046E061E080912B
:102B10005E1187D80A2D26E046E062E080915E11C2
:102B200080D8E12CF12CF701EA5CFE4FE491A1E89A
:102B3000B0E0AC0FBD1FAE0DB11DEC9381E08E0D6A
:102B40002FEFE21AF20A33E03E1568F7CD57DF4F58
:102B50006881C358D04070E09B012E5F3F4F90E0EA
:102B60002817390704F700E0CE57DF4F2881C258F5
:102B7000D040CF57DF4F4881C158D04081E890E026
:102B80008C0F9D1F0396FADA80E0F701EA5CFE4F96
:102B9000E491A1E8B0E0AC0FBD1FA80FB11DEC930C
:102BA0008F5F4FEFE41AF40A843078F3CD57DF4F8C
:102BB0006881C358D04070E0AB014E5F5F4F282F53
:102BC00030E0421753070CF700E0CE57DF4F288163
:102BD000C258D040CF57DF4F4881C158D04081E81C
:102BE00090E08C0F9D1F0396C9DABDDA95DB682F44
:102BF000CE0101967FDB42E06FE180915E110E9481
:102C0000020D4CE961E280915E110E94020D40E5E7
:102C100060E280915E110E94020D40E062E28091CC
:102C20005E110E94020D9FDA21E046E06AE6809183
:102C30005E1140D821E047E06AE680915E113AD803
:102C400021E043E06AE680915E1134D880E0F7012C
:102C5000EA5CFE4FE491A1E8B0E0AC0FBD1FA80F05
:102C6000B11DEC938F5F5FEFE51AF50A843078F3BE
:102C7000CD57DF4F6881C358D04070E0AB014E5F45
:102C80005F4F282F30E0421753070CF700E0CE5774
:102C9000DF4F2881C258D040CF57DF4F4881C158FD
:102CA000D04081E890E08C0F9D1F039667DA80E0AA
:102CB000F701EA5CFE4FE491A1E8B0E0AC0FBD1F64
:102CC000A80FB11DEC938F5F9FEFE91AF90A8430CA
:102CD00078F3CD57DF4F6881C358D04070E0AB0127
:102CE0004E5F5F4F282F30E0421753070CF700E08C
:102CF000CE57DF4F2881C258D040CF57DF4F488191
:102D0000C158D04081E890E08C0F9D1F039636DAC1
:102D100080E0F701EA5CFE4FE491A1E8B0E0AC0F7F
:102D2000BD1FA80FB11DEC938F5FAFEFEA1AFA0A2F
:102D3000843078F3CD57DF4F6881C358D04070E0BE
:102D4000AB014E5F5F4F282F30E0421753070CF75F
:102D500000E0CE57DF4F2881C258D040CF57DF4F19
:102D60004881C158D04081E890E08C0F9D1F0396A8
:102D700005DAD2DA83309105E0F3682FCE010196AF
:102D8000B9DA80E0F701EA5CFE4FE491A1E8B0E037
:102D9000AC0FBD1FA80FB11DEC938F5FBFEFEB1AF7
:102DA000FB0A843078F3CD57DF4F3880C358D040CA
:102DB000832C912CA4014E5F5F4F282F30E04217E7
:102DC000530704F7CE57DF4FB880C258D040CF57D3
:102DD000DF4F2880C158D040422D4F716DE6809161
:102DE0005E110E94020D8B2DC4D9C12CD12C612CF7
:102DF0007724739461E8462E512C4C0E5D1EE3E05F
:102E00004E0E511CC814D90490F5C6014096881680
:102E1000990618F4A32CAC1802C040E1A42E8A2D08
:102E200090E093012B1931092817390714F4AB2CC2
:102E3000A19492012C0D3D1D08EE13E04A2D6FE682
:102E400080915E110E94110DCA0CD11CBA0CC814DD
:102E5000D904C0F6B11001C02394422D4F716DE624
:102E600080915E110E94020D8B2D83D9CBCF54DA55
:102E700083309105E0F3682FCE0101963BDAF7012C
:102E8000EA5CFE4F80E09491A1E8B0E0AC0FBD1F7A
:102E9000A80FB11D9C938F5F843010F43196F3CF4F
:102EA000CD57DF4F6881C358D04070E0AB014E5F13
:102EB0005F4F282F30E04217530784F700E0CE57CA
:102EC000DF4F2881C258D040CF57DF4F4881C158CB
:102ED000D04081E890E08C0F9D1F03964FD920E0F1
:102EE00047E06AE680915E110E945A0E8AE290E005
:102EF000909361118093601136D921D910E001C0FF
:102F000011E01093B30343E85CEE66E080915E113C
:102F10000E94D90C45E454E068E080915E110E9463
:102F2000D90C4BEB54E06AE080915E110E94D90C01
:102F30004BE250E063E180915E110E94D90C49EFB1
:102F40005FEF65E180915E110E94D90C4DED5FEF5E
:102F500067E180915E110E94D90C11112BC08AE3A8
:102F60009AE044D821E047E06AE680915E110E9431
:102F70005A0E8BEF99E03AD888E997E090930102D6
:102F80008093000280916A00836080936A00EC9ACB
:102F9000D6D880933D0881ED99E028D881E08093D0
:102FA0003E0880916011909161119093440B809341
:102FB000430B0EC080EB99E00E94D50F6091B303E4
:102FC00070E080E090E04AE01DD88EEA99E00ED8EB
:102FD0000E9483096093470B7093480B8093490BC1
:102FE00090934A0B22242A94322C8091B2038111AF
:102FF0000CC02091450B3091460B8091430B909172
:10300000440B2817390708F425C580913E0888230A
:1030100009F4CDC41092B20392D8182F80933D08C2
:103020007BD99093460B8093450B14FD03C081150B
:10303000944031F498D884EB9AE00E94F60FB7C41C
:1030400011FFB5C40091450B1091460BE090430B66
:10305000F090440B0E151F0530F45ED99093460B8B
:103060008093450BEFCF6E2D8DEF97E043D90E196E
:103070001F091093460B0093450B0091010810E0C7
:10308000102F002780910208082BC0900508D12C32
:10309000DC2CCC2480910608C82AE0900908F12C89
:1030A000FE2CEE2480910A08E82A6091FD0770E06A
:1030B000762F66278091FE07682B072E000C880B61
:1030C000990B0E94C62520E030E040E858E30E94BA
:1030D000A6262B013C0160934E1170934F118093F3
:1030E000501190935111B801110F880B990B0E9448
:1030F000C62520E030E040E858E30E94A6264B01B8
:103100005C0160935211709353118093541190930A
:103110005511B601DD0C880B990B0E94C62520E0E5
:1031200030E040E858E30E94A626CF55DF4F688381
:1031300079838A839B83C15AD040609356117093E0
:1031400057118093581190935911B701FF0C880BB8
:10315000990B0E94C62520E030E040E858E30E9429
:10316000A626CB55DF4F688379838A839B83C55A14
:10317000D04060935A1170935B1180935C119093CF
:103180005D119B01AC01C501B4010E94A6266B0133
:103190007C01CF55DF4F288139814A815B81C15A3B
:1031A000D040C301B2010E94A6269B01AC01C70119
:1031B000B6010E9460249B01AC010E946124C755A6
:1031C000DF4F688379838A839B83C95AD040609399
:1031D0003011709331118093321190933311A50106
:1031E0009401C301B2010E94A6266B017C01CB555C
:1031F000DF4F288139814A815B81C55AD040CF5544
:10320000DF4F688179818A819B81C15AD0400E94B9
:10321000A6269B01AC01C701B6010E9461249B0157
:10322000AC010E946124C355DF4F688379838A8390
:103230009B83CD5AD04060933411709335118093A5
:10324000361190933711A3019201C301B2010E947C
:10325000A6266B017C01A5019401C501B4010E9461
:10326000A6269B01AC01C701B6010E9460246B0138
:103270007C01CF55DF4F288139814A815B81C15A5A
:10328000D040CA01B9010E94A6269B01AC01C7012A
:10329000B6010E9460246B017C01CB55DF4F288171
:1032A00039814A815B81C55AD040CA01B9010E9467
:1032B000A6269B01AC01C701B6010E946124C75438
:1032C000DF4F688379838A839B83C95BD040609397
:1032D00038117093391180933A1190933B11A301E7
:1032E0009201C301B2010E9461246B017C01A5011E
:1032F0009401C501B4010E946124CF54DF4F68835B
:1033000079838A839B83C15BD040A3019201C7016B
:10331000B6010E94A626CB54DF4F688379838A8347
:103320009B83C55BD040A5019401CF54DF4F6881DA
:1033300079818A819B81C15BD0400E94A6269B0136
:10334000AC01CB54DF4F688179818A819B81C55B59
:10335000D0400E94612420E030E040E85FE30E941A
:103360006024CB54DF4F688379838A839B83C55B5A
:10337000D040CF55DF4F288139814A815B81C15AC6
:10338000D040CF54DF4F688179818A819B81C15BB6
:10339000D0400E94A626CF54DF4F688379838A836A
:1033A0009B83C15BD040CB55DF4F288139814A8157
:1033B0005B81C55AD040C701B6010E94A6269B0179
:1033C000AC01CF54DF4F688179818A819B81C15BD9
:1033D000D0400E946024CB54DF4F288139814A813C
:1033E0005B81C55BD0400E94D424C354DF4F688307
:1033F00079838A839B83CD5BD0406093F107709380
:10340000F2078093F3079093F407C754DF4F2881A6
:1034100039814A815B81C95BD040CA01B9010E94F0
:10342000A6266B017C01C355DF4F288139814A8173
:103430005B81CD5AD040CA01B9010E94A626A701DE
:1034400096010E9461240E940D279B01AC01C75583
:10345000DF4F688179818A819B81C95AD0400E945F
:103460002B250E94FF24CF53DF4F688379838A8303
:103470009B83C15CD0406093F5077093F6078093FF
:10348000F7079093F807C755DF4F288139814A81A4
:103490005B81C95AD040CA01B9010E94A626A70182
:1034A00096010E9461240E940D279B01AC01C35527
:1034B000DF4F688179818A819B81CD5AD0400E94FB
:1034C0002B250E94FF24CB53DF4F688379838A83A7
:1034D0009B83C55CD0406093F9077093FA07809393
:1034E000FB079093FC078091190890E0982F88279C
:1034F00020911A08AC01422BCF54DF4F59834883E7
:10350000C15BD040509349114093481180911D08F0
:1035100090E0982F882720911E08DC01A22BCB5425
:10352000DF4FB983A883C55BD040B0934B11A09304
:103530004A118091210890E0982F88272091220835
:103540001C01222A30924D1120924C11BA01550FC4
:10355000880B990B0E94C6256B017C0120E030E0AE
:1035600040E056E4C755DF4F688179818A819B81AD
:10357000C95AD0400E94A6269B01AC01C701B601E2
:103580000E9460240E949325C755DF4F688379838A
:103590008A839B83C95AD040C755DF4FE881F981A0
:1035A000C95AD040F0934311E0934211CB54DF4FFE
:1035B00028813981C55BD040B901330F880B990B45
:1035C0000E94C6256B017C0120E030E040E056E41B
:1035D000C355DF4F688179818A819B81CD5AD04064
:1035E0000E94A6269B01AC01C701B6010E9460247F
:1035F0000E9493256B017C017093451160934411E7
:10360000B101032C000C880B990B0E94C625C355F1
:10361000DF4F688379838A839B83CD5AD04020E033
:1036200030E040E056E4C754DF4F688179818A81F9
:103630009B81C95BD0400E94A6269B01AC01C3556B
:10364000DF4F688179818A819B81CD5AD0400E9469
:1036500060240E949325C355DF4F688379838A8352
:103660009B83CD5AD040C355DF4F48815981CD5AF5
:10367000D040509347114093461186E0E2E4F1E1D7
:10368000ACE3B1E101900D928A95E1F7CF57DF4F9E
:10369000188219821A821B82C158D040C755DF4F49
:1036A000A881B981C95AD040BD01BB0F880B990BC5
:1036B0000E94C625CB57DF4F688379838A839B831B
:1036C000C558D040B601DD0C880B990B0E94C62569
:1036D000C757DF4F688379838A839B83C958D0405B
:1036E000C355DF4FE881F981CD5AD040BF01FF0FAC
:1036F000880B990B0E94C625C357DF4F68837983D7
:103700008A839B83CD58D0402DB73EB720513109D5
:103710000FB6F8943EBF0FBE2DBFADB7BEB7119622
:1037200080E1FE01EF57FF4F01900D928A95E1F77E
:103730006EE471E1CE018F569F4F0E94310B80E104
:10374000FE01EF56FF4FDE01AF57BF4F01900D92C4
:103750008A95E1F749825A826B827C82D501C40145
:10376000B0588D839E83AF83B887CF55DF4F888154
:103770009981AA81BB81C15AD040B05889879A8764
:10378000AB87BC87CB55DF4F88819981AA81BB81EC
:10379000C55AD040B0588D879E87AF87B88B4DB73C
:1037A0005EB7405151090FB6F8945EBF0FBE4DBFD2
:1037B000ADB7BEB7119680E1FE01319601900D9232
:1037C0008A95E1F7BE016F577F4FCE018F569F4F0D
:1037D0000E94310B80E1FE01EF56FF4FDE01AF5733
:1037E000BF4F01900D928A95E1F7CB57DF4F68816B
:1037F00079818A819B81C558D0400E9493252B01F5
:103800003C0170933D1160933C11C757DF4F6881B5
:1038100079818A819B81C958D0400E9493254B01B0
:103820005C0170933F1160933E11C357DF4F688175
:1038300079818A819B81CD58D0400E9493256B016C
:103840007C0170934111609340118091CD0F909154
:10385000CE0F01960FB6F894DEBF0FBECDBF8034F9
:10386000910529F09093CE0F8093CD0F04C0109254
:10387000CE0F1092CD0FE091CD0FF091CE0FCF551E
:10388000DF4FF983E883C15AD0408F01000F111F29
:10389000000F111F0353134F20E030E044E353E4C3
:1038A000C354DF4F688179818A819B81CD5BD04091
:1038B0000E94A6262BED3FE049E450E40E942B2510
:1038C000D8016D937D938D939C931397F801F39595
:1038D000CB55DF4FF983E883C55AD04020E030E074
:1038E00044E353E4CF53DF4F688179818A819B8120
:1038F000C15CD0400E94A6262BED3FE049E450E495
:103900000E942B25CB55DF4FA881B981C55AD040E5
:103910006D937D938D939C9313971E5F20E030E011
:1039200044E353E4CB53DF4F688179818A819B81E3
:10393000C55CD0400E94A6262BED3FE049E450E450
:103940000E942B25F8016083718382839383CF5576
:10395000DF4F28813981C15AD040220F331FD9014E
:10396000AD53B64F11965C924E92CD0180589F4F49
:10397000FC0191828082B395CD92DC92F901ED5BDE
:10398000F74FCF54DF4F28813981C15BD04031835D
:103990002083DF01A058BF4FCB54DF4F48815981AE
:1039A000C55BD0404D935C93F395318220820091AA
:1039B000CD0F1091CE0F0115110519F0C801019717
:1039C00002C08FE390E0880F991FFC01E35BF34F87
:1039D000E080F18000581F4F000F111FF801ED53D8
:1039E000F64F6081718184E19EEAA7E4BFE3809392
:1039F0003F0890934008A0934108B0934208035BAE
:103A0000144F072E000C880B990B0E94C6252EEA36
:103A100037E441E65EE30E94A6264B015C01B70154
:103A2000FF0C880B990B0E94C62524E13EEA47E46F
:103A30005FE30E94A6269B01AC01C501B40141D7FA
:103A40000E949325D8016D937C931092D10F0E9410
:103A5000E406C8CA84E30E94B8089093D70F809305
:103A6000D60F8091D40F9091D50F9093D30F809360
:103A7000D20F82E30E94B8088C018091B403909128
:103A8000B503892BE9F401301105D1F480E30E94DC
:103A9000B8082091D40F3091D50F892B39F42F3FDE
:103AA000FFE73F0769F02F5F3F4F06C0213040E836
:103AB000340731F0215031093093D50F2093D40FC2
:103AC0001093B5030093B4038091D10F81118CC47E
:103AD0008091CF0F9091D00F8430910509F02EC2C4
:103AE0000091D60F1091D70F8091CD0F9091CE0FEE
:103AF000CB55DF4F99838883C55AD040880F991FD3
:103B0000880F991FCF55DF4F99838883C15AD040C2
:103B1000FC01E353F24FC080D180E280F38020E0CB
:103B200030E0A901C701B6010E949B26181664F077
:103B3000A70196015058C755DF4F288339834A8320
:103B40005B83C95AD04008C0C755DF4FC882D982AD
:103B5000EA82FB82C95AD040CF55DF4FE881F98114
:103B6000C15AD040E353F14F80809180A280B3804E
:103B700020E030E0A901C501B4010E949B26A50107
:103B8000940118160CF050584090C1045090C20493
:103B90006090C3047090C404C755DF4F6881798179
:103BA0008A819B81C95AD0408CD6A301920188D6C4
:103BB00020E030E0A9010E949B2620E030E0A9012E
:103BC000181614F5C701B6010E949B26181624F09A
:103BD000F7FAF094F7F8F09420E030E0A901C5017D
:103BE000B4010E949B26181624F0B7FAB094B7F8D7
:103BF000B094A5019401C701B60163D6A301920157
:103C00005FD64B015C0125C0C701B6010E949B260F
:103C1000181624F0F7FAF094F7F8F09420E030E06A
:103C2000A901C501B4010E949B26181624F0B7FA19
:103C3000B094B7F8B094A5019401C701B60141D67C
:103C4000A30192013DD64B015C01B7FAB094B7F8DD
:103C5000B094CF55DF4FE881F981C15AD040EF537E
:103C6000FC4F80829182A282B382E0901402F09095
:103C700015023FEFE316F30609F068C08091C00318
:103C80000115110539F4811116C084E492E00E94F7
:103C9000FE11A7C30130110571F481110CC080928F
:103CA000C1049092C204A092C304B092C40441E043
:103CB0004093C00396C3882309F493C320E030E007
:103CC00040EF51E4C501B401C2D61816C4F061E05A
:103CD0008CE20E94E0088EE792E00E940A12809136
:103CE000BE039091BF030E94D1118091BE039091B9
:103CF000BF0301969093BF038093BE030CC060E0A6
:103D00008CE20E94E0081092BF031092BE038CE880
:103D100092E00E94FE118091BE039091BF03843611
:103D200091050CF45EC310921502109214021092C9
:103D3000BF031092BE0383EB92E00E940A128091AF
:103D40001402909115020E94D1114BC30115110567
:103D500009F0DFC0CB55DF4FE881F981C55AD0406B
:103D6000EE0FFF1FE35BF34F008111812091BA0337
:103D70003091BB034091BC035091BD03C501B40118
:103D8000DAD7181644F48092BA039092BB03A0923B
:103D9000BC03B092BD038091B903811139C00C3AC4
:103DA0001E4F8CF58091BE039091BF0301969093B6
:103DB000BF038093BE03C2970CF489C020E030E0BB
:103DC00040E752E46091BA037091BB038091BC0359
:103DD0009091BD03B0D718160CF079C081EC92E039
:103DE0000E94FE1181E08093B9038093B80320E024
:103DF00030E044EB52E420931002309311024093E0
:103E00001202509313021092BF031092BE035FC0C0
:103E100020E030E04CE052E4C501B40118D687FF41
:103E200056C08091B803882309F451C02091100234
:103E3000309111024091120250911302C501B40158
:103E40007AD718160CF043C03FEFE31AF30AF0924A
:103E50001502E09214021092B8031092B9038BEC91
:103E600092E00E940A1280911402909115020E9421
:103E70000B1282ED92E00E940A126091BA037091D7
:103E8000BB038091BC039091BD0342E00E9461128C
:103E90008BED92E00E94C40F1092BA031092BB0304
:103EA0001092BC031092BD038091140290911502F0
:103EB0002091B6033091B7032817390744F4909343
:103EC000B7038093B6038EED92E00E94FE11CF55AA
:103ED000DF4FE881F981C15AD040EF53FC4FC080D9
:103EE000D180E280F3802091100230911102409144
:103EF000120250911302C701B601A9D587FF71C202
:103F0000C0921002D0921102E0921202F0921302BB
:103F100068C20130110509F064C230921502209286
:103F2000140247E050E05093D00F4093CF0F84E04D
:103F300090E090934C0B80934B0B53C285309105CE
:103F400009F0BFC10091CD0F1091CE0F80911602E4
:103F500090911702019641F41092170210921602E6
:103F60008FEF92E00E94FE1180911602909117024D
:103F700088970CF08EC18090590690905A06A090B8
:103F80005B06B0905C067801EE0CFF1CF701E35B6A
:103F9000F34F608171818091570690915806681B9C
:103FA000790B072E000C880B990BF0D52AE037ED22
:103FB00043E25CE3CBD69B01AC01C501B40181D4E3
:103FC0002B013C0160935306709354068093550671
:103FD000909356062AE037ED43E25CE3C501B40155
:103FE000B5D620914F063091500640915106509120
:103FF000520667D44B015C012AE037ED43EA5BE3EC
:10400000C301B201A3D69B01AC01C501B40159D4CF
:104010004B015C0160934F067093500680935106EC
:10402000909352064092590650925A0660925B064F
:1040300070925C06F701E153FA4F6F01C301B201C0
:1040400072D5D6016D937C932091CB043091CC0432
:104050004091CD045091CE04C501B4016CD687FDCA
:1040600008C08092CB049092CC04A092CD04B09270
:10407000CE042091C7043091C8044091C9045091E6
:10408000CA04C501B401E3D4181644F08092C704F1
:104090009092C804A092C904B092CA0442E0C5013B
:1040A000B4010E9461128DE093E00E940A126091B7
:1040B000530670915406809155069091560642E041
:1040C0000E9461128DE093E00E940A12F701E35B07
:1040D000F34F6F01808191810E940B128DE093E07C
:1040E0000E940A1280911602909117020E940B12F0
:1040F000D6012D913C91B9016C5F7F4FD901149786
:10410000C80144E050E01816190614F4019702C0E3
:104110008FE390E0FC01EE0FFF1FE35BF34F019094
:10412000F081E02D6E177F0774F0EA17FB075CF053
:104130004150510941F73093580620935706CC243B
:10414000C394D12C02C0C12CD12CF701E153FA4FFA
:10415000808191818D599F4F873C910528F123E003
:1041600030E080E090E0101611061CF401501109B7
:1041700002C00FE310E0F801EE0FFF1FE153FA4F0A
:1041800040815181840F951F2150310961F70097BB
:1041900059F063E070E043D31616170644F0672B1E
:1041A00049F40FEF1FEF08C000E010E005C008EC75
:1041B00010E002C008E31FEF20E030E046E953E4DE
:1041C0006091CB047091CC048091CD049091CE0489
:1041D000B2D51816A4F58091C5049091C604883311
:1041E0009F4F69F50833EFEF1E0749F11092CB049A
:1041F0001092CC041092CD041092CE0410924F066F
:1042000010925006109251061092520610925306C8
:1042100010925406109255061092560610925906A6
:1042200010925A0610925B0610925C06809116025C
:1042300090911702019690931702809316021093A3
:10424000C6040093C5048DE093E00E940A12C801E1
:104250000E94D111CA94CD28E1F410924F06109219
:104260005006109251061092520610925906109262
:104270005A0610925B0610925C061092530610923A
:10428000540610925506109256061092C6041092CB
:10429000C5048091160290911702889709F0A1C079
:1042A000309217022092160227E030E03093D00FB0
:1042B0002093CF0F45E050E050934C0B40934B0BB5
:1042C00090C0069709F08DC00091CD0F1091CE0FD0
:1042D0008091180290911902019641F410921902EE
:1042E0001092180280E193E00E94FE118091180262
:1042F00090911902853091050CF061C08090E10722
:104300009090E207A090E307B090E407F801EE0F69
:10431000FF1FE35BF34F60817181072E000C880B58
:10432000990B34D42AE037ED43E25CE30FD59B01CF
:10433000AC01C501B401C5D26B017C016093DD07FE
:104340007093DE078093DF079093E0072AE037ED54
:1043500043E25CE3C501B401F9D42091E507309153
:10436000E6074091E7075091E807ABD24B015C01AB
:104370002AE037ED43EA5BE3C701B601E7D49B01CE
:10438000AC01C501B4019DD26093E5077093E607C7
:104390008093E7079093E807C092E107D092E20785
:1043A000E092E307F092E407000F111F035A184F41
:1043B000C701B601B8D3D8016D937C9312C005979D
:1043C00081F43092190220921802E7E0F0E0F093B5
:1043D000D00FE093CF0F26E030E030934C0B2093CA
:1043E0004B0B31E03093D10F8091CF0F9091D00FD4
:1043F000009781F48AE193E00E94FE1141E050E0D1
:104400005093D00F4093CF0F10924C0B10924B0B48
:104410000C94F5178130910509F092C00091D40FEA
:104420001091D50F8091D60F9091D70F0097D1F5AD
:104430008091EB0781113DC02091E9073091EA0797
:104440008091EF079091F0070217130724F400976B
:1044500069F0019707C02017310744F482309105B5
:1044600029F001969093F0078093EF078091EF0772
:104470009091F0078130910541F08230910541F033
:10448000892B51F481E493E005C088E493E002C0F5
:1044900085E593E00E94FE111093EA070093E90777
:1044A0000C94F517019729F451E05093EB070C9405
:1044B000F5178091EF079091F0078130910501F198
:1044C0008230910529F1892B79F58DE593E00E94E1
:1044D000FE1160E081E090E02DD783E693E00E943A
:1044E0000A1286E390E01ED7682F70E080E090E02B
:1044F0004AE00E9402108BED92E00E94C40F14C0AB
:104500008CE693E00E94FE1161E082E090E007C03B
:1045100088E793E00E94FE1162E083E090E00AD712
:1045200083E693E00E940A1282E090E09093D00F1D
:104530008093CF0F90934C0B80934B0B0C94F517FB
:104540008230910509F05CC08091D60F9091D70F11
:104550000097E1F58091EE0781113FC02091EC07B3
:104560003091ED078091D40F9091D50F821793076A
:104570004CF480911A0290911B021816190694F4BB
:104580000A970CC0281739076CF480911A02909191
:104590001B02843FA1E09A072CF40A9690931B0219
:1045A00080931A028FE793E00E940A1280911A0208
:1045B00090911B020E94D1118091D40F9091D50F40
:1045C0009093ED078093EC070C94F517019729F46D
:1045D000B1E0B093EE070C94F51760911A0284E0F5
:1045E00090E0A8D6E3E0F0E0F093D00FE093CF0F97
:1045F00022E030E030934C0B20934B0B0C94F517DA
:104600008330910509F058C04091470B5091480BF9
:104610006091490B70914A0B403A5F40610571050A
:1046200030F58AE893E00E940A126091470B70917E
:10463000480B8091490B90914A0B28EE33E040E003
:1046400050E000D1CA01B9014AE00E94021084E999
:1046500093E00E94FE110E9483096093470B7093C0
:10466000480B8093490B90934A0B0C94F517909349
:104670004C0B80934B0B8091EF079091F0078130AA
:10468000910579F08230910579F0892B11F00C9425
:10469000F51744E050E05093D00F4093CF0F0C94A7
:1046A000F51785E090E02DC0A6E0B0E0B093D00F04
:1046B000A093CF0F0C94F517079711F00C94F517F2
:1046C00087E993E00E94FE1105E010E068EE73E0D8
:1046D00080E090E00E944B09C8010E94D111015076
:1046E0001109A1F780914B0B90914C0B85309105EE
:1046F00071F08630910599F08430910511F00C9499
:10470000F5179093D00F8093CF0F0C94F517E6E038
:10471000F0E0F093D00FE093CF0F0C94F51724E066
:1047200030E03093D00F2093CF0F0C94F517E3E9CE
:10473000F0E11382128288EE93E0A0E0B0E084837F
:104740009583A683B78328E232E03183208325EC6A
:1047500030E03587248724EC30E03787268720EC4B
:1047600030E0318B208B21EC30E0338B228B22EC3C
:1047700030E0358B248B26EC30E0378B268B118E86
:10478000128E138E148E28E620935E11EEE4F1E172
:1047900040E050E060E87FE34083518362837383AD
:1047A000148215821682178210861186128613864D
:1047B0001486158616861786E8E4F1E111821082C8
:1047C0001382128215821482E2E4F1E111821082D6
:1047D0001382128215821482ECE3F1E111821082BD
:1047E0001382128215821482E0E3F1E110821182B9
:1047F0001282138214821582168217821086118605
:1048000012861386E1E7F1E1138212828483958395
:10481000A683B78388E392E091838083089597FB12
:10482000072E16F4009406D077FD08D035D007FC8B
:1048300005D03EF4909581959F4F089570956195B0
:104840007F4F0895A1E21A2EAA1BBB1BFD010DC0CC
:10485000AA1FBB1FEE1FFF1FA217B307E407F50730
:1048600020F0A21BB30BE40BF50B661F771F881F0C
:10487000991F1A9469F760957095809590959B01A2
:10488000AC01BD01CF010895EE0FFF1F881F8BBF44
:104890000790F691E02D1994AA1BBB1B51E107C0AC
:1048A000AA1FBB1FA617B70710F0A61BB70B881FC0
:1048B000991F5A95A9F780959095BC01CD0108954F
:1048C0005058BB27AA270ED0FCC1EDD130F0F2D151
:1048D00020F031F49F3F11F41EF4BDC10EF4E095B9
:1048E000E7FBB3C1E92FFED180F3BA176207730764
:1048F0008407950718F071F49EF516C20EF4E09542
:104900000B2EBA2FA02D0B01B90190010C01CA0189
:10491000A0011124FF27591B99F0593F50F4503E34
:1049200068F11A16F040A22F232F342F4427585F26
:10493000F3CF469537952795A795F0405395C9F73E
:104940007EF41F16BA0B620B730B840BBAF09150F6
:10495000A1F0FF0FBB1F661F771F881FC2F70EC095
:10496000BA0F621F731F841F48F487957795679568
:10497000B795F7959E3F08F0B3CF9395880F08F051
:104980009927EE0F9795879508958DD158F080E877
:1049900091E009F49EEF8ED128F040E851E059F4FF
:1049A0005EEF09C058C1C0C1E92FE0789BD168F320
:1049B000092E052AC1F3261737074807590738F08B
:1049C0000E2E07F8E02569F0E025E0640AC0EF63E9
:1049D00007F8009407FADB01B9019D01DC01CA0167
:1049E000AD01EF9347D06DD10AD05F91552331F0DF
:1049F0002BED3FE049E450FD49EC63CF0895DF9390
:104A0000DD27B92FBF7740E85FE316161706480782
:104A10005B0710F4D92F93D19F938F937F936F935C
:104A20003AD2E8E0F1E01AD14CD12F913F914F9169
:104A30005F9198D1DD2349F09058A2EA2AED3FE03A
:104A400049EC5FE3D0785D274DDFDF913AC1D9D0E3
:104A500008F481E008950CD034C12CD140F023D16A
:104A600030F021F45F3F19F0F0C051115EC1F3C086
:104A700039D198F39923C9F35523B1F3951B550BFD
:104A8000BB27AA2762177307840738F09F5F5F4F21
:104A9000220F331F441FAA1FA9F333D00E2E3AF062
:104AA000E0E830D091505040E695001CCAF729D07C
:104AB000FE2F27D0660F771F881FBB1F26173707CB
:104AC0004807AB07B0E809F0BB0B802DBF01FF27FB
:104AD00093585F4F2AF09E3F510568F0B6C025C13C
:104AE0005F3FECF3983EDCF3869577956795B79535
:104AF000F7959F5FC9F7880F911D9695879597F950
:104B00000895E1E0660F771F881FBB1F62177307C8
:104B10008407BA0720F0621B730B840BBA0BEE1FDD
:104B200088F7E095089504D06894B111FEC0089507
:104B3000E1D088F09F5790F0B92F9927B751A0F096
:104B4000D1F0660F771F881F991F1AF0BA95C9F721
:104B500012C0B13081F0E8D0B1E00895E5C0672F10
:104B6000782F8827B85F39F0B93FCCF386957795D1
:104B70006795B395D9F73EF49095809570956195BA
:104B80007F4F8F4F9F4F0895E89409C097FB3EF4E5
:104B900090958095709561957F4F8F4F9F4F99238A
:104BA000A9F0F92F96E9BB279395F6958795779508
:104BB0006795B795F111F8CFFAF4BB0F11F460FFC8
:104BC0001BC06F5F7F4F8F4F9F4F16C0882311F020
:104BD00096E911C0772321F09EE8872F762F05C034
:104BE000662371F096E8862F70E060E02AF09A95CF
:104BF000660F771F881FDAF7880F9695879597F9C4
:104C00000895990F0008550FAA0BE0E8FEEF16165D
:104C10001706E807F907C0F012161306E407F507B0
:104C200098F0621B730B840B950B39F40A2661F024
:104C3000232B242B252B21F408950A2609F4A140C7
:104C4000A6958FEF811D811D089597F99F6780E8D4
:104C500070E060E008959FEF80EC0895DF93CF93BC
:104C60001F930F93FF92EF92DF927B018C01689468
:104C700005C0DA2EEF0176D0FE01E894A5912591CA
:104C8000359145915591AEF3EF012CDEFE01970170
:104C9000A801DA9479F7DF90EF90FF900F911F91C0
:104CA000CF91DF91089500240A941616170618066E
:104CB0000906089500240A94121613061406050620
:104CC0000895092E0394000C11F4882352F0BB0FB1
:104CD00040F4BF2B11F460FF04C06F5F7F4F8F4F14
:104CE0009F4F089557FD9058440F551F59F05F3F4F
:104CF00071F04795880F97FB991F61F09F3F79F0FE
:104D000087950895121613061406551FF2CF46957F
:104D1000F1DF08C0161617061806991FF1CF869501
:104D20007105610508940895E894BB2766277727E5
:104D3000CB0197F9089565DF08F48FEF08959B0183
:104D4000AC0160E070E080E89FE385CE0BD0B9CF86
:104D5000AADF28F0AFDF18F0952309F076CF7BCFDC
:104D60001124E3CFBFDFA0F3959FD1F3950F50E05F
:104D7000551F629FF001729FBB27F00DB11D639F0D
:104D8000AA27F00DB11DAA1F649F6627B00DA11DB3
:104D9000661F829F2227B00DA11D621F739FB00D59
:104DA000A11D621F839FA00D611D221F749F3327C9
:104DB000A00D611D231F849F600D211D822F762F62
:104DC0006A2F11249F5750408AF0E1F088234AF05F
:104DD000EE0FFF1FBB1F661F771F881F91505040AB
:104DE000A9F79E3F510570F030CF9FCF5F3FECF3A6
:104DF000983EDCF3869577956795B795F795E79597
:104E00009F5FC1F7FE2B880F911D9695879597F9A7
:104E1000089511F40EF41FCF45C06CDFD0F3992331
:104E2000D9F3CEF39F57550B87FF4AD00024A0E655
:104E300040EA900180585695979528F4805C660F5B
:104E4000771F881F20F026173707480730F4621BAA
:104E5000730B840B202931294A2BA69517940794AC
:104E6000202531254A2758F7660F771F881F20F025
:104E700026173707480730F4620B730B840B200D9D
:104E8000311D411DA09581F7B901842F9158880FDC
:104E90009695879508959B01AC0158CFB2DE880B9B
:104EA000990B08959F3F31F0915020F487957795A5
:104EB0006795B795880F911D9695879597F90895F1
:104EC00091505040660F771F881FD2F70895CF93F7
:104ED000DF938230910510F482E090E0E0917F1141
:104EE000F091801120E030E0C0E0D0E0309711F187
:104EF0004081518148175907C0F04817590761F49C
:104F000082819381209719F09B838A832BC0909391
:104F1000801180937F1126C02115310519F04217A9
:104F2000530718F49A01BE01DF01EF010280F381FB
:104F3000E02DDCCF2115310509F1281B390B243078
:104F4000310590F412968D919C911397611571051E
:104F500021F0FB019383828304C09093801180939E
:104F60007F11FD01329644C0FD01E20FF31F8193D2
:104F70009193225031092D933C933AC020917D1199
:104F800030917E11232B41F420911E0230911F029B
:104F900030937E1120937D1120911C0230911D02CF
:104FA0002115310541F42DB73EB7409120025091B3
:104FB0002102241B350BE0917D11F0917E11E21747
:104FC000F307A0F42E1B3F0B2817390778F0AC012C
:104FD0004E5F5F4F2417350748F04E0F5F1F509309
:104FE0007E1140937D118193919302C0E0E0F0E047
:104FF000CF01DF91CF9108950F931F93CF93DF934C
:10500000009709F48CC0FC01329713821282009140
:105010007F11109180110115110581F420813181DA
:10502000820F931F20917D1130917E11281739072F
:1050300079F5F0937E11E0937D1171C0D80140E0C5
:1050400050E0AE17BF0750F412962D913C91139784
:10505000AD012115310509F1D901F3CF9D01DA0127
:105060003383228360817181860F971F8217930794
:1050700069F4EC0128813981260F371F2E5F3F4FDD
:10508000318320838A819B8193838283452B29F4FA
:10509000F0938011E0937F1142C01396FC93EE933E
:1050A0001297ED01499159919E01240F351FE21786
:1050B000F30771F480819181840F951F02961196F8
:1050C0009C938E938281938113969C938E931297D7
:1050D000E0E0F0E0D80112968D919C911397009733
:1050E00019F0F8018C01F6CF8D919C9198012E5FFB
:1050F0003F4F820F931F20917D1130917E11281711
:10510000390769F4309729F41092801110927F11B9
:1051100002C01382128210937E1100937D11DF91E1
:10512000CF911F910F9108956F927F928F929F92CE
:10513000AF92BF92CF92DF92EF92FF920F931F93A5
:10514000CF93DF93EC01009781F4CB01DF91CF91F6
:105150001F910F91FF90EF90DF90CF90BF90AF9095
:105160009F908F907F906F90B2CEFC01E60FF71F5B
:105170009C0122503109E217F30708F4A8C0D901B5
:105180000D911C91119706171707A8F0053011050E
:1051900008F49BC0C80104978617970708F495C0C8
:1051A00002501109061B170B019311936D937C9309
:1051B000CF0122DF8AC05B01A01AB10A4C01800E28
:1051C000911EA0917F11B091801140E050E0E12C40
:1051D000F12C109709F44AC0A815B905D1F56D90C6
:1051E0007C901197630182E0C80ED11CCA14DB04C5
:1051F00080F1A3014A195B096A0182E0C80ED11C43
:105200001296BC9012971396AC91B5E0CB16D104D0
:1052100040F0B282A38351834083D9016D937C9384
:105220000AC00E5F1F4FC301800F911FF9019183C8
:105230008083EB2DFA2FE114F10431F0D70113969E
:10524000FC93EE93129741C0F0938011E0937F118D
:105250003CC08D919C9111974817590708F4AC01F7
:105260007D0112960D90BC91A02DB3CF80917D1140
:1052700090917E1188159905E1F446175707C8F4F7
:1052800080911C0290911D02009741F48DB79EB74A
:105290004091200250912102841B950BE817F907D9
:1052A000B0F4F0937E11E0937D11F9017183608376
:1052B0000CC0CB010CDE7C01009749F0A801BE01B7
:1052C00028D0CE0199DEC70104C0CE0102C080E023
:1052D00090E0DF91CF911F910F91FF90EF90DF90C1
:1052E000CF90BF90AF909F908F907F906F900895D8
:1052F00081E090E0F8942CC0FB01DC0104C08D91AA
:105300000190801921F441505040C8F7881B990B37
:105310000895FB01DC0102C001900D924150504004
:10532000D8F70895F999FECF92BD81BDF89A9927D3
:1053300080B50895262FF999FECF1FBA92BD81BD81
:1053400020BD0FB6F894FA9AF99A0FBE0196089507
:04535000F894FFCFFF
:105354009707970797079707970797079707970759
:105364000000B442FFFFFFFFFFFF96000000811121
:105374008000E803000000007D063612470625067B
:105384003906C306000000002908FA079C07E6074F
:10539400D707D6074C6576656C20646576696365C6
:1053A40020616E6420707265737320746865206276
:1053B4007574746F6E20746F2073746F72652063DC
:1053C400616C6962726174696F6E2E2E2E00486F73
:1053D4006C64207374696C6C3A2025006D6F76657B
:1053E4002064657669636520746F206C6576656CEE
:1053F40020706F736974696F6E20746F20626567C3
:10540400696E0052657065746974696F6E733A20D1
:105414000054524947474552454400526570733A17
:1054240020002C20446567727320000D0A007072FE
:105434006576696F7573207265636F726420686145
:1054440073206265656E2062726F6B656E21006207
:10545400656E636870726573732E2E2E002C2000A7
:105464007371756174732E2E2E00526F746174659E
:10547400207570706572206469616C20746F20659A
:105484006E74657220616E206578657263697365F8
:10549400004375726C730D0042656E636820507230
:1054A4006573730D005371756174730D00437572E8
:1054B4006C730054686973206973200042656E63DD
:1054C400682050726573730053717561747300576B
:1054D4006569676874206973200057616974696E2F
:1054E400673A20002F3400636F6F6C646F776E2E01
:1054F4002E2E006E616E00696E66006F7666000087
:020000023000CC
:10E000000D9489F10D94B2F10D94B2F10D94B2F129
:10E010000D94B2F10D94B2F10D94B2F10D94B2F1F0
:10E020000D94B2F10D94B2F10D94B2F10D94B2F1E0
:10E030000D94B2F10D94B2F10D94B2F10D94B2F1D0
:10E040000D94B2F10D94B2F10D94B2F10D94B2F1C0
:10E050000D94B2F10D94B2F10D94B2F10D94B2F1B0
:10E060000D94B2F10D94B2F10D94B2F10D94B2F1A0
:10E070000D94B2F10D94B2F10D94B2F10D94B2F190
:10E080000D94B2F10D94B2F10D94B2F10D94B2F180
:10E090000D94B2F10D94B2F10D94B2F10D94B2F170
:10E0A0000D94B2F10D94B2F10D94B2F10D94B2F160
:10E0B0000D94B2F10D94B2F10D94B2F10D94B2F150
:10E0C0000D94B2F10D94B2F10D94B2F10D94B2F140
:10E0D0000D94B2F10D94B2F10D94B2F10D94B2F130
:10E0E0000D94B2F141546D656761323536300041AF
:10E0F000726475696E6F206578706C6F72657220DE
:10E1000073746B3530305632206279204D4C530099
:10E11000426F6F746C6F616465723E004875683F52
:10E1200000436F6D70696C6564206F6E203D200048
:10E130004350552054797065202020203D20005FF9
:10E140005F4156525F415243485F5F3D2000415658
:10E1500052204C696243205665723D20004743437C
:10E160002056657273696F6E203D20004350552024
:10E1700049442020202020203D20004C6F7720663D
:10E18000757365202020203D20004869676820665F
:10E190007573652020203D200045787420667573D6
:10E1A00065202020203D20004C6F636B2066757336
:10E1B000652020203D20004D617220203720323024
:10E1C000313300312E362E3800342E332E350056A2
:10E1D00023202020414444522020206F7020636F70
:10E1E00064652020202020696E73747275637469E1
:10E1F0006F6E2061646472202020496E74657272B3
:10E20000757074006E6F20766563746F7200726A49
:10E210006D702020006A6D70200057686174207056
:10E220006F72743A00506F7274206E6F7420737541
:10E2300070706F72746564004D7573742062652030
:10E2400061206C6574746572002000577269747483
:10E25000696E672045450052656164696E672045B7
:10E26000450045452065727220636E743D00504F35
:10E27000525400303D5A65726F2061646472003FF1
:10E280003D43505520737461747300403D454550C3
:10E29000524F4D207465737400423D426C696E6B41
:10E2A000204C454400453D44756D70204545505215
:10E2B0004F4D00463D44756D7020464C415348001B
:10E2C000483D48656C70004C3D4C69737420492F83
:10E2D0004F20506F72747300513D51756974005234
:10E2E0003D44756D702052414D00563D73686F7707
:10E2F00020696E7465727275707420566563746FF0
:10E30000727300593D506F727420626C696E6B00BD
:10E310002A0011241FBECFEFD1E2DEBFCDBF01E046
:10E320000CBF12E0A0E0B2E0EEE1FDEF03E00BBFB6
:10E3300002C007900D92A030B107D9F712E0A0E01B
:10E34000B2E001C01D92AE30B107E1F70F9460F367
:10E350000D948DFE01E20EBF0FEF0DBF11241FBE05
:10E360000D9460F30D9400F020E030E040ED57E0B4
:10E3700005C0FA013197F1F72F5F3F4F2817390792
:10E38000C0F308959C01260F311DC901A0E0B0E043
:10E390002F5F3F4FABBFFC018791882361F08093D3
:10E3A000C6008091C00086FFFCCF8091C0008064D1
:10E3B0008093C000EACF08958DE08093C6008091DD
:10E3C000C00086FFFCCF8091C00080648093C000B5
:10E3D0008AE08093C6008091C00086FFFCCF8091C8
:10E3E000C00080648093C00008950F94C2F10F9420
:10E3F000DCF10895FC019081992359F09093C600B7
:10E400008091C00086FFFCCF8091C0008064809323
:10E41000C0003196992379F70895282F982F929567
:10E420009F70892F805D8A3308F0895F8093C600D2
:10E430008091C00086FFFCCF8091C00080648093F3
:10E44000C000822F8F70982F905D9A3308F0995FEB
:10E450009093C6008091C00086FFFCCF8091C000E1
:10E4600080648093C00008959C01FB01853691056E
:10E470001CF46330710594F0C90164E670E00F94F8
:10E480002EFE605D7F4F6093C6008091C00086FFC6
:10E49000FCCF8091C00080648093C0002B30310598
:10E4A00014F43297B4F0C90164E670E00F942EFEC4
:10E4B0006AE070E00F942EFE605D7F4F6093C600AF
:10E4C0008091C00086FFFCCF8091C0008064809363
:10E4D000C000C9016AE070E00F942EFEC0968093E0
:10E4E000C6008091C00086FFFCCF8091C000806490
:10E4F0008093C00008951F93182F8EE692EE60E07F
:10E500000F94C2F11093C6008091C00086FFFCCF2B
:10E510008091C00080648093C0000F94DCF11F9153
:10E5200008952F923F924F925F926F927F928F92B7
:10E530009F92AF92BF92CF92DF92EF92FF920F9392
:10E540001F93DF93CF93CDB7DEB762970FB6F894E2
:10E55000DEBF0FBECDBF382E622ECA01DB015C01CB
:10E560006D01772420E2222E2E010894411C511CBB
:10E570008BC081E0A81680E0B80681E0C80680E084
:10E58000D80628F0C601AA27BB270F940DF2BB2797
:10E59000AD2D9C2D8B2D0F940DF28A2D0F940DF225
:10E5A0002092C6008091C00086FFFCCF8091C00001
:10E5B00080648093C0009DE29093C6008091C0006B
:10E5C00086FFFCCF8091C00080648093C0002092C1
